:04000000E6EF00F037
:100018004380D8CF0FF0E8CF10F0E0CF11F0FACF3F
:1000280012F0FBCF13F0E9CF14F0EACF15F0E1CFCF
:1000380016F0E2CF17F0D9CF18F0DACF19F0F3CFD6
:100048001AF0F4CF1BF0F6CF1CF0F7CF1DF0F8CF65
:100058001EF0F5CF1FF0A4A0A4B201D082D02AECE4
:1000680014F00009D8B47BD0880E016E000E026E21
:1000780031EC0AF0030E0001881900018911000112
:100088008A1100018B11D8A41BD000018C51206E5D
:10009800216A226A236A8DC040F0416A40044110F7
:1000A800D8A405D0FC0E016E7F0E8FEC13F04050E3
:1000B8004110D8A405D0FC0E016EFF0E8FEC13F092
:1000C800000188050001891100018A1100018B11C6
:1000D800D8A409D0000E206E000E216E000E226EEC
:1000E800000E236E8082060E000188190001891116
:1000F80000018A1100018B11D8A415D08DC032F0EF
:10010800336A32500D6E00018C51326E0DC033F0DF
:100118008FC036F0376A36500D6E00018E51366E3C
:100128000DC037F03B80020E0001881900018911CB
:1001380000018A1100018B11D8B406D010D03A8280
:100148000ED03A863A840BD000018C51010AD8B4FB
:10015800F6D7030AD8B4F5D7010AD8B4F3D7A490D0
:10016800A492A1A20BD0010E2426000E252226223D
:100178002722630EB36EC00EB26EA1921FC0F5FFA8
:100188001EC0F8FF1DC0F7FF1CC0F6FF1BC0F4FF20
:100198001AC0F3FF19C0DAFF18C0D9FF17C0E2FF71
:1001A80016C0E1FF15C0EAFF14C0E9FF13C0FBFF4A
:1001B80012C0FAFF11C0E0FF10C0E8FF0FC0D8FF5F
:1001C8004390100048EF13F00001B86F0001B851D8
:1001D8000001D8A458D00001B329D8A454D00F01E5
:1001E8000197AFC0B4F0B0C0B5F0B1C0B6F0B2C0BE
:1001F800B7F0040E06D00001D890B733B633B53344
:10020800B433E82EF8D7B4C0B9F0B5C0BAF0B6C068
:10021800BBF0B7C0BCF00001B9510001B96FBA6BAF
:10022800BB6BBC6BB9C000FF070E0001AF15000126
:10023800B96F000E0001B0150001BA6F000E000181
:10024800B1150001BB6F000E0001B2150001BC6FB3
:10025800B9C0B4F0BAC0B5F0BBC0B6F0BCC0B7F016
:10026800050ED8900001B437B537B637B737E82E42
:10027800F8D7B4C0B9F0B5C0BAF0B6C0BBF0B7C0D3
:10028800BCF0B9C001FF0001B805D8A458D00001DE
:10029800B329D8A454D00F010597AFC0B4F0B0C0AB
:1002A800B5F0B1C0B6F0B2C0B7F0040E06D0000188
:1002B800D890B733B633B533B433E82EF8D7B4C0D3
:1002C800B9F0B5C0BAF0B6C0BBF0B7C0BCF0000119
:1002D800B9510001B96FBA6BBB6BBC6BB9C004FFF5
:1002E800070E0001AF150001B96F000E0001B0152F
:1002F8000001BA6F000E0001B1150001BB6F000EBE
:100308000001B2150001BC6FB9C0B4F0BAC0B5F0B5
:10031800BBC0B6F0BCC0B7F0050ED8900001B4372A
:10032800B537B637B737E82EF8D7B4C0B9F0B5C087
:10033800BAF0B6C0BBF0B7C0BCF0B9C005FF020E3A
:100348000001B819D8A458D00001B329D8A454D0B2
:100358000F010997AFC0B4F0B0C0B5F0B1C0B6F0A6
:10036800B2C0B7F0040E06D00001D890B733B63348
:10037800B533B433E82EF8D7B4C0B9F0B5C0BAF085
:10038800B6C0BBF0B7C0BCF00001B9510001B96FED
:10039800BA6BBB6BBC6BB9C008FF070E0001AF1589
:1003A8000001B96F000E0001B0150001BA6F000E10
:1003B8000001B1150001BB6F000E0001B21500016C
:1003C800BC6FB9C0B4F0BAC0B5F0BBC0B6F0BCC021
:1003D800B7F0050ED8900001B437B537B637B73740
:1003E800E82EF8D7B4C0B9F0B5C0BAF0B6C0BBF0C3
:1003F800B7C0BCF0B9C009FF030E0001B819D8A4F2
:1004080058D00001B329D8A454D00F010D97AFC01C
:10041800B4F0B0C0B5F0B1C0B6F0B2C0B7F0040ED9
:1004280006D00001D890B733B633B533B433E82ECD
:10043800F8D7B4C0B9F0B5C0BAF0B6C0BBF0B7C011
:10044800BCF00001B9510001B96FBA6BBB6BBC6B52
:10045800B9C00CFF070E0001AF150001B96F000EFF
:100468000001B0150001BA6F000E0001B1150001BE
:10047800BB6F000E0001B2150001BC6FB9C0B4F02B
:10048800BAC0B5F0BBC0B6F0BCC0B7F0050ED89086
:100498000001B437B537B637B737E82EF8D7B4C048
:1004A800B9F0B5C0BAF0B6C0BBF0B7C0BCF0B9C0BF
:1004B8000DFF040E0001B819D8A458D00001B329C3
:1004C800D8A454D00F011197AFC0B4F0B0C0B5F0A4
:1004D800B1C0B6F0B2C0B7F0040E06D00001D89093
:1004E800B733B633B533B433E82EF8D7B4C0B9F060
:1004F800B5C0BAF0B6C0BBF0B7C0BCF00001B95186
:100508000001B96FBA6BBB6BBC6BB9C010FF070EAB
:100518000001AF150001B96F000E0001B015000110
:10052800BA6F000E0001B1150001BB6F000E00018B
:10053800B2150001BC6FB9C0B4F0BAC0B5F0BBC009
:10054800B6F0BCC0B7F0050ED8900001B437B53787
:10055800B637B737E82EF8D7B4C0B9F0B5C0BAF097
:10056800B6C0BBF0B7C0BCF0B9C011FF050E0001A2
:10057800B819D8A458D00001B329D8A454D00F0171
:100588001597AFC0B4F0B0C0B5F0B1C0B6F0B2C006
:10059800B7F0040E06D00001D890B733B633B533A0
:1005A800B433E82EF8D7B4C0B9F0B5C0BAF0B6C0C5
:1005B800BBF0B7C0BCF00001B9510001B96FBA6B0C
:1005C800BB6BBC6BB9C014FF070E0001AF1500016F
:1005D800B96F000E0001B0150001BA6F000E0001DE
:1005E800B1150001BB6F000E0001B2150001BC6F10
:1005F800B9C0B4F0BAC0B5F0BBC0B6F0BCC0B7F073
:10060800050ED8900001B437B537B637B737E82E9E
:10061800F8D7B4C0B9F0B5C0BAF0B6C0BBF0B7C02F
:10062800BCF0B9C015FF0001B8510001D8A489D0A9
:10063800F70E0001B319D8A484D00F010187000177
:10064800AF510001B96FBA6BBB6BBC6BB9C003FF8C
:10065800000E0001AF150001B96FFF0E0001B015C3
:100668000001BA6F000E0001B1150001BB6F000E4A
:100678000001B2150001BC6FB9C0B4F0BAC0B5F042
:10068800BBC0B6F0BCC0B7F0B5C0B4F0B6C0B5F0EA
:10069800B7C0B6F00001B76BB4C0B9F0B5C0BAF0D6
:1006A800B6C0BBF0B7C0BCF0B9C002FF0001B1A131
:1006B80003D00F01018102D00F0101910001B1A304
:1006C80003D00F01018302D00F0101930001B1A5EE
:1006D80003D00F01018B02D00F01019B0001B1A7CC
:1006E80003D00F01018D02D00F01019D0001B1A9B6
:1006F80003D00F01018F02D00F01019FAFC0B4F0EA
:10070800B0C0B5F0B1C0B6F0B2C0B7F0160E06D0A2
:100718000001D890B733B633B533B433E82EF8D7E1
:10072800B4C0B9F0B5C0BAF0B6C0BBF0B7C0BCF041
:100738000001B9510001B96FBA6BBB6BBC6BB9C092
:1007480000FF0001B805D8A489D0F70E0001B3193D
:10075800D8A484D00F0105870001AF510001B96FFB
:10076800BA6BBB6BBC6BB9C007FF000E0001AF15BD
:100778000001B96FFF0E0001B0150001BA6F000E3D
:100788000001B1150001BB6F000E0001B215000198
:10079800BC6FB9C0B4F0BAC0B5F0BBC0B6F0BCC04D
:1007A800B7F0B5C0B4F0B6C0B5F0B7C0B6F0000148
:1007B800B76BB4C0B9F0B5C0BAF0B6C0BBF0B7C03B
:1007C800BCF0B9C006FF0001B1A103D00F0105813B
:1007D80002D00F0105910001B1A303D00F010583D9
:1007E80002D00F0105930001B1A503D00F01058BBD
:1007F80002D00F01059B0001B1A703D00F01058DA1
:1008080002D00F01059D0001B1A903D00F01058F8A
:1008180002D00F01059FAFC0B4F0B0C0B5F0B1C0B1
:10082800B6F0B2C0B7F0160E06D00001D890B733B4
:10083800B633B533B433E82EF8D7B4C0B9F0B5C081
:10084800BAF0B6C0BBF0B7C0BCF00001B9510001A6
:10085800B96FBA6BBB6BBC6BB9C004FF020E000169
:10086800B819D8A489D0F70E0001B319D8A484D038
:100878000F0109870001AF510001B96FBA6BBB6B5B
:10088800BC6BB9C00BFF000E0001AF150001B96FBA
:10089800FF0E0001B0150001BA6F000E0001B1157E
:1008A8000001BB6F000E0001B2150001BC6FB9C09A
:1008B800B4F0BAC0B5F0BBC0B6F0BCC0B7F0B5C0B4
:1008C800B4F0B6C0B5F0B7C0B6F00001B76BB4C0AD
:1008D800B9F0B5C0BAF0B6C0BBF0B7C0BCF0B9C08B
:1008E8000AFF0001B1A103D00F01098102D00F0155
:1008F80009910001B1A303D00F01098302D00F01B0
:1009080009930001B1A503D00F01098B02D00F0193
:10091800099B0001B1A703D00F01098D02D00F0177
:10092800099D0001B1A903D00F01098F02D00F0161
:10093800099FAFC0B4F0B0C0B5F0B1C0B6F0B2C056
:10094800B7F0160E06D00001D890B733B633B533DA
:10095800B433E82EF8D7B4C0B9F0B5C0BAF0B6C011
:10096800BBF0B7C0BCF00001B9510001B96FBA6B58
:10097800BB6BBC6BB9C008FF030E0001B819D8A443
:1009880089D0F70E0001B319D8A484D00F010D87C0
:100998000001AF510001B96FBA6BBB6BBC6BB9C03A
:1009A8000FFF000E0001AF150001B96FFF0E000127
:1009B800B0150001BA6F000E0001B1150001BB6F40
:1009C800000E0001B2150001BC6FB9C0B4F0BAC086
:1009D800B5F0BBC0B6F0BCC0B7F0B5C0B4F0B6C097
:1009E800B5F0B7C0B6F00001B76BB4C0B9F0B5C088
:1009F800BAF0B6C0BBF0B7C0BCF0B9C00EFF00017A
:100A0800B1A103D00F010D8102D00F010D9100019A
:100A1800B1A303D00F010D8302D00F010D93000184
:100A2800B1A503D00F010D8B02D00F010D9B000162
:100A3800B1A703D00F010D8D02D00F010D9D00014C
:100A4800B1A903D00F010D8F02D00F010D9FAFC0C8
:100A5800B4F0B0C0B5F0B1C0B6F0B2C0B7F0160E81
:100A680006D00001D890B733B633B533B433E82E87
:100A7800F8D7B4C0B9F0B5C0BAF0B6C0BBF0B7C0CB
:100A8800BCF00001B9510001B96FBA6BBB6BBC6B0C
:100A9800B9C00CFF040E0001B819D8A489D0F70E0C
:100AA8000001B319D8A484D00F0111870001AF51F8
:100AB8000001B96FBA6BBB6BBC6BB9C013FF000EFA
:100AC8000001AF150001B96FFF0E0001B01500015C
:100AD800BA6F000E0001B1150001BB6F000E0001D6
:100AE800B2150001BC6FB9C0B4F0BAC0B5F0BBC054
:100AF800B6F0BCC0B7F0B5C0B4F0B6C0B5F0B7C07A
:100B0800B6F00001B76BB4C0B9F0B5C0BAF0B6C062
:100B1800BBF0B7C0BCF0B9C012FF0001B1A103D04F
:100B28000F01118102D00F0111910001B1A303D06F
:100B38000F01118302D00F0111930001B1A503D059
:100B48000F01118B02D00F01119B0001B1A703D037
:100B58000F01118D02D00F01119D0001B1A903D021
:100B68000F01118F02D00F01119FAFC0B4F0B0C0B8
:100B7800B5F0B1C0B6F0B2C0B7F0160E06D000019D
:100B8800D890B733B633B533B433E82EF8D7B4C0FA
:100B9800B9F0B5C0BAF0B6C0BBF0B7C0BCF0000140
:100BA800B9510001B96FBA6BBB6BBC6BB9C010FF10
:100BB800050E0001B819D8A41200F70E0001B319E8
:100BC800D8A412000F0115870001AF510001B96FB9
:100BD800BA6BBB6BBC6BB9C017FF000E0001AF1539
:100BE8000001B96FFF0E0001B0150001BA6F000EC9
:100BF8000001B1150001BB6F000E0001B215000124
:100C0800BC6FB9C0B4F0BAC0B5F0BBC0B6F0BCC0D8
:100C1800B7F0B5C0B4F0B6C0B5F0B7C0B6F00001D3
:100C2800B76BB4C0B9F0B5C0BAF0B6C0BBF0B7C0C6
:100C3800BCF0B9C016FF0001B1A103D00F011581A6
:100C480002D00F0115910001B1A303D00F01158344
:100C580002D00F0115930001B1A503D00F01158B28
:100C680002D00F01159B0001B1A703D00F01158D0C
:100C780002D00F01159D0001B1A903D00F01158FF6
:100C880002D00F01159FAFC0B4F0B0C0B5F0B1C02D
:100C9800B6F0B2C0B7F0160E06D00001D890B73340
:100CA800B633B533B433E82EF8D7B4C0B9F0B5C00D
:100CB800BAF0B6C0BBF0B7C0BCF00001B951000132
:100CC800B96FBA6BBB6BBC6BB9C014FF12000F01D4
:100CD80040B73FD1B5C045FF0001B6AD03D00F0105
:100CE800458D02D00F01459D0001B6A779D00001BE
:100CF800AF510001BB6FBC6BBD6BBE6BBBC044FF8B
:100D0800000E0001AF150001BB6FFF0E0001B0150A
:100D18000001BC6F000E0001B1150001BD6F000E8F
:100D28000001B2150001BE6FBBC0B7F0BCC0B8F07F
:100D3800BDC0B9F0BEC0BAF0B8C0B7F0B9C0B8F01D
:100D4800BAC0B9F00001BA6BB7C0BBF0B8C0BCF00C
:100D5800B9C0BDF0BAC0BEF0BBC043FF000E0F0162
:100D6800426F0F0142870001B1A102D00F014281F9
:100D78000001B1A302D00F0142830001B1A502D046
:100D88000F01428B0001B1A702D00F01428D000173
:100D9800B1A902D00F01428FAFC0B7F0B0C0B8F010
:100DA800B1C0B9F0B2C0BAF0160E06D00001D890A2
:100DB800BA33B933B833B733E82EF8D7B7C0BBF076
:100DC800B8C0BCF0B9C0BDF0BAC0BEF00001BB519C
:100DD8000001BB6FBC6BBD6BBE6BBBC041FF59D084
:100DE8000F014297AFC0B7F0B0C0B8F0B1C0B9F0CA
:100DF800B2C0BAF0040E06D00001D890BA33B933A5
:100E0800B833B733E82EF8D7B7C0BBF0B8C0BCF0DA
:100E1800B9C0BDF0BAC0BEF00001BB510001BB6F44
:100E2800BC6BBD6BBE6BBBC041FF070E0001AF15AD
:100E38000001BB6F000E0001B0150001BC6F000E71
:100E48000001B1150001BD6F000E0001B2150001CF
:100E5800BE6FBBC0B7F0BCC0B8F0BDC0B9F0BEC073
:100E6800BAF0050ED8900001B737B837B937BA3796
:100E7800E82EF8D7B7C0BBF0B8C0BCF0B9C0BDF019
:100E8800BAC0BEF00F0142511F0B0F01426FBBC029
:100E980042FF0001B6A103D00F01408102D00F012B
:100EA80040910001B6A303D00F01408302D00F0187
:100EB8004093B3C0D9FFB4C0DAFFDF500F01466FCB
:100EC800000120EE01F0B351D926B451DA22DF50E7
:100ED8000F01476F000120EE02F0B351D926B4513B
:100EE800DA22DF500F01486F000120EE03F0B35102
:100EF800D926B451DA22DF500F01496F000120EEE4
:100F080004F0B351D926B451DA22DF500F014A6FE9
:100F1800000120EE05F0B351D926B451DA22DF5092
:100F28000F014B6F000120EE06F0B351D926B451E2
:100F3800DA22DF500F014C6F000120EE07F0B351A9
:100F4800D926B451DA22DF500F014D6F0F014087C7
:100F580012000F0130B73FD1B5C035FF0001B6AD63
:100F680003D00F01358D02D00F01359D0001B6A7C2
:100F780079D00001AF510001BB6FBC6BBD6BBE6B7C
:100F8800BBC034FF000E0001AF150001BB6FFF0EA0
:100F98000001B0150001BC6F000E0001B115000181
:100FA800BD6F000E0001B2150001BE6FBBC0B7F0E7
:100FB800BCC0B8F0BDC0B9F0BEC0BAF0B8C0B7F098
:100FC800B9C0B8F0BAC0B9F00001BA6BB7C0BBF08D
:100FD800B8C0BCF0B9C0BDF0BAC0BEF0BBC033FFEA
:100FE800000E0F01326F0F0132870001B1A102D04C
:100FF8000F0132810001B1A302D00F013283000139
:10100800B1A502D00F01328B0001B1A702D00F01A8
:10101800328D0001B1A902D00F01328FAFC0B7F0F5
:10102800B0C0B8F0B1C0B9F0B2C0BAF0160E06D070
:101038000001D890BA33B933B833B733E82EF8D7AC
:10104800B7C0BBF0B8C0BCF0B9C0BDF0BAC0BEF004
:101058000001BB510001BB6FBC6BBD6BBE6BBBC05D
:1010680031FF59D00F013297AFC0B7F0B0C0B8F018
:10107800B1C0B9F0B2C0BAF0040E06D00001D890E1
:10108800BA33B933B833B733E82EF8D7B7C0BBF0A3
:10109800B8C0BCF0B9C0BDF0BAC0BEF00001BB51C9
:1010A8000001BB6FBC6BBD6BBE6BBBC031FF070ED5
:1010B8000001AF150001BB6F000E0001B015000163
:1010C800BC6F000E0001B1150001BD6F000E0001DC
:1010D800B2150001BE6FBBC0B7F0BCC0B8F0BDC050
:1010E800B9F0BEC0BAF0050ED8900001B737B837CE
:1010F800B937BA37E82EF8D7B7C0BBF0B8C0BCF0DC
:10110800B9C0BDF0BAC0BEF00F0132511F0B0F01BC
:10111800326FBBC032FF0001B6A103D00F0130818E
:1011280002D00F0130910001B6A303D00F01308324
:1011380002D00F013093B3C0D9FFB4C0DAFFDF503B
:101148000F01366F000120EE01F0B351D926B451DA
:10115800DA22DF500F01376F000120EE02F0B351A1
:10116800D926B451DA22DF500F01386F000120EE82
:1011780003F0B351D926B451DA22DF500F01396F89
:10118800000120EE04F0B351D926B451DA22DF5021
:101198000F013A6F000120EE05F0B351D926B45182
:1011A800DA22DF500F013B6F000120EE06F0B35149
:1011B800D926B451DA22DF500F013C6F000120EE2E
:1011C80007F0B351D926B451DA22DF500F013D6F31
:1011D8000F01308712000F0120B71200B5C025FF9C
:1011E8000001B6AD03D00F01258D02D00F01259D5A
:1011F8000001B6A779D00001AF510001BB6FBC6BED
:10120800BD6BBE6BBBC024FF000E0001AF15000113
:10121800BB6FFF0E0001B0150001BC6F000E00018E
:10122800B1150001BD6F000E0001B2150001BE6FBF
:10123800BBC0B7F0BCC0B8F0BDC0B9F0BEC0BAF012
:10124800B8C0B7F0B9C0B8F0BAC0B9F00001BA6B0D
:10125800B7C0BBF0B8C0BCF0B9C0BDF0BAC0BEF0F2
:10126800BBC023FF000E0F01226F0F012287000170
:10127800B1A102D00F0122810001B1A302D00F0158
:1012880022830001B1A502D00F01228B0001B1A772
:1012980002D00F01228D0001B1A902D00F01228FC7
:1012A800AFC0B7F0B0C0B8F0B1C0B9F0B2C0BAF0D2
:1012B800160E06D00001D890BA33B933B833B73315
:1012C800E82EF8D7B7C0BBF0B8C0BCF0B9C0BDF0C5
:1012D800BAC0BEF00001BB510001BB6FBC6BBD6B57
:1012E800BE6BBBC021FF59D00F012297AFC0B7F02A
:1012F800B0C0B8F0B1C0B9F0B2C0BAF0040E06D0B0
:101308000001D890BA33B933B833B733E82EF8D7D9
:10131800B7C0BBF0B8C0BCF0B9C0BDF0BAC0BEF031
:101328000001BB510001BB6FBC6BBD6BBE6BBBC08A
:1013380021FF070E0001AF150001BB6F000E000171
:10134800B0150001BC6F000E0001B1150001BD6FA2
:10135800000E0001B2150001BE6FBBC0B7F0BCC0E3
:10136800B8F0BDC0B9F0BEC0BAF0050ED890000103
:10137800B737B837B937BA37E82EF8D7B7C0BBF0A0
:10138800B8C0BCF0B9C0BDF0BAC0BEF00F01225160
:101398001F0B0F01226FBBC022FF0001B6A103D0B3
:1013A8000F01208102D00F0120910001B6A303D0C4
:1013B8000F01208302D00F012093B3C0D9FFB4C01E
:1013C800DAFFDF500F01266F000120EE01F0B35164
:1013D800D926B451DA22DF500F01276F000120EE21
:1013E80002F0B351D926B451DA22DF500F01286F29
:1013F800000120EE03F0B351D926B451DA22DF50B0
:101408000F01296F000120EE04F0B351D926B45121
:10141800DA22DF500F012A6F000120EE05F0B351E8
:10142800D926B451DA22DF500F012B6F000120EECC
:1014380006F0B351D926B451DA22DF500F012C6FD0
:10144800000120EE07F0B351D926B451DA22DF505B
:101458000F012D6F0F0120871200000E0B6E74BE56
:101468000B8074BC0B820F0150AF43D101C0D9FF70
:1014780002C0DAFFDE6ADE6ADE6ADD6A20EE04F0A8
:101488000150D9260250DA2256CFDFFF20EE05F0B0
:101498000150D9260250DA2257CFDFFF20EE06F09E
:1014A8000150D9260250DA2258CFDFFF20EE07F08C
:1014B8000150D9260250DA2259CFDFFF20EE08F07A
:1014C8000150D9260250DA225ACFDFFF20EE09F068
:1014D8000150D9260250DA225BCFDFFF20EE0AF056
:1014E8000150D9260250DA225CCFDFFF20EE0BF044
:1014F8000150D9260250DA225DCFDFFF20EE0EF030
:101508000150D9260250DA220F0155AD02D0010E42
:1015180001D0000EDF6E20EE0DF00150D9260250EA
:10152800DA220F0155510F0BDF6E20EE0CF001503F
:10153800D9260250DA220F0152A702D0010E01D09B
:10154800000EDF6E0F0152B744D051CF03F0046A8A
:10155800056A066A030ED890033604360536063641
:10156800E82EF9D701C0D9FF02C0DAFF03C0DEFFB9
:1015780004C0DEFF05C0DEFF06C0DEFF0F015239E2
:10158800E842070B070B0C6E01C0D9FF02C0DAFF57
:10159800DECF03F0DECF04F0DECF05F0DECF06F0BD
:1015A8000C500324076E000E0420086E000E052060
:1015B800096E000E06200A6E01C0D9FF02C0DAFFCC
:1015C80007C0DEFF08C0DEFF09C0DEFF0AC0DEFF7D
:1015D8008DD054CF03F0046A056A066A01C0D9FFAA
:1015E80002C0DAFF03C0DEFF04C0DEFF05C0DEFF75
:1015F80006C0DEFF53CF03F0046A056A066A05C019
:1016080006F004C005F003C004F0036A01C0D9FF66
:1016180002C0DAFF0350DE260450DE220550DE2227
:101628000650DE220F0152A10CD001C0D9FF02C022
:10163800DAFF000EDE12000EDE12010EDE12000EC0
:10164800DE120F0152A30CD001C0D9FF02C0DAFF8D
:10165800000EDE12000EDE12020EDE12000EDE1288
:101668000F0152AB0CD001C0D9FF02C0DAFF000E47
:10167800DE12000EDE12040EDE12000EDE120F0164
:1016880052AD0CD001C0D9FF02C0DAFF000EDE1245
:10169800000EDE12080EDE12000EDE120F0152AF2F
:1016A8000CD001C0D9FF02C0DAFF000EDE12000E16
:1016B800DE12100EDE12000EDE1251CF03F0046AA5
:1016C800056A066A150ED8900336043605360636BE
:1016D800E82EF9D701C0D9FF02C0DAFF0350DE12A5
:1016E8000450DE120550DE120650DE120F01509F24
:1016F800120060AE120001C0D9FF02C0DAFFDE6A34
:10170800DE6ADE6ADD6A20EE04F00150D926025056
:10171800DA2266CFDFFF20EE05F00150D92602500D
:10172800DA2267CFDFFF20EE06F00150D9260250FB
:10173800DA2268CFDFFF20EE07F00150D9260250E9
:10174800DA2269CFDFFF20EE08F00150D9260250D7
:10175800DA226ACFDFFF20EE09F00150D9260250C5
:10176800DA226BCFDFFF20EE0AF00150D9260250B3
:10177800DA226CCFDFFF20EE0BF00150D9260250A1
:10178800DA226DCFDFFF20EE0EF00150D92602508D
:10179800DA2265AC02D0010E01D0000EDF6E20EE19
:1017A8000DF00150D9260250DA2265500F0BDF6E7A
:1017B80020EE0CF00150D9260250DA2262A602D09F
:1017C800010E01D0000EDF6E62B643D061CF03F088
:1017D800046A056A066A030ED8900336043605368D
:1017E8000636E82EF9D701C0D9FF02C0DAFF03C0D8
:1017F800DEFF04C0DEFF05C0DEFF06C0DEFF623884
:10180800E842070B070B0C6E01C0D9FF02C0DAFFD4
:10181800DECF03F0DECF04F0DECF05F0DECF06F03A
:101828000C500324076E000E0420086E000E0520DD
:10183800096E000E06200A6E01C0D9FF02C0DAFF49
:1018480007C0DEFF08C0DEFF09C0DEFF0AC0DEFFFA
:1018580088D064CF03F0046A056A066A01C0D9FF1C
:1018680002C0DAFF03C0DEFF04C0DEFF05C0DEFFF2
:1018780006C0DEFF63CF03F0046A056A066A05C086
:1018880006F004C005F003C004F0036A01C0D9FFE4
:1018980002C0DAFF0350DE260450DE220550DE22A5
:1018A8000650DE2262A00CD001C0D9FF02C0DAFFC8
:1018B800000EDE12000EDE12010EDE12000EDE1227
:1018C80062A20CD001C0D9FF02C0DAFF000EDE12FE
:1018D800000EDE12020EDE12000EDE1262AA0CD01C
:1018E80001C0D9FF02C0DAFF000EDE12000EDE12C0
:1018F800040EDE12000EDE1262AC0CD001C0D9FF5D
:1019080002C0DAFF000EDE12000EDE12080EDE1232
:10191800000EDE1262AE0CD001C0D9FF02C0DAFFA1
:10192800000EDE12000EDE12100EDE12000EDE12A7
:1019380061CF03F0046A056A066A150ED89003366B
:10194800043605360636E82EF9D701C0D9FF02C09D
:10195800DAFF0350DE120450DE120550DE12065084
:10196800DE12609E120044EC12F080828282010E28
:101978000001BD6FF40EBC6FCCEC13F08092829224
:10198800060E0EEC14F0FE0E0001D16F0001D151CD
:1019980035EC14F03B80FC0E0001AF6F7F0E1FEC9E
:1019A80013F080C0C9F081C0CAF082C0CBF083C0F8
:1019B800CCF00001C91FCA1FCB1FCC1FC92B000EBA
:1019C800CA23CB23CC2324500001C9250001CD6FA5
:1019D80025500001CA210001CE6F26500001CB21FD
:1019E8000001CF6F27500001CC210001D06F00010A
:1019F800D0510001CF110001CE1105E11E0E0001EA
:101A0800CD5DD8A0DED0060E0001AF6F000EB06F1E
:101A1800000EB16F000EB26FA70E0001B36F000E7B
:101A28000001B46F080E0001B56FFC0E0001B66F1F
:101A38006BEC06F03BA0B7D03B9036503224000147
:101A4800C96F375033200001CA6FD8900001CA31DE
:101A58000001CC6F0001C9310001CB6FCBC03CF055
:101A6800CCC03DF03E6A3F6AC80E206E000E216E63
:101A7800000E226E000E236E20C0C9F021C0CAF0ED
:101A88000001C91FCA1FC94BCA2B3C500001C925F8
:101A98000001AF6F3D500001CA210001B06FE6ECB4
:101AA80013F0AFC030F0B0C031F0000E0001B26FDB
:101AB800640EB16F30C0AFF031C0B0F0E3EC12F09B
:101AC800AFC0B6F0B0C0B7F0000E0001B26F640E40
:101AD800B16F30C0AFF031C0B0F0E3EC12F0AFC07E
:101AE800B8F0B0C0B9F0B1EC13F0D8900001B63539
:101AF8002A6E0001B7352B6E2B5004E1020E2A5CCA
:101B0800D8A049D03C50205C3D5021583E50225826
:101B18002350800A0001C96F3F50800A0001C9594B
:101B2800D8B018D02AC0C9F02BC0CAF00001C91F0C
:101B3800CA1FC94BCA2B34500001C9252E6E355017
:101B48000001CA212F6E2FAE2AD0000E2F6E000E74
:101B58002E6E25D082A202D0010E01D0000EFF0AFF
:101B68000001C96F0001C94782500001C919FD0B66
:101B7800C919826E2A5034242E6E2B5035202F6EB0
:101B88002FBE0DD02E04040E2F58D8A008D0030E57
:101B98002F6E2E6804D034C02EF035C02FF02EC022
:101BA80034F02FC035F024C080F025C081F026C065
:101BB80082F027C083F02EC0AFF02FC0B0F06DECDC
:101BC80013F03AAA3AB001D002D062EC11F03EEC20
:101BD80014F0E806D8B405D044EC14F0E806D8A40C
:101BE80014D08082000E0001BD6FC80EBC6FCCEC13
:101BF80013F08092000E0001BD6FC80EBC6FCCECD4
:101C080013F080827494749201D080927CC0C9F0E1
:101C18007DC0CAF07EC0CBF07FC0CCF00001C91FE8
:101C2800CA1FCB1FCC1FC92B000ECA23CB23CC2322
:101C380024500001C9250001CD6F25500001CA219B
:101C48000001CE6F26500001CB210001CF6F275035
:101C58000001CC210001D06F0001D0510001CF114B
:101C680008E1F50E0001CD5D010E0001CE59D8A0A6
:101C780036D03ABE18D0020E0001AF6F000EB06F1A
:101C8800000EB16F000EB26F970E0001B36F000E19
:101C98000001B46F080E0001B56FFC0E0001B66FAD
:101CA8006BEC06F03A8E3AAE12D03AB23AA607D0AA
:101CB8003AA405D03A923A963A94809208D0808213
:101CC800000E0001BD6FC80EBC6FCCEC13F024C031
:101CD8007CF025C07DF026C07EF027C07FF084C050
:101CE800C9F085C0CAF086C0CBF087C0CCF000012F
:101CF800C91FCA1FCB1FCC1FC92B000ECA23CB2359
:101D0800CC2324500001C9250001CD6F25500001C6
:101D1800CA210001CE6F26500001CB210001CF6FF0
:101D280027500001CC210001D06F0001D0510001E3
:101D3800CF110001CE1105E1640E0001CD5DD8A0E0
:101D480030D69CEC12F024C084F025C085F026C063
:101D580086F027C087F025D60001B86F0001B805C6
:101D6800D8A456D00001B329D8A452D0AFC0B4F03B
:101D7800B0C0B5F0B1C0B6F0B2C0B7F0040E06D02E
:101D88000001D890B733B633B533B433E82EF8D75B
:101D9800B4C0B9F0B5C0BAF0B6C0BBF0B7C0BCF0BB
:101DA8000001B9510001B96FBA6BBB6BBC6BB9C00C
:101DB80018FF070E0001AF150001B96F000E0001F2
:101DC800B0150001BA6F000E0001B1150001BB6F1C
:101DD800000E0001B2150001BC6FB9C0B4F0BAC062
:101DE800B5F0BBC0B6F0BCC0B7F0050ED890000186
:101DF800B437B537B637B737E82EF8D7B4C0B9F027
:101E0800B5C0BAF0B6C0BBF0B7C0BCF0B9C019FFD6
:101E1800020E0001B819D8A456D00001B329D8A4DD
:101E280052D0AFC0B4F0B0C0B5F0B1C0B6F0B2C0D7
:101E3800B7F0040E06D00001D890B733B633B533E7
:101E4800B433E82EF8D7B4C0B9F0B5C0BAF0B6C00C
:101E5800BBF0B7C0BCF00001B9510001B96FBA6B53
:101E6800BB6BBC6BB9C01CFF070E0001AF150001AE
:101E7800B96F000E0001B0150001BA6F000E000125
:101E8800B1150001BB6F000E0001B2150001BC6F57
:101E9800B9C0B4F0BAC0B5F0BBC0B6F0BCC0B7F0BA
:101EA800050ED8900001B437B537B637B737E82EE6
:101EB800F8D7B4C0B9F0B5C0BAF0B6C0BBF0B7C077
:101EC800BCF0B9C01DFF0001B805D8A487D0F70E33
:101ED8000001B319D8A482D00001AF510001B96F35
:101EE800BA6BBB6BBC6BB9C01BFF000E0001AF1512
:101EF8000001B96FFF0E0001B0150001BA6F000EA6
:101F08000001B1150001BB6F000E0001B215000100
:101F1800BC6FB9C0B4F0BAC0B5F0BBC0B6F0BCC0B5
:101F2800B7F0B5C0B4F0B6C0B5F0B7C0B6F00001B0
:101F3800B76BB4C0B9F0B5C0BAF0B6C0BBF0B7C0A3
:101F4800BCF0B9C01AFF0001B1A103D00F0119817B
:101F580002D00F0119910001B1A303D00F01198319
:101F680002D00F0119930001B1A503D00F01198BFD
:101F780002D00F01199B0001B1A703D00F01198DE1
:101F880002D00F01199D0001B1A903D00F01198FCB
:101F980002D00F01199FAFC0B4F0B0C0B5F0B1C006
:101FA800B6F0B2C0B7F0160E06D00001D890B7331D
:101FB800B633B533B433E82EF8D7B4C0B9F0B5C0EA
:101FC800BAF0B6C0BBF0B7C0BCF00001B95100010F
:101FD800B96FBA6BBB6BBC6BB9C018FF020E0001BE
:101FE800B819D8A41200F70E0001B319D8A412002A
:101FF8000001AF510001B96FBA6BBB6BBC6BB9C0C4
:102008001FFF000E0001AF150001B96FFF0E0001A0
:10201800B0150001BA6F000E0001B1150001BB6FC9
:10202800000E0001B2150001BC6FB9C0B4F0BAC00F
:10203800B5F0BBC0B6F0BCC0B7F0B5C0B4F0B6C020
:10204800B5F0B7C0B6F00001B76BB4C0B9F0B5C011
:10205800BAF0B6C0BBF0B7C0BCF0B9C01EFF0001F3
:10206800B1A103D00F011D8102D00F011D91000104
:10207800B1A303D00F011D8302D00F011D930001EE
:10208800B1A503D00F011D8B02D00F011D9B0001CC
:10209800B1A703D00F011D8D02D00F011D9D0001B6
:1020A800B1A903D00F011D8F02D00F011D9FAFC032
:1020B800B4F0B0C0B5F0B1C0B6F0B2C0B7F0160E0B
:1020C80006D00001D890B733B633B533B433E82E11
:1020D800F8D7B4C0B9F0B5C0BAF0B6C0BBF0B7C055
:1020E800BCF00001B9510001B96FBA6BBB6BBC6B96
:1020F800B9C01CFF12000001C66F800E1FEC14F05F
:10210800000E706E000E716E000E726E0001BF41FF
:10211800E842C00B0001BF6F0001BF5170120001FF
:10212800C05170120001C65171120001BD39E84258
:10213800F80B0001BD6F0001BD5171120001C1A56E
:10214800718C0001C1B1718E0001BE517212000183
:10215800C1B3728C0001C151600B606E0001C151A6
:10216800100BFF0AD8B4608460CF50FF000E000146
:10217800AF6F000EB06F000EB16F000EB26FF70EAA
:102188000001B36F010EB0EC0EF0000E0001AF6F4E
:10219800000EB06F000EB16F000EB26FF70E0001A7
:1021A800B36F020EB0EC0EF00FD0F70E0001C76F40
:1021B80007D00001C7690001C86928D00001C769B4
:1021C800F70E0001C86F22D09F0E0001C26FFF0EEC
:1021D8000001C36F0001C151600B0001C46FC56BE2
:1021E8000001C2510001C4130001C3510001C5130D
:1021F8000001C551000AD8A4E1D70001C451BF0AA3
:10220800D8B4D7D7600AD8B4D0D7D8D7000E000131
:10221800AF6F000EB06F000EB16F000EB26FC7C087
:10222800B3F0000EE8EC00F0000E0001AF6F000EF6
:10223800B06F000EB16F000EB26FC7C0B3F0010EE1
:10224800E8EC00F0000E0001AF6F000EB06F000E5A
:10225800B16F000EB26FC8C0B3F0020EE8EC00F028
:10226800000E0001AF6F000EB06F000EB16F000ED0
:10227800B26FC8C0B3F0030EE8EC00F0000E000126
:10228800AF6F000EB06F000EB16F000EB26FC8C016
:10229800B3F0040EE8EC00F0000E0001AF6F000E82
:1022A800B06F000EB16F000EB26FC8C0B3F0050E6C
:1022B800E8EC00F0000E1FEC14F01200FCEC13F038
:1022C8000009D8B431D03AAA17D074C0AFF075C09D
:1022D800B0F076C0B1F077C0B2F0970E0001B36FDE
:1022E800000E0001B46F080E0001B56FBC0E0001AE
:1022F800B66F6BEC06F03A9A3AA016D078C0AFF0F9
:1023080079C0B0F07AC0B1F07BC0B2F09F0E000186
:10231800B36F000E0001B46F080E0001B56FBC0E5C
:102328000001B66F6BEC06F00F0140BD03D00F0142
:1023380030AD31D03A8074C078F075C079F076C08D
:102348007AF077C07BF03AAA02D03A8C01D03A9C56
:10235800000E0001BF6F070E0001BF6501D02FD02E
:102368000001BF51010D970EF324D96E000EF42021
:10237800DA6E0001BF51010D9F0EF324E16E000ECD
:10238800F420E26EDFCFE7FF0F01409D0F01309D83
:102398000001BF2BE0D73A903AAC10D03AAC02D04B
:1023A8003A8A01D03A9A78C074F079C075F07AC048
:1023B80076F07BC077F03A883A9C01D03A983A9AFE
:1023C8001200000E0001C16F0001BFAF08D000016C
:1023D800BE6DBF1FD8B0BF2B010E0001C16F000139
:1023E800BDAF08D00001BC6DBD1FD8B0BD2B010E1C
:1023F8000001C11B000E0001C36F000EC26F000177
:10240800BE510001BF11D8B42CD0010E0001C06F1D
:1024180006D00001D890BE37BF370001C02B00019D
:10242800BFAFF7D70001D890C237C3370001BE51FC
:102438000001BC5D0001BF510001BD59D8A00AD000
:102448000001BE510001BC5F0001BF510001BD5B2E
:102458000001C2810001D890BF33BE330001C02FF4
:10246800E1D70001C1510001D8B405D00001C26D07
:10247800C31FD8B0C32BC2C0BCF0C3C0BDF012008C
:10248800060E0001BD6F050E0001BE6F010E0001B2
:10249800BF6F030E0001C06F9D0E0001C16F040ED7
:1024A8007FEC10F0D08EF292A492A490A592A59001
:1024B800F28EF28C010EB16EA192A292630EB36EEF
:1024C800C00EB26EC280C294C296C298C29AC1901F
:1024D800C182C184C186C198C19AC080C092C0849B
:1024E800C096C088C08AC09EA382A380A082000E26
:1024F800896E7D0E926E000E8A6EFB0E936E000E34
:102508008B6E000E946E000E8C6E000E956E000E93
:102518008D6E9668000E0001BD6F020EBC6FCCEC8C
:1025280013F0FC0E0001AF6F7F0E1FEC13F01200CA
:10253800C282C2B2FED7C4CF38F0396A38C0B6F00A
:1025480039C0B7F0000E0001B96F0E0EB86FB1ECCC
:1025580013F0B6C0BCF0B7C0BDF0000E0001BF6FED
:10256800BE69E5EC11F0BCC038F0BDC039F039BE29
:1025780006D0395022E1080E385CD8B01ED0FCECE9
:1025880013F00009D8B4FBD7090E0001AF6F000E95
:10259800B06F000EB16F000EB26F970E0001B36FEF
:1025A800000E0001B46F080E0001B56FFC0E0001AB
:1025B800B66F6BEC06F08282120082921200000E57
:1025C8000001B56F000EB46F0001B1510001B211E6
:1025D800D8B42CD0010E0001B36F06D00001D890FA
:1025E800B137B2370001B32B0001B2AFF7D7000102
:1025F800D890B437B5370001B1510001AF5D000183
:10260800B2510001B059D8A00AD00001B15100015F
:10261800AF5F0001B2510001B05B0001B48100015D
:10262800D890B233B1330001B32FE1D7B4C0AFF0C3
:10263800B5C0B0F012000001B06FBA50C009000177
:10264800B015BA6EBA500F090001AF15BA6E3F0E39
:102658000001B019D8A402D095981200BF0E00014D
:10266800B019D8A403D09598959A12007F0E00014E
:10267800B019D8B404D00001B029D8A41200959894
:10268800959A959C959E120000EE60F04F0EEE6AAA
:10269800E806FDE13B6A3A6A00EE20F01A0EEE6A9F
:1026A800E806FDE1940EF66E280EF76E000EF86E41
:1026B80000EE3CF010EE07F00900F5CFEEFFE55014
:1026C800E150FAE143904392000EF86E0001B7EF33
:1026D8000CF0AFC0B1F0B0C0B2F0060ED890000157
:1026E800B137B237E82EFAD7B1C0B3F0B2C0B4F000
:1026F800B4C0BBFFB3C0B1F00001D890B133000142
:10270800D890B133300E0001B117BA50CF0B000189
:10271800B111BA6E1200026EBA50C0090214BA6E34
:10272800BA500F090114BA6E3F0E0218D8A402D08D
:1027380095981200BF0E0218D8A403D09598959AC0
:1027480012007F0E0218D8B403D00228D8A41200B1
:102758009598959A959C959E12000001B651000196
:10276800B803F3CFBAF0F4CFBBF00001B6510001C3
:10277800B903F3500001BB270001B7510001B803AA
:10278800F3500001BB27BAC0B6F0BBC0B7F01200C7
:1027980042C0B6F00001B76BBCC0B8F0BDC0B9F01C
:1027A800B1EC13F0B6C028F0B7C029F006D0500E2F
:1027B800E82EFED72806D8A0290628502910D8B414
:1027C8001200F5D70001B0AF0ED0AFC0B1F0B0C065
:1027D800B2F00001B11FB21FB14BB22BB1C0AFF0C4
:1027E800B2C0B0F01200AFC0AFF0B0C0B0F012008D
:1027F800010E0001AF6F0F0140A709D00F0130A7EC
:1028080006D00F0120A703D0000E0001AF6F000112
:10281800AF5112000001AF6F0001AF51FB0BCA6E40
:10282800000ECC6E9E920001AFAF02D09D8201D007
:102838009D92CA8412000001AF6FAFC06FFF6E5047
:10284800E00B0001AF19D8B41200F9D7010E016EE0
:1028580060BE05D00F0150BF02D0000E016E0150BE
:1028680012000001AF6F0C0EBA6ECA94AFC0CBFF56
:10287800CA84120074A402D0010E1200000E1200C5
:1028880074A202D0010E1200000E12000100000016
:04289800010010002B
:020000040030CA
:0E000000FF021F1EFF8285FF0FC00FE00F40A2
:00000001FF
