:04000000D5EF00F048
:100018004380D8CF0FF0E8CF10F0E0CF11F0FACF3F
:1000280012F0FBCF13F0E9CF14F0EACF15F0E1CFCF
:1000380016F0E2CF17F0D9CF18F0DACF19F0F3CFD6
:100048001AF0F4CF1BF0F6CF1CF0F7CF1DF0F8CF65
:100058001EF0F5CF1FF0A4A0A4B201D071D003EC1C
:1000680014F00009D8B46AD0820E016E000E026E38
:1000780020EC0AF0030E000182190001831100012F
:10008800841100018511D8A417D086C038F087C024
:100098003BF03C6A3B043C10D8A405D0FC0E016E32
:1000A8007F0E68EC13F03B503C10D8A405D0FC0E32
:1000B800016EFF0E68EC13F0000182050001831148
:1000C8000001841100018511D8A403D0000E386EF8
:1000D8008082060E0001821900018311000184113B
:1000E80000018511D8A40ED087C032F0336A32508F
:1000F8000D6E00018651326E0DC033F087C034F0AA
:10010800356A3A80020E000182190001831100014C
:10011800841100018511D8B406D010D039820ED0D0
:10012800398639840BD000018651010AD8B4F6D734
:10013800030AD8B4F5D7010AD8B4F3D7A490A49287
:10014800A1A20BD0010E2826000E29222A222B223A
:10015800630EB36EC00EB26EA1921FC0F5FF1EC033
:10016800F8FF1DC0F7FF1CC0F6FF1BC0F4FF1AC044
:10017800F3FF19C0DAFF18C0D9FF17C0E2FF16C095
:10018800E1FF15C0EAFF14C0E9FF13C0FBFF12C06E
:10019800FAFF11C0E0FF10C0E8FF0FC0D8FF43907E
:1001A800100021EF13F00001B26F0001B2510001FD
:1001B800D8A458D00001AD29D8A454D00F01019774
:1001C800A9C0AEF0AAC0AFF0ABC0B0F0ACC0B1F0FF
:1001D800040E06D00001D890B133B033AF33AE333C
:1001E800E82EF8D7AEC0B3F0AFC0B4F0B0C0B5F0E9
:1001F800B1C0B6F00001B3510001B36FB46BB56B79
:10020800B66BB3C000FF070E0001A9150001B36F5C
:10021800000E0001AA150001B46F000E0001AB1515
:100228000001B56F000E0001AC150001B66FB3C038
:10023800AEF0B4C0AFF0B5C0B0F0B6C0B1F0050EC6
:10024800D8900001AE37AF37B037B137E82EF8D7BE
:10025800AEC0B3F0AFC0B4F0B0C0B5F0B1C0B6F046
:10026800B3C001FF0001B205D8A458D00001AD29E0
:10027800D8A454D00F010597A9C0AEF0AAC0AFF01A
:10028800ABC0B0F0ACC0B1F0040E06D00001D890FD
:10029800B133B033AF33AE33E82EF8D7AEC0B3F0D6
:1002A800AFC0B4F0B0C0B5F0B1C0B6F00001B35102
:1002B8000001B36FB46BB56BB66BB3C004FF070E28
:1002C8000001A9150001B36F000E0001AA15000175
:1002D800B46F000E0001AB150001B56F000E0001F0
:1002E800AC150001B66FB3C0AEF0B4C0AFF0B5C086
:1002F800B0F0B6C0B1F0050ED8900001AE37AF37F8
:10030800B037B137E82EF8D7AEC0B3F0AFC0B4F00D
:10031800B0C0B5F0B1C0B6F0B3C005FF020E000121
:10032800B219D8A458D00001AD29D8A454D00F01CF
:100338000997A9C0AEF0AAC0AFF0ABC0B0F0ACC08E
:10034800B1F0040E06D00001D890B133B033AF330A
:10035800AE33E82EF8D7AEC0B3F0AFC0B4F0B0C03B
:10036800B5F0B1C0B6F00001B3510001B36FB46B82
:10037800B56BB66BB3C008FF070E0001A9150001E5
:10038800B36F000E0001AA150001B46F000E000142
:10039800AB150001B56F000E0001AC150001B66F7A
:1003A800B3C0AEF0B4C0AFF0B5C0B0F0B6C0B1F0F5
:1003B800050ED8900001AE37AF37B037B137E82E09
:1003C800F8D7AEC0B3F0AFC0B4F0B0C0B5F0B1C0AC
:1003D800B6F0B3C009FF030E0001B219D8A458D073
:1003E8000001AD29D8A454D00F010D97A9C0AEF0D3
:1003F800AAC0AFF0ABC0B0F0ACC0B1F0040E06D0EC
:100408000001D890B133B033AF33AE33E82EF8D70C
:10041800AEC0B3F0AFC0B4F0B0C0B5F0B1C0B6F084
:100428000001B3510001B36FB46BB56BB66BB3C0C9
:100438000CFF070E0001A9150001B36F000E0001A3
:10044800AA150001B46F000E0001AB150001B56FCD
:10045800000E0001AC150001B66FB3C0AEF0B4C019
:10046800AFF0B5C0B0F0B6C0B1F0050ED89000013D
:10047800AE37AF37B037B137E82EF8D7AEC0B3F0E4
:10048800AFC0B4F0B0C0B5F0B1C0B6F0B3C00DFFA6
:10049800040E0001B219D8A458D00001AD29D8A47F
:1004A80054D00F011197A9C0AEF0AAC0AFF0ABC0ED
:1004B800B0F0ACC0B1F0040E06D00001D890B13352
:1004C800B033AF33AE33E82EF8D7AEC0B3F0AFC019
:1004D800B4F0B0C0B5F0B1C0B6F00001B35100013E
:1004E800B36FB46BB56BB66BB3C010FF070E0001EA
:1004F800A9150001B36F000E0001AA150001B46F21
:10050800000E0001AB150001B56F000E0001AC151F
:100518000001B66FB3C0AEF0B4C0AFF0B5C0B0F074
:10052800B6C0B1F0050ED8900001AE37AF37B0377E
:10053800B137E82EF8D7AEC0B3F0AFC0B4F0B0C052
:10054800B5F0B1C0B6F0B3C011FF050E0001B21985
:10055800D8A458D00001AD29D8A454D00F011597BC
:10056800A9C0AEF0AAC0AFF0ABC0B0F0ACC0B1F05B
:10057800040E06D00001D890B133B033AF33AE3398
:10058800E82EF8D7AEC0B3F0AFC0B4F0B0C0B5F045
:10059800B1C0B6F00001B3510001B36FB46BB56BD5
:1005A800B66BB3C014FF070E0001A9150001B36FA5
:1005B800000E0001AA150001B46F000E0001AB1572
:1005C8000001B56F000E0001AC150001B66FB3C095
:1005D800AEF0B4C0AFF0B5C0B0F0B6C0B1F0050E23
:1005E800D8900001AE37AF37B037B137E82EF8D71B
:1005F800AEC0B3F0AFC0B4F0B0C0B5F0B1C0B6F0A3
:10060800B3C015FF0001B2510001D8A489D0F70E7C
:100618000001AD19D8A484D00F0101870001A951A8
:100628000001B36FB46BB56BB66BB3C003FF000EBC
:100638000001A9150001B36FFF0E0001AA15000102
:10064800B46F000E0001AB150001B56F000E00017C
:10065800AC150001B66FB3C0AEF0B4C0AFF0B5C012
:10066800B0F0B6C0B1F0AFC0AEF0B0C0AFF0B1C03E
:10067800B0F00001B16BAEC0B3F0AFC0B4F0B0C021
:10068800B5F0B1C0B6F0B3C002FF0001ABA103D012
:100698000F01018102D00F0101910001ABA303D02A
:1006A8000F01018302D00F0101930001ABA503D014
:1006B8000F01018B02D00F01019B0001ABA703D0F2
:1006C8000F01018D02D00F01019D0001ABA903D0DC
:1006D8000F01018F02D00F01019FA9C0AEF0AAC07F
:1006E800AFF0ABC0B0F0ACC0B1F0160E06D0000150
:1006F800D890B133B033AF33AE33E82EF8D7AEC0AD
:10070800B3F0AFC0B4F0B0C0B5F0B1C0B6F00001FE
:10071800B3510001B36FB46BB56BB66BB3C000FFD8
:100728000001B205D8A489D0F70E0001AD19D8A4EC
:1007380084D00F0105870001A9510001B36FB46B84
:10074800B56BB66BB3C007FF000E0001A915000119
:10075800B36FFF0E0001AA150001B46F000E00016F
:10076800AB150001B56F000E0001AC150001B66FA6
:10077800B3C0AEF0B4C0AFF0B5C0B0F0B6C0B1F021
:10078800AFC0AEF0B0C0AFF0B1C0B0F00001B16B17
:10079800AEC0B3F0AFC0B4F0B0C0B5F0B1C0B6F001
:1007A800B3C006FF0001ABA103D00F01058102D041
:1007B8000F0105910001ABA303D00F01058302D0FF
:1007C8000F0105930001ABA503D00F01058B02D0E3
:1007D8000F01059B0001ABA703D00F01058D02D0C7
:1007E8000F01059D0001ABA903D00F01058F02D0B1
:1007F8000F01059FA9C0AEF0AAC0AFF0ABC0B0F022
:10080800ACC0B1F0160E06D00001D890B133B033A9
:10081800AF33AE33E82EF8D7AEC0B3F0AFC0B4F004
:10082800B0C0B5F0B1C0B6F00001B3510001B36F6C
:10083800B46BB56BB66BB3C004FF020E0001B219FE
:10084800D8A489D0F70E0001AD19D8A484D00F011F
:1008580009870001A9510001B36FB46BB56BB66B82
:10086800B3C00BFF000E0001A9150001B36FFF0E06
:100878000001AA150001B46F000E0001AB150001BC
:10088800B56F000E0001AC150001B66FB3C0AEF035
:10089800B4C0AFF0B5C0B0F0B6C0B1F0AFC0AEF004
:1008A800B0C0AFF0B1C0B0F00001B16BAEC0B3F0F2
:1008B800AFC0B4F0B0C0B5F0B1C0B6F0B3C00AFF75
:1008C8000001ABA103D00F01098102D00F010991EA
:1008D8000001ABA303D00F01098302D00F010993D4
:1008E8000001ABA503D00F01098B02D00F01099BB2
:1008F8000001ABA703D00F01098D02D00F01099D9C
:100908000001ABA903D00F01098F02D00F01099F85
:10091800A9C0AEF0AAC0AFF0ABC0B0F0ACC0B1F0A7
:10092800160E06D00001D890B133B033AF33AE33D2
:10093800E82EF8D7AEC0B3F0AFC0B4F0B0C0B5F091
:10094800B1C0B6F00001B3510001B36FB46BB56B21
:10095800B66BB3C008FF030E0001B219D8A489D042
:10096800F70E0001AD19D8A484D00F010D8700013E
:10097800A9510001B36FB46BB56BB66BB3C00FFF71
:10098800000E0001A9150001B36FFF0E0001AA15A2
:100998000001B46F000E0001AB150001B56F000E29
:1009A8000001AC150001B66FB3C0AEF0B4C0AFF033
:1009B800B5C0B0F0B6C0B1F0AFC0AEF0B0C0AFF0E7
:1009C800B1C0B0F00001B16BAEC0B3F0AFC0B4F0CD
:1009D800B0C0B5F0B1C0B6F0B3C00EFF0001ABA116
:1009E80003D00F010D8102D00F010D910001ABA3BF
:1009F80003D00F010D8302D00F010D930001ABA5A9
:100A080003D00F010D8B02D00F010D9B0001ABA786
:100A180003D00F010D8D02D00F010D9D0001ABA970
:100A280003D00F010D8F02D00F010D9FA9C0AEF0AA
:100A3800AAC0AFF0ABC0B0F0ACC0B1F0160E06D093
:100A48000001D890B133B033AF33AE33E82EF8D7C6
:100A5800AEC0B3F0AFC0B4F0B0C0B5F0B1C0B6F03E
:100A68000001B3510001B36FB46BB56BB66BB3C083
:100A78000CFF040E0001B219D8A489D0F70E0001AA
:100A8800AD19D8A484D00F0111870001A951000124
:100A9800B36FB46BB56BB66BB3C013FF000E000138
:100AA800A9150001B36FFF0E0001AA150001B46F6C
:100AB800000E0001AB150001B56F000E0001AC156A
:100AC8000001B66FB3C0AEF0B4C0AFF0B5C0B0F0BF
:100AD800B6C0B1F0AFC0AEF0B0C0AFF0B1C0B0F0CA
:100AE8000001B16BAEC0B3F0AFC0B4F0B0C0B5F0A8
:100AF800B1C0B6F0B3C012FF0001ABA103D00F0123
:100B0800118102D00F0111910001ABA303D00F0195
:100B1800118302D00F0111930001ABA503D00F017F
:100B2800118B02D00F01119B0001ABA703D00F015D
:100B3800118D02D00F01119D0001ABA903D00F0147
:100B4800118F02D00F01119FA9C0AEF0AAC0AFF05B
:100B5800ABC0B0F0ACC0B1F0160E06D00001D89012
:100B6800B133B033AF33AE33E82EF8D7AEC0B3F0FD
:100B7800AFC0B4F0B0C0B5F0B1C0B6F00001B35129
:100B88000001B36FB46BB56BB66BB3C010FF050E45
:100B98000001B219D8A41200F70E0001AD19D8A4AB
:100BA80012000F0115870001A9510001B36FB46B42
:100BB800B56BB66BB3C017FF000E0001A915000195
:100BC800B36FFF0E0001AA150001B46F000E0001FB
:100BD800AB150001B56F000E0001AC150001B66F32
:100BE800B3C0AEF0B4C0AFF0B5C0B0F0B6C0B1F0AD
:100BF800AFC0AEF0B0C0AFF0B1C0B0F00001B16BA3
:100C0800AEC0B3F0AFC0B4F0B0C0B5F0B1C0B6F08C
:100C1800B3C016FF0001ABA103D00F01158102D0AC
:100C28000F0115910001ABA303D00F01158302D06A
:100C38000F0115930001ABA503D00F01158B02D04E
:100C48000F01159B0001ABA703D00F01158D02D032
:100C58000F01159D0001ABA903D00F01158F02D01C
:100C68000F01159FA9C0AEF0AAC0AFF0ABC0B0F09D
:100C7800ACC0B1F0160E06D00001D890B133B03335
:100C8800AF33AE33E82EF8D7AEC0B3F0AFC0B4F090
:100C9800B0C0B5F0B1C0B6F00001B3510001B36FF8
:100CA800B46BB56BB66BB3C014FF12000F0140B73D
:100CB8003FD1AFC045FF0001B0AD03D00F01458D56
:100CC80002D00F01459D0001B0A779D00001A951BC
:100CD8000001B56FB66BB76BB86BB5C044FF000EBB
:100CE8000001A9150001B56FFF0E0001AA1500014A
:100CF800B66F000E0001AB150001B76F000E0001C2
:100D0800AC150001B86FB5C0B1F0B6C0B2F0B7C04D
:100D1800B3F0B8C0B4F0B2C0B1F0B3C0B2F0B4C070
:100D2800B3F00001B46BB1C0B5F0B2C0B6F0B3C057
:100D3800B7F0B4C0B8F0B5C043FF000E0F01426F62
:100D48000F0142870001ABA102D00F0142810001CF
:100D5800ABA302D00F0142830001ABA502D00F0163
:100D6800428B0001ABA702D00F01428D0001ABA955
:100D780002D00F01428FA9C0B1F0AAC0B2F0ABC037
:100D8800B3F0ACC0B4F0160E06D00001D890B4335E
:100D9800B333B233B133E82EF8D7B1C0B5F0B2C02F
:100DA800B6F0B3C0B7F0B4C0B8F00001B551000157
:100DB800B56FB66BB76BB86BB5C041FF59D00F01B3
:100DC8004297A9C0B1F0AAC0B2F0ABC0B3F0ACC0B2
:100DD800B4F0040E06D00001D890B433B333B23364
:100DE800B133E82EF8D7B1C0B5F0B2C0B6F0B3C091
:100DF800B7F0B4C0B8F00001B5510001B56FB66BDB
:100E0800B76BB86BB5C041FF070E0001A91500010B
:100E1800B56F000E0001AA150001B66F000E0001A3
:100E2800AB150001B76F000E0001AC150001B86FDB
:100E3800B5C0B1F0B6C0B2F0B7C0B3F0B8C0B4F046
:100E4800050ED8900001B137B237B337B437E82E62
:100E5800F8D7B1C0B5F0B2C0B6F0B3C0B7F0B4C0FF
:100E6800B8F00F0142511F0B0F01426FB5C042FF8E
:100E78000001B0A103D00F01408102D00F014091C1
:100E88000001B0A303D00F01408302D00F014093AB
:100E9800ADC0D9FFAEC0DAFFDF500F01466F0001C9
:100EA80020EE01F0AD51D926AE51DA22DF500F0104
:100EB800476F000120EE02F0AD51D926AE51DA227B
:100EC800DF500F01486F000120EE03F0AD51D92625
:100ED800AE51DA22DF500F01496F000120EE04F015
:100EE800AD51D926AE51DA22DF500F014A6F000109
:100EF80020EE05F0AD51D926AE51DA22DF500F01B0
:100F08004B6F000120EE06F0AD51D926AE51DA2222
:100F1800DF500F014C6F000120EE07F0AD51D926CC
:100F2800AE51DA22DF500F014D6F0F0140871200DA
:100F38000F0130B73FD1AFC035FF0001B0AD03D0CE
:100F48000F01358D02D00F01359D0001B0A779D072
:100F58000001A9510001B56FB66BB76BB86BB5C08E
:100F680034FF000E0001A9150001B56FFF0E000146
:100F7800AA150001B66F000E0001AB150001B76F8E
:100F8800000E0001AC150001B86FB5C0B1F0B6C0D5
:100F9800B2F0B7C0B3F0B8C0B4F0B2C0B1F0B3C0EB
:100FA800B2F0B4C0B3F00001B46BB1C0B5F0B2C0D8
:100FB800B6F0B3C0B7F0B4C0B8F0B5C033FF000E98
:100FC8000F01326F0F0132870001ABA102D00F0170
:100FD80032810001ABA302D00F0132830001ABA51F
:100FE80002D00F01328B0001ABA702D00F01328D66
:100FF8000001ABA902D00F01328FA9C0B1F0AAC07D
:10100800B2F0ABC0B3F0ACC0B4F0160E06D000011D
:10101800D890B433B333B233B133E82EF8D7B1C074
:10102800B5F0B2C0B6F0B3C0B7F0B4C0B8F00001C4
:10103800B5510001B56FB66BB76BB86BB5C031FF72
:1010480059D00F013297A9C0B1F0AAC0B2F0ABC015
:10105800B3F0ACC0B4F0040E06D00001D890B4339D
:10106800B333B233B133E82EF8D7B1C0B5F0B2C05C
:10107800B6F0B3C0B7F0B4C0B8F00001B551000184
:10108800B56FB66BB76BB86BB5C031FF070E000113
:10109800A9150001B56F000E0001AA150001B66F71
:1010A800000E0001AB150001B76F000E0001AC1572
:1010B8000001B86FB5C0B1F0B6C0B2F0B7C0B3F0B8
:1010C800B8C0B4F0050ED8900001B137B237B337C5
:1010D800B437E82EF8D7B1C0B5F0B2C0B6F0B3C097
:1010E800B7F0B4C0B8F00F0132511F0B0F01326FC7
:1010F800B5C032FF0001B0A103D00F01308102D08A
:101108000F0130910001B0A303D00F01308302D04A
:101118000F013093ADC0D9FFAEC0DAFFDF500F0129
:10112800366F000120EE01F0AD51D926AE51DA221A
:10113800DF500F01376F000120EE02F0AD51D926C4
:10114800AE51DA22DF500F01386F000120EE03F0B4
:10115800AD51D926AE51DA22DF500F01396F0001A7
:1011680020EE04F0AD51D926AE51DA22DF500F013E
:101178003A6F000120EE05F0AD51D926AE51DA22C2
:10118800DF500F013B6F000120EE06F0AD51D9266C
:10119800AE51DA22DF500F013C6F000120EE07F05C
:1011A800AD51D926AE51DA22DF500F013D6F0F0144
:1011B800308712000F0120B71200AFC025FF0001D1
:1011C800B0AD03D00F01258D02D00F01259D000180
:1011D800B0A779D00001A9510001B56FB66BB76B04
:1011E800B86BB5C024FF000E0001A9150001B56F4A
:1011F800FF0E0001AA150001B66F000E0001AB1525
:101208000001B76F000E0001AC150001B86FB5C042
:10121800B1F0B6C0B2F0B7C0B3F0B8C0B4F0B2C065
:10122800B1F0B3C0B2F0B4C0B3F00001B46BB1C058
:10123800B5F0B2C0B6F0B3C0B7F0B4C0B8F0B5C03E
:1012480023FF000E0F01226F0F0122870001ABA1BF
:1012580002D00F0122810001ABA302D00F0122832B
:101268000001ABA502D00F01228B0001ABA702D071
:101278000F01228D0001ABA902D00F01228FA9C056
:10128800B1F0AAC0B2F0ABC0B3F0ACC0B4F0160E67
:1012980006D00001D890B433B333B233B133E82E5B
:1012A800F8D7B1C0B5F0B2C0B6F0B3C0B7F0B4C0AB
:1012B800B8F00001B5510001B56FB66BB76BB86BEC
:1012C800B5C021FF59D00F012297A9C0B1F0AAC01B
:1012D800B2F0ABC0B3F0ACC0B4F0040E06D000015D
:1012E800D890B433B333B233B133E82EF8D7B1C0A2
:1012F800B5F0B2C0B6F0B3C0B7F0B4C0B8F00001F2
:10130800B5510001B56FB66BB76BB86BB5C021FFAF
:10131800070E0001A9150001B56F000E0001AA15FE
:101328000001B66F000E0001AB150001B76F000E8B
:101338000001AC150001B86FB5C0B1F0B6C0B2F08D
:10134800B7C0B3F0B8C0B4F0050ED8900001B137FB
:10135800B237B337B437E82EF8D7B1C0B5F0B2C05A
:10136800B6F0B3C0B7F0B4C0B8F00F0122511F0BEC
:101378000F01226FB5C022FF0001B0A103D00F01F9
:10138800208102D00F0120910001B0A303D00F01EA
:10139800208302D00F012093ADC0D9FFAEC0DAFF81
:1013A800DF500F01266F000120EE01F0AD51D92664
:1013B800AE51DA22DF500F01276F000120EE02F054
:1013C800AD51D926AE51DA22DF500F01286F000146
:1013D80020EE03F0AD51D926AE51DA22DF500F01CD
:1013E800296F000120EE04F0AD51D926AE51DA2262
:1013F800DF500F012A6F000120EE05F0AD51D9260C
:10140800AE51DA22DF500F012B6F000120EE06F0FB
:10141800AD51D926AE51DA22DF500F012C6F0001F1
:1014280020EE07F0AD51D926AE51DA22DF500F0178
:101438002D6F0F0120871200000E0B6E74BE0B80FB
:1014480074BC0B820F0150AF43D101C0D9FF02C059
:10145800DAFFDE6ADE6ADE6ADD6A20EE04F0015039
:10146800D9260250DA2256CFDFFF20EE05F00150D0
:10147800D9260250DA2257CFDFFF20EE06F00150BE
:10148800D9260250DA2258CFDFFF20EE07F00150AC
:10149800D9260250DA2259CFDFFF20EE08F001509A
:1014A800D9260250DA225ACFDFFF20EE09F0015088
:1014B800D9260250DA225BCFDFFF20EE0AF0015076
:1014C800D9260250DA225CCFDFFF20EE0BF0015064
:1014D800D9260250DA225DCFDFFF20EE0EF0015050
:1014E800D9260250DA220F0155AD02D0010E01D0E3
:1014F800000EDF6E20EE0DF00150D9260250DA22E0
:101508000F0155510F0BDF6E20EE0CF00150D9265C
:101518000250DA220F0152A702D0010E01D0000EAC
:10152800DF6E0F0152B744D051CF03F0046A056A49
:10153800066A030ED8900336043605360636E82EBA
:10154800F9D701C0D9FF02C0DAFF03C0DEFF04C02B
:10155800DEFF05C0DEFF06C0DEFF0F015239E8429C
:10156800070B070B0C6E01C0D9FF02C0DAFFDECFF4
:1015780003F0DECF04F0DECF05F0DECF06F00C502E
:101588000324076E000E0420086E000E0520096E65
:10159800000E06200A6E01C0D9FF02C0DAFF07C09C
:1015A800DEFF08C0DEFF09C0DEFF0AC0DEFF8DD007
:1015B80054CF03F0046A056A066A01C0D9FF02C065
:1015C800DAFF03C0DEFF04C0DEFF05C0DEFF06C091
:1015D800DEFF53CF03F0046A056A066A05C006F009
:1015E80004C005F003C004F0036A01C0D9FF02C0BB
:1015F800DAFF0350DE260450DE220550DE220650B4
:10160800DE220F0152A10CD001C0D9FF02C0DAFFBF
:10161800000EDE12000EDE12010EDE12000EDE12C9
:101628000F0152A30CD001C0D9FF02C0DAFF000E8F
:10163800DE12000EDE12020EDE12000EDE120F01A6
:1016480052AB0CD001C0D9FF02C0DAFF000EDE1287
:10165800000EDE12040EDE12000EDE120F0152AD75
:101668000CD001C0D9FF02C0DAFF000EDE12000E56
:10167800DE12080EDE12000EDE120F0152AF0CD081
:1016880001C0D9FF02C0DAFF000EDE12000EDE1222
:10169800100EDE12000EDE1251CF03F0046A056A46
:1016A800066A150ED8900336043605360636E82E37
:1016B800F9D701C0D9FF02C0DAFF0350DE12045087
:1016C800DE120550DE120650DE120F01509F120086
:1016D80060AE120001C0D9FF02C0DAFFDE6ADE6A1E
:1016E800DE6ADD6A20EE04F00150D9260250DA22C3
:1016F80066CFDFFF20EE05F00150D9260250DA222E
:1017080067CFDFFF20EE06F00150D9260250DA221B
:1017180068CFDFFF20EE07F00150D9260250DA2209
:1017280069CFDFFF20EE08F00150D9260250DA22F7
:101738006ACFDFFF20EE09F00150D9260250DA22E5
:101748006BCFDFFF20EE0AF00150D9260250DA22D3
:101758006CCFDFFF20EE0BF00150D9260250DA22C1
:101768006DCFDFFF20EE0EF00150D9260250DA22AD
:1017780065AC02D0010E01D0000EDF6E20EE0DF038
:101788000150D9260250DA2265500F0BDF6E20EE89
:101798000CF00150D9260250DA2262A602D0010EBE
:1017A80001D0000EDF6E62B643D061CF03F0046A49
:1017B800056A066A030ED8900336043605360636DF
:1017C800E82EF9D701C0D9FF02C0DAFF03C0DEFF57
:1017D80004C0DEFF05C0DEFF06C0DEFF6238E84257
:1017E800070B070B0C6E01C0D9FF02C0DAFFDECF72
:1017F80003F0DECF04F0DECF05F0DECF06F00C50AC
:101808000324076E000E0420086E000E0520096EE2
:10181800000E06200A6E01C0D9FF02C0DAFF07C019
:10182800DEFF08C0DEFF09C0DEFF0AC0DEFF88D089
:1018380064CF03F0046A056A066A01C0D9FF02C0D2
:10184800DAFF03C0DEFF04C0DEFF05C0DEFF06C00E
:10185800DEFF63CF03F0046A056A066A05C006F076
:1018680004C005F003C004F0036A01C0D9FF02C038
:10187800DAFF0350DE260450DE220550DE22065031
:10188800DE2262A00CD001C0D9FF02C0DAFF000E30
:10189800DE12000EDE12010EDE12000EDE1262A251
:1018A8000CD001C0D9FF02C0DAFF000EDE12000E14
:1018B800DE12020EDE12000EDE1262AA0CD001C089
:1018C800D9FF02C0DAFF000EDE12000EDE12040E8F
:1018D800DE12000EDE1262AC0CD001C0D9FF02C0CD
:1018E800DAFF000EDE12000EDE12080EDE12000E07
:1018F800DE1262AE0CD001C0D9FF02C0DAFF000EC2
:10190800DE12000EDE12100EDE12000EDE1261CFA5
:1019180003F0046A056A066A150ED8900336043681
:1019280005360636E82EF9D701C0D9FF02C0DAFF1E
:101938000350DE120450DE120550DE120650DE128D
:10194800609E120059EC12F080828282010E000122
:10195800B86FF40EB76FA5EC13F080928292060E62
:10196800E7EC13F0FE0E0001CB6F0001CB510EEC3B
:1019780014F03A80FC0E0001A96F7F0EF8EC12F00B
:10198800010E0001AA6F2C0EA96F46EC13F0010E90
:101998000001B86FF40EB76FA5EC13F0000E00014C
:1019A800AA6F000EA96F46EC13F078C0C3F079C097
:1019B800C4F07AC0C5F07BC0C6F00001C31FC41FC5
:1019C800C51FC61FC32B000EC423C523C62328501A
:1019D8000001C3250001C76F29500001C42100017F
:1019E800C86F2A500001C5210001C96F2B500001A2
:1019F800C6210001CA6F0001CA510001C9110001C6
:101A0800C81105E10F0E0001C75DD8A0EFD0060E82
:101A18000001A96F000EAA6F000EAB6F000EAC6F2D
:101A2800A10E0001AD6F000E0001AE6F080E00019F
:101A3800AF6FFC0E0001B06F5AEC06F03AA0C8D0A8
:101A480082A202D0010E01D0000EFF0A0001C36F6E
:101A58000001C34782500001C319FD0BC319826EF0
:101A68003A90345032240001C36F355033200001BE
:101A7800C46FD8900001C4310001C66F0001C331A2
:101A88000001C56F0001C551416E190E386E3850FE
:101A98000001C36FC46B0001C31FC41FC34BC42B19
:101AA80041500001C3250001B16F000E0001C4219F
:101AB8000001B26F000E0001B46F0A0EB36F8AEC1A
:101AC80013F0B1C0B7F0B2C0B8F0BFEC13F0B7C0B4
:101AD80030F0B8C031F0000E0001AC6F110EAB6FE2
:101AE80030C0A9F031C0AAF0FAEC11F0A9C0B1F0E9
:101AF800AAC0B2F0000E0001AC6F110EAB6F30C07F
:101B0800A9F031C0AAF0FAEC11F0A9C0B3F0AAC04C
:101B1800B4F08AEC13F0D8900001B1352E6E0001B4
:101B2800B2352F6E2F5004E1040E2E5CD8A048D099
:101B380038500001C36FC46B0001C31FC41FC34BDF
:101B4800C42B41500001C56FC66B0001C351000191
:101B5800C5270001C4510001C6230001C6BF1FD01C
:101B68000001C65104E10001C505D8A018D02EC057
:101B7800C3F02FC0C4F00001C31FC41FC34BC42B44
:101B88003F500001C3253D6E40500001C4213E6E08
:101B98003EAE1AD0000E3E6E000E3D6E15D02E5091
:101BA8003F243D6E2F5040203E6E3EBE0DD03D047A
:101BB800040E3E58D8A008D0030E3E6E3D6804D0EF
:101BC8003FC03DF040C03EF03DC03FF03EC040F059
:101BD80028C078F029C079F02AC07AF02BC07BF0B1
:101BE8003DC0A9F03EC0AAF046EC13F039AA39B0BE
:101BF80001D002D077EC11F017EC14F0E806D8B455
:101C080005D01DEC14F0E806D8A414D08082000E8C
:101C18000001B86FC80EB76FA5EC13F08092000EE4
:101C28000001B86FC80EB76FA5EC13F080827494EA
:101C3800749201D0809274C0C3F075C0C4F076C0AD
:101C4800C5F077C0C6F00001C31FC41FC51FC61F5B
:101C5800C32B000EC423C523C62328500001C32567
:101C68000001C76F29500001C4210001C86F2A5024
:101C78000001C5210001C96F2B500001C6210001D8
:101C8800CA6F0001CA510001C91108E1F50E00012F
:101C9800C75D010E0001C859D8A036D039BE18D08A
:101CA800020E0001A96F000EAA6F000EAB6F000EA6
:101CB800AC6F910E0001AD6F000E0001AE6F080E03
:101CC8000001AF6FFC0E0001B06F5AEC06F0398EC0
:101CD80039AE12D039B239A607D039A405D0399215
:101CE80039963994809208D08082000E0001B86F2E
:101CF800C80EB76FA5EC13F028C074F029C075F0B2
:101D08002AC076F02BC077F07CC0C3F07DC0C4F049
:101D18007EC0C5F07FC0C6F00001C31FC41FC51F29
:101D2800C61FC32B000EC423C523C6232850000199
:101D3800C3250001C76F29500001C4210001C86FE5
:101D48002A500001C5210001C96F2B500001C6218E
:101D58000001CA6F0001CA510001C9110001C81170
:101D680005E1640E0001C75DD8A01FD6B1EC12F0E2
:101D780028C07CF029C07DF02AC07EF02BC07FF0FF
:101D880014D60001B26F0001B205D8A456D00001E4
:101D9800AD29D8A452D0A9C0AEF0AAC0AFF0ABC04C
:101DA800B0F0ACC0B1F0040E06D00001D890B13349
:101DB800B033AF33AE33E82EF8D7AEC0B3F0AFC010
:101DC800B4F0B0C0B5F0B1C0B6F00001B351000135
:101DD800B36FB46BB56BB66BB3C018FF070E0001D9
:101DE800A9150001B36F000E0001AA150001B46F18
:101DF800000E0001AB150001B56F000E0001AC1517
:101E08000001B66FB3C0AEF0B4C0AFF0B5C0B0F06B
:101E1800B6C0B1F0050ED8900001AE37AF37B03775
:101E2800B137E82EF8D7AEC0B3F0AFC0B4F0B0C049
:101E3800B5F0B1C0B6F0B3C019FF020E0001B21977
:101E4800D8A456D00001AD29D8A452D0A9C0AEF06C
:101E5800AAC0AFF0ABC0B0F0ACC0B1F0040E06D071
:101E68000001D890B133B033AF33AE33E82EF8D792
:101E7800AEC0B3F0AFC0B4F0B0C0B5F0B1C0B6F00A
:101E88000001B3510001B36FB46BB56BB66BB3C04F
:101E98001CFF070E0001A9150001B36F000E000119
:101EA800AA150001B46F000E0001AB150001B56F53
:101EB800000E0001AC150001B66FB3C0AEF0B4C09F
:101EC800AFF0B5C0B0F0B6C0B1F0050ED8900001C3
:101ED800AE37AF37B037B137E82EF8D7AEC0B3F06A
:101EE800AFC0B4F0B0C0B5F0B1C0B6F0B3C01DFF1C
:101EF8000001B205D8A487D0F70E0001AD19D8A407
:101F080082D00001A9510001B36FB46BB56BB66BF9
:101F1800B3C01BFF000E0001A9150001B36FFF0E2F
:101F28000001AA150001B46F000E0001AB150001F5
:101F3800B56F000E0001AC150001B66FB3C0AEF06E
:101F4800B4C0AFF0B5C0B0F0B6C0B1F0AFC0AEF03D
:101F5800B0C0AFF0B1C0B0F00001B16BAEC0B3F02B
:101F6800AFC0B4F0B0C0B5F0B1C0B6F0B3C01AFF9E
:101F78000001ABA103D00F01198102D00F01199103
:101F88000001ABA303D00F01198302D00F011993ED
:101F98000001ABA503D00F01198B02D00F01199BCB
:101FA8000001ABA703D00F01198D02D00F01199DB5
:101FB8000001ABA903D00F01198F02D00F01199F9F
:101FC800A9C0AEF0AAC0AFF0ABC0B0F0ACC0B1F0E1
:101FD800160E06D00001D890B133B033AF33AE330C
:101FE800E82EF8D7AEC0B3F0AFC0B4F0B0C0B5F0CB
:101FF800B1C0B6F00001B3510001B36FB46BB56B5B
:10200800B66BB3C018FF020E0001B219D8A41200B3
:10201800F70E0001AD19D8A412000001A951000162
:10202800B36FB46BB56BB66BB3C01FFF000E000186
:10203800A9150001B36FFF0E0001AA150001B46FC6
:10204800000E0001AB150001B56F000E0001AC15C4
:102058000001B66FB3C0AEF0B4C0AFF0B5C0B0F019
:10206800B6C0B1F0AFC0AEF0B0C0AFF0B1C0B0F024
:102078000001B16BAEC0B3F0AFC0B4F0B0C0B5F002
:10208800B1C0B6F0B3C01EFF0001ABA103D00F0171
:102098001D8102D00F011D910001ABA303D00F01D8
:1020A8001D8302D00F011D930001ABA503D00F01C2
:1020B8001D8B02D00F011D9B0001ABA703D00F01A0
:1020C8001D8D02D00F011D9D0001ABA903D00F018A
:1020D8001D8F02D00F011D9FA9C0AEF0AAC0AFF09E
:1020E800ABC0B0F0ACC0B1F0160E06D00001D8906D
:1020F800B133B033AF33AE33E82EF8D7AEC0B3F058
:10210800AFC0B4F0B0C0B5F0B1C0B6F00001B35183
:102118000001B36FB46BB56BB66BB3C01CFF120094
:102128000001C06F800EF8EC13F0000E706E000E08
:10213800716E000E726E0001B941E842C00B0001D9
:10214800B96F0001B95170120001BA517012000143
:10215800C05171120001B739E842F80B0001B76F9E
:102168000001B75171120001BBA5718C0001BBB110
:10217800718E0001B85172120001BBB3728C00015C
:10218800BB51600B606E0001BB51100BFF0AD8B445
:10219800608460CF50FF000E0001A96F000EAA6F87
:1021A800000EAB6F000EAC6FF70E0001AD6F010EA5
:1021B800C5EC0EF0000E0001A96F000EAA6F000E0C
:1021C800AB6F000EAC6FF70E0001AD6F020EC5ECE1
:1021D8000EF00FD0F70E0001C16F07D00001C169E2
:1021E8000001C26928D00001C169F70E0001C26F61
:1021F80022D09F0E0001BC6FFF0E0001BD6F0001D1
:10220800BB51600B0001BE6FBF6B0001BC510001E8
:10221800BE130001BD510001BF130001BF51000AE8
:10222800D8A4E1D70001BE51BF0AD8B4D7D7600AF5
:10223800D8B4D0D7D8D7000E0001A96F000EAA6F66
:10224800000EAB6F000EAC6FC1C0ADF0000ED7EC46
:1022580000F0000E0001A96F000EAA6F000EAB6F10
:10226800000EAC6FC1C0ADF0010ED7EC00F0000E4F
:102278000001A96F000EAA6F000EAB6F000EAC6FC5
:10228800C2C0ADF0020ED7EC00F0000E0001A96F3D
:10229800000EAA6F000EAB6F000EAC6FC2C0ADF09F
:1022A800030ED7EC00F0000E0001A96F000EAA6F14
:1022B800000EAB6F000EAC6FC2C0ADF0040ED7ECD1
:1022C80000F0000E0001A96F000EAA6F000EAB6FA0
:1022D800000EAC6FC2C0ADF0050ED7EC00F0000EDA
:1022E800F8EC13F01200D5EC13F00009D8B431D093
:1022F80039AA17D020C0A9F021C0AAF022C0ABF09B
:1023080023C0ACF0910E0001AD6F000E0001AE6F5E
:10231800080E0001AF6FBC0E0001B06F5AEC06F05A
:10232800399A39A016D024C0A9F025C0AAF026C031
:10233800ABF027C0ACF0990E0001AD6F000E0001A4
:10234800AE6F080E0001AF6FBC0E0001B06F5AEC03
:1023580006F00F0140BD03D00F0130AD31D03980F8
:1023680020C024F021C025F022C026F023C027F089
:1023780039AA02D0398C01D0399C000E0001B96FFE
:10238800070E0001B96501D02FD00001B951010D28
:10239800910EF324D96E000EF420DA6E0001B951C3
:1023A800010D990EF324E16E000EF420E26EDFCFEA
:1023B800E7FF0F01409D0F01309D0001B92BE0D7C9
:1023C800399039AC10D039AC02D0398A01D0399A59
:1023D80024C020F025C021F026C022F027C023F019
:1023E8003988399C01D03998399A1200000E0001B9
:1023F800AE6F0001ACAF08D00001AB6DAC1FD8B018
:10240800AC2B010E0001AE6F0001AAAF08D000018D
:10241800A96DAA1FD8B0AA2B010E0001AE1B000E91
:102428000001B06F000EAF6F0001AB510001AC119D
:10243800D8B42CD0010E0001AD6F06D00001D890A1
:10244800AB37AC370001AD2B0001ACAFF7D70001BB
:10245800D890AF37B0370001AB510001A95D00013A
:10246800AC510001AA59D8A00AD00001AB51000113
:10247800A95F0001AC510001AA5B0001AF81000116
:10248800D890AC33AB330001AD2FE1D70001AE518A
:102498000001D8B405D00001AF6DB01FD8B0B02B83
:1024A800AFC0A9F0B0C0AAF01200060E0001B76FC5
:1024B800050E0001B86F010E0001B96F030E00018F
:1024C800BA6F9D0E0001BB6F040E94EC10F0D08E15
:1024D800F292A492A490A592A590F28EF28C010E8D
:1024E800B16EA192A292630EB36EC00EB26EC2809C
:1024F800C294C296C298C29AC190C182C184C18650
:10250800C198C19AC080C092C084C096C088C08A51
:10251800C09EA382A380A082000E896E7D0E926E5B
:10252800000E8A6EFB0E936E000E8B6E000E946E7C
:10253800000E8C6E000E956E000E8D6E9668000E65
:102548000001B86F020EB76FA5EC13F0FC0E000186
:10255800A96F7F0EF8EC12F01200C282C2B2FED749
:10256800C4CF36F0376A36C0B1F037C0B2F0000ECB
:102578000001B46F0E0EB36F8AEC13F0B1C0A9F06E
:10258800B2C0AAF0000E0001AC6FAB69FAEC11F012
:10259800A9C036F0AAC037F037BE06D0375022E1BE
:1025A800080E365CD8B01ED0D5EC13F00009D8B4AC
:1025B800FBD7090E0001A96F000EAA6F000EAB6FC2
:1025C800000EAC6F910E0001AD6F000E0001AE6FF2
:1025D800080E0001AF6FFC0E0001B06F5AEC06F058
:1025E80082821200829212000001AA6FBA50C009BA
:1025F8000001AA15BA6EBA500F090001A915BA6EE2
:102608003F0E0001AA19D8A402D095981200BF0E57
:102618000001AA19D8A403D09598959A12007F0EA4
:102628000001AA19D8B404D00001AA29D8A412001C
:102638009598959A959C959E120000EE60F0490E2B
:10264800EE6AE806FDE13A6A396A00EE20F0190EF2
:10265800EE6AE806FDE1460EF66E280EF76E000EED
:10266800F86E00EE3BF010EE08F00900F5CFEEFF33
:10267800E550E150FAE143904392000EF86E0001F4
:10268800A6EF0CF0A9C0ABF0AAC0ACF0060ED8902B
:102698000001AB37AC37E82EFAD7ABC0ADF0ACC011
:1026A800AEF0AEC0BBFFADC0ABF00001D890AB330D
:1026B8000001D890AB33300E0001AB17BA50CF0BE6
:1026C8000001AB11BA6E1200026EBA50C0090214B2
:1026D800BA6EBA500F090114BA6E3F0E0218D8A488
:1026E80002D095981200BF0E0218D8A403D095986E
:1026F800959A12007F0E0218D8B403D00228D8A4E5
:1027080012009598959A959C959E12000001B151DA
:102718000001B303F3CFB5F0F4CFB6F00001B15127
:102728000001B403F3500001B6270001B2510001C3
:10273800B303F3500001B627B5C0B1F0B6C0B2F08C
:10274800120042C0B1F00001B26BB7C0B3F0B8C01C
:10275800B4F08AEC13F0B1C02CF0B2C02DF006D062
:10276800500EE82EFED72C06D8A02D062C502D1082
:10277800D8B41200F5D70001B8AF0ED0B7C0B9F081
:10278800B8C0BAF00001B91FBA1FB94BBA2BB9C00B
:10279800B7F0BAC0B8F01200B7C0B7F0B8C0B8F018
:1027A8001200010E0001A96F0F0140A709D00F0107
:1027B80030A706D00F0120A703D0000E0001A96F93
:1027C8000001A95112000001A96F0001A951FB0BDA
:1027D800CA6E000ECC6E9E920001A9AF02D09D82F7
:1027E80001D09D92CA8412000001A96FA9C06FFF91
:1027F8006E50E00B0001A919D8B41200F9D7010EE8
:10280800016E60BE05D00F0150BF02D0000E016EF0
:10281800015012000001A96F0C0EBA6ECA94A9C02B
:10282800CBFFCA84120074A402D0010E1200000E5D
:10283800120074A202D0010E1200000E1200010054
:06284800C800C8000110E9
:020000040030CA
:0E000000FF021F1EFF8285FF0FC00FE00F40A2
:00000001FF
