:04000000F5EF00F028
:100018004380D8CF0FF0E8CF10F0E0CF11F0FACF3F
:1000280012F0FBCF13F0E9CF14F0EACF15F0E1CFCF
:1000380016F0E2CF17F0D9CF18F0DACF19F0F3CFD6
:100048001AF0F4CF1BF0F6CF1CF0F7CF1DF0F8CF65
:100058001EF0F5CF1FF0A4A0A4B201D091D082A2C7
:1000680002D0010E01D0000EFF0A0D6E0D4682501F
:100078000D18FD0B0D18826EF7EC13F00009D8B4BB
:100088007DD0940E016E000E026E40EC0AF0030E55
:1000980000019419000195110001961100019711B2
:1000A800D8A41BD000019851246E256A266A276AB5
:1000B80099C040F0416A40044110D8A405D0FC0E14
:1000C800016E7F0E5CEC13F040504110D8A405D0AF
:1000D800FC0E016EFF0E5CEC13F0000194050001AC
:1000E80095110001961100019711D8A409D0000EAE
:1000F800246E000E256E000E266E000E276E80827E
:10010800060E0001941900019511000196110001D5
:100118009711D8A415D099C030F0316A30500D6EBF
:1001280000019851306E0DC031F09BC034F0356A33
:1001380034500D6E00019A51346E0DC035F03B807D
:10014800020E000194190001951100019611000199
:100158009711D8A413D000019805D8A402D03A82E8
:10016800829A020E00019819D8A403D03A863A84DC
:100178008298030E00019819D8B43A84A490A492E6
:10018800A1A20BD0010E2826000E29222A222B22FA
:10019800630EB36EC00EB26EA1921FC0F5FF1EC0F3
:1001A800F8FF1DC0F7FF1CC0F6FF1BC0F4FF1AC004
:1001B800F3FF19C0DAFF18C0D9FF17C0E2FF16C055
:1001C800E1FF15C0EAFF14C0E9FF13C0FBFF12C02E
:1001D800FAFF11C0E0FF10C0E8FF0FC0D8FF43903E
:1001E800100015EF13F00001C46F0001C4510001A5
:1001F800D8A458D00001BF29D8A454D00F01019722
:10020800BBC0C0F0BCC0C1F0BDC0C2F0BEC0C3F02E
:10021800040E06D00001D890C333C233C133C033B3
:10022800E82EF8D7C0C0C5F0C1C0C6F0C2C0C7F03C
:10023800C3C0C8F00001C5510001C56FC66BC76BCC
:10024800C86BC5C000FF070E0001BB150001C56FD4
:10025800000E0001BC150001C66F000E0001BD159F
:100268000001C76F000E0001BE150001C86FC5C0B0
:10027800C0F0C6C0C1F0C7C0C2F0C8C0C3F0050E08
:10028800D8900001C037C137C237C337E82EF8D736
:10029800C0C0C5F0C1C0C6F0C2C0C7F0C3C0C8F076
:1002A800C5C001FF0001C405D8A458D00001BF296A
:1002B800D8A454D00F010597BBC0C0F0BCC0C1F092
:1002C800BDC0C2F0BEC0C3F0040E06D00001D89075
:1002D800C333C233C133C033E82EF8D7C0C0C5F02A
:1002E800C1C0C6F0C2C0C7F0C3C0C8F00001C55144
:1002F8000001C56FC66BC76BC86BC5C004FF070E8E
:100308000001BB150001C56F000E0001BC150001FE
:10031800C66F000E0001BD150001C76F000E000179
:10032800BE150001C86FC5C0C0F0C6C0C1F0C7C0C7
:10033800C2F0C8C0C3F0050ED8900001C037C1375D
:10034800C237C337E82EF8D7C0C0C5F0C1C0C6F061
:10035800C2C0C7F0C3C0C8F0C5C005FF020E000187
:10036800C419D8A458D00001BF29D8A454D00F016B
:100378000997BBC0C0F0BCC0C1F0BDC0C2F0BEC0D0
:10038800C3F0040E06D00001D890C333C233C13382
:10039800C033E82EF8D7C0C0C5F0C1C0C6F0C2C08F
:1003A800C7F0C3C0C8F00001C5510001C56FC66BD6
:1003B800C76BC86BC5C008FF070E0001BB1500015D
:1003C800C56F000E0001BC150001C66F000E0001CC
:1003D800BD150001C76F000E0001BE150001C86FF2
:1003E800C5C0C0F0C6C0C1F0C7C0C2F0C8C0C3F025
:1003F800050ED8900001C037C137C237C337E82E81
:10040800F8D7C0C0C5F0C1C0C6F0C2C0C7F0C3C0ED
:10041800C8F0C5C009FF030E0001C419D8A458D0FC
:100428000001BF29D8A454D00F010D97BBC0C0F05C
:10043800BCC0C1F0BDC0C2F0BEC0C3F0040E06D03F
:100448000001D890C333C233C133C033E82EF8D784
:10045800C0C0C5F0C1C0C6F0C2C0C7F0C3C0C8F0B4
:100468000001C5510001C56FC66BC76BC86BC5C01D
:100478000CFF070E0001BB150001C56F000E00013F
:10048800BC150001C66F000E0001BD150001C76F45
:10049800000E0001BE150001C86FC5C0C0F0C6C07F
:1004A800C1F0C7C0C2F0C8C0C3F0050ED8900001A3
:1004B800C037C137C237C337E82EF8D7C0C0C5F038
:1004C800C1C0C6F0C2C0C7F0C3C0C8F0C5C00DFFE8
:1004D800040E0001C419D8A458D00001BF29D8A41B
:1004E80054D00F011197BBC0C0F0BCC0C1F0BDC053
:1004F800C2F0BEC0C3F0040E06D00001D890C333CA
:10050800C233C133C033E82EF8D7C0C0C5F0C1C06C
:10051800C6F0C2C0C7F0C3C0C8F00001C551000191
:10052800C56FC66BC76BC86BC5C010FF070E00014F
:10053800BB150001C56F000E0001BC150001C66F98
:10054800000E0001BD150001C76F000E0001BE15A9
:100558000001C86FC5C0C0F0C6C0C1F0C7C0C2F0B6
:10056800C8C0C3F0050ED8900001C037C137C237E4
:10057800C337E82EF8D7C0C0C5F0C1C0C6F0C2C0A6
:10058800C7F0C3C0C8F0C5C011FF050E0001C419EB
:10059800D8A458D00001BF29D8A454D00F0115976A
:1005A800BBC0C0F0BCC0C1F0BDC0C2F0BEC0C3F08B
:1005B800040E06D00001D890C333C233C133C03310
:1005C800E82EF8D7C0C0C5F0C1C0C6F0C2C0C7F099
:1005D800C3C0C8F00001C5510001C56FC66BC76B29
:1005E800C86BC5C014FF070E0001BB150001C56F1D
:1005F800000E0001BC150001C66F000E0001BD15FC
:100608000001C76F000E0001BE150001C86FC5C00C
:10061800C0F0C6C0C1F0C7C0C2F0C8C0C3F0050E64
:10062800D8900001C037C137C237C337E82EF8D792
:10063800C0C0C5F0C1C0C6F0C2C0C7F0C3C0C8F0D2
:10064800C5C015FF0001C4510001D8A489D0F70E18
:100658000001BF19D8A484D00F0101870001BB5144
:100668000001C56FC66BC76BC86BC5C003FF000E22
:100678000001BB150001C56FFF0E0001BC1500018C
:10068800C66F000E0001BD150001C76F000E000106
:10069800BE150001C86FC5C0C0F0C6C0C1F0C7C054
:1006A800C2F0C8C0C3F0C1C0C0F0C2C0C1F0C3C06E
:1006B800C2F00001C36BC0C0C5F0C1C0C6F0C2C063
:1006C800C7F0C3C0C8F0C5C002FF0001BDA103D078
:1006D8000F01018102D00F0101910001BDA303D0D8
:1006E8000F01018302D00F0101930001BDA503D0C2
:1006F8000F01018B02D00F01019B0001BDA703D0A0
:100708000F01018D02D00F01019D0001BDA903D089
:100718000F01018F02D00F01019FBBC0C0F0BCC008
:10072800C1F0BDC0C2F0BEC0C3F0160E06D00001B5
:10073800D890C333C233C133C033E82EF8D7C0C012
:10074800C5F0C1C0C6F0C2C0C7F0C3C0C8F0000140
:10075800C5510001C56FC66BC76BC86BC5C000FF2C
:100768000001C405D8A489D0F70E0001BF19D8A488
:1007780084D00F0105870001BB510001C56FC66B0E
:10078800C76BC86BC5C007FF000E0001BB15000191
:10079800C56FFF0E0001BC150001C66F000E0001F9
:1007A800BD150001C76F000E0001BE150001C86F1E
:1007B800C5C0C0F0C6C0C1F0C7C0C2F0C8C0C3F051
:1007C800C1C0C0F0C2C0C1F0C3C0C2F00001C36B59
:1007D800C0C0C5F0C1C0C6F0C2C0C7F0C3C0C8F031
:1007E800C5C006FF0001BDA103D00F01058102D0DD
:1007F8000F0105910001BDA303D00F01058302D0AD
:100808000F0105930001BDA503D00F01058B02D090
:100818000F01059B0001BDA703D00F01058D02D074
:100828000F01059D0001BDA903D00F01058F02D05E
:100838000F01059FBBC0C0F0BCC0C1F0BDC0C2F075
:10084800BEC0C3F0160E06D00001D890C333C23321
:10085800C133C033E82EF8D7C0C0C5F0C1C0C6F058
:10086800C2C0C7F0C3C0C8F00001C5510001C56FC0
:10087800C66BC76BC86BC5C004FF020E0001C41964
:10088800D8A489D0F70E0001BF19D8A484D00F01CD
:1008980009870001BB510001C56FC66BC76BC86BE8
:1008A800C5C00BFF000E0001BB150001C56FFF0E90
:1008B8000001BC150001C66F000E0001BD15000146
:1008C800C76F000E0001BE150001C86FC5C0C0F09B
:1008D800C6C0C1F0C7C0C2F0C8C0C3F0C1C0C0F034
:1008E800C2C0C1F0C3C0C2F00001C36BC0C0C5F034
:1008F800C1C0C6F0C2C0C7F0C3C0C8F0C5C00AFFB7
:100908000001BDA103D00F01098102D00F01099197
:100918000001BDA303D00F01098302D00F01099381
:100928000001BDA503D00F01098B02D00F01099B5F
:100938000001BDA703D00F01098D02D00F01099D49
:100948000001BDA903D00F01098F02D00F01099F33
:10095800BBC0C0F0BCC0C1F0BDC0C2F0BEC0C3F0D7
:10096800160E06D00001D890C333C233C133C0334A
:10097800E82EF8D7C0C0C5F0C1C0C6F0C2C0C7F0E5
:10098800C3C0C8F00001C5510001C56FC66BC76B75
:10099800C86BC5C008FF030E0001C419D8A489D0CC
:1009A800F70E0001BF19D8A484D00F010D870001EC
:1009B800BB510001C56FC66BC76BC86BC5C00FFFC5
:1009C800000E0001BB150001C56FFF0E0001BC152C
:1009D8000001C66F000E0001BD150001C76F000EB3
:1009E8000001BE150001C86FC5C0C0F0C6C0C1F087
:1009F800C7C0C2F0C8C0C3F0C1C0C0F0C2C0C1F017
:100A0800C3C0C2F00001C36BC0C0C5F0C1C0C6F00E
:100A1800C2C0C7F0C3C0C8F0C5C00EFF0001BDA169
:100A280003D00F010D8102D00F010D910001BDA36C
:100A380003D00F010D8302D00F010D930001BDA556
:100A480003D00F010D8B02D00F010D9B0001BDA734
:100A580003D00F010D8D02D00F010D9D0001BDA91E
:100A680003D00F010D8F02D00F010D9FBBC0C0F046
:100A7800BCC0C1F0BDC0C2F0BEC0C3F0160E06D0E7
:100A88000001D890C333C233C133C033E82EF8D73E
:100A9800C0C0C5F0C1C0C6F0C2C0C7F0C3C0C8F06E
:100AA8000001C5510001C56FC66BC76BC86BC5C0D7
:100AB8000CFF040E0001C419D8A489D0F70E000158
:100AC800BF19D8A484D00F0111870001BB510001C0
:100AD800C56FC66BC76BC86BC5C013FF000E00019E
:100AE800BB150001C56FFF0E0001BC150001C66FE4
:100AF800000E0001BD150001C76F000E0001BE15F4
:100B08000001C86FC5C0C0F0C6C0C1F0C7C0C2F000
:100B1800C8C0C3F0C1C0C0F0C2C0C1F0C3C0C2F0F9
:100B28000001C36BC0C0C5F0C1C0C6F0C2C0C7F0E9
:100B3800C3C0C8F0C5C012FF0001BDA103D00F019A
:100B4800118102D00F0111910001BDA303D00F0143
:100B5800118302D00F0111930001BDA503D00F012D
:100B6800118B02D00F01119B0001BDA703D00F010B
:100B7800118D02D00F01119D0001BDA903D00F01F5
:100B8800118F02D00F01119FBBC0C0F0BCC0C1F0D3
:100B9800BDC0C2F0BEC0C3F0160E06D00001D8908A
:100BA800C333C233C133C033E82EF8D7C0C0C5F051
:100BB800C1C0C6F0C2C0C7F0C3C0C8F00001C5516B
:100BC8000001C56FC66BC76BC86BC5C010FF050EAB
:100BD8000001C419D8A41200F70E0001BF19D8A447
:100BE80012000F0115870001BB510001C56FC66BCC
:100BF800C76BC86BC5C017FF000E0001BB1500010D
:100C0800C56FFF0E0001BC150001C66F000E000184
:100C1800BD150001C76F000E0001BE150001C86FA9
:100C2800C5C0C0F0C6C0C1F0C7C0C2F0C8C0C3F0DC
:100C3800C1C0C0F0C2C0C1F0C3C0C2F00001C36BE4
:100C4800C0C0C5F0C1C0C6F0C2C0C7F0C3C0C8F0BC
:100C5800C5C016FF0001BDA103D00F01158102D048
:100C68000F0115910001BDA303D00F01158302D018
:100C78000F0115930001BDA503D00F01158B02D0FC
:100C88000F01159B0001BDA703D00F01158D02D0E0
:100C98000F01159D0001BDA903D00F01158F02D0CA
:100CA8000F01159FBBC0C0F0BCC0C1F0BDC0C2F0F1
:100CB800BEC0C3F0160E06D00001D890C333C233AD
:100CC800C133C033E82EF8D7C0C0C5F0C1C0C6F0E4
:100CD800C2C0C7F0C3C0C8F00001C5510001C56F4C
:100CE800C66BC76BC86BC5C014FF12000F0140B7B5
:100CF8003FD1C1C045FF0001C2AD03D00F01458DF2
:100D080002D00F01459D0001C2A779D00001BB5157
:100D18000001C76FC86BC96BCA6BC7C044FF000E20
:100D28000001BB150001C76FFF0E0001BC150001D3
:100D3800C86F000E0001BD150001C96F000E00014B
:100D4800BE150001CA6FC7C0C3F0C8C0C4F0C9C08F
:100D5800C5F0CAC0C6F0C4C0C3F0C5C0C4F0C6C0A0
:100D6800C5F00001C66BC3C0C7F0C4C0C8F0C5C099
:100D7800C9F0C6C0CAF0C7C043FF000E0F01426FDA
:100D88000F0142870001BDA102D00F01428100017D
:100D9800BDA302D00F0142830001BDA502D00F01FF
:100DA800428B0001BDA702D00F01428D0001BDA9F1
:100DB80002D00F01428FBBC0C3F0BCC0C4F0BDC09D
:100DC800C5F0BEC0C6F0160E06D00001D890C633D6
:100DD800C533C433C333E82EF8D7C3C0C7F0C4C083
:100DE800C8F0C5C0C9F0C6C0CAF00001C7510001AB
:100DF800C76FC86BC96BCA6BC7C041FF59D00F0119
:100E08004297BBC0C3F0BCC0C4F0BDC0C5F0BEC0F3
:100E1800C6F0040E06D00001D890C633C533C433DB
:100E2800C333E82EF8D7C3C0C7F0C4C0C8F0C5C0E4
:100E3800C9F0C6C0CAF00001C7510001C76FC86B2E
:100E4800C96BCA6BC7C041FF070E0001BB15000183
:100E5800C76F000E0001BC150001C86F000E00012D
:100E6800BD150001C96F000E0001BE150001CA6F53
:100E7800C7C0C3F0C8C0C4F0C9C0C5F0CAC0C6F076
:100E8800050ED8900001C337C437C537C637E82EDA
:100E9800F8D7C3C0C7F0C4C0C8F0C5C0C9F0C6C041
:100EA800CAF00F0142511F0B0F01426FC7C042FF2A
:100EB8000001C2A103D00F01408102D00F0140916F
:100EC8000001C2A303D00F01408302D00F01409359
:100ED800BFC0D9FFC0C0DAFFDF500F01466F000165
:100EE80020EE01F0BF51D926C051DA22DF500F01A0
:100EF800476F000120EE02F0BF51D926C051DA2217
:100F0800DF500F01486F000120EE03F0BF51D926D2
:100F1800C051DA22DF500F01496F000120EE04F0C2
:100F2800BF51D926C051DA22DF500F014A6F0001A4
:100F380020EE05F0BF51D926C051DA22DF500F014B
:100F48004B6F000120EE06F0BF51D926C051DA22BE
:100F5800DF500F014C6F000120EE07F0BF51D9267A
:100F6800C051DA22DF500F014D6F0F014087120088
:100F78000F0130B73FD1C1C035FF0001C2AD03D06A
:100F88000F01358D02D00F01359D0001C2A779D020
:100F98000001BB510001C76FC86BC96BCA6BC7C0E2
:100FA80034FF000E0001BB150001C76FFF0E0001E2
:100FB800BC150001C86F000E0001BD150001C96F06
:100FC800000E0001BE150001CA6FC7C0C3F0C8C03B
:100FD800C4F0C9C0C5F0CAC0C6F0C4C0C3F0C5C01B
:100FE800C4F0C6C0C5F00001C66BC3C0C7F0C4C01A
:100FF800C8F0C5C0C9F0C6C0CAF0C7C033FF000EEC
:101008000F01326F0F0132870001BDA102D00F011D
:1010180032810001BDA302D00F0132830001BDA5BA
:1010280002D00F01328B0001BDA702D00F01328D13
:101038000001BDA902D00F01328FBBC0C3F0BCC0F4
:10104800C4F0BDC0C5F0BEC0C6F0160E06D0000183
:10105800D890C633C533C433C333E82EF8D7C3C0DA
:10106800C7F0C4C0C8F0C5C0C9F0C6C0CAF0000106
:10107800C7510001C76FC86BC96BCA6BC7C031FFC6
:1010880059D00F013297BBC0C3F0BCC0C4F0BDC07B
:10109800C5F0BEC0C6F0040E06D00001D890C63315
:1010A800C533C433C333E82EF8D7C3C0C7F0C4C0B0
:1010B800C8F0C5C0C9F0C6C0CAF00001C7510001D8
:1010C800C76FC86BC96BCA6BC7C031FF070E000179
:1010D800BB150001C76F000E0001BC150001C86FE9
:1010E800000E0001BD150001C96F000E0001BE15FC
:1010F8000001CA6FC7C0C3F0C8C0C4F0C9C0C5F0FA
:10110800CAC0C6F0050ED8900001C337C437C5372A
:10111800C637E82EF8D7C3C0C7F0C4C0C8F0C5C0EA
:10112800C9F0C6C0CAF00F0132511F0B0F01326F50
:10113800C7C032FF0001C2A103D00F01308102D025
:101148000F0130910001C2A303D00F01308302D0F8
:101158000F013093BFC0D9FFC0C0DAFFDF500F01C5
:10116800366F000120EE01F0BF51D926C051DA22B6
:10117800DF500F01376F000120EE02F0BF51D92672
:10118800C051DA22DF500F01386F000120EE03F062
:10119800BF51D926C051DA22DF500F01396F000143
:1011A80020EE04F0BF51D926C051DA22DF500F01DA
:1011B8003A6F000120EE05F0BF51D926C051DA225E
:1011C800DF500F013B6F000120EE06F0BF51D9261A
:1011D800C051DA22DF500F013C6F000120EE07F00A
:1011E800BF51D926C051DA22DF500F013D6F0F01E0
:1011F800308712000F0120B71200C1C025FF00017F
:10120800C2AD03D00F01258D02D00F01259D00012D
:10121800C2A779D00001BB510001C76FC86BC96B69
:10122800CA6BC7C024FF000E0001BB150001C76FC1
:10123800FF0E0001BC150001C86F000E0001BD15AE
:101248000001C96F000E0001BE150001CA6FC7C0BA
:10125800C3F0C8C0C4F0C9C0C5F0CAC0C6F0C4C095
:10126800C3F0C5C0C4F0C6C0C5F00001C66BC3C09A
:10127800C7F0C4C0C8F0C5C0C9F0C6C0CAF0C7C06E
:1012880023FF000E0F01226F0F0122870001BDA16D
:1012980002D00F0122810001BDA302D00F012283D9
:1012A8000001BDA502D00F01228B0001BDA702D00D
:1012B8000F01228D0001BDA902D00F01228FBBC0F2
:1012C800C3F0BCC0C4F0BDC0C5F0BEC0C6F0160EA9
:1012D80006D00001D890C633C533C433C333E82ED3
:1012E800F8D7C3C0C7F0C4C0C8F0C5C0C9F0C6C0ED
:1012F800CAF00001C7510001C76FC86BC96BCA6B40
:10130800C7C021FF59D00F012297BBC0C3F0BCC092
:10131800C4F0BDC0C5F0BEC0C6F0040E06D00001C2
:10132800D890C633C533C433C333E82EF8D7C3C007
:10133800C7F0C4C0C8F0C5C0C9F0C6C0CAF0000133
:10134800C7510001C76FC86BC96BCA6BC7C021FF03
:10135800070E0001BB150001C76F000E0001BC1588
:101368000001C86F000E0001BD150001C96F000E15
:101378000001BE150001CA6FC7C0C3F0C8C0C4F0E1
:10138800C9C0C5F0CAC0C6F0050ED8900001C33761
:10139800C437C537C637E82EF8D7C3C0C7F0C4C0AE
:1013A800C8F0C5C0C9F0C6C0CAF00F0122511F0B52
:1013B8000F01226FC7C022FF0001C2A103D00F0195
:1013C800208102D00F0120910001C2A303D00F0198
:1013D800208302D00F012093BFC0D9FFC0C0DAFF1D
:1013E800DF500F01266F000120EE01F0BF51D92612
:1013F800C051DA22DF500F01276F000120EE02F002
:10140800BF51D926C051DA22DF500F01286F0001E1
:1014180020EE03F0BF51D926C051DA22DF500F0168
:10142800296F000120EE04F0BF51D926C051DA22FD
:10143800DF500F012A6F000120EE05F0BF51D926B9
:10144800C051DA22DF500F012B6F000120EE06F0A9
:10145800BF51D926C051DA22DF500F012C6F00018D
:1014680020EE07F0BF51D926C051DA22DF500F0114
:101478002D6F0F0120871200000E0B6E74BE0B80BB
:1014880074BC0B820F0150AF43D101C0D9FF02C019
:10149800DAFFDE6ADE6ADE6ADD6A20EE04F00150F9
:1014A800D9260250DA2256CFDFFF20EE05F0015090
:1014B800D9260250DA2257CFDFFF20EE06F001507E
:1014C800D9260250DA2258CFDFFF20EE07F001506C
:1014D800D9260250DA2259CFDFFF20EE08F001505A
:1014E800D9260250DA225ACFDFFF20EE09F0015048
:1014F800D9260250DA225BCFDFFF20EE0AF0015036
:10150800D9260250DA225CCFDFFF20EE0BF0015023
:10151800D9260250DA225DCFDFFF20EE0EF001500F
:10152800D9260250DA220F0155AD02D0010E01D0A2
:10153800000EDF6E20EE0DF00150D9260250DA229F
:101548000F0155510F0BDF6E20EE0CF00150D9261C
:101558000250DA220F0152A702D0010E01D0000E6C
:10156800DF6E0F0152B744D051CF03F0046A056A09
:10157800066A030ED8900336043605360636E82E7A
:10158800F9D701C0D9FF02C0DAFF03C0DEFF04C0EB
:10159800DEFF05C0DEFF06C0DEFF0F015239E8425C
:1015A800070B070B0C6E01C0D9FF02C0DAFFDECFB4
:1015B80003F0DECF04F0DECF05F0DECF06F00C50EE
:1015C8000324076E000E0420086E000E0520096E25
:1015D800000E06200A6E01C0D9FF02C0DAFF07C05C
:1015E800DEFF08C0DEFF09C0DEFF0AC0DEFF8DD0C7
:1015F80054CF03F0046A056A066A01C0D9FF02C025
:10160800DAFF03C0DEFF04C0DEFF05C0DEFF06C050
:10161800DEFF53CF03F0046A056A066A05C006F0C8
:1016280004C005F003C004F0036A01C0D9FF02C07A
:10163800DAFF0350DE260450DE220550DE22065073
:10164800DE220F0152A10CD001C0D9FF02C0DAFF7F
:10165800000EDE12000EDE12010EDE12000EDE1289
:101668000F0152A30CD001C0D9FF02C0DAFF000E4F
:10167800DE12000EDE12020EDE12000EDE120F0166
:1016880052AB0CD001C0D9FF02C0DAFF000EDE1247
:10169800000EDE12040EDE12000EDE120F0152AD35
:1016A8000CD001C0D9FF02C0DAFF000EDE12000E16
:1016B800DE12080EDE12000EDE120F0152AF0CD041
:1016C80001C0D9FF02C0DAFF000EDE12000EDE12E2
:1016D800100EDE12000EDE1251CF03F0046A056A06
:1016E800066A150ED8900336043605360636E82EF7
:1016F800F9D701C0D9FF02C0DAFF0350DE12045047
:10170800DE120550DE120650DE120F01509F120045
:1017180060AE120001C0D9FF02C0DAFFDE6ADE6ADD
:10172800DE6ADD6A20EE04F00150D9260250DA2282
:1017380066CFDFFF20EE05F00150D9260250DA22ED
:1017480067CFDFFF20EE06F00150D9260250DA22DB
:1017580068CFDFFF20EE07F00150D9260250DA22C9
:1017680069CFDFFF20EE08F00150D9260250DA22B7
:101778006ACFDFFF20EE09F00150D9260250DA22A5
:101788006BCFDFFF20EE0AF00150D9260250DA2293
:101798006CCFDFFF20EE0BF00150D9260250DA2281
:1017A8006DCFDFFF20EE0EF00150D9260250DA226D
:1017B80065AC02D0010E01D0000EDF6E20EE0DF0F8
:1017C8000150D9260250DA2265500F0BDF6E20EE49
:1017D8000CF00150D9260250DA2262A602D0010E7E
:1017E80001D0000EDF6E62B643D061CF03F0046A09
:1017F800056A066A030ED89003360436053606369F
:10180800E82EF9D701C0D9FF02C0DAFF03C0DEFF16
:1018180004C0DEFF05C0DEFF06C0DEFF6238E84216
:10182800070B070B0C6E01C0D9FF02C0DAFFDECF31
:1018380003F0DECF04F0DECF05F0DECF06F00C506B
:101848000324076E000E0420086E000E0520096EA2
:10185800000E06200A6E01C0D9FF02C0DAFF07C0D9
:10186800DEFF08C0DEFF09C0DEFF0AC0DEFF88D049
:1018780064CF03F0046A056A066A01C0D9FF02C092
:10188800DAFF03C0DEFF04C0DEFF05C0DEFF06C0CE
:10189800DEFF63CF03F0046A056A066A05C006F036
:1018A80004C005F003C004F0036A01C0D9FF02C0F8
:1018B800DAFF0350DE260450DE220550DE220650F1
:1018C800DE2262A00CD001C0D9FF02C0DAFF000EF0
:1018D800DE12000EDE12010EDE12000EDE1262A211
:1018E8000CD001C0D9FF02C0DAFF000EDE12000ED4
:1018F800DE12020EDE12000EDE1262AA0CD001C049
:10190800D9FF02C0DAFF000EDE12000EDE12040E4E
:10191800DE12000EDE1262AC0CD001C0D9FF02C08C
:10192800DAFF000EDE12000EDE12080EDE12000EC6
:10193800DE1262AE0CD001C0D9FF02C0DAFF000E81
:10194800DE12000EDE12100EDE12000EDE1261CF65
:1019580003F0046A056A066A150ED8900336043641
:1019680005360636E82EF9D701C0D9FF02C0DAFFDE
:101978000350DE120450DE120550DE120650DE124D
:10198800609E120008EC12F080828282010E000133
:10199800C96FF40EC86F99EC13F080928292060E0C
:1019A800DBEC13F0FE0E0001DD6F0001DD5102ECEF
:1019B80014F03B80FC0E0001BB6F7F0EECEC12F0C4
:1019C800828A828888C0D5F089C0D6F08AC0D7F0CC
:1019D8008BC0D8F00001D51FD61FD71FD81FD52B15
:1019E800000ED623D723D82328500001D52500017F
:1019F800D96F29500001D6210001DA6F2A50000161
:101A0800D7210001DB6F2B500001D8210001DC6FCA
:101A18000001DC510001DB110001DA1105E11E0EA5
:101A28000001D95DD8A02BD1C9EC13F0E806D8A4E1
:101A3800FBD7060E0001BB6F000EBC6F000EBD6F1A
:101A4800000EBE6FB30E0001BF6F000E0001C06F25
:101A5800080E0001C16FFC0E0001C26F7AEC06F09F
:101A68003BA0FFD03B90345030240001D56F355057
:101A780031200001D66FD8900001D6310001D86F0F
:101A88000001D5310001D76FD7C03CF0D8C03DF078
:101A98003E6A3F6ADC0E246E050E256E000E266E29
:101AA800000E276E24C0D5F025C0D6F00001D51F42
:101AB800D61FD54BD62B3C500001D5250001BB6F56
:101AC8003D500001D6210001BC6FB3EC13F0BBC040
:101AD8002EF0BCC02FF0000E0001BE6F960EBD6F39
:101AE8002EC0BBF02FC0BCF0B0EC12F0BBC0C2F0EF
:101AF800BCC0C3F0000E0001BE6F960EBD6F2EC0B5
:101B0800BBF02FC0BCF0B0EC12F0BBC0C4F0BCC03E
:101B1800C5F07EEC13F0D8900001C2370001C3373E
:101B28000001C2C078F00001C3C079F000017A6BEF
:101B38007B6B00017BBF8BD000017B5100017A11C8
:101B48000001791105E1020E0001785DD8A07FD06F
:101B580024C0D5F025C0D6F026C0D7F027C0D8F0CD
:101B68000001D51FD61FD71FD81FD52B000ED6238F
:101B7800D723D8233C500001D5250001D96F3D500B
:101B88000001D6210001DA6F3E500001D721000183
:101B9800DB6F3F500001D8210001DC6F0001DCBF82
:101BA80033D00001DC510001DB110001DA1104E13E
:101BB8000001D905D8A028D078C0D5F079C0D6F0D2
:101BC8007AC0D7F07BC0D8F00001D51FD61FD71F29
:101BD800D81FD52B000ED623D723D8233250000187
:101BE800D525206E33500001D621216E000E00014C
:101BF800D721226E000E0001D821236E23AE2DD0EE
:101C0800000E206E000E1DD0325000017825206E87
:101C1800335000017921216E000E00017A21226ED5
:101C2800000E00017B21236E23BE17D02350221003
:101C380005E12004040E2158D8A00FD0FF0E206E15
:101C4800030E216E000E226E000E236E06D032C0E7
:101C580020F033C021F0226A236A20C032F021C06C
:101C680033F028C088F029C089F02AC08AF02BC038
:101C78008BF020C0BBF021C0BCF03AEC13F084C05C
:101C8800D5F085C0D6F086C0D7F087C0D8F000015F
:101C9800D51FD61FD71FD81FD52B000ED623D72365
:101CA800D82328500001D5250001D96F29500001FB
:101CB800D6210001DA6F2A500001D7210001DB6F1D
:101CC8002B500001D8210001DC6F0001DC5100011C
:101CD800DB1108E1F50E0001D95D010E0001DA59AA
:101CE800D8A044D03ABE1ED0C9EC13F0E806D8A458
:101CF800FBD7020E0001BB6F000EBC6F000EBD6F5C
:101D0800000EBE6FA30E0001BF6F000E0001C06F72
:101D1800080E0001C16FFC0E0001C26F7AEC06F0DC
:101D28003A8E1CD03AB23AA607D03AA405D03A92D5
:101D38003A963A94809211D08082000E0001C96FC1
:101D4800C80EC86F99EC13F08092000E0001C96F9D
:101D5800C80EC86F99EC13F080823A9E28C084F0B0
:101D680029C085F02AC086F02BC087F08CC0D5F03A
:101D78008DC0D6F08EC0D7F08FC0D8F00001D51F27
:101D8800D61FD71FD81FD52B000ED623D723D8236D
:101D980028500001D5250001D96F29500001D6210E
:101DA8000001DA6F2A500001D7210001DB6F2B50A8
:101DB8000001D8210001DC6F0001DC510001DB11BA
:101DC8000001DA1105E1650E0001D95DD8A0FAD548
:101DD80060EC12F028C08CF029C08DF02AC08EF07B
:101DE8002BC08FF0EFD50001C46F0001C405D8A443
:101DF80056D00001BF29D8A452D0BBC0C0F0BCC087
:101E0800C1F0BDC0C2F0BEC0C3F0040E06D00001D0
:101E1800D890C333C233C133C033E82EF8D7C0C01B
:101E2800C5F0C1C0C6F0C2C0C7F0C3C0C8F0000149
:101E3800C5510001C56FC66BC76BC86BC5C018FF1D
:101E4800070E0001BB150001C56F000E0001BC158F
:101E58000001C66F000E0001BD150001C76F000E1E
:101E68000001BE150001C86FC5C0C0F0C6C0C1F0F2
:101E7800C7C0C2F0C8C0C3F0050ED8900001C03773
:101E8800C137C237C337E82EF8D7C0C0C5F0C1C0C4
:101E9800C6F0C2C0C7F0C3C0C8F0C5C019FF020E63
:101EA8000001C419D8A456D00001BF29D8A452D023
:101EB800BBC0C0F0BCC0C1F0BDC0C2F0BEC0C3F062
:101EC800040E06D00001D890C333C233C133C033E7
:101ED800E82EF8D7C0C0C5F0C1C0C6F0C2C0C7F070
:101EE800C3C0C8F00001C5510001C56FC66BC76B00
:101EF800C86BC5C01CFF070E0001BB150001C56FEC
:101F0800000E0001BC150001C66F000E0001BD15D2
:101F18000001C76F000E0001BE150001C86FC5C0E3
:101F2800C0F0C6C0C1F0C7C0C2F0C8C0C3F0050E3B
:101F3800D8900001C037C137C237C337E82EF8D769
:101F4800C0C0C5F0C1C0C6F0C2C0C7F0C3C0C8F0A9
:101F5800C5C01DFF0001C405D8A487D0F70E000135
:101F6800BF19D8A482D00001BB510001C56FC66B50
:101F7800C76BC86BC5C01BFF000E0001BB15000175
:101F8800C56FFF0E0001BC150001C66F000E0001F1
:101F9800BD150001C76F000E0001BE150001C86F16
:101FA800C5C0C0F0C6C0C1F0C7C0C2F0C8C0C3F049
:101FB800C1C0C0F0C2C0C1F0C3C0C2F00001C36B51
:101FC800C0C0C5F0C1C0C6F0C2C0C7F0C3C0C8F029
:101FD800C5C01AFF0001BDA103D00F01198102D0AD
:101FE8000F0119910001BDA303D00F01198302D07D
:101FF8000F0119930001BDA503D00F01198B02D061
:102008000F01199B0001BDA703D00F01198D02D044
:102018000F01199D0001BDA903D00F01198F02D02E
:102028000F01199FBBC0C0F0BCC0C1F0BDC0C2F059
:10203800BEC0C3F0160E06D00001D890C333C23319
:10204800C133C033E82EF8D7C0C0C5F0C1C0C6F050
:10205800C2C0C7F0C3C0C8F00001C5510001C56FB8
:10206800C66BC76BC86BC5C018FF020E0001C41948
:10207800D8A41200F70E0001BF19D8A4120000015D
:10208800BB510001C56FC66BC76BC86BC5C01FFFCE
:10209800000E0001BB150001C56FFF0E0001BC1545
:1020A8000001C66F000E0001BD150001C76F000ECC
:1020B8000001BE150001C86FC5C0C0F0C6C0C1F0A0
:1020C800C7C0C2F0C8C0C3F0C1C0C0F0C2C0C1F030
:1020D800C3C0C2F00001C36BC0C0C5F0C1C0C6F028
:1020E800C2C0C7F0C3C0C8F0C5C01EFF0001BDA173
:1020F80003D00F011D8102D00F011D910001BDA366
:1021080003D00F011D8302D00F011D930001BDA54F
:1021180003D00F011D8B02D00F011D9B0001BDA72D
:1021280003D00F011D8D02D00F011D9D0001BDA917
:1021380003D00F011D8F02D00F011D9FBBC0C0F03F
:10214800BCC0C1F0BDC0C2F0BEC0C3F0160E06D000
:102158000001D890C333C233C133C033E82EF8D757
:10216800C0C0C5F0C1C0C6F0C2C0C7F0C3C0C8F087
:102178000001C5510001C56FC66BC76BC86BC5C0F0
:102188001CFF12000001D26F800EECEC13F0000E61
:10219800706E000E716E000E726E0001CB41E84247
:1021A800C00B0001CB6F0001CB5170120001CC5164
:1021B80070120001D25171120001C939E842F80BBE
:1021C8000001C96F0001C95171120001CDA5718CC0
:1021D8000001CDB1718E0001CA5172120001CDB358
:1021E800728C0001CD51600B606E0001CD51100B57
:1021F800FF0AD8B4608460CF50FF000E0001BB6FA7
:10220800000EBC6F000EBD6F000EBE6FF70E000112
:10221800BF6F010EF7EC0EF0000E0001BB6F000E51
:10222800BC6F000EBD6F000EBE6FF70E0001BF6FD2
:10223800020EF7EC0EF00FD0F70E0001D36F07D0A7
:102248000001D3690001D46928D00001D369F70ED1
:102258000001D46F22D09F0E0001CE6FFF0E000147
:10226800CF6F0001CD51600B0001D06FD16B000121
:10227800CE510001D0130001CF510001D11300014C
:10228800D151000AD8A4E1D70001D051BF0AD8B46F
:10229800D7D7600AD8B4D0D7D8D7000E0001BB6F03
:1022A800000EBC6F000EBD6F000EBE6FD3C0BFF036
:1022B800000EF7EC00F0000E0001BB6F000EBC6FC3
:1022C800000EBD6F000EBE6FD3C0BFF0010EF7EC5D
:1022D80000F0000E0001BB6F000EBC6F000EBD6F5A
:1022E800000EBE6FD4C0BFF0020EF7EC00F0000E77
:1022F8000001BB6F000EBC6F000EBD6F000EBE6FFD
:10230800D4C0BFF0030EF7EC00F0000E0001BB6F65
:10231800000EBC6F000EBD6F000EBE6FD4C0BFF0C4
:10232800040EF7EC00F0000E0001BB6F000EBC6F4E
:10233800000EBD6F000EBE6FD4C0BFF0050EF7ECE7
:1023480000F0000EECEC13F01200000E0001CD6F4F
:102358000001CBAF08D00001CA6DCB1FD8B0CB2B82
:10236800010E0001CD6F0001C9AF08D00001C86D92
:10237800C91FD8B0C92B010E0001CD1B000E0001EA
:10238800CF6F000ECE6F0001CA510001CB11D8B437
:102398002CD0010E0001CC6F06D00001D890CA37AE
:1023A800CB370001CC2B0001CBAFF7D70001D89079
:1023B800CE37CF370001CA510001C85D0001CB51AB
:1023C8000001C959D8A00AD00001CA510001C85F4C
:1023D8000001CB510001C95B0001CE810001D890FA
:1023E800CB33CA330001CC2FE1D70001CD51000116
:1023F800D8B405D00001CE6DCF1FD8B0CF2BCEC03A
:10240800C8F0CFC0C9F01200060E0001C96F050E52
:102418000001CA6F010E0001CB6F030E0001CC6FE3
:102428009D0E0001CD6F040EC6EC10F0D08EF29216
:10243800A492A490A592A590F28EF28C010EB16E92
:10244800A192A292630EB36EC00EB26EC280C29405
:10245800C296C298C29AC190C182C184C186C198ED
:10246800C19AC080C092C084C096C088C08AC09EED
:10247800A382A380A082000E896E7D0E926E000E4C
:102488008A6EFB0E936E000E8B6E000E946E000E1D
:102498008C6E000E956E000E8D6E9668000E000113
:1024A800C96F020EC86F99EC13F0FC0E0001BB6FE8
:1024B8007F0EECEC12F01200C282C2B2FED7C4CF7B
:1024C80092F00001936B92C0C2F093C0C3F0000E6B
:1024D8000001C56F0E0EC46F7EEC13F0C2C0C8F0C9
:1024E800C3C0C9F0000E0001CB6FCA69A9EC11F096
:1024F800C8C092F0C9C093F0000193BF08D0000192
:10250800935129E1080E0001925DD8B01200C9EC80
:1025180013F0E806D8A4FBD7090E0001BB6F000E24
:10252800BC6F000EBD6F000EBE6FA30E0001BF6F23
:10253800000E0001C06F080E0001C16FFC0E000103
:10254800C26F7AEC06F0030E0001C96FE80EC86F7F
:1025580099EC13F012001200000E0001C16F000E7A
:10256800C06F0001BD510001BE11D8B42CD0010EBE
:102578000001BF6F06D00001D890BD37BE370001FB
:10258800BF2B0001BEAFF7D70001D890C037C137C5
:102598000001BD510001BB5D0001BE510001BC59E5
:1025A800D8A00AD00001BD510001BB5F0001BE5197
:1025B8000001BC5B0001C0810001D890BE33BD336F
:1025C8000001BF2FE1D7C0C0BBF0C1C0BCF01200F2
:1025D8000001BC6FBA50C0090001BC15BA6EBA50F0
:1025E8000F090001BB15BA6E3F0E0001BC19D8A433
:1025F80002D095981200BF0E0001BC19D8A403D0D0
:102608009598959A12007F0E0001BC19D8B404D091
:102618000001BC29D8A412009598959A959C959E7E
:10262800120000EE60F05B0EEE6AE806FDE13B6A20
:102638003A6A00EE20F01A0EEE6AE806FDE1160E80
:10264800F66E280EF76E000EF86E00EE3CF010EEF7
:1026580007F00900F5CFEEFFE550E150FAE14390AD
:102668004392000EF86E0001C6EF0CF0BBC0BDF03F
:10267800BCC0BEF0060ED8900001BD37BE37E82EAC
:10268800FAD7BDC0BFF0BEC0C0F0C0C0BBFFBFC05E
:10269800BDF00001D890BD330001D890BD33300E95
:1026A8000001BD17BA50CF0B0001BD11BA6E120060
:1026B800026EBA50C0090214BA6EBA500F0901145A
:1026C800BA6E3F0E0218D8A402D095981200BF0E19
:1026D8000218D8A403D09598959A12007F0E021874
:1026E800D8B403D00228D8A412009598959A959C3E
:1026F800959E12000001C2510001C403F3CFC6F039
:10270800F4CFC7F00001C2510001C503F350000126
:10271800C7270001C3510001C403F3500001C727B4
:10272800C6C0C2F0C7C0C3F0120042C0C2F0000168
:10273800C36BC8C0C4F0C9C0C5F07EEC13F0C2C0FA
:102748002CF0C3C02DF006D0500EE82EFED72C0674
:10275800D8A02D062C502D10D8B41200F5D70001A2
:10276800BCAF0ED0BBC0BDF0BCC0BEF00001BD1FE9
:10277800BE1FBD4BBE2BBDC0BBF0BEC0BCF012001F
:10278800BBC0BBF0BCC0BCF01200010E0001BB6FA7
:102798000F0140A709D00F0130A706D00F0120A7CD
:1027A80003D0000E0001BB6F0001BB5112000001F5
:1027B800BB6F0001BB51FB0BCA6E000ECC6E9E9224
:1027C8000001BBAF02D09D8201D09D92CA84120045
:1027D8000001BB6FBBC06FFF6E50E00B0001BB195F
:1027E800D8B41200F9D7010E016E60BE05D00F01F2
:1027F80050BF02D0000E016E015012000001BB6FE5
:102808000C0EBA6ECA94BBC0CBFFCA84120001007A
:06281800000001001000A9
:020000040030CA
:0E000000FF021F1EFF8281FF0FC00FE00F40A6
:00000001FF
