:040000009CEF00F081
:100018004180D8CF0DF0E8CF0EF0E0CF0FF0FACF47
:1000280010F0FBCF11F0E9CF12F0EACF13F0E1CFD7
:1000380014F0E2CF15F0D9CF16F0DACF17F0F3CFDE
:1000480018F0F4CF19F0F6CF1AF0F7CF1BF0F8CF6D
:100058001CF0F5CF1DF0A4B002D0A4A238D0A4B0F3
:1000680082823BEC28F00009D8B42FD0100E016E24
:10007800010E026E84EC0FF001011EA102D03E8C2D
:1000880001D03E9C10C126F011C127F012C128F002
:1000980013C129F0000E1E6E070E1E6401D014D085
:1000A8001E50010D140EF324D96E010EF420DA6EE1
:1000B8001E50010DEE0EF324E16E000EF420E26EE8
:1000C800DFCFE7FF1E2AE8D73E8AA490A492A1A218
:1000D8000BD0010E3226000E332234223522630E55
:1000E800B36EC00EB26EA1921DC0F5FF1CC0F8FF22
:1000F8001BC0F7FF1AC0F6FF19C0F4FF18C0F3FFC2
:1001080017C0DAFF16C0D9FF15C0E2FF14C0E1FF1F
:1001180013C0EAFF12C0E9FF11C0FBFF10C0FAFFCD
:100128000FC0E0FF0EC0E8FF0DC0D8FF41901000DF
:04013800E2EF26F0DC
:100D0000000000803F1872313FF0FD753E47586388
:100D10003D58951D3C82C4AE3AA8782139EF9380A6
:100D200037A092A7354656153400000000C4FF7F57
:100D30003F80EFFFBE90E1A93EEC8276BE82AD2BF4
:100D40003E0E3CC3BD87D1133D4178D3BB000001AB
:100D5000646F000164510001D8A453D02328D8A4A3
:100D600050D00F0101971FC060F020C061F021C07A
:100D700062F022C063F0040E06D00001D890633305
:100D8000623361336033E82EF8D760C065F061C02C
:100D900066F062C067F063C068F000016551000151
:100DA000656F666B676B686B65C000FF070E1F148D
:100DB0000001656F000E20140001666F000E211403
:100DC0000001676F000E22140001686F65C060F0BB
:100DD00066C061F067C062F068C063F0050ED8902D
:100DE00000016037613762376337E82EF8D760C09B
:100DF00065F061C066F062C067F063C068F065C00E
:100E000001FF00016405D8A453D02328D8A450D0F2
:100E10000F0105971FC060F020C061F021C062F093
:100E200022C063F0040E06D00001D8906333623311
:100E300061336033E82EF8D760C065F061C066F0BA
:100E400062C067F063C068F0000165510001656F22
:100E5000666B676B686B65C004FF070E1F140001AB
:100E6000656F000E20140001666F000E2114000152
:100E7000676F000E22140001686F65C060F066C0E5
:100E800061F067C062F068C063F0050ED8900001A1
:100E90006037613762376337E82EF8D760C065F096
:100EA00061C066F062C067F063C068F065C005FFAE
:100EB000020E00016419D8A453D02328D8A450D01E
:100EC0000F0109971FC060F020C061F021C062F0DF
:100ED00022C063F0040E06D00001D8906333623361
:100EE00061336033E82EF8D760C065F061C066F00A
:100EF00062C067F063C068F0000165510001656F72
:100F0000666B676B686B65C008FF070E1F140001F6
:100F1000656F000E20140001666F000E21140001A1
:100F2000676F000E22140001686F65C060F066C034
:100F300061F067C062F068C063F0050ED8900001F0
:100F40006037613762376337E82EF8D760C065F0E5
:100F500061C066F062C067F063C068F065C009FFF9
:100F6000030E00016419D8A453D02328D8A450D06C
:100F70000F010D971FC060F020C061F021C062F02A
:100F800022C063F0040E06D00001D89063336233B0
:100F900061336033E82EF8D760C065F061C066F059
:100FA00062C067F063C068F0000165510001656FC1
:100FB000666B676B686B65C00CFF070E1F14000142
:100FC000656F000E20140001666F000E21140001F1
:100FD000676F000E22140001686F65C060F066C084
:100FE00061F067C062F068C063F0050ED890000140
:100FF0006037613762376337E82EF8D760C065F035
:1010000061C066F062C067F063C068F065C00DFF44
:10101000040E00016419D8A453D02328D8A450D0BA
:101020000F0111971FC060F020C061F021C062F075
:1010300022C063F0040E06D00001D89063336233FF
:1010400061336033E82EF8D760C065F061C066F0A8
:1010500062C067F063C068F0000165510001656F10
:10106000666B676B686B65C010FF070E1F1400018D
:10107000656F000E20140001666F000E2114000140
:10108000676F000E22140001686F65C060F066C0D3
:1010900061F067C062F068C063F0050ED89000018F
:1010A0006037613762376337E82EF8D760C065F084
:1010B00061C066F062C067F063C068F065C011FF90
:1010C000050E00016419D8A453D02328D8A450D009
:1010D0000F0115971FC060F020C061F021C062F0C1
:1010E00022C063F0040E06D00001D890633362334F
:1010F00061336033E82EF8D760C065F061C066F0F8
:1011000062C067F063C068F0000165510001656F5F
:10111000666B676B686B65C014FF070E1F140001D8
:10112000656F000E20140001666F000E211400018F
:10113000676F000E22140001686F65C060F066C022
:1011400061F067C062F068C063F0050ED8900001DE
:101150006037613762376337E82EF8D760C065F0D3
:1011600061C066F062C067F063C068F065C015FFDB
:10117000000164510001D8A47ED0F70E2318D8A432
:101180007AD00F0101871F500001656F666B676B96
:10119000686B65C003FF000E1F140001656FFF0E32
:1011A00020140001666F000E21140001676F000E0D
:1011B00022140001686F65C060F066C061F067C00E
:1011C00062F068C063F061C060F062C061F063C04B
:1011D00062F00001636B60C065F061C066F062C0E0
:1011E00067F063C068F065C002FF21A003D00F0163
:1011F000018102D00F01019121A203D00F010183CF
:1012000002D00F01019321A403D00F01018B02D062
:101210000F01019B21A603D00F01018D02D00F0108
:10122000019D21A803D00F01018F02D00F01019F62
:101230001FC060F020C061F021C062F022C063F0E6
:10124000160E06D00001D8906333623361336033E9
:10125000E82EF8D760C065F061C066F062C067F044
:1012600063C068F0000165510001656F666B676BD4
:10127000686B65C000FF00016405D8A47ED0F70E3E
:101280002318D8A47AD00F0105871F500001656F7D
:10129000666B676B686B65C007FF000E1F1400016B
:1012A000656FFF0E20140001666F000E211400010F
:1012B000676F000E22140001686F65C060F066C0A1
:1012C00061F067C062F068C063F061C060F062C046
:1012D00061F063C062F00001636B60C065F061C0E3
:1012E00066F062C067F063C068F065C006FF21A0C9
:1012F00003D00F01058102D00F01059121A203D077
:101300000F01058302D00F01059321A403D00F0123
:10131000058B02D00F01059B21A603D00F01058D7F
:1013200002D00F01059D21A803D00F01058F02D027
:101330000F01059F1FC060F020C061F021C062F066
:1013400022C063F0160E06D00001D89063336233DA
:1013500061336033E82EF8D760C065F061C066F095
:1013600062C067F063C068F0000165510001656FFD
:10137000666B676B686B65C004FF020E0001641941
:10138000D8A47ED0F70E2318D8A47AD00F010987ED
:101390001F500001656F666B676B686B65C00BFF64
:1013A000000E1F140001656FFF0E20140001666F10
:1013B000000E21140001676F000E22140001686FF7
:1013C00065C060F066C061F067C062F068C063F03D
:1013D00061C060F062C061F063C062F00001636BE5
:1013E00060C065F061C066F062C067F063C068F01D
:1013F00065C00AFF21A003D00F01098102D00F01AF
:10140000099121A203D00F01098302D00F01099392
:1014100021A403D00F01098B02D00F01099B21A643
:1014200003D00F01098D02D00F01099D21A803D01F
:101430000F01098F02D00F01099F1FC060F020C06B
:1014400061F021C062F022C063F0160E06D00001E8
:10145000D8906333623361336033E82EF8D760C0CD
:1014600065F061C066F062C067F063C068F00001BB
:1014700065510001656F666B676B686B65C008FF3F
:10148000030E00016419D8A47ED0F70E2318D8A447
:101490007AD00F010D871F500001656F666B676B77
:1014A000686B65C00FFF000E1F140001656FFF0E13
:1014B00020140001666F000E21140001676F000EFA
:1014C00022140001686F65C060F066C061F067C0FB
:1014D00062F068C063F061C060F062C061F063C038
:1014E00062F00001636B60C065F061C066F062C0CD
:1014F00067F063C068F065C00EFF21A003D00F0144
:101500000D8102D00F010D9121A203D00F010D8397
:1015100002D00F010D9321A403D00F010D8B02D037
:101520000F010D9B21A603D00F010D8D02D00F01DD
:101530000D9D21A803D00F010D8F02D00F010D9F2B
:101540001FC060F020C061F021C062F022C063F0D3
:10155000160E06D00001D8906333623361336033D6
:10156000E82EF8D760C065F061C066F062C067F031
:1015700063C068F0000165510001656F666B676BC1
:10158000686B65C00CFF040E00016419D8A47ED0FE
:10159000F70E2318D8A47AD00F0111871F5000012D
:1015A000656F666B676B686B65C013FF000E1F1479
:1015B0000001656FFF0E20140001666F000E2114FC
:1015C0000001676F000E22140001686F65C060F0B3
:1015D00066C061F067C062F068C063F061C060F02F
:1015E00062C061F063C062F00001636B60C065F0CF
:1015F00061C066F062C067F063C068F065C012FF4A
:1016000021A003D00F01118102D00F01119121A25D
:1016100003D00F01118302D00F01119321A403D035
:101620000F01118B02D00F01119B21A603D00F01D6
:10163000118D02D00F01119D21A803D00F01118F30
:1016400002D00F01119F1FC060F020C061F021C0C7
:1016500062F022C063F0160E06D00001D89063330A
:10166000623361336033E82EF8D760C065F061C043
:1016700066F062C067F063C068F000016551000168
:10168000656F666B676B686B65C010FF050E0001C8
:101690006419D8A41200F70E2318D8A412000F0161
:1016A00015871F500001656F666B676B686B65C0BF
:1016B00017FF000E1F140001656FFF0E20140001BC
:1016C000666F000E21140001676F000E22140001E6
:1016D000686F65C060F066C061F067C062F068C0A6
:1016E00063F061C060F062C061F063C062F000014D
:1016F000636B60C065F061C066F062C067F063C094
:1017000068F065C016FF21A003D00F01158102D03B
:101710000F01159121A203D00F01158302D00F01F3
:10172000159321A403D00F01158B02D00F01159B37
:1017300021A603D00F01158D02D00F01159D21A800
:1017400003D00F01158F02D00F01159F1FC060F04D
:1017500020C061F021C062F022C063F0160E06D0F6
:101760000001D8906333623361336033E82EF8D7D9
:1017700060C065F061C066F062C067F063C068F089
:10178000000165510001656F666B676B686B65C032
:1017900014FF12000F0140B73BD166C045FF0001A6
:1017A00067AD03D00F01458D02D00F01459D0001AB
:1017B00067A777D0000160510001686F696B6A6BA1
:1017C0006B6B68C044FF000E000160150001686F7C
:1017D000FF0E000161150001696F000E0001621526
:1017E00000016A6F000E0001631500016B6F68C095
:1017F0001FF069C020F06AC021F06BC022F020C049
:101800001FF021C020F022C021F0226A1FC068F022
:1018100020C069F021C06AF022C06BF068C043FFAD
:10182000000E0F01426F0F014287000162A102D03A
:101830000F014281000162A302D00F014283000127
:1018400062A502D00F01428B000162A702D00F01F6
:10185000428D000162A902D00F01428F60C01FF0CB
:1018600061C020F062C021F063C022F0160E05D0E6
:10187000D8902232213220321F32E82EF9D71FC0F1
:1018800068F020C069F021C06AF022C06BF000014E
:1018900068510001686F696B6A6B6B6B68C041FFD0
:1018A00057D00F01429760C01FF061C020F062C0A6
:1018B00021F063C022F0040E05D0D89022322132EC
:1018C00020321F32E82EF9D71FC068F020C069F01F
:1018D00021C06AF022C06BF0000168510001686FFE
:1018E000696B6A6B6B6B68C041FF070E0001601586
:1018F0000001686F000E000161150001696F000EA4
:101900000001621500016A6F000E000163150001FD
:101910006B6F68C01FF069C020F06AC021F06BC017
:1019200022F0050ED8901F36203621362236E82EBA
:10193000F9D71FC068F020C069F021C06AF022C04A
:101940006BF00F0142511F0B0F01426F68C042FF45
:10195000000167A103D00F01408102D00F01409127
:10196000000167A303D00F01408302D00F01409311
:1019700064C0D9FF65C0DAFFDF500F01466F000178
:1019800020EE01F06451D9266551DA22DF500F01B3
:10199000476F000120EE02F06451D9266551DA222A
:1019A000DF500F01486F000120EE03F06451D9268B
:1019B0006551DA22DF500F01496F000120EE04F07B
:1019C0006451D9266551DA22DF500F014A6F0001B8
:1019D00020EE05F06451D9266551DA22DF500F015F
:1019E0004B6F000120EE06F06451D9266551DA22D2
:1019F000DF500F014C6F000120EE07F06451D92633
:101A00006551DA22DF500F014D6F0F014087120040
:101A10000F0130B73BD166C035FF000167AD03D081
:101A20000F01358D02D00F01359D000167A777D0DA
:101A3000000160510001686F696B6A6B6B6B68C075
:101A400034FF000E000160150001686FFF0E0001F9
:101A500061150001696F000E0001621500016A6FD7
:101A6000000E0001631500016B6F68C01FF069C0B4
:101A700020F06AC021F06BC022F020C01FF021C00E
:101A800020F022C021F0226A1FC068F020C069F057
:101A900021C06AF022C06BF068C033FF000E0F0156
:101AA000326F0F013287000162A102D00F01328133
:101AB000000162A302D00F013283000162A502D0AF
:101AC0000F01328B000162A702D00F01328D00019D
:101AD00062A902D00F01328F60C01FF061C020F0F8
:101AE00062C021F063C022F0160E05D0D8902232D9
:101AF000213220321F32E82EF9D71FC068F020C0F3
:101B000069F021C06AF022C06BF000016851000149
:101B1000686F696B6A6B6B6B68C031FF57D00F01E0
:101B2000329760C01FF061C020F062C021F063C036
:101B300022F0040E05D0D8902232213220321F32FA
:101B4000E82EF9D71FC068F020C069F021C06AF004
:101B500022C06BF0000168510001686F696B6A6B0D
:101B60006B6B68C031FF070E000160150001686FE4
:101B7000000E000161150001696F000E0001621581
:101B800000016A6F000E0001631500016B6F68C0F1
:101B90001FF069C020F06AC021F06BC022F0050E72
:101BA000D8901F36203621362236E82EF9D71FC0AE
:101BB00068F020C069F021C06AF022C06BF00F010C
:101BC00032511F0B0F01326F68C032FF000167A155
:101BD00003D00F01308102D00F013091000167A3C3
:101BE00003D00F01308302D00F01309364C0D9FFBE
:101BF00065C0DAFFDF500F01366F000120EE01F003
:101C00006451D9266551DA22DF500F01376F000188
:101C100020EE02F06451D9266551DA22DF500F011F
:101C2000386F000120EE03F06451D9266551DA22A5
:101C3000DF500F01396F000120EE04F06451D92606
:101C40006551DA22DF500F013A6F000120EE05F0F6
:101C50006451D9266551DA22DF500F013B6F000134
:101C600020EE06F06451D9266551DA22DF500F01CB
:101C70003C6F000120EE07F06451D9266551DA224D
:101C8000DF500F013D6F0F01308712000F0120B7A9
:101C9000120066C025FF000167AD03D00F01258D3E
:101CA00002D00F01259D000167A777D00001605188
:101CB0000001686F696B6A6B6B6B68C024FF000E74
:101CC000000160150001686FFF0E00016115000141
:101CD000696F000E0001621500016A6F000E0001BD
:101CE000631500016B6F68C01FF069C020F06AC007
:101CF00021F06BC022F020C01FF021C020F022C0D4
:101D000021F0226A1FC068F020C069F021C06AF08B
:101D100022C06BF068C023FF000E0F01226F0F017D
:101D20002287000162A102D00F012281000162A37B
:101D300002D00F012283000162A502D00F01228B85
:101D4000000162A702D00F01228D000162A902D01A
:101D50000F01228F60C01FF061C020F062C021F02F
:101D600063C022F0160E05D0D890223221322032E4
:101D70001F32E82EF9D71FC068F020C069F021C0DB
:101D80006AF022C06BF0000168510001686F696B56
:101D90006A6B6B6B68C021FF57D00F01229760C040
:101DA0001FF061C020F062C021F063C022F0040E79
:101DB00005D0D8902232213220321F32E82EF9D7B6
:101DC0001FC068F020C069F021C06AF022C06BF02B
:101DD000000168510001686F696B6A6B6B6B68C0CA
:101DE00021FF070E000160150001686F000E000161
:101DF00061150001696F000E0001621500016A6F34
:101E0000000E0001631500016B6F68C01FF069C010
:101E100020F06AC021F06BC022F0050ED8901F366A
:101E2000203621362236E82EF9D71FC068F020C0B0
:101E300069F021C06AF022C06BF00F0122511F0B24
:101E40000F01226F68C022FF000167A103D00F01BC
:101E5000208102D00F012091000167A303D00F0160
:101E6000208302D00F01209364C0D9FF65C0DAFF40
:101E7000DF500F01266F000120EE01F06451D926DA
:101E80006551DA22DF500F01276F000120EE02F0CA
:101E90006451D9266551DA22DF500F01286F000105
:101EA00020EE03F06451D9266551DA22DF500F018C
:101EB000296F000120EE04F06451D9266551DA2221
:101EC000DF500F012A6F000120EE05F06451D92682
:101ED0006551DA22DF500F012B6F000120EE06F072
:101EE0006451D9266551DA22DF500F012C6F0001B1
:101EF00020EE07F06451D9266551DA22DF500F0138
:101F00002D6F0F0120871200000E0B6E74BE0B8028
:101F100074BC0B820F0150AF43D101C0D9FF02C086
:101F2000DAFFDE6ADE6ADE6ADD6A20EE04F0015066
:101F3000D9260250DA2256CFDFFF20EE05F00150FD
:101F4000D9260250DA2257CFDFFF20EE06F00150EB
:101F5000D9260250DA2258CFDFFF20EE07F00150D9
:101F6000D9260250DA2259CFDFFF20EE08F00150C7
:101F7000D9260250DA225ACFDFFF20EE09F00150B5
:101F8000D9260250DA225BCFDFFF20EE0AF00150A3
:101F9000D9260250DA225CCFDFFF20EE0BF0015091
:101FA000D9260250DA225DCFDFFF20EE0EF001507D
:101FB000D9260250DA220F0155AD02D0010E01D010
:101FC000000EDF6E20EE0DF00150D9260250DA220D
:101FD0000F0155510F0BDF6E20EE0CF00150D9268A
:101FE0000250DA220F0152A702D0010E01D0000EDA
:101FF000DF6E0F0152B744D051CF03F0046A056A77
:10200000066A030ED8900336043605360636E82EE7
:10201000F9D701C0D9FF02C0DAFF03C0DEFF04C058
:10202000DEFF05C0DEFF06C0DEFF0F015239E842C9
:10203000070B070B0C6E01C0D9FF02C0DAFFDECF21
:1020400003F0DECF04F0DECF05F0DECF06F00C505B
:102050000324076E000E0420086E000E0520096E92
:10206000000E06200A6E01C0D9FF02C0DAFF07C0C9
:10207000DEFF08C0DEFF09C0DEFF0AC0DEFF8DD034
:1020800054CF03F0046A056A066A01C0D9FF02C092
:10209000DAFF03C0DEFF04C0DEFF05C0DEFF06C0BE
:1020A000DEFF53CF03F0046A056A066A05C006F036
:1020B00004C005F003C004F0036A01C0D9FF02C0E8
:1020C000DAFF0350DE260450DE220550DE220650E1
:1020D000DE220F0152A10CD001C0D9FF02C0DAFFED
:1020E000000EDE12000EDE12010EDE12000EDE12F7
:1020F0000F0152A30CD001C0D9FF02C0DAFF000EBD
:10210000DE12000EDE12020EDE12000EDE120F01D3
:1021100052AB0CD001C0D9FF02C0DAFF000EDE12B4
:10212000000EDE12040EDE12000EDE120F0152ADA2
:102130000CD001C0D9FF02C0DAFF000EDE12000E83
:10214000DE12080EDE12000EDE120F0152AF0CD0AE
:1021500001C0D9FF02C0DAFF000EDE12000EDE124F
:10216000100EDE12000EDE1251CF03F0046A056A73
:10217000066A150ED8900336043605360636E82E64
:10218000F9D701C0D9FF02C0DAFF0350DE120450B4
:10219000DE120550DE120650DE120F01509F1200B3
:1021A00060AE120001C0D9FF02C0DAFFDE6ADE6A4B
:1021B000DE6ADD6A20EE04F00150D9260250DA22F0
:1021C00066CFDFFF20EE05F00150D9260250DA225B
:1021D00067CFDFFF20EE06F00150D9260250DA2249
:1021E00068CFDFFF20EE07F00150D9260250DA2237
:1021F00069CFDFFF20EE08F00150D9260250DA2225
:102200006ACFDFFF20EE09F00150D9260250DA2212
:102210006BCFDFFF20EE0AF00150D9260250DA2200
:102220006CCFDFFF20EE0BF00150D9260250DA22EE
:102230006DCFDFFF20EE0EF00150D9260250DA22DA
:1022400065AC02D0010E01D0000EDF6E20EE0DF065
:102250000150D9260250DA2265500F0BDF6E20EEB6
:102260000CF00150D9260250DA2262A602D0010EEB
:1022700001D0000EDF6E62B643D061CF03F0046A76
:10228000056A066A030ED89003360436053606360C
:10229000E82EF9D701C0D9FF02C0DAFF03C0DEFF84
:1022A00004C0DEFF05C0DEFF06C0DEFF6238E84284
:1022B000070B070B0C6E01C0D9FF02C0DAFFDECF9F
:1022C00003F0DECF04F0DECF05F0DECF06F00C50D9
:1022D0000324076E000E0420086E000E0520096E10
:1022E000000E06200A6E01C0D9FF02C0DAFF07C047
:1022F000DEFF08C0DEFF09C0DEFF0AC0DEFF88D0B7
:1023000064CF03F0046A056A066A01C0D9FF02C0FF
:10231000DAFF03C0DEFF04C0DEFF05C0DEFF06C03B
:10232000DEFF63CF03F0046A056A066A05C006F0A3
:1023300004C005F003C004F0036A01C0D9FF02C065
:10234000DAFF0350DE260450DE220550DE2206505E
:10235000DE2262A00CD001C0D9FF02C0DAFF000E5D
:10236000DE12000EDE12010EDE12000EDE1262A27E
:102370000CD001C0D9FF02C0DAFF000EDE12000E41
:10238000DE12020EDE12000EDE1262AA0CD001C0B6
:10239000D9FF02C0DAFF000EDE12000EDE12040EBC
:1023A000DE12000EDE1262AC0CD001C0D9FF02C0FA
:1023B000DAFF000EDE12000EDE12080EDE12000E34
:1023C000DE1262AE0CD001C0D9FF02C0DAFF000EEF
:1023D000DE12000EDE12100EDE12000EDE1261CFD3
:1023E00003F0046A056A066A150ED89003360436AF
:1023F00005360636E82EF9D701C0D9FF02C0DAFF4C
:102400000350DE120450DE120550DE120650DE12BA
:10241000609E120000018A51800B0001976F00013D
:102420008A518A250001996F000189AF02D000010D
:102430009981000199510001D8B412D00001992965
:10244000D8A409D0000E0001876F000E886F000E1F
:10245000896F000E8A6F0001898F000E000108D07D
:10246000000E0001876F000E886F000E896F000E4E
:102470008A6F00018E51800B0001986F0001975107
:1024800000019819D8B402D00001978D00018E5137
:102490008E250001986F00018DAF02D00001988158
:1024A000000198510001D8B412D000019829D8A495
:1024B00009D0000E00018B6F000E8C6F000E8D6F27
:1024C000000E8E6F00018D8F000E000108D0000EEF
:1024D00000018B6F000E8C6F000E8D6F000E8E6FE3
:1024E000000199510001985DD8B024D0000197AD4A
:1024F00003D0800E0001971B99C09AF098C099F004
:102500009AC098F087C09AF08BC087F09AC08BF081
:1025100088C09AF08CC088F09AC08CF089C09AF07C
:102520008DC089F09AC08DF08AC09AF08EC08AF072
:102530009AC08EF0000E00019A6F000199510001BF
:102540008F6F906B00018F1F901F8F4B902B00019E
:1025500098510001916F926B00018F5100019127FA
:102560000001905100019223000192BF3DD0000173
:10257000925105E11A0E0001915DD8A035D00001FD
:102580008751000188110001891100018A11D8B416
:1025900002D0010E01D0000E00019A6F000E000162
:1025A000876F000E886F000E896F000E8A6F98C0CB
:1025B00099F020D000019AA107D00001D8909A315B
:1025C000010900019A6F03D00001D8909A330001ED
:1025D00087A102D000019A8F00018A358A3389339E
:1025E000883387330001992B000198510001995DD0
:1025F000D8A0E0D7000197BD3FD00001995100015C
:10260000D8A40AD0000E0001876F000E886F000E5C
:10261000896F000E8A6F120000018B51000187271D
:1026200000018C510001882300018D510001892394
:1026300000018E5100018A2300018AA1CCD0000143
:102640009AA109D00001D8909A3300019A5101094A
:1026500000019A6F03D00001D8909A33000187A13E
:1026600002D000019A8F00018A358A33893388337A
:1026700087330001992BAFD000018B510001875D9A
:1026800000018C510001885900018D5100018959C8
:1026900000018A51800A00018F6F00018E51800A6B
:1026A00000018F59D8B050D087C08FF088C090F00B
:1026B00089C091F08AC092F000018F1F901F911F76
:1026C000921F8F2B000E90239123922300018B5198
:1026D00000018F250001936F00018C5100019021B2
:1026E0000001946F00018D51000191210001956F4F
:1026F00000018E51000192210001966FFF0E000132
:1027000093250001876FFF0E000194210001886F5F
:10271000FF0E000195210001896FFF0E0001962137
:1027200000018A6F800E0001971B00019A6D000165
:102730009A510001D8A418D0010E00018727000E7D
:10274000882389238A2310D000018B510001875FE1
:1027500000018C510001885B00018D510001895BF3
:1027600000018E5100018A5B000187510001881130
:102770000001891100018A11D8A42AD000019A51C0
:102780000001D8A425D0000E0001876F000E886FCD
:10279000000E896F000E8A6F12000001D8908737F3
:1027A000883789378A3700019AAF02D000018781C4
:1027B00000019AA103D0D880000102D00001D89076
:1027C0009A37000199510001D8B402D0000199074D
:1027D000000189AFE2D7000E0001986F00019AAFA7
:1027E0000DD09AC08FF07F0E00018F17D8A403D0B0
:1027F000000187A103D0010E0001986F00019851DC
:102800000001D8B426D0010E00018727000E8823CE
:1028100089238A2300018AA11CD087C08FF088C039
:1028200090F089C091F08AC092F000019235923305
:10283000913390338F338FC087F090C088F091C070
:1028400089F092C08AF000019929D8B402D0000121
:10285000992B00019929D8B405D0000199510001A4
:10286000D8A411D0000E0001876F000E886F000EF3
:10287000896F000E8A6F000199510001D8A403D01E
:10288000000E0001976F000199A103D00001898F0C
:1028900002D00001899F0001D890993100018A6F10
:1028A000000197AF02D000018A8F87C087F088C0EF
:1028B00088F089C089F08AC08AF012000001715145
:1028C000800B00017A6F0001715171250001806F4A
:1028D000000170AF02D00001808100018051000131
:1028E000D8B410D000018029D8A409D0000E00016E
:1028F0006E6F000E6F6F000E706F000E716F000133
:10290000708F09D0000E00016E6F000E6F6F000E09
:10291000706F000E716F00017551800B00017A1B02
:1029200000017551752500017B6F000174AF02D065
:1029300000017B8100017B510001D8B410D000015F
:102940007B29D8A409D0000E0001726F000E736FAE
:10295000000E746F000E756F0001748F09D0000EA9
:102960000001726F000E736F000E746F000E756FB2
:1029700000017B510001D8B405D000018051000155
:10298000D8A40AD0000E00016E6F000E6F6F000E0B
:10299000706F000E716F12000001745100016E0320
:1029A000F3CF85F0F4CF86F00001855100017C6FF4
:1029B0007D6B7E6B7F6B000186510001816F826BA6
:1029C000836B846B0001735100016F03F3CF85F0BB
:1029D000F4CF86F00001855100017C27000E7D2395
:1029E0007E237F230001865100018127000E822370
:1029F000832384230001725100017003F3CF85F01B
:102A0000F4CF86F00001855100017C27000E7D2364
:102A10007E237F230001865100018127000E82233F
:102A2000832384237EC07FF07DC07EF07CC07DF058
:102A300000017C6B0001725100016F03F3CF85F040
:102A4000F4CF86F00001855100017C2700018651FA
:102A500000017D23000E00017E23000E00017F2374
:102A60000001735100016E03F3CF85F0F4CF86F0BF
:102A70000001855100017C270001865100017D2362
:102A8000000E00017E23000E00017F237EC07FF038
:102A90007DC07EF07CC07DF000017C6B0001725136
:102AA00000016E03F3CF85F0F4CF86F0000185516D
:102AB00000017C270001865100017D23000E0001EA
:102AC0007E23000E00017F230001745100016F037B
:102AD000F3CF85F0F4CF86F0000185510001812706
:102AE0000001865100018223000E00018323000EA5
:102AF000000184230001735100017003F3CF85F0BE
:102B0000F4CF86F000018551000181270001865134
:102B100000018223000E00018323000E00018423A4
:102B20000001745100017003F3CF85F0F4CF86F0FB
:102B3000000185510001766F000186510001776F19
:102B40000001786B0001796B78C079F077C078F07C
:102B500076C077F00001766B000176510001812785
:102B60000001775100018223000178510001832385
:102B700000017951000184237CC076F07DC077F09C
:102B80007EC078F07FC079F0190E06D00001D89091
:102B90007933783377337633E82EF8D700017651DE
:102BA0000001812700017751000182230001785143
:102BB0000001832300017951000184237EC07FF04E
:102BC0007DC07EF07CC07DF000017C6B00017B51FC
:102BD00080C076F00001776B00017627000E772326
:102BE000820E000176250001856FFF0E000177211E
:102BF0000001866F15D00001D89081378237833766
:102C0000843700017FAF02D0000181810001D8909C
:102C10007C377D377E377F3700018507D8A0860750
:102C2000000183AFE8D7000E00017B6F00017FAF8A
:102C300024D0FF0E00017C150001766FFF0E00010D
:102C40007D150001776FFF0E00017E150001786F82
:102C50007F0E00017F150001796F000176510001A0
:102C600077110001781100017911D8A403D0000177
:102C700081A103D0010E00017B6F00017B51000197
:102C8000D8B423D0010E00018127000E82238323B4
:102C90008423000184A119D081C076F082C077F02E
:102CA00083C078F084C079F00001793579337833C6
:102CB0007733763376C081F077C082F078C083F0C6
:102CC00079C084F00001854B862B000186BF10D0AF
:102CD0000001865104E100018529D8A009D0000E29
:102CE0000001816F000E826F800E836F7F0E2BD0EC
:102CF000000186BF07D00001865111E10001850562
:102D0000D8B00DD0000E0001816F000E826F000E52
:102D1000836F000E846F000E00017A6F15D085C09E
:102D200080F0FF0E00018117FF0E82177F0E8317C0
:102D3000000E8417000180A102D00001838F0001E2
:102D4000D89080310001846F00017A510001841312
:102D500081C06EF082C06FF083C070F084C071F0EB
:102D600012000001E3BFEFD10001E3510001E211C5
:102D70000001E11105E1020E0001E05DD8A0E3D100
:102D80001EEC28F0E806D8A4FBD7060E0001606F01
:102D9000000E616F000E626F000E636F1F0E000168
:102DA000646F010E0001656F080E0001666FFC0E76
:102DB0000001676FCAEC0BF03FA2B6D10001FA0523
:102DC0000001FB11D8A405D0FC0E1F6E7F0E88EC0D
:102DD00027F00001FA510001FB11D8A405D0FC0E28
:102DE0001F6EFF0E88EC27F03F920001EC510001AE
:102DF000E8250101276F0001ED510001E9210101E2
:102E0000286FD8900101283101012A6F0101273173
:102E10000101296F29C1F6F02AC1F7F00001F86B12
:102E2000F96BE0C027F1E1C028F10101271F281F3D
:102E3000274B282B0001F651010127251F6E0001A9
:102E4000F75101012821206EF7EC27F01FC0E6F0B2
:102E500020C0E7F0DD0E0001E65D050E0001E75938
:102E6000D8A055D0000E226EC80E216EE6C01FF00D
:102E7000E7C020F014EC27F01FC060F020C061F024
:102E80000001626B636B000EBDEC1FF060C02FF1A0
:102E900061C030F162C031F163C032F12FC1C2F0C4
:102EA00030C1C3F031C1C4F032C1C5F0000E000121
:102EB000BE6F000EBF6F000EC06F400EC16FBDEC45
:102EC0001EF0BEC033F1BFC034F1C0C035F1C1C087
:102ED00036F1000E00018B6F000E8C6F800E8D6F2F
:102EE000BF0E8E6F33C187F034C188F035C189F0D1
:102EF00036C18AF00AEC12F087C09BF088C09CF0C3
:102F000089C09DF08AC09EF09CEC24F054D0000E45
:102F1000226E140E216EE6C01FF0E7C020F014EC04
:102F200027F01FC060F020C061F00001626B636B8E
:102F3000000EBDEC1FF060C02FF161C030F162C027
:102F400031F163C032F12FC1C2F030C1C3F031C1E1
:102F5000C4F032C1C5F0000E0001BE6F000EBF6F9D
:102F6000000EC06F400EC16FBDEC1EF0BEC033F14D
:102F7000BFC034F1C0C035F1C1C036F1000E000150
:102F80008B6F000E8C6F800E8D6FBF0E8E6F33C1F6
:102F900087F034C188F035C189F036C18AF00AEC77
:102FA00012F087C09BF088C09CF089C09DF08AC059
:102FB0009EF09CEC24F09BC0D4F09CC0D5F09DC04A
:102FC000D6F09EC0D7F00001D7BFA3D00001D751E3
:102FD0000001D6110001D51105E10B0E0001D45DF1
:102FE000D8A097D0E0C027F1E1C028F1E2C029F1D4
:102FF000E3C02AF10101271F281F291F2A1F272BA1
:10300000000E282329232A230001F6510101272538
:1030100001012B6F0001F7510101282101012C6FE3
:103020000001F8510101292101012D6F0001F95121
:1030300001012A2101012E6F01012EBF3BD00101A8
:103040002E5101012D1101012C1104E101012B056B
:10305000D8A030D0D4C027F1D5C028F1D6C029F1EE
:10306000D7C02AF10101271F281F291F2A1F272B3C
:10307000000E282329232A230001EA5101012725D4
:103080000001D86F0001EB51010128210001D96F27
:10309000000E010129210001DA6F000E01012A2131
:1030A0000001DB6F0001DBAF3BD0000E0001D86FE9
:1030B000000E29D00001EA510001D4250001D86F8B
:1030C0000001EB510001D5210001D96F000E000174
:1030D000D6210001DA6F000E0001D7210001DB6F5D
:1030E0000001DBBF1DD00001DB510001DA1107E157
:1030F0000001D805040E0001D959D8A011D0FF0E47
:103100000001D86F030ED96F000EDA6F000EDB6F6F
:1031100007D0EAC0D8F0EBC0D9F00001DA6BDB6B66
:10312000D8C0EAF0D9C0EBF032C02EF033C02FF097
:1031300034C030F035C031F0D8C01FF0D9C020F015
:10314000AAEC27F01200000E206E000E1F6EAAECF3
:1031500027F0120000016351800B0001686F00012D
:10316000635163250001736F000162AF02D000015B
:103170007381000173510001D8B412D0000173298A
:10318000D8A409D0000E0001606F000E616F000E20
:10319000626F000E636F0001628F000E000108D0A5
:1031A000000E0001606F000E616F000E626F000E76
:1031B000636F00016751800B0001681B00016751BC
:1031C00067250001746F000166AF02D000017481B1
:1031D000000174510001D8B412D000017429D8A4A0
:1031E00009D0000E0001646F000E656F000E666F5F
:1031F000000E676F0001668F000E000108D0000E00
:103200000001646F000E656F000E666F000E676F41
:103210000001645100016511000166110001671190
:10322000D8A417D0000E0001606F000E616F000E71
:10323000626F000E636F0001800E62137F0E6313D6
:1032400060C060F061C061F062C062F063C063F0B2
:103250001200000173510001D8A412D0000E000129
:10326000606F000E616F000E626F000E636F60C0D2
:1032700060F061C061F062C062F063C063F0120090
:10328000000174511F6E206A1F1E201E1F4A202A33
:1032900000017351216E226A1F50212620502222E4
:1032A0007F0E212400016D6F000E222000016E6F41
:1032B00060C069F061C06AF062C06BF063C06CF01E
:1032C000000E0001606F000E616F000E626F000E55
:1032D000636F000E00016F6F000E706F000E716F54
:1032E000000E726F000E0001746F42D00001745125
:1032F0000001D8B417D00001D89069376A376B370E
:103300006C370001D890603761376237633700014E
:1033100072AF02D0000160810001D8906F37703722
:1033200071377237000164510001695D0001655118
:1033300000016A590001665100016B590001675193
:1033400000016C59D8A012D00001728D00016451A7
:103350000001695F0001655100016A5B000166516F
:1033600000016B5B0001675100016C5B0001742B75
:10337000190E00017465BAD70001695100016A1184
:1033800000016B1100016C11D8B418D000016F81DD
:1033900015D00001D890603761376237633700017C
:1033A00072AF02D0000160810001D8906F37703792
:1033B0007137723700016D07D8A06E07000162AF48
:1033C000E8D7000E0001746F000172AF1CD0FF0E31
:1033D00000016F151F6EFF0E00017015206EFF0EAD
:1033E00000017115216E7F0E00017215226E1F50B3
:1033F000201021102210D8A403D0000160A103D016
:10340000010E0001746F000174510001D8B422D084
:10341000010E00016027000E612362236323000177
:1034200063A118D060C01FF061C020F062C021F01D
:1034300063C022F022342232213220321F321FC0D8
:1034400060F020C061F021C062F022C063F0000192
:103450006D4B6E2B00016EBF14D000016E5104E164
:1034600000016D29D8A00DD0000E00016E6F6D69AE
:10347000000E0001606F000E616F000E626F000EA3
:10348000636F00016EBF07D000016E5115E10001AE
:103490006D05D8B011D0000E00016E6F000E6D6F7B
:1034A000000E0001606F000E616F000E626F000E73
:1034B000636F000E0001686F6DC073F0000173A1AF
:1034C00003D00001628F02D00001629F0001D890FA
:1034D00073310001636F000168510001631360C024
:1034E00060F061C061F062C062F063C063F012001E
:1034F0000001646F00016405D8A451D02328D8A42A
:103500004ED01FC060F020C061F021C062F022C028
:1035100063F0040E06D00001D89063336233613348
:103520006033E82EF8D760C065F061C066F062C015
:1035300067F063C068F0000165510001656F666B5C
:10354000676B686B65C018FF070E1F140001656F7D
:10355000000E20140001666F000E21140001676F39
:10356000000E22140001686F65C060F066C061F053
:1035700067C062F068C063F0050ED8900001603744
:10358000613762376337E82EF8D760C065F061C0F5
:1035900066F062C067F063C068F065C019FF020E94
:1035A00000016419D8A451D02328D8A44ED01FC03C
:1035B00060F020C061F021C062F022C063F0040E10
:1035C00006D00001D8906333623361336033E82E54
:1035D000F8D760C065F061C066F062C067F063C094
:1035E00068F0000165510001656F666B676B686B81
:1035F00065C01CFF070E1F140001656F000E20142C
:103600000001666F000E21140001676F000E221486
:103610000001686F65C060F066C061F067C062F06D
:1036200068C063F0050ED8900001603761376237DB
:103630006337E82EF8D760C065F061C066F062C0FD
:1036400067F063C068F065C01DFF00016405D8A481
:103650007CD0F70E2318D8A478D01F500001656FD6
:10366000666B676B686B65C01BFF000E1F14000163
:10367000656FFF0E20140001666F000E211400011B
:10368000676F000E22140001686F65C060F066C0AD
:1036900061F067C062F068C063F061C060F062C052
:1036A00061F063C062F00001636B60C065F061C0EF
:1036B00066F062C067F063C068F065C01AFF21A0C1
:1036C00003D00F01198102D00F01199121A203D05B
:1036D0000F01198302D00F01199321A403D00F0108
:1036E000198B02D00F01199B21A603D00F01198D50
:1036F00002D00F01199D21A803D00F01198F02D00C
:103700000F01199F1FC060F020C061F021C062F05E
:1037100022C063F0160E06D00001D89063336233E6
:1037200061336033E82EF8D760C065F061C066F0A1
:1037300062C067F063C068F0000165510001656F09
:10374000666B676B686B65C018FF020E0001641939
:10375000D8A41200F70E2318D8A412001F5000019D
:10376000656F666B676B686B65C01FFF000E1F148B
:103770000001656FFF0E20140001666F000E21141A
:103780000001676F000E22140001686F65C060F0D1
:1037900066C061F067C062F068C063F061C060F04D
:1037A00062C061F063C062F00001636B60C065F0ED
:1037B00061C066F062C067F063C068F065C01EFF5C
:1037C00021A003D00F011D8102D00F011D9121A264
:1037D00003D00F011D8302D00F011D9321A403D03C
:1037E0000F011D8B02D00F011D9B21A603D00F01DD
:1037F0001D8D02D00F011D9D21A803D00F011D8F2B
:1038000002D00F011D9F1FC060F020C061F021C0D9
:1038100062F022C063F0160E06D00001D890633328
:10382000623361336033E82EF8D760C065F061C061
:1038300066F062C067F063C068F000016551000186
:10384000656F666B676B686B65C01CFF12000001DB
:10385000B3510001B4110001B5110001B611D8A493
:103860000AD0000E0001B36F000EB46F800EB56F6A
:103870003F0EB66F1200180E0001606F720E616F7E
:10388000310E626F440E636FB3C064F0B4C065F074
:10389000B5C066F0B6C067F040EC22F00001D8B0C9
:1038A0000FD0000E0001E56F220EE46FFF0E000145
:1038B000B36FFF0EB46F7F0EB56F7F0EB66F120041
:1038C000B3C060F0B4C061F0B5C062F0B6C063F0E0
:1038D000870E0001646F480E656F3A0E666FC40E66
:1038E000676F40EC22F00001D8B00FD0000E00014D
:1038F000E56F220EE46F000E0001B36F000EB46F8F
:10390000000EB56F000EB66F12000001B6AF02D008
:10391000010E01D0000E0001BD6F0001BD5100017C
:10392000D8B412D0B3C01FF0B4C020F0B5C021F09D
:10393000B6C022F0E0EC27F01FC0B3F020C0B4F016
:1039400021C0B5F022C0B6F0B3C06EF0B4C06FF0C5
:10395000B5C070F0B6C071F03B0E0001726FAA0ED8
:10396000736FB80E746F3F0E756F5EEC14F06EC01F
:10397000B3F06FC0B4F070C0B5F071C0B6F0B3C0B2
:10398000A5F0B4C0A6F0B5C0A7F0B6C0A8F080EC12
:1039900023F0A5C0B7F0A6C0B8F0A7C0B9F0A8C082
:1039A000BAF0B7C09BF0B8C09CF0B9C09DF0BAC0E7
:1039B0009EF09CEC24F09BC0BBF09CC0BCF0B3C05C
:1039C0009BF0B4C09CF0B5C09DF0B6C09EF0BBC0EB
:1039D00060F0BCC061F00001000E61BFFF0E626FBD
:1039E000636F010EBDEC1FF060C09FF061C0A0F0DE
:1039F00062C0A1F063C0A2F064EC27F09BC0B3F0FA
:103A00009CC0B4F09DC0B5F09EC0B6F0B3C09BF0B2
:103A1000B4C09CF0B5C09DF0B6C09EF0010E000190
:103A20009F6F0D0E0001A06F000E0001A26F090E26
:103A3000A16F10EC24F09BC0ABF09CC0ACF09DC01B
:103A4000ADF09EC0AEF0BBC0AFF0BCC0B0F0EEECCD
:103A500022F0ABC0B3F0ACC0B4F0ADC0B5F0AEC0B6
:103A6000B6F00001BD510001D8B435D00001B32932
:103A700016E10001B42913E17F0E0001B5190FE131
:103A80007F0E0001B619D8A40AD0000E0001B36F52
:103A9000000EB46F000EB56F000EB66F1200000E70
:103AA0000001606F000E616F800E626F3F0E636FEA
:103AB000B3C064F0B4C065F0B5C066F0B6C067F0DE
:103AC000AAEC18F060C0B3F061C0B4F062C0B5F009
:103AD00063C0B6F01200B3C0B3F0B4C0B4F0B5C068
:103AE000B5F0B6C0B6F01200F3EC25F08082828209
:103AF000010E0001616FF40E606FC7EC27F0809239
:103B000082927E0E2DEC28F0FE0E0001D36F000194
:103B1000D3514FEC28F03F82FC0E1F6E7F0E88ECD5
:103B200027F022EC25F080B235D02EC037F12FC01F
:103B300038F130C039F131C03AF10101371F381F77
:103B4000391F3A1F372B000E382339233A233250BE
:103B50000101372501013B6F33500101382101017B
:103B60003C6F34500101392101013D6F3550010195
:103B70003A2101013E6F01013E5101013D11010158
:103B80003C1105E1140E01013B5DD8A009D0B1EC58
:103B900016F006D0000E206E000E1F6EAAEC27F065
:103BA0003EB03EAC02D03DEC27F02AC037F12BC02E
:103BB00038F12CC039F12DC03AF10101371F381FFF
:103BC000391F3A1F372B000E382339233A2332503E
:103BD0000101372501013B6F3350010138210101FB
:103BE0003C6F34500101392101013D6F3550010115
:103BF0003A2101013E6F01013E5101013D113CE1BD
:103C0000F50E01013B5D010E01013C59D8B034D0E5
:103C100080A276D02AC037F12BC038F12CC039F100
:103C20002DC03AF10101371F381F391F3A1F372BBA
:103C3000000E382339233A23325001013725010180
:103C40003B6F33500101382101013C6F34500101B9
:103C5000392101013D6F355001013A2101013E6FCB
:103C600001013E5101013D1101013C1105E1060E2A
:103C700001013B5DD8A044D03FB01ED01EEC28F01F
:103C8000E806D8A4FBD7020E0001606F000E616F3A
:103C9000000E626F000E636FEE0E0001646F000E87
:103CA0000001656F080E0001666FFC0E0001676F72
:103CB000CAEC0BF03F801CD03EB23EA607D03EA41B
:103CC00005D03E923E963E94809211D08082000EA6
:103CD0000001616FC80E606FC7EC27F08092000E84
:103CE0000001616FC80E606FC7EC27F080823F90C3
:103CF00032C02AF033C02BF034C02CF035C02DF088
:103D0000DCC037F1DDC038F1DEC039F1DFC03AF197
:103D10000101371F381F391F3A1F372B000E382378
:103D200039233A2332500101372501013B6F3350CB
:103D30000101382101013C6F345001013921010199
:103D40003D6F355001013A2101013E6F01013E51A5
:103D500001013D1101013C1105E1650E01013B5DD1
:103D6000D8A0DFD69CEC26F032C0DCF033C0DDF00A
:103D700034C0DEF035C0DFF0D4D6000E0001CE6FC7
:103D80000001BE510001BF110001C0110001C111AD
:103D9000D8A425D0000E0001606F000E616F000EE8
:103DA000626F000E636FC2C064F0C3C065F0C4C030
:103DB00066F0C5C067F040EC22F00001D8A005D045
:103DC000000E0001E56F210EE46F000E0001BE6FD2
:103DD000000EBF6F000EC06F000EC16F1200000119
:103DE000C2510001C3110001C4110001C511D8A4C2
:103DF0000AD0000E0001BE6F000EBF6F800EC06FB4
:103E00003F0EC16F12000001C1AF58D0C2C09BF07D
:103E1000C3C09CF0C4C09DF0C5C09EF09CEC24F0D3
:103E20009BC0CFF09CC0D0F09DC0D1F09EC0D2F01E
:103E3000CFC060F0D0C061F0D1C062F0D2C063F0FA
:103E4000000EBDEC1FF00001C2510001601910E12D
:103E50000001C351000161190BE10001C4510001CF
:103E6000621906E10001C55100016319D8B40FD0F1
:103E7000000E0001E56F210EE46F000E0001BE6F21
:103E8000000EBF6F000EC06F000EC16F1200000168
:103E9000CF51010B0001CE6FBEC01FF0BFC020F09C
:103EA000C0C021F0C1C022F0E0EC27F01FC0BEF07E
:103EB00020C0BFF021C0C0F022C0C1F0BEC0ABF036
:103EC000BFC0ACF0C0C0ADF0C1C0AEF07DEC21F021
:103ED000ABC0C6F0ACC0C7F0ADC0C8F0AEC0C9F052
:103EE000C6C06EF0C7C06FF0C8C070F0C9C071F036
:103EF000C2C072F0C3C073F0C4C074F0C5C075F026
:103F00005EEC14F06EC0CAF06FC0CBF070C0CCF0A5
:103F100071C0CDF0CAC0B3F0CBC0B4F0CCC0B5F026
:103F2000CDC0B6F027EC1CF0B3C0BEF0B4C0BFF0FB
:103F3000B5C0C0F0B6C0C1F00001CE510001D8B488
:103F400013D0BEC01FF0BFC020F0C0C021F0C1C060
:103F500022F0E0EC27F01FC0BEF020C0BFF021C06F
:103F6000C0F022C0C1F01200BEC0BEF0BFC0BFF0A2
:103F7000C0C0C0F0C1C0C1F012000001686F0001F4
:103F800068510001D8B41ED0000163AF1BD060C0DF
:103F900064F061C065F062C066F063C067F0000164
:103FA000641F651F661F671F642B000E6523662351
:103FB000672364C06AF065C06BF066C06CF067C0D0
:103FC0006DF008D060C06AF061C06BF062C06CF048
:103FD00063C06DF0000160510001611100016211C8
:103FE00000016311D8A40AD0000E0001606F000E1A
:103FF000616F000E626F000E636F1200960E00017B
:10400000696F08D00001692B0001D8906D336C33C3
:104010006B336A33000E00016A150001646F000EF5
:1040200000016B150001656F000E00016C150001A9
:10403000666FFE0E00016D150001676F000164518F
:10404000000165110001661100016711D8B410D09C
:10405000D9D70001692B010E00016A27000E6B23DE
:104060006C236D230001D8906D336C336B336A334E
:10407000000E00016A150001646F000E00016B154F
:104080000001656F000E00016C150001666FFF0EE8
:1040900000016D150001676F000164510001651199
:1040A0000001661100016711D8B409D0D2D7000110
:1040B00069070001D8906A376B376C376D3700019C
:1040C0006CBF04D0020E00016961F1D7000169B133
:1040D00009D0FF0E00016A17FF0E6B177F0E6C17D9
:1040E000FF0E6D170001D890693369C064F00001BC
:1040F000656B666B676B64C067F00001666B656B30
:10410000646B0001645100016A13000165510001F4
:104110006B130001665100016C130001675100012F
:104120006D13000168510001D8B405D0000163AFE0
:1041300002D000016D8F6AC060F06BC061F06CC08E
:1041400062F06DC063F012000001726F800E46ECE9
:1041500028F0000E706E000E716E000E726E00017F
:104160006B41E842C00B00016B6F00016B51701294
:1041700000016C5170120001725171120001693915
:10418000E842F80B0001696F0001695171120001EA
:104190006DA5718C00016DB1718E00016A517212B2
:1041A00000016DB3728C00016D51600B606E0001F7
:1041B0006D51100BFF0AD8B4608460CF50FF000E21
:1041C0001F6E000E206E000E216E000E226EF70E86
:1041D000236E010E78EC1AF0000E1F6E000E206E9A
:1041E000000E216E000E226EF70E236E020E78EC8A
:1041F0001AF00FD0F70E0001736F07D0000173693A
:104200000001746928D000017369F70E0001746F12
:1042100022D09F0E00016E6FFF0E00016F6F000134
:104220006D51600B0001706F716B00016E510001E8
:10423000701300016F510001711300017151000AE8
:10424000D8A4E1D700017051BF0AD8B4D7D7600A0B
:10425000D8B4D0D7D8D7000E1F6E000E206E000E37
:10426000216E000E226E73C023F0000EA7EC06F044
:10427000000E1F6E000E206E000E216E000E226ECC
:1042800073C023F0010EA7EC06F0000E1F6E000EA7
:10429000206E000E216E000E226E74C023F0020EFE
:1042A000A7EC06F0000E1F6E000E206E000E216EB1
:1042B000000E226E74C023F0030EA7EC06F0000E71
:1042C0001F6E000E206E000E216E000E226E74C056
:1042D00023F0040EA7EC06F0000E1F6E000E206EF9
:1042E000000E216E000E226E74C023F0050EA7ECA6
:1042F00006F0000E46EC28F012000001AEAF0FD021
:10430000000E0001E56F210EE46F000E0001AB6F9F
:10431000000EAC6F000EAD6F000EAE6F120000010C
:10432000AB510001AC110001AD110001AE11D8A4D8
:104330000FD0000E0001E56F220EE46F000E0001A9
:10434000AB6F000EAC6F000EAD6F000EAE6F1200C3
:10435000000E0001726F000E736F000E746F400E3E
:10436000756FAF0E236E000E246EABC01FF0ACC095
:1043700020F0ADC021F0AEC022F04AEC26F01FC004
:104380006EF020C06FF021C070F022C071F05EECC2
:1043900014F06EC087F06FC088F070C089F071C0F3
:1043A0008AF0000E00018B6F000E8C6F800E8D6FF7
:1043B000BF0E8E6F0AEC12F087C0ABF088C0ACF075
:1043C00089C0ADF08AC0AEF00001AF07D8A0B00739
:1043D000ABC09BF0ACC09CF0ADC09DF0AEC09EF0F9
:1043E000290E00019F6F0D0E0001A06F000E00014D
:1043F000A26F080EA16F10EC24F09BC0ABF09CC024
:10440000ACF09DC0ADF09EC0AEF0180E0001726F12
:10441000720E736F310E746F3F0E756FAFC060F028
:10442000B0C061F00001000E61BFFF0E626F636FEC
:10443000010EBDEC1FF060C06EF061C06FF062C095
:1044400070F063C071F05EEC14F06EC087F06FC066
:1044500088F070C089F071C08AF0ABC08BF0ACC03E
:104460008CF0ADC08DF0AEC08EF00AEC12F087C0BB
:10447000ABF088C0ACF089C0ADF08AC0AEF01200DD
:10448000000E000160151F6E000E00016115206E08
:10449000800E00016215216E7F0E00016315226EF1
:1044A0001F50201021102210D8A409D0000E0001A6
:1044B000606F000E616F000E626F000E636F000E82
:1044C000000164151F6E000E00016515206E800E40
:1044D00000016615216E7F0E00016715226E1F50C8
:1044E000201021102210D8A409D0000E0001646F02
:1044F000000E656F000E666F000E676F000163AF00
:1045000021D060C01FF061C020F062C021F063C004
:1045100022F01F1E201E211E221E1F2A000E2022F6
:1045200021222222000E1F240001606F000E202095
:104530000001616F000E21200001626F800E2220B9
:104540000001636F000167AF21D064C01FF065C038
:1045500020F066C021F067C022F01F1E201E211E21
:10456000221E1F2A000E202221222222000E1F249A
:104570000001646F000E20200001656F000E2120F5
:104580000001666F800E22200001676F000E00019F
:10459000601B000E611B000E621B800E631B000E71
:1045A0000001641B000E651B000E661B800E671B5E
:1045B000000164510001605D000165510001615915
:1045C0000001665100016259000167510001635901
:1045D000D8B002D0D8901200D88012000001AB51A0
:1045E0000001AC110001AD110001AE11D8A40AD038
:1045F000000E0001AB6F000EAC6F000EAD6F000E31
:10460000AE6F12000001AE517F0B0001B16FB26BB3
:10461000D8900001B137B2370001B1510001AF2786
:104620000001B2510001B0230001ADAF04D0000180
:10463000B16BB12B02D00001B16B0001B15100018F
:10464000AF27000EB0230001B0AF0FD0000E000165
:10465000E56F220EE46F000E0001AB6F000EAC6F31
:10466000000EAD6F000EAE6F12000001B0BF1ED085
:104670000001B005D8A01AD0000E0001E56F220E8F
:10468000E46F0001AEAF09D0FF0E0001AB6FFF0E6B
:10469000AC6F7F0EAD6FFF0EE6D7FF0E0001AB6F64
:1046A000FF0EAC6F7F0EAD6F7F0EDDD70001B03512
:1046B000B0310001B26F0001AF310001B16F0001F4
:1046C000AE510001B119800BB1190001AE6FAFC03E
:1046D000B1F0010E0001B1170001B133B133000197
:1046E000AD510001B1197F0BB1190001AD6FABC025
:1046F000ABF0ACC0ACF0ADC0ADF0AEC0AEF01200EF
:10470000A5C01FF0A6C020F0A7C021F0A8C022F0CD
:10471000AD0E236E000E246E4AEC26F00001AEAF03
:1047200017D00001A8AF0AD0000E0001A56F000E3F
:10473000A66F800EA76FBF0EA86F1200000E0001BB
:10474000A56F000EA66F000EA76F000EA86F1200D7
:104750000001AE5105E11D0E0001AD5DD8A009D0EC
:10476000A5C0A5F0A6C0A6F0A7C0A7F0A8C0A8F055
:104770001200A5C09BF0A6C09CF0A7C09DF0A8C0E9
:104780009EF09CEC24F09BC060F09CC061F09DC04A
:1047900062F09EC063F0010EBDEC1FF060C0A9F096
:1047A00061C0AAF062C0ABF063C0ACF0A5C060F01D
:1047B000A6C061F0A7C062F0A8C063F0A9C064F011
:1047C000AAC065F0ABC066F0ACC067F040EC22F068
:1047D0000001D8B01CD0A9C087F0AAC088F0ABC037
:1047E00089F0ACC08AF0000E00018B6F000E8C6F58
:1047F000800E8D6FBF0E8E6F0AEC12F087C0A5F091
:1048000088C0A6F089C0A7F08AC0A8F01200A9C08D
:10481000A5F0AAC0A6F0ABC0A7F0ACC0A8F01200EB
:10482000A1C0A3F0A2C0A4F00001D890A337A43780
:104830000001D890A337A4379FC0A5F0A0C0A6F070
:104840000001A3510001A5270001A4510001A623E6
:10485000A5C0F6FFA6C0F7FF000EF86E0900F5CF61
:10486000A7F00900F5CFA8F00900F5CFA9F00A00DC
:10487000F5CFAAF052D0A7C072F0A8C073F0A9C0BB
:1048800074F0AAC075F09BC06EF09CC06FF09DC024
:1048900070F09EC071F05EEC14F06EC087F06FC0D7
:1048A00088F070C089F071C08AF00001A107D8A01B
:1048B000A207A1C0A3F0A2C0A4F00001D890A33722
:1048C000A4370001D890A337A4379FC0A5F0A0C09B
:1048D000A6F00001A3510001A5270001A451000189
:1048E000A623A5C0F6FFA6C0F7FF000EF86E0900CC
:1048F000F5CF8BF00900F5CF8CF00900F5CF8DF0E6
:104900000A00F5CF8EF00AEC12F087C0A7F088C03D
:10491000A8F089C0A9F08AC0AAF00001A151000145
:10492000A211D8A4A8D7A7C09BF0A8C09CF0A9C08A
:104930009DF0AAC09EF0120000019D359E35000139
:10494000A46F0001A451D8A40AD0000E00019B6FEF
:10495000000E9C6F000E9D6F000E9E6F12009BC09C
:104960009FF09CC0A0F09DC0A1F09EC0A2F0200EC0
:1049700006D00001D890A233A133A0339F33E82E94
:10498000F8D700019F510001A36F00019D8FFF0E1A
:1049900000019B17FF0E9C17FF0E9D17000E9E1720
:1049A000960E0001A45F0001A4AF1AD00001A4512B
:1049B000800A970FD8B00AD0000E00019B6F000E3E
:1049C0009C6F000E9D6F000E9E6F12000001D8902C
:1049D0009E339D339C339B330001A43FF7D71BD0FC
:1049E0001F0E0001A46512D0000E00019B6F000E87
:1049F0009C6F000E9D6F000E9E6F12000001D890FC
:104A00009B379C379D379E370001A4070001A451B6
:104A10000001D8A4F3D70001A3510001D8B409D0F4
:104A200000019E1F9D1F9C1F9B6D000E9C239D23BC
:104A30009E239BC09BF09CC09CF09DC09DF09EC09F
:104A40009EF012003EAA6ED0030E261827102810E2
:104A50002910D8A420D00001EF510001E06FE16BD4
:104A6000E26BE36B01011451E0C020F0E1C021F0E2
:104A7000E2C022F01F6A1F100001E06F2050000109
:104A8000E16F21500001E26F22500001E36FF0C09E
:104A9000FAF00001FB6B2604271028102910D8A477
:104AA0000AD0000E0001E06F000EE16F000EE26F11
:104AB000000EE36F8082060E26182710281029109A
:104AC000D8A41BD0EFC0E8F00001E96B0001E85169
:104AD0001F6E0001EE510001E86F1FC0E9F0F1C048
:104AE000ECF00001ED6B0001EC511F6E0001F05184
:104AF0000001EC6F1FC0EDF03F82020E2618271058
:104B000028102910D8A40ED00001EE05D8B43E829A
:104B1000020E0001EE19D8B43E86030E0001EE1914
:104B2000D8B43E843E9A1200000E0001656F000169
:104B300063AF08D00001626D631FD8B0632B010E14
:104B40000001656F000161AF08D00001606D611F59
:104B5000D8B0612B010E0001651B000E0001676FCC
:104B6000000E666F0001625100016311D8B42CD0B1
:104B7000010E0001646F06D00001D89062376337E0
:104B80000001642B000163AFF7D70001D8906637AE
:104B90006737000162510001605D0001635100014F
:104BA0006159D8A00AD0000162510001605F000184
:104BB00063510001615B000166810001D89063339D
:104BC00062330001642FE1D7000165510001D8B4C0
:104BD00005D00001666D671FD8B0672B66C060F016
:104BE00067C061F01200060E0001696F050E00013A
:104BF0006A6F010E00016B6F030E00016C6F9D0E5A
:104C000000016D6F040EA4EC20F0D08EF292A492FD
:104C1000A490A592A590F28EF28C010EB16EA19295
:104C2000A292630EB36EC00EB26EC280C294C296E0
:104C3000C298C29AC190C182C184C186C198C19AEA
:104C4000C080C092C084C096C088C08AC09EA38223
:104C5000A380A082000E896E7D0E926E000E8A6E79
:104C6000FB0E936E000E8B6E000E946E000E8C6E1B
:104C7000000E956E000E8D6E9668000E0001616F3D
:104C8000020E606FC7EC27F0FC0E1F6E7F0E88ECE3
:104C900027F012001F50201021102210D8A411D08C
:104CA00023C0D9FF24C0DAFF000EDE6E000EDD6ED9
:104CB000000E1F6E000E206E000E216E000E226E82
:104CC000120022507F0B0001606F616BD8900001D1
:104CD0006037613723C0D9FF24C0DAFF60C0DEFF30
:104CE00061C0DDFF21AE04D00001606B602B02D0FB
:104CF0000001606B0001605123C0D9FF24C0DAFFBE
:104D0000DE12000EDD1223C0D9FF24C0DAFF820EAE
:104D1000DE26FF0EDD222280228222842286228845
:104D2000228A229C219E1FC01FF020C020F021C09B
:104D300021F022C022F01200C282C2B2FED7C4CF3C
:104D40003AF03B6A3AC01FF03BC020F0000E226EE2
:104D50000E0E216E0BEC28F01FC060F020C061F039
:104D6000000E0001636F626994EC25F060C03AF0B8
:104D700061C03BF03BBE06D03B5022E1080E3A5CDE
:104D8000D8B01ED01EEC28F0E806D8A4FBD7090E38
:104D90000001606F000E616F000E626F000E636FA6
:104DA000EE0E0001646F000E0001656F080E000139
:104DB000666FFC0E0001676FCAEC0BF08282120076
:104DC0008292120001EE00F0270EEE6AE806FDE185
:104DD00000EED4F0220EEE6AE806FDE13F6A3E6A7C
:104DE00000EE26F0180EEE6AE806FDE1AE0EF66E55
:104DF000500EF76E000EF86E00EEF6F010EE06F0B4
:104E00000900F5CFEEFFE550E150FAE1B40EF66E81
:104E1000500EF76E000EF86E0900F5CF40F041908D
:104E20004192000174EF1DF0000E256E000E246EFD
:104E300021502210D8B41CD0010E236E04D0D8907B
:104E400021362236232A22AEFAD7D89024362536A8
:104E500021501F5C22502058D8A005D021501F5E41
:104E60002250205A2480D89022322132232EEDD78E
:104E700024C01FF025C020F012001EEC28F000090D
:104E8000D8A43EAC17D026C060F027C061F028C07F
:104E900062F029C063F0EE0E0001646F000E0001A5
:104EA000656F080E0001666FBC0E0001676FCAECEB
:104EB0000BF03E9C0F0140BD03D00F0130AD02D07E
:104EC0003E8012003E901200000E00019F1B000E5B
:104ED000A01B000EA11B800EA21B9BC087F09CC0D4
:104EE00088F09DC089F09EC08AF09FC08BF0A0C062
:104EF0008CF0A1C08DF0A2C08EF00AEC12F087C039
:104F00009BF088C09CF089C09DF08AC09EF0120082
:104F1000206EBA50C0092014BA6EBA500F091F147F
:104F2000BA6E3F0E2018D8A402D095981200BF0E7A
:104F30002018D8A403D09598959A12007F0E2018B7
:104F4000D8B403D02028D8A412009598959A959C9F
:104F5000959E12001FC021F020C022F0060ED890AE
:104F600021362236E82EFBD721C023F022C024F0C0
:104F700024C0BBFF23C021F0D8902132D890213229
:104F8000300E2116BA50CF0B2110BA6E120040C05D
:104F90001FF0206A60C021F061C022F00BEC28F005
:104FA0001FC036F020C037F006D0500EE82EFED7D6
:104FB0003606D8A0370636503710D8B41200F5D7C9
:104FC0001F50201021102210D8B408D0000E1F1A34
:104FD000000E201A000E211A800E221A1FC01FF088
:104FE00020C020F021C021F022C022F0120020AE0B
:104FF0000DD01FC021F020C022F0211E221E214A08
:10500000222A21C01FF022C020F012001FC01FF072
:1050100020C020F012001F502102F3CF23F0F4CF64
:1050200024F01F502202F350242620502102F35076
:10503000242623C01FF024C020F01200010E1F6E92
:105040000F0140A708D00F0130A705D00F0120A7FE
:1050500002D0000E1F6E1F5012001F6E1F50FB0B60
:10506000CA6E000ECC6E9E921FAE02D09D8201D001
:105070009D92CA841200010E016E60BE05D00F0120
:1050800050BF02D0000E016E015012001F6E1FC0F3
:105090006FFF6E50E00B1F18D8B41200FAD71F6EC6
:1050A0000C0EBA6ECA941FC0CBFFCA841200010056
:0650B000000001001000E9
:020000040030CA
:0E000000FF021F1EFF8081FF3FC03FE03F4018
:00000001FF
