:04000000CCEF00F051
:100018004280D8CF0DF0E8CF0EF0E0CF0FF0FACF46
:1000280010F0FBCF11F0E9CF12F0EACF13F0E1CFD7
:1000380014F0E2CF15F0D9CF16F0DACF17F0F3CFDE
:1000480018F0F4CF19F0F6CF1AF0F7CF1BF0F8CF6D
:100058001CF0F5CF1DF0A4A0A4B201D068D019EC13
:1000680013F00009D8B461D0860E016E000E026E3E
:10007800ABEC09F0030E000186190001871100019D
:10008800881100018911D8A417D08AC036F08BC016
:100098003AF03B6A3A043B10D8A405D0FC0E016E36
:1000A8007F0E74EC12F03A503B10D8A405D0FC0E29
:1000B800016EFF0E74EC12F0000186050001871135
:1000C8000001881100018911D8A403D0000E366EF2
:1000D8008082060E0001861900018711000188112F
:1000E80000018911D8A405D08AC035F08BC037F03B
:1000F8003980020E0001861900018711000188115C
:1001080000018911D8B406D010D038820ED03886B4
:1001180038840BD000018A51010AD8B4F6D7030AF3
:10012800D8B4F5D7010AD8B4F3D7A490A492A1A261
:100138000BD0010E2926000E2A222B222C22630E18
:10014800B36EC00EB26EA1921DC0F5FF1CC0F8FFC1
:100158001BC0F7FF1AC0F6FF19C0F4FF18C0F3FF61
:1001680017C0DAFF16C0D9FF15C0E2FF14C0E1FFBF
:1001780013C0EAFF12C0E9FF11C0FBFF10C0FAFF6D
:100188000FC0E0FF0EC0E8FF0DC0D8FF429010007E
:100198002DEF12F00001B16F0001B1510001D8A498
:1001A80053D02228D8A450D00F0101971EC0ADF01B
:1001B8001FC0AEF020C0AFF021C0B0F0040E06D0D2
:1001C8000001D890B033AF33AE33AD33E82EF8D753
:1001D800ADC0B2F0AEC0B3F0AFC0B4F0B0C0B5F0CF
:1001E8000001B2510001B26FB36BB46BB56BB2C012
:1001F80000FF070E1E140001B26F000E1F1400014D
:10020800B36F000E20140001B46F000E211400011A
:10021800B56FB2C0ADF0B3C0AEF0B4C0AFF0B5C00A
:10022800B0F0050ED8900001AD37AE37AF37B03714
:10023800E82EF8D7ADC0B2F0AEC0B3F0AFC0B4F09E
:10024800B0C0B5F0B2C001FF0001B105D8A453D0C9
:100258002228D8A450D00F0105971EC0ADF01FC0AA
:10026800AEF020C0AFF021C0B0F0040E06D00001FF
:10027800D890B033AF33AE33AD33E82EF8D7ADC036
:10028800B2F0AEC0B3F0AFC0B4F0B0C0B5F000018A
:10029800B2510001B26FB36BB46BB56BB2C004FF5F
:1002A800070E1E140001B26F000E1F140001B36F79
:1002B800000E20140001B46F000E21140001B56F68
:1002C800B2C0ADF0B3C0AEF0B4C0AFF0B5C0B0F0DE
:1002D800050ED8900001AD37AE37AF37B037E82EEE
:1002E800F8D7ADC0B2F0AEC0B3F0AFC0B4F0B0C094
:1002F800B5F0B2C005FF020E0001B119D8A453D061
:100308002228D8A450D00F0109971EC0ADF01FC0F5
:10031800AEF020C0AFF021C0B0F0040E06D000014E
:10032800D890B033AF33AE33AD33E82EF8D7ADC085
:10033800B2F0AEC0B3F0AFC0B4F0B0C0B5F00001D9
:10034800B2510001B26FB36BB46BB56BB2C008FFAA
:10035800070E1E140001B26F000E1F140001B36FC8
:10036800000E20140001B46F000E21140001B56FB7
:10037800B2C0ADF0B3C0AEF0B4C0AFF0B5C0B0F02D
:10038800050ED8900001AD37AE37AF37B037E82E3D
:10039800F8D7ADC0B2F0AEC0B3F0AFC0B4F0B0C0E3
:1003A800B5F0B2C009FF030E0001B119D8A453D0AB
:1003B8002228D8A450D00F010D971EC0ADF01FC041
:1003C800AEF020C0AFF021C0B0F0040E06D000019E
:1003D800D890B033AF33AE33AD33E82EF8D7ADC0D5
:1003E800B2F0AEC0B3F0AFC0B4F0B0C0B5F0000129
:1003F800B2510001B26FB36BB46BB56BB2C00CFFF6
:10040800070E1E140001B26F000E1F140001B36F17
:10041800000E20140001B46F000E21140001B56F06
:10042800B2C0ADF0B3C0AEF0B4C0AFF0B5C0B0F07C
:10043800050ED8900001AD37AE37AF37B037E82E8C
:10044800F8D7ADC0B2F0AEC0B3F0AFC0B4F0B0C032
:10045800B5F0B2C00DFF040E0001B119D8A453D0F5
:100468002228D8A450D00F0111971EC0ADF01FC08C
:10047800AEF020C0AFF021C0B0F0040E06D00001ED
:10048800D890B033AF33AE33AD33E82EF8D7ADC024
:10049800B2F0AEC0B3F0AFC0B4F0B0C0B5F0000178
:1004A800B2510001B26FB36BB46BB56BB2C010FF41
:1004B800070E1E140001B26F000E1F140001B36F67
:1004C800000E20140001B46F000E21140001B56F56
:1004D800B2C0ADF0B3C0AEF0B4C0AFF0B5C0B0F0CC
:1004E800050ED8900001AD37AE37AF37B037E82EDC
:1004F800F8D7ADC0B2F0AEC0B3F0AFC0B4F0B0C082
:10050800B5F0B2C011FF050E0001B119D8A453D03F
:100518002228D8A450D00F0115971EC0ADF01FC0D7
:10052800AEF020C0AFF021C0B0F0040E06D000013C
:10053800D890B033AF33AE33AD33E82EF8D7ADC073
:10054800B2F0AEC0B3F0AFC0B4F0B0C0B5F00001C7
:10055800B2510001B26FB36BB46BB56BB2C014FF8C
:10056800070E1E140001B26F000E1F140001B36FB6
:10057800000E20140001B46F000E21140001B56FA5
:10058800B2C0ADF0B3C0AEF0B4C0AFF0B5C0B0F01B
:10059800050ED8900001AD37AE37AF37B037E82E2B
:1005A800F8D7ADC0B2F0AEC0B3F0AFC0B4F0B0C0D1
:1005B800B5F0B2C015FF0001B1510001D8A47ED03A
:1005C800F70E2218D8A47AD00F0101871E50000117
:1005D800B26FB36BB46BB56BB2C003FF000E1E14E1
:1005E8000001B26FFF0E1F140001B36F000E20143C
:1005F8000001B46F000E21140001B56FB2C0ADF058
:10060800B3C0AEF0B4C0AFF0B5C0B0F0AEC0ADF09E
:10061800AFC0AEF0B0C0AFF00001B06BADC0B2F08B
:10062800AEC0B3F0AFC0B4F0B0C0B5F0B2C002FF16
:1006380020A003D00F01018102D00F01019120A257
:1006480003D00F01018302D00F01019320A403D02E
:100658000F01018B02D00F01019B20A603D00F01CF
:10066800018D02D00F01019D20A803D00F01018F39
:1006780002D00F01019F1EC0ADF01FC0AEF020C018
:10068800AFF021C0B0F0160E06D00001D890B033FC
:10069800AF33AE33AD33E82EF8D7ADC0B2F0AEC04D
:1006A800B3F0AFC0B4F0B0C0B5F00001B251000172
:1006B800B26FB36BB46BB56BB2C000FF0001B1058C
:1006C800D8A47ED0F70E2218D8A47AD00F010587B7
:1006D8001E500001B26FB36BB46BB56BB2C007FFAD
:1006E800000E1E140001B26FFF0E1F140001B36F3D
:1006F800000E20140001B46F000E21140001B56F24
:10070800B2C0ADF0B3C0AEF0B4C0AFF0B5C0B0F099
:10071800AEC0ADF0AFC0AEF0B0C0AFF00001B06B8E
:10072800ADC0B2F0AEC0B3F0AFC0B4F0B0C0B5F079
:10073800B2C006FF20A003D00F01058102D00F012F
:10074800059120A203D00F01058302D00F01059364
:1007580020A403D00F01058B02D00F01059B20A612
:1007680003D00F01058D02D00F01059D20A803D0ED
:100778000F01058F02D00F01059F1EC0ADF01FC0ED
:10078800AEF020C0AFF021C0B0F0160E06D00001C8
:10079800D890B033AF33AE33AD33E82EF8D7ADC011
:1007A800B2F0AEC0B3F0AFC0B4F0B0C0B5F0000165
:1007B800B2510001B26FB36BB46BB56BB2C004FF3A
:1007C800020E0001B119D8A47ED0F70E2218D8A4C1
:1007D8007AD00F0109871E500001B26FB36BB46B5A
:1007E800B56BB2C00BFF000E1E140001B26FFF0EF6
:1007F8001F140001B36F000E20140001B46F000E27
:1008080021140001B56FB2C0ADF0B3C0AEF0B4C0F2
:10081800AFF0B5C0B0F0AEC0ADF0AFC0AEF0B0C094
:10082800AFF00001B06BADC0B2F0AEC0B3F0AFC076
:10083800B4F0B0C0B5F0B2C00AFF20A003D00F01D9
:10084800098102D00F01099120A203D00F01098369
:1008580002D00F01099320A403D00F01098B02D005
:100868000F01099B20A603D00F01098D02D00F01AB
:10087800099D20A803D00F01098F02D00F01099FFD
:100888001EC0ADF01FC0AEF020C0AFF021C0B0F068
:10089800160E06D00001D890B033AF33AE33AD3367
:1008A800E82EF8D7ADC0B2F0AEC0B3F0AFC0B4F028
:1008B800B0C0B5F00001B2510001B26FB36BB46BB8
:1008C800B56BB2C008FF030E0001B119D8A47ED0E1
:1008D800F70E2218D8A47AD00F010D871E500001F8
:1008E800B26FB36BB46BB56BB2C00FFF000E1E14C2
:1008F8000001B26FFF0E1F140001B36F000E201429
:100908000001B46F000E21140001B56FB2C0ADF044
:10091800B3C0AEF0B4C0AFF0B5C0B0F0AEC0ADF08B
:10092800AFC0AEF0B0C0AFF00001B06BADC0B2F078
:10093800AEC0B3F0AFC0B4F0B0C0B5F0B2C00EFFF7
:1009480020A003D00F010D8102D00F010D9120A22C
:1009580003D00F010D8302D00F010D9320A403D003
:100968000F010D8B02D00F010D9B20A603D00F01A4
:100978000D8D02D00F010D9D20A803D00F010D8F02
:1009880002D00F010D9F1EC0ADF01FC0AEF020C0F9
:10099800AFF021C0B0F0160E06D00001D890B033E9
:1009A800AF33AE33AD33E82EF8D7ADC0B2F0AEC03A
:1009B800B3F0AFC0B4F0B0C0B5F00001B25100015F
:1009C800B26FB36BB46BB56BB2C00CFF040E000111
:1009D800B119D8A47ED0F70E2218D8A47AD00F0166
:1009E80011871E500001B26FB36BB46BB56BB2C008
:1009F80013FF000E1E140001B26FFF0E1F1400013A
:100A0800B36F000E20140001B46F000E2114000112
:100A1800B56FB2C0ADF0B3C0AEF0B4C0AFF0B5C002
:100A2800B0F0AEC0ADF0AFC0AEF0B0C0AFF00001F6
:100A3800B06BADC0B2F0AEC0B3F0AFC0B4F0B0C0F0
:100A4800B5F0B2C012FF20A003D00F01118102D06F
:100A58000F01119120A203D00F01118302D00F01C1
:100A6800119320A403D00F01118B02D00F01119B09
:100A780020A603D00F01118D02D00F01119D20A8CF
:100A880003D00F01118F02D00F01119F1EC0ADF0CE
:100A98001FC0AEF020C0AFF021C0B0F0160E06D0D7
:100AA8000001D890B033AF33AE33AD33E82EF8D76A
:100AB800ADC0B2F0AEC0B3F0AFC0B4F0B0C0B5F0E6
:100AC8000001B2510001B26FB36BB46BB56BB2C029
:100AD80010FF050E0001B119D8A41200F70E221854
:100AE800D8A412000F0115871E500001B26FB36B16
:100AF800B46BB56BB2C017FF000E1E140001B26FC5
:100B0800FF0E1F140001B36F000E20140001B46F14
:100B1800000E21140001B56FB2C0ADF0B3C0AEF045
:100B2800B4C0AFF0B5C0B0F0AEC0ADF0AFC0AEF07D
:100B3800B0C0AFF00001B06BADC0B2F0AEC0B3F062
:100B4800AFC0B4F0B0C0B5F0B2C016FF20A003D05B
:100B58000F01158102D00F01159120A203D00F01BA
:100B6800158302D00F01159320A403D00F01158B14
:100B780002D00F01159B20A603D00F01158D02D0BE
:100B88000F01159D20A803D00F01158F02D00F016A
:100B9800159F1EC0ADF01FC0AEF020C0AFF021C041
:100BA800B0F0160E06D00001D890B033AF33AE3394
:100BB800AD33E82EF8D7ADC0B2F0AEC0B3F0AFC0D9
:100BC800B4F0B0C0B5F00001B2510001B26FB36B20
:100BD800B46BB56BB2C014FF12000F0140B73BD124
:100BE800B3C045FF0001B4AD03D00F01458D02D05D
:100BF8000F01459D0001B4A777D00001AD51000158
:100C0800B56FB66BB76BB86BB5C044FF000E00018B
:100C1800AD150001B56FFF0E0001AE150001B66FEE
:100C2800000E0001AF150001B76F000E0001B015EE
:100C38000001B86FB5C01EF0B6C01FF0B7C020F0F5
:100C4800B8C021F01FC01EF020C01FF021C020F046
:100C5800216A1EC0B5F01FC0B6F020C0B7F021C091
:100C6800B8F0B5C043FF000E0F01426F0F01428775
:100C78000001AFA102D00F0142810001AFA302D051
:100C88000F0142830001AFA502D00F01428B000182
:100C9800AFA702D00F01428D0001AFA902D00F010A
:100CA800428FADC01EF0AEC01FF0AFC020F0B0C084
:100CB80021F0160E05D0D890213220321F321E3274
:100CC800E82EF9D71EC0B5F01FC0B6F020C0B7F0A7
:100CD80021C0B8F00001B5510001B56FB66BB76B14
:100CE800B86BB5C041FF57D00F014297ADC01EF099
:100CF800AEC01FF0AFC020F0B0C021F0040E05D088
:100D0800D890213220321F321E32E82EF9D71EC069
:100D1800B5F01FC0B6F020C0B7F021C0B8F0000190
:100D2800B5510001B56FB66BB76BB86BB5C041FF75
:100D3800070E0001AD150001B56F000E0001AE15DC
:100D48000001B66F000E0001AF150001B76F000E6D
:100D58000001B0150001B86FB5C01EF0B6C01FF095
:100D6800B7C020F0B8C021F0050ED8901E361F3647
:100D780020362136E82EF9D71EC0B5F01FC0B6F0D0
:100D880020C0B7F021C0B8F00F0142511F0B0F016E
:100D9800426FB5C042FF0001B4A103D00F014081EA
:100DA80002D00F0140910001B4A303D00F0140838A
:100DB80002D00F014093B1C0D9FFB2C0DAFFDF50B3
:100DC8000F01466F000120EE01F0B151D926B25152
:100DD800DA22DF500F01476F000120EE02F0B15117
:100DE800D926B251DA22DF500F01486F000120EEF8
:100DF80003F0B151D926B251DA22DF500F01496F01
:100E0800000120EE04F0B151D926B251DA22DF50A8
:100E18000F014A6F000120EE05F0B151D926B251F9
:100E2800DA22DF500F014B6F000120EE06F0B151BE
:100E3800D926B251DA22DF500F014C6F000120EEA3
:100E480007F0B151D926B251DA22DF500F014D6FA8
:100E58000F01408712000F0130B73BD1B3C035FFF7
:100E68000001B4AD03D00F01358D02D00F01359DBF
:100E78000001B4A777D00001AD510001B56FB66B82
:100E8800B76BB86BB5C034FF000E0001AD1500019B
:100E9800B56FFF0E0001AE150001B66F000E000120
:100EA800AF150001B76F000E0001B0150001B86F53
:100EB800B5C01EF0B6C01FF0B7C020F0B8C021F012
:100EC8001FC01EF020C01FF021C020F0216A1EC0E4
:100ED800B5F01FC0B6F020C0B7F021C0B8F0B5C05B
:100EE80033FF000E0F01326F0F0132870001AFA1EF
:100EF80002D00F0132810001AFA302D00F0132836B
:100F08000001AFA502D00F01328B0001AFA702D0BC
:100F18000F01328D0001AFA902D00F01328FADC091
:100F28001EF0AEC01FF0AFC020F0B0C021F0160E0A
:100F380005D0D890213220321F321E32E82EF9D740
:100F48001EC0B5F01FC0B6F020C0B7F021C0B8F081
:100F58000001B5510001B56FB66BB76BB86BB5C082
:100F680031FF57D00F013297ADC01EF0AEC01FF051
:100F7800AFC020F0B0C021F0040E05D0D8902132C7
:100F880020321F321E32E82EF9D71EC0B5F01FC01E
:100F9800B6F020C0B7F021C0B8F00001B55100018B
:100FA800B56FB66BB76BB86BB5C031FF070E0001F4
:100FB800AD150001B56F000E0001AE150001B66F4A
:100FC800000E0001AF150001B76F000E0001B0154B
:100FD8000001B86FB5C01EF0B6C01FF0B7C020F052
:100FE800B8C021F0050ED8901E361F36203621369F
:100FF800E82EF9D71EC0B5F01FC0B6F020C0B7F074
:1010080021C0B8F00F0132511F0B0F01326FB5C06C
:1010180032FF0001B4A103D00F01308102D00F01CB
:1010280030910001B4A303D00F01308302D00F0127
:101038003093B1C0D9FFB2C0DAFFDF500F01366F6D
:10104800000120EE01F0B151D926B251DA22DF5069
:101058000F01376F000120EE02F0B151D926B251CD
:10106800DA22DF500F01386F000120EE03F0B15192
:10107800D926B251DA22DF500F01396F000120EE74
:1010880004F0B151D926B251DA22DF500F013A6F7C
:10109800000120EE05F0B151D926B251DA22DF5015
:1010A8000F013B6F000120EE06F0B151D926B25175
:1010B800DA22DF500F013C6F000120EE07F0B1513A
:1010C800D926B251DA22DF500F013D6F0F01308768
:1010D80012000F0120B71200B3C025FF0001B4AD04
:1010E80003D00F01258D02D00F01259D0001B4A763
:1010F80077D00001AD510001B56FB66BB76BB86B17
:10110800B5C024FF000E0001AD150001B56FFF0E3C
:101118000001AE150001B66F000E0001AF15000109
:10112800B76F000E0001B0150001B86FB5C01EF012
:10113800B6C01FF0B7C020F0B8C021F01FC01EF025
:1011480020C01FF021C020F0216A1EC0B5F01FC0CA
:10115800B6F020C0B7F021C0B8F0B5C023FF000E2C
:101168000F01226F0F0122870001AFA102D00F01EA
:1011780022810001AFA302D00F0122830001AFA595
:1011880002D00F01228B0001AFA702D00F01228DE0
:101198000001AFA902D00F01228FADC01EF0AEC072
:1011A8001FF0AFC020F0B0C021F0160E05D0D890C7
:1011B800213220321F321E32E82EF9D71EC0B5F078
:1011C8001FC0B6F020C0B7F021C0B8F00001B5517B
:1011D8000001B56FB66BB76BB86BB5C021FF57D0C0
:1011E8000F012297ADC01EF0AEC01FF0AFC020F0B7
:1011F800B0C021F0040E05D0D890213220321F3221
:101208001E32E82EF9D71EC0B5F01FC0B6F020C0B8
:10121800B7F021C0B8F00001B5510001B56FB66B49
:10122800B76BB86BB5C021FF070E0001AD15000103
:10123800B56F000E0001AE150001B66F000E00017B
:10124800AF150001B76F000E0001B0150001B86FAF
:10125800B5C01EF0B6C01FF0B7C020F0B8C021F06E
:10126800050ED8901E361F3620362136E82EF9D7BF
:101278001EC0B5F01FC0B6F020C0B7F021C0B8F04E
:101288000F0122511F0B0F01226FB5C022FF000171
:10129800B4A103D00F01208102D00F0120910001D9
:1012A800B4A303D00F01208302D00F012093B1C053
:1012B800D9FFB2C0DAFFDF500F01266F000120EE20
:1012C80001F0B151D926B251DA22DF500F01276F50
:1012D800000120EE02F0B151D926B251DA22DF50D6
:1012E8000F01286F000120EE03F0B151D926B25149
:1012F800DA22DF500F01296F000120EE04F0B1510E
:10130800D926B251DA22DF500F012A6F000120EEF0
:1013180005F0B151D926B251DA22DF500F012B6FF7
:10132800000120EE06F0B151D926B251DA22DF5081
:101338000F012C6F000120EE07F0B151D926B251F0
:10134800DA22DF500F012D6F0F0120871200000EE7
:101358000B6E74BE0B8074BC0B820F0150AF43D16F
:1013680001C0D9FF02C0DAFFDE6ADE6ADE6ADD6A22
:1013780020EE04F00150D9260250DA2256CFDFFFC2
:1013880020EE05F00150D9260250DA2257CFDFFFB0
:1013980020EE06F00150D9260250DA2258CFDFFF9E
:1013A80020EE07F00150D9260250DA2259CFDFFF8C
:1013B80020EE08F00150D9260250DA225ACFDFFF7A
:1013C80020EE09F00150D9260250DA225BCFDFFF68
:1013D80020EE0AF00150D9260250DA225CCFDFFF56
:1013E80020EE0BF00150D9260250DA225DCFDFFF44
:1013F80020EE0EF00150D9260250DA220F0155AD29
:1014080002D0010E01D0000EDF6E20EE0DF001506B
:10141800D9260250DA220F0155510F0BDF6E20EE4C
:101428000CF00150D9260250DA220F0152A702D03F
:10143800010E01D0000EDF6E0F0152B744D051CF1C
:1014480003F0046A056A066A030ED8900336043668
:1014580005360636E82EF9D701C0D9FF02C0DAFFF3
:1014680003C0DEFF04C0DEFF05C0DEFF06C0DEFFEE
:101478000F015239E842070B070B0C6E01C0D9FF68
:1014880002C0DAFFDECF03F0DECF04F0DECF05F0D6
:10149800DECF06F00C500324076E000E0420086E01
:1014A800000E0520096E000E06200A6E01C0D9FF45
:1014B80002C0DAFF07C0DEFF08C0DEFF09C0DEFF9A
:1014C8000AC0DEFF8DD054CF03F0046A056A066AAD
:1014D80001C0D9FF02C0DAFF03C0DEFF04C0DEFF8F
:1014E80005C0DEFF06C0DEFF53CF03F0046A056ABD
:1014F800066A05C006F004C005F003C004F0036ADC
:1015080001C0D9FF02C0DAFF0350DE260450DE22F4
:101518000550DE220650DE220F0152A10CD001C078
:10152800D9FF02C0DAFF000EDE12000EDE12010E35
:10153800DE12000EDE120F0152A30CD001C0D9FF3B
:1015480002C0DAFF000EDE12000EDE12020EDE12FC
:10155800000EDE120F0152AB0CD001C0D9FF02C041
:10156800DAFF000EDE12000EDE12040EDE12000E8E
:10157800DE120F0152AD0CD001C0D9FF02C0DAFF54
:10158800000EDE12000EDE12080EDE12000EDE1253
:101598000F0152AF0CD001C0D9FF02C0DAFF000E14
:1015A800DE12000EDE12100EDE12000EDE1251CF19
:1015B80003F0046A056A066A150ED89003360436E5
:1015C80005360636E82EF9D701C0D9FF02C0DAFF82
:1015D8000350DE120450DE120550DE120650DE12F1
:1015E8000F01509F120060AE120001C0D9FF02C067
:1015F800DAFFDE6ADE6ADE6ADD6A20EE04F0015098
:10160800D9260250DA2266CFDFFF20EE05F001501E
:10161800D9260250DA2267CFDFFF20EE06F001500C
:10162800D9260250DA2268CFDFFF20EE07F00150FA
:10163800D9260250DA2269CFDFFF20EE08F00150E8
:10164800D9260250DA226ACFDFFF20EE09F00150D6
:10165800D9260250DA226BCFDFFF20EE0AF00150C4
:10166800D9260250DA226CCFDFFF20EE0BF00150B2
:10167800D9260250DA226DCFDFFF20EE0EF001509E
:10168800D9260250DA2265AC02D0010E01D0000E34
:10169800DF6E20EE0DF00150D9260250DA22655097
:1016A8000F0BDF6E20EE0CF00150D9260250DA2223
:1016B80062A602D0010E01D0000EDF6E62B643D0E2
:1016C80061CF03F0046A056A066A030ED8900336F0
:1016D800043605360636E82EF9D701C0D9FF02C010
:1016E800DAFF03C0DEFF04C0DEFF05C0DEFF06C070
:1016F800DEFF6238E842070B070B0C6E01C0D9FF0A
:1017080002C0DAFFDECF03F0DECF04F0DECF05F053
:10171800DECF06F00C500324076E000E0420086E7E
:10172800000E0520096E000E06200A6E01C0D9FFC2
:1017380002C0DAFF07C0DEFF08C0DEFF09C0DEFF17
:101748000AC0DEFF88D064CF03F0046A056A066A1F
:1017580001C0D9FF02C0DAFF03C0DEFF04C0DEFF0C
:1017680005C0DEFF06C0DEFF63CF03F0046A056A2A
:10177800066A05C006F004C005F003C004F0036A59
:1017880001C0D9FF02C0DAFF0350DE260450DE2272
:101798000550DE220650DE2262A00CD001C0D9FF1F
:1017A80002C0DAFF000EDE12000EDE12010EDE129B
:1017B800000EDE1262A20CD001C0D9FF02C0DAFF0F
:1017C800000EDE12000EDE12020EDE12000EDE1217
:1017D80062AA0CD001C0D9FF02C0DAFF000EDE12E7
:1017E800000EDE12040EDE12000EDE1262AC0CD009
:1017F80001C0D9FF02C0DAFF000EDE12000EDE12B1
:10180800080EDE12000EDE1262AE0CD001C0D9FF47
:1018180002C0DAFF000EDE12000EDE12100EDE121B
:10182800000EDE1261CF03F0046A056A066A150E1F
:10183800D8900336043605360636E82EF9D701C0A7
:10184800D9FF02C0DAFF0350DE120450DE12055041
:10185800DE120650DE12609E120042EC11F0808209
:101868008282010E0001B66FF40EB56FB3EC12F070
:1018780080928292060E0BEC13F0FE0E246E24501A
:101888002DEC13F03980FC0E1E6E7F0E52EC12F018
:10189800010E1F6E2C0E1E6E96EC12F0010E00014A
:1018A800B66FF40EB56FB3EC12F07CC0C2F07DC019
:1018B800C3F07EC0C4F07FC0C5F00001C21FC31FC3
:1018C800C41FC51FC22B000EC323C423C523295020
:1018D8000001C2250001C66F2A500001C321000182
:1018E800C76F2B500001C4210001C86F2C500001A4
:1018F800C5210001C96F0001C9510001C8110001CB
:10190800C71105E10F0E0001C65DD8A0E6D0060E8E
:101918000001AD6F000EAE6F000EAF6F000EB06F1E
:10192800A50E0001B16F000E0001B26F080E000194
:10193800B36FFC0E0001B46FF1EC05F039A0BFD015
:1019480082A202D0010E01D0000EFF0A0001C26F70
:101958000001C24782500001C219FD0BC219826EF4
:101968003990355037241E6E1F6A1F36000E216EBF
:10197800020E206E99EC11F01E50406E190E366E54
:1019880036500001C26FC36B0001C21FC31FC24B98
:10199800C32B40500001C2250001B16F000E0001A9
:1019A800C3210001B26F000E0001B46F0A0EB36FBD
:1019B800CDEC12F0B1C0B5F0B2C0B6F0E6EC12F062
:1019C800B5C031F0B6C032F0000E216E110E206E97
:1019D80031C01EF032C01FF099EC11F01EC0B1F0FA
:1019E8001FC0B2F0000E216E110E206E31C01EF025
:1019F80032C01FF099EC11F01EC0B3F01FC0B4F054
:101A0800CDEC12F0D8900001B1352F6E0001B2353F
:101A1800306E305004E1040E2F5CD8A048D0365008
:101A28000001C26FC36B0001C21FC31FC24BC32B8F
:101A380040500001C46FC56B0001C2510001C427AA
:101A48000001C3510001C5230001C5BF1FD000011B
:101A5800C55104E10001C405D8A018D02FC0C2F0B8
:101A680030C0C3F00001C21FC31FC24BC32B3E507E
:101A78000001C2253C6E3F500001C3213D6E3DAEC2
:101A88001AD0000E3D6E000E3C6E15D02F503E242D
:101A98003C6E30503F203D6E3DBE0DD03C04040EE0
:101AA8003D58D8A008D0030E3D6E3C6804D03EC017
:101AB8003CF03FC03DF03CC03EF03DC03FF029C087
:101AC8007CF02AC07DF02BC07EF02CC07FF03CC09B
:101AD8001EF03DC01FF096EC12F038AA38B001D0C5
:101AE80002D0C4EC10F035EC13F0E806D8B405D0F9
:101AF8003BEC13F0E806D8A414D08082000E000155
:101B0800B66FC80EB56FB3EC12F08092000E0001EC
:101B1800B66FC80EB56FB3EC12F0808274947492ED
:101B280001D0809278C0C2F079C0C3F07AC0C4F006
:101B38007BC0C5F00001C21FC31FC41FC51FC22B35
:101B4800000EC323C423C52329500001C225000168
:101B5800C66F2A500001C3210001C76F2B50000136
:101B6800C4210001C86F2C500001C5210001C96FB4
:101B78000001C9510001C81108E1F50E0001C65D58
:101B8800010E0001C759D8A036D038BE18D0020EB1
:101B98000001AD6F000EAE6F000EAF6F000EB06F9C
:101BA800950E0001B16F000E0001B26F080E000122
:101BB800B36FFC0E0001B46FF1EC05F0388E38AE4F
:101BC80012D038B238A607D038A405D03892389643
:101BD8003894809208D08082000E0001B66FC80E3B
:101BE800B56FB3EC12F029C078F02AC079F02BC099
:101BF8007AF02CC07BF080C0C2F081C0C3F082C0F4
:101C0800C4F083C0C5F00001C21FC31FC41FC51F95
:101C1800C22B000EC323C423C52329500001C225AB
:101C28000001C66F2A500001C3210001C76F2B5065
:101C38000001C4210001C86F2C500001C52100011A
:101C4800C96F0001C9510001C8110001C71105E1A0
:101C5800640E0001C65DD8A028D6E7EC11F029C0B3
:101C680080F02AC081F02BC082F02CC083F01DD6F2
:101C78000001B16F0001B105D8A451D02228D8A421
:101C88004ED01EC0ADF01FC0AEF020C0AFF021C0D6
:101C9800B0F0040E06D00001D890B033AF33AE33A5
:101CA800AD33E82EF8D7ADC0B2F0AEC0B3F0AFC0D8
:101CB800B4F0B0C0B5F00001B2510001B26FB36B1F
:101CC800B46BB56BB2C018FF070E1E140001B26FDB
:101CD800000E1F140001B36F000E20140001B46F32
:101CE800000E21140001B56FB2C0ADF0B3C0AEF064
:101CF800B4C0AFF0B5C0B0F0050ED8900001AD3754
:101D0800AE37AF37B037E82EF8D7ADC0B2F0AEC0B7
:101D1800B3F0AFC0B4F0B0C0B5F0B2C019FF020E56
:101D28000001B119D8A451D02228D8A44ED01EC081
:101D3800ADF01FC0AEF020C0AFF021C0B0F0040E6F
:101D480006D00001D890B033AF33AE33AD33E82EB0
:101D5800F8D7ADC0B2F0AEC0B3F0AFC0B4F0B0C009
:101D6800B5F00001B2510001B26FB36BB46BB56B43
:101D7800B2C01CFF070E1E140001B26F000E1F1424
:101D88000001B36F000E20140001B46F000E21147F
:101D98000001B56FB2C0ADF0B3C0AEF0B4C0AFF0E3
:101DA800B5C0B0F0050ED8900001AD37AE37AF37EB
:101DB800B037E82EF8D7ADC0B2F0AEC0B3F0AFC0C0
:101DC800B4F0B0C0B5F0B2C01DFF0001B105D8A491
:101DD8007CD0F70E2218D8A478D01E500001B26F1C
:101DE800B36BB46BB56BB2C01BFF000E1E140001C1
:101DF800B26FFF0E1F140001B36F000E2014000114
:101E0800B46F000E21140001B56FB2C0ADF0B3C0BD
:101E1800AEF0B4C0AFF0B5C0B0F0AEC0ADF0AFC07A
:101E2800AEF0B0C0AFF00001B06BADC0B2F0AEC064
:101E3800B3F0AFC0B4F0B0C0B5F0B2C01AFF20A084
:101E480003D00F01198102D00F01199120A203D0EC
:101E58000F01198302D00F01199320A403D00F0199
:101E6800198B02D00F01199B20A603D00F01198DE1
:101E780002D00F01199D20A803D00F01198F02D09D
:101E88000F01199F1EC0ADF01FC0AEF020C0AFF00B
:101E980021C0B0F0160E06D00001D890B033AF3391
:101EA800AE33AD33E82EF8D7ADC0B2F0AEC0B3F064
:101EB800AFC0B4F0B0C0B5F00001B2510001B26FCC
:101EC800B36BB46BB56BB2C018FF020E0001B11949
:101ED800D8A41200F70E2218D8A412001E50000130
:101EE800B26FB36BB46BB56BB2C01FFF000E1E149C
:101EF8000001B26FFF0E1F140001B36F000E201413
:101F08000001B46F000E21140001B56FB2C0ADF02E
:101F1800B3C0AEF0B4C0AFF0B5C0B0F0AEC0ADF075
:101F2800AFC0AEF0B0C0AFF00001B06BADC0B2F062
:101F3800AEC0B3F0AFC0B4F0B0C0B5F0B2C01EFFD1
:101F480020A003D00F011D8102D00F011D9120A2F6
:101F580003D00F011D8302D00F011D9320A403D0CD
:101F68000F011D8B02D00F011D9B20A603D00F016E
:101F78001D8D02D00F011D9D20A803D00F011D8FBC
:101F880002D00F011D9F1EC0ADF01FC0AEF020C0D3
:101F9800AFF021C0B0F0160E06D00001D890B033D3
:101FA800AF33AE33AD33E82EF8D7ADC0B2F0AEC024
:101FB800B3F0AFC0B4F0B0C0B5F00001B251000149
:101FC800B26FB36BB46BB56BB2C01CFF12000001EB
:101FD800BF6F800E24EC13F0000E706E000E716E51
:101FE800000E726E0001B841E842C00B0001B86FE4
:101FF8000001B85170120001B95170120001BF51AF
:1020080071120001B639E842F80B0001B66F000101
:10201800B65171120001BAA5718C0001BAB1718E66
:102028000001B75172120001BAB3728C0001BA51A3
:10203800600B606E0001BA51100BFF0AD8B46084BF
:1020480060CF50FF000E1E6E000E1F6E000E206E39
:10205800000E216EF70E226E010E3CEC0EF0000E03
:102068001E6E000E1F6E000E206E000E216EF70E03
:10207800226E020E3CEC0EF00FD0F70E0001C06F7E
:1020880007D00001C0690001C16928D00001C069FA
:10209800F70E0001C16F22D09F0E0001BB6FFF0E2B
:1020A8000001BC6F0001BA51600B0001BD6FBE6B2F
:1020B8000001BB510001BD130001BC510001BE135A
:1020C8000001BE51000AD8A4E1D70001BD51BF0AE2
:1020D800D8B4D7D7600AD8B4D0D7D8D7000E1E6ED8
:1020E800000E1F6E000E206E000E216EC0C022F082
:1020F800000ECEEC00F0000E1E6E000E1F6E000EDD
:10210800206E000E216EC0C022F0010ECEEC00F051
:10211800000E1E6E000E1F6E000E206E000E216E49
:10212800C1C022F0020ECEEC00F0000E1E6E000EB2
:102138001F6E000E206E000E216EC1C022F0030E2D
:10214800CEEC00F0000E1E6E000E1F6E000E206E0C
:10215800000E216EC1C022F0040ECEEC00F0000E7D
:102168001E6E000E1F6E000E206E000E216EC1C086
:1021780022F0050ECEEC00F0000E24EC13F0120055
:10218800FCEC12F00009D8B431D038AA17D025C019
:10219800ADF026C0AEF027C0AFF028C0B0F0950E65
:1021A8000001B16F000E0001B26F080E0001B36F9D
:1021B800BC0E0001B46FF1EC05F0389A38A016D0C7
:1021C80074C0ADF075C0AEF076C0AFF077C0B0F0B7
:1021D8009D0E0001B16F000E0001B26F080E0001E4
:1021E800B36FBC0E0001B46FF1EC05F00F0140BDF8
:1021F80003D00F0130AD2CD0388025C074F026C034
:1022080075F027C076F028C077F038AA02D0388C4D
:1022180001D0389C000E226E070E226401D02CD00B
:102228002250010D950EF324D96E000EF420DA6EBB
:102238002250010D9D0EF324E16E000EF420E26E93
:10224800DFCFE7FF0F01409D0F01309D222AE4D721
:10225800389038AC10D038AC02D0388A01D0389ACF
:1022680074C025F075C026F076C027F077C028F036
:102278003888389C01D03898389A1200060E000128
:10228800B66F050E0001B76F010E0001B86F030E9F
:102298000001B96F9D0E0001BA6F040EEBEC0FF050
:1022A800D08EF292A492A490A592A590F28EF28C70
:1022B800010EB16EA192A292630EB36EC00EB26E01
:1022C800C280C294C296C298C29AC190C182C18487
:1022D800C186C198C19AC080C092C084C096C08887
:1022E800C08AC09EA382A380A082000E896E7D0E44
:1022F800926E000E8A6EFB0E936E000E8B6E000EB1
:10230800946E000E8C6E000E956E000E8D6E9668A3
:10231800000E0001B66F020EB56FB3EC12F0FC0EA2
:102328001E6E7F0E52EC12F01200000E0001AE6F0E
:1023380021AE07D0206C211ED8B0212A010E000141
:10234800AE6F1FAE07D01E6C1F1ED8B01F2A010E1D
:102358000001AE1B000E0001B06F000EAF6F2050E1
:102368002110D8B421D0010E0001AD6F05D0D8904E
:10237800203621360001AD2B21AEF9D70001D890C7
:10238800AF37B03720501E5C21501F58D8A006D058
:1023980020501E5E21501F5A0001AF81D890213273
:1023A80020320001AD2FEAD70001AE510001D8B4A8
:1023B80005D00001AF6DB01FD8B0B02BAFC01EF074
:1023C800B0C01FF01200C282C2B2FED7C4CF33F031
:1023D800346A33C0B1F034C0B2F0000E0001B46FFB
:1023E8000E0EB36FCDEC12F0B1C01EF0B2C01FF0EC
:1023F800000E216E206899EC11F01EC033F01FC04A
:1024080034F034BE06D0345022E1080E335CD8B024
:102418001ED0FCEC12F00009D8B4FBD7090E00015D
:10242800AD6F000EAE6F000EAF6F000EB06F950E61
:102438000001B16F000E0001B26F080E0001B36F0A
:10244800FC0E0001B46FF1EC05F08282120082925A
:10245800120000EE60F04D0EEE6AE806FDE1396A02
:10246800386A00EE25F0130EEE6AE806FDE1820EEA
:10247800F66E260EF76E000EF86E00EE3AF010EECD
:1024880008F00900F5CFEEFFE550E150FAE142907F
:102498004292000EF86E000131EF0CF01F6EBA5038
:1024A800C0091F14BA6EBA500F091E14BA6E3F0E37
:1024B8001F18D8A402D095981200BF0E1F18D8A4D0
:1024C80003D09598959A12007F0E1F18D8B403D0A0
:1024D8001F28D8A412009598959A959C959E12004D
:1024E800026EBA50C0090214BA6EBA500F0901142C
:1024F800BA6E3F0E0218D8A402D095981200BF0EEB
:102508000218D8A403D09598959A12007F0E021845
:10251800D8B403D00228D8A412009598959A959C0F
:10252800959E12001EC020F01FC021F0060ED89004
:1025380020362136E82EFBD720C022F021C023F018
:1025480023C0BBFF22C020F0D8902032D890203280
:10255800300E2016BA50CF0B2010BA6E120041C0B0
:10256800B1F00001B26BB5C0B3F0B6C0B4F0CDECB9
:1025780012F0B1C02DF0B2C02EF006D0500EE82EE9
:10258800FED72D06D8A02E062D502E10D8B4120036
:10259800F5D70001B1510001B303F3CF22F0F4CF16
:1025A80023F00001B1510001B403F35023260001C8
:1025B800B2510001B303F350232622C0B1F023C067
:1025C800B2F012000001B6AF0ED0B5C0B7F0B6C079
:1025D800B8F00001B71FB81FB74BB82BB7C0B5F09C
:1025E800B8C0B6F01200B5C0B5F0B6C0B6F012006B
:1025F800010E1E6E0F0140A708D00F0130A705D0AD
:102608000F0120A702D0000E1E6E1E5012001E6E73
:102618001E50FB0BCA6E000ECC6E9E921EAE02D0F0
:102628009D8201D09D92CA841200010E016E60BE87
:1026380005D00F0150BF02D0000E016E01501200EC
:102648001E6E1EC06FFF6E50E00B1E18D8B412002D
:10265800FAD71E6E0C0EBA6ECA941EC0CBFFCA847F
:10266800120074A402D0010E1200000E120074A20F
:1026780002D0010E1200000E12000100C800C800AE
:0226880001103F
:020000040030CA
:0E000000FF021F1EFF8285FF0FC00FE00F40A2
:00000001FF
