:04000000D5EF00F048
:100018004280D8CF0DF0E8CF0EF0E0CF0FF0FACF46
:1000280010F0FBCF11F0E9CF12F0EACF13F0E1CFD7
:1000380014F0E2CF15F0D9CF16F0DACF17F0F3CFDE
:1000480018F0F4CF19F0F6CF1AF0F7CF1BF0F8CF6D
:100058001CF0F5CF1DF0A4A0A4B201D07ED0EFEC27
:1000680012F00009D8B46CD0840E016E000E026E36
:10007800B4EC09F000019205D8A40ED084C025F094
:1000880085C026F086C027F087C028F0000192A11D
:1000980002D03E8A01D03E9A030E00018419000165
:1000A80085110001861100018711D8A40DD088C0E0
:1000B80040F089C031F0326A29C078F02AC079F05E
:1000C8002BC07AF02CC07BF000018405000185115B
:1000D8000001861100018711D8A403D0000E406EDC
:1000E8008082060E00018419000185110001861125
:1000F80000018711D8A405D088C03AF089C03DF026
:100108003F80020E0001841900018511000186114B
:1001180000018711D8B407D013D03E820FD03E8695
:100128000DD03E840BD000018851010AD8B4F5D710
:10013800030AD8B4F4D7010AD8B4F3D7A490A49288
:10014800A1A20BD0010E2926000E2A222B222C2236
:10015800630EB36EC00EB26EA1921DC0F5FF1CC037
:10016800F8FF1BC0F7FF1AC0F6FF19C0F4FF18C04C
:10017800F3FF17C0DAFF16C0D9FF15C0E2FF14C09D
:10018800E1FF13C0EAFF12C0E9FF11C0FBFF10C076
:10019800FAFF0FC0E0FF0EC0E8FF0DC0D8FF429085
:1001A80010004DEF12F00001A76F0001A7510001E8
:1001B800D8A453D02228D8A450D00F0101971EC02C
:1001C800A3F01FC0A4F020C0A5F021C0A6F0040E23
:1001D80006D00001D890A633A533A433A333E82E64
:1001E800F8D7A3C0A8F0A4C0A9F0A5C0AAF0A6C0DB
:1001F800ABF00001A8510001A86FA96BAA6BAB6B0B
:10020800A8C000FF070E1E140001A86F000E1F14DF
:100218000001A96F000E20140001AA6F000E21141E
:100228000001AB6FA8C0A3F0A9C0A4F0AAC0A5F0B4
:10023800ABC0A6F0050ED8900001A337A437A537A8
:10024800A637E82EF8D7A3C0A8F0A4C0A9F0A5C087
:10025800AAF0A6C0ABF0A8C001FF0001A705D8A46A
:1002680053D02228D8A450D00F0105971EC0A3F060
:100278001FC0A4F020C0A5F021C0A6F0040E06D02F
:100288000001D890A633A533A433A333E82EF8D7BA
:10029800A3C0A8F0A4C0A9F0A5C0AAF0A6C0ABF05E
:1002A8000001A8510001A86FA96BAA6BAB6BA8C08D
:1002B80004FF070E1E140001A86F000E1F14000192
:1002C800A96F000E20140001AA6F000E211400016E
:1002D800AB6FA8C0A3F0A9C0A4F0AAC0A5F0ABC09A
:1002E800A6F0050ED8900001A337A437A537A63786
:1002F800E82EF8D7A3C0A8F0A4C0A9F0A5C0AAF01A
:10030800A6C0ABF0A8C005FF020E0001A719D8A42B
:1003180053D02228D8A450D00F0109971EC0A3F0AB
:100328001FC0A4F020C0A5F021C0A6F0040E06D07E
:100338000001D890A633A533A433A333E82EF8D709
:10034800A3C0A8F0A4C0A9F0A5C0AAF0A6C0ABF0AD
:100358000001A8510001A86FA96BAA6BAB6BA8C0DC
:1003680008FF070E1E140001A86F000E1F140001DD
:10037800A96F000E20140001AA6F000E21140001BD
:10038800AB6FA8C0A3F0A9C0A4F0AAC0A5F0ABC0E9
:10039800A6F0050ED8900001A337A437A537A637D5
:1003A800E82EF8D7A3C0A8F0A4C0A9F0A5C0AAF069
:1003B800A6C0ABF0A8C009FF030E0001A719D8A476
:1003C80053D02228D8A450D00F010D971EC0A3F0F7
:1003D8001FC0A4F020C0A5F021C0A6F0040E06D0CE
:1003E8000001D890A633A533A433A333E82EF8D759
:1003F800A3C0A8F0A4C0A9F0A5C0AAF0A6C0ABF0FD
:100408000001A8510001A86FA96BAA6BAB6BA8C02B
:100418000CFF070E1E140001A86F000E1F14000128
:10042800A96F000E20140001AA6F000E211400010C
:10043800AB6FA8C0A3F0A9C0A4F0AAC0A5F0ABC038
:10044800A6F0050ED8900001A337A437A537A63724
:10045800E82EF8D7A3C0A8F0A4C0A9F0A5C0AAF0B8
:10046800A6C0ABF0A8C00DFF040E0001A719D8A4C0
:1004780053D02228D8A450D00F0111971EC0A3F042
:100488001FC0A4F020C0A5F021C0A6F0040E06D01D
:100498000001D890A633A533A433A333E82EF8D7A8
:1004A800A3C0A8F0A4C0A9F0A5C0AAF0A6C0ABF04C
:1004B8000001A8510001A86FA96BAA6BAB6BA8C07B
:1004C80010FF070E1E140001A86F000E1F14000174
:1004D800A96F000E20140001AA6F000E211400015C
:1004E800AB6FA8C0A3F0A9C0A4F0AAC0A5F0ABC088
:1004F800A6F0050ED8900001A337A437A537A63774
:10050800E82EF8D7A3C0A8F0A4C0A9F0A5C0AAF007
:10051800A6C0ABF0A8C011FF050E0001A719D8A40A
:1005280053D02228D8A450D00F0115971EC0A3F08D
:100538001FC0A4F020C0A5F021C0A6F0040E06D06C
:100548000001D890A633A533A433A333E82EF8D7F7
:10055800A3C0A8F0A4C0A9F0A5C0AAF0A6C0ABF09B
:100568000001A8510001A86FA96BAA6BAB6BA8C0CA
:1005780014FF070E1E140001A86F000E1F140001BF
:10058800A96F000E20140001AA6F000E21140001AB
:10059800AB6FA8C0A3F0A9C0A4F0AAC0A5F0ABC0D7
:1005A800A6F0050ED8900001A337A437A537A637C3
:1005B800E82EF8D7A3C0A8F0A4C0A9F0A5C0AAF057
:1005C800A6C0ABF0A8C015FF0001A7510001D8A430
:1005D8007ED0F70E2218D8A47AD00F0101871E50BA
:1005E8000001A86FA96BAA6BAB6BA8C003FF000E34
:1005F8001E140001A86FFF0E1F140001A96F000E42
:1006080020140001AA6F000E21140001AB6FA8C0CE
:10061800A3F0A9C0A4F0AAC0A5F0ABC0A6F0A4C0DE
:10062800A3F0A5C0A4F0A6C0A5F00001A66BA3C0C6
:10063800A8F0A4C0A9F0A5C0AAF0A6C0ABF0A8C0B5
:1006480002FF20A003D00F01018102D00F01019108
:1006580020A203D00F01018302D00F01019320A42F
:1006680003D00F01018B02D00F01019B20A603D0FC
:100678000F01018D02D00F01019D20A803D00F01A9
:10068800018F02D00F01019F1EC0A3F01FC0A4F06C
:1006980020C0A5F021C0A6F0160E06D00001D89003
:1006A800A633A533A433A333E82EF8D7A3C0A8F004
:1006B800A4C0A9F0A5C0AAF0A6C0ABF00001A8513B
:1006C8000001A86FA96BAA6BAB6BA8C000FF000163
:1006D800A705D8A47ED0F70E2218D8A47AD00F0187
:1006E80005871E500001A86FA96BAA6BAB6BA8C049
:1006F80007FF000E1E140001A86FFF0E1F14000153
:10070800A96F000E20140001AA6F000E2114000129
:10071800AB6FA8C0A3F0A9C0A4F0AAC0A5F0ABC055
:10072800A6F0A4C0A3F0A5C0A4F0A6C0A5F000013F
:10073800A66BA3C0A8F0A4C0A9F0A5C0AAF0A6C043
:10074800ABF0A8C006FF20A003D00F01058102D09E
:100758000F01059120A203D00F01058302D00F01DC
:10076800059320A403D00F01058B02D00F01059B30
:1007780020A603D00F01058D02D00F01059D20A8EA
:1007880003D00F01058F02D00F01059F1EC0A3F0F3
:100798001FC0A4F020C0A5F021C0A6F0160E06D0F8
:1007A8000001D890A633A533A433A333E82EF8D795
:1007B800A3C0A8F0A4C0A9F0A5C0AAF0A6C0ABF039
:1007C8000001A8510001A86FA96BAA6BAB6BA8C068
:1007D80004FF020E0001A719D8A47ED0F70E221834
:1007E800D8A47AD00F0109871E500001A86FA96B01
:1007F800AA6BAB6BA8C00BFF000E1E140001A86FFC
:10080800FF0E1F140001A96F000E20140001AA6F2B
:10081800000E21140001AB6FA8C0A3F0A9C0A4F07A
:10082800AAC0A5F0ABC0A6F0A4C0A3F0A5C0A4F0D0
:10083800A6C0A5F00001A66BA3C0A8F0A4C0A9F0AB
:10084800A5C0AAF0A6C0ABF0A8C00AFF20A003D09C
:100858000F01098102D00F01099120A203D00F01D5
:10086800098302D00F01099320A403D00F01098B3B
:1008780002D00F01099B20A603D00F01098D02D0D9
:100888000F01099D20A803D00F01098F02D00F0185
:10089800099F1EC0A3F01FC0A4F020C0A5F021C06E
:1008A800A6F0160E06D00001D890A633A533A433BF
:1008B800A333E82EF8D7A3C0A8F0A4C0A9F0A5C018
:1008C800AAF0A6C0ABF00001A8510001A86FA96B5F
:1008D800AA6BAB6BA8C008FF030E0001A719D8A428
:1008E8007ED0F70E2218D8A47AD00F010D871E509B
:1008F8000001A86FA96BAA6BAB6BA8C00FFF000E15
:100908001E140001A86FFF0E1F140001A96F000E2E
:1009180020140001AA6F000E21140001AB6FA8C0BB
:10092800A3F0A9C0A4F0AAC0A5F0ABC0A6F0A4C0CB
:10093800A3F0A5C0A4F0A6C0A5F00001A66BA3C0B3
:10094800A8F0A4C0A9F0A5C0AAF0A6C0ABF0A8C0A2
:100958000EFF20A003D00F010D8102D00F010D91D1
:1009680020A203D00F010D8302D00F010D9320A404
:1009780003D00F010D8B02D00F010D9B20A603D0D1
:100988000F010D8D02D00F010D9D20A803D00F017E
:100998000D8F02D00F010D9F1EC0A3F01FC0A4F041
:1009A80020C0A5F021C0A6F0160E06D00001D890F0
:1009B800A633A533A433A333E82EF8D7A3C0A8F0F1
:1009C800A4C0A9F0A5C0AAF0A6C0ABF00001A85128
:1009D8000001A86FA96BAA6BAB6BA8C00CFF040E33
:1009E8000001A719D8A47ED0F70E2218D8A47AD06F
:1009F8000F0111871E500001A86FA96BAA6BAB6B82
:100A0800A8C013FF000E1E140001A86FFF0E1F14CC
:100A18000001A96F000E20140001AA6F000E211416
:100A28000001AB6FA8C0A3F0A9C0A4F0AAC0A5F0AC
:100A3800ABC0A6F0A4C0A3F0A5C0A4F0A6C0A5F0C2
:100A48000001A66BA3C0A8F0A4C0A9F0A5C0AAF095
:100A5800A6C0ABF0A8C012FF20A003D00F011181DF
:100A680002D00F01119120A203D00F01118302D0EF
:100A78000F01119320A403D00F01118B02D00F0195
:100A8800119B20A603D00F01118D02D00F01119DDB
:100A980020A803D00F01118F02D00F01119F1EC093
:100AA800A3F01FC0A4F020C0A5F021C0A6F0160E28
:100AB80006D00001D890A633A533A433A333E82E7B
:100AC800F8D7A3C0A8F0A4C0A9F0A5C0AAF0A6C0F2
:100AD800ABF00001A8510001A86FA96BAA6BAB6B22
:100AE800A8C010FF050E0001A719D8A41200F70E20
:100AF8002218D8A412000F0115871E500001A86FF4
:100B0800A96BAA6BAB6BA8C017FF000E1E140001DF
:100B1800A86FFF0E1F140001A96F000E201400011A
:100B2800AA6F000E21140001AB6FA8C0A3F0A9C0E2
:100B3800A4F0AAC0A5F0ABC0A6F0A4C0A3F0A5C0BD
:100B4800A4F0A6C0A5F00001A66BA3C0A8F0A4C09D
:100B5800A9F0A5C0AAF0A6C0ABF0A8C016FF20A0B7
:100B680003D00F01158102D00F01159120A203D0E7
:100B78000F01158302D00F01159320A403D00F0194
:100B8800158B02D00F01159B20A603D00F01158DE0
:100B980002D00F01159D20A803D00F01158F02D098
:100BA8000F01159F1EC0A3F01FC0A4F020C0A5F020
:100BB80021C0A6F0160E06D00001D890A633A533A2
:100BC800A433A333E82EF8D7A3C0A8F0A4C0A9F093
:100BD800A5C0AAF0A6C0ABF00001A8510001A86FFB
:100BE800A96BAA6BAB6BA8C014FF12000F0140B72A
:100BF8003BD1A9C045FF0001AAAD03D00F01458D27
:100C080002D00F01459D0001AAA777D00001A3518A
:100C18000001AB6FAC6BAD6BAE6BABC044FF000EAD
:100C28000001A3150001AB6FFF0E0001A415000120
:100C3800AC6F000E0001A5150001AD6F000E00019C
:100C4800A6150001AE6FABC01EF0ACC01FF0ADC062
:100C580020F0AEC021F01FC01EF020C01FF021C040
:100C680020F0216A1EC0ABF01FC0ACF020C0ADF070
:100C780021C0AEF0ABC043FF000E0F01426F0F0161
:100C880042870001A5A102D00F0142810001A5A35E
:100C980002D00F0142830001A5A502D00F01428BAB
:100CA8000001A5A702D00F01428D0001A5A902D01D
:100CB8000F01428FA3C01EF0A4C01FF0A5C020F0F2
:100CC800A6C021F0160E05D0D890213220321F324E
:100CD8001E32E82EF9D71EC0ABF01FC0ACF020C002
:100CE800ADF021C0AEF00001AB510001AB6FAC6BB1
:100CF800AD6BAE6BABC041FF57D00F014297A3C09D
:100D08001EF0A4C01FF0A5C020F0A6C021F0040E5C
:100D180005D0D890213220321F321E32E82EF9D762
:100D28001EC0ABF01FC0ACF020C0ADF021C0AEF0CB
:100D38000001AB510001AB6FAC6BAD6BAE6BABC0E0
:100D480041FF070E0001A3150001AB6F000E000163
:100D5800A4150001AC6F000E0001A5150001AD6FD0
:100D6800000E0001A6150001AE6FABC01EF0ACC0AE
:100D78001FF0ADC020F0AEC021F0050ED8901E3691
:100D88001F3620362136E82EF9D71EC0ABF01FC01B
:100D9800ACF020C0ADF021C0AEF00F0142511F0BE6
:100DA8000F01426FABC042FF0001AAA103D00F019F
:100DB800408102D00F0140910001AAA303D00F0186
:100DC800408302D00F014093A7C0D9FFA8C0DAFF23
:100DD800DF500F01466F000120EE01F0A751D92620
:100DE800A851DA22DF500F01476F000120EE02F010
:100DF800A751D926A851DA22DF500F01486F000108
:100E080020EE03F0A751D926A851DA22DF500F01AE
:100E1800496F000120EE04F0A751D926A851DA2223
:100E2800DF500F014A6F000120EE05F0A751D926C7
:100E3800A851DA22DF500F014B6F000120EE06F0B7
:100E4800A751D926A851DA22DF500F014C6F0001B3
:100E580020EE07F0A751D926A851DA22DF500F015A
:100E68004D6F0F01408712000F0130B73BD1A9C069
:100E780035FF0001AAAD03D00F01358D02D00F0157
:100E8800359D0001AAA777D00001A3510001AB6FDF
:100E9800AC6BAD6BAE6BABC034FF000E0001A3159D
:100EA8000001AB6FFF0E0001A4150001AC6F000E2E
:100EB8000001A5150001AD6F000E0001A615000187
:100EC800AE6FABC01EF0ACC01FF0ADC020F0AEC01E
:100ED80021F01FC01EF020C01FF021C020F0216AA1
:100EE8001EC0ABF01FC0ACF020C0ADF021C0AEF00A
:100EF800ABC033FF000E0F01326F0F0132870001C4
:100F0800A5A102D00F0132810001A5A302D00F01D3
:100F180032830001A5A502D00F01328B0001A5A7DD
:100F280002D00F01328D0001A5A902D00F01328F26
:100F3800A3C01EF0A4C01FF0A5C020F0A6C021F0D9
:100F4800160E05D0D890213220321F321E32E82EDC
:100F5800F9D71EC0ABF01FC0ACF020C0ADF021C067
:100F6800AEF00001AB510001AB6FAC6BAD6BAE6B7B
:100F7800ABC031FF57D00F013297A3C01EF0A4C0F9
:100F88001FF0A5C020F0A6C021F0040E05D0D8900F
:100F9800213220321F321E32E82EF9D71EC0ABF0A4
:100FA8001FC0ACF020C0ADF021C0AEF00001AB51C5
:100FB8000001AB6FAC6BAD6BAE6BABC031FF070E16
:100FC8000001A3150001AB6F000E0001A41500017C
:100FD800AC6F000E0001A5150001AD6F000E0001F9
:100FE800A6150001AE6FABC01EF0ACC01FF0ADC0BF
:100FF80020F0AEC021F0050ED8901E361F362036E0
:101008002136E82EF9D71EC0ABF01FC0ACF020C0C7
:10101800ADF021C0AEF00F0132511F0B0F01326F3E
:10102800ABC032FF0001AAA103D00F01308102D06A
:101038000F0130910001AAA303D00F01308302D021
:101048000F013093A7C0D9FFA8C0DAFFDF500F0106
:10105800366F000120EE01F0A751D926A851DA22F7
:10106800DF500F01376F000120EE02F0A751D9269B
:10107800A851DA22DF500F01386F000120EE03F08B
:10108800A751D926A851DA22DF500F01396F000184
:1010980020EE04F0A751D926A851DA22DF500F011B
:1010A8003A6F000120EE05F0A751D926A851DA229F
:1010B800DF500F013B6F000120EE06F0A751D92643
:1010C800A851DA22DF500F013C6F000120EE07F033
:1010D800A751D926A851DA22DF500F013D6F0F0121
:1010E800308712000F0120B71200A9C025FF0001A8
:1010F800AAAD03D00F01258D02D00F01259D000157
:10110800AAA777D00001A3510001AB6FAC6BAD6B00
:10111800AE6BABC024FF000E0001A3150001AB6F3E
:10112800FF0E0001A4150001AC6F000E0001A5150B
:101138000001AD6F000E0001A6150001AE6FABC037
:101148001EF0ACC01FF0ADC020F0AEC021F01FC033
:101158001EF020C01FF021C020F0216A1EC0ABF095
:101168001FC0ACF020C0ADF021C0AEF0ABC023FF73
:10117800000E0F01226F0F0122870001A5A102D0E6
:101188000F0122810001A5A302D00F0122830001D3
:10119800A5A502D00F01228B0001A5A702D00F013F
:1011A800228D0001A5A902D00F01228FA3C01EF035
:1011B800A4C01FF0A5C020F0A6C021F0160E05D0CF
:1011C800D890213220321F321E32E82EF9D71EC0A5
:1011D800ABF01FC0ACF020C0ADF021C0AEF00001F4
:1011E800AB510001AB6FAC6BAD6BAE6BABC021FF0D
:1011F80057D00F012297A3C01EF0A4C01FF0A5C0AE
:1012080020F0A6C021F0040E05D0D890213220325B
:101218001F321E32E82EF9D71EC0ABF01FC0ACF04B
:1012280020C0ADF021C0AEF00001AB510001AB6FA2
:10123800AC6BAD6BAE6BABC021FF070E0001A31505
:101248000001AB6F000E0001A4150001AC6F000E89
:101258000001A5150001AD6F000E0001A6150001E3
:10126800AE6FABC01EF0ACC01FF0ADC020F0AEC07A
:1012780021F0050ED8901E361F3620362136E82E6E
:10128800F9D71EC0ABF01FC0ACF020C0ADF021C034
:10129800AEF00F0122511F0B0F01226FABC022FFCE
:1012A8000001AAA103D00F01208102D00F012091D3
:1012B8000001AAA303D00F01208302D00F012093BD
:1012C800A7C0D9FFA8C0DAFFDF500F01266F0001C1
:1012D80020EE01F0A751D926A851DA22DF500F01DC
:1012E800276F000120EE02F0A751D926A851DA2273
:1012F800DF500F01286F000120EE03F0A751D92617
:10130800A851DA22DF500F01296F000120EE04F006
:10131800A751D926A851DA22DF500F012A6F000100
:1013280020EE05F0A751D926A851DA22DF500F0187
:101338002B6F000120EE06F0A751D926A851DA221A
:10134800DF500F012C6F000120EE07F0A751D926BE
:10135800A851DA22DF500F012D6F0F0120871200EC
:10136800000E0B6E74BE0B8074BC0B820F0150AF65
:1013780043D101C0D9FF02C0DAFFDE6ADE6ADE6A45
:10138800DD6A20EE04F00150D9260250DA2256CF49
:10139800DFFF20EE05F00150D9260250DA2257CFA0
:1013A800DFFF20EE06F00150D9260250DA2258CF8E
:1013B800DFFF20EE07F00150D9260250DA2259CF7C
:1013C800DFFF20EE08F00150D9260250DA225ACF6A
:1013D800DFFF20EE09F00150D9260250DA225BCF58
:1013E800DFFF20EE0AF00150D9260250DA225CCF46
:1013F800DFFF20EE0BF00150D9260250DA225DCF34
:10140800DFFF20EE0EF00150D9260250DA220F013C
:1014180055AD02D0010E01D0000EDF6E20EE0DF0AA
:101428000150D9260250DA220F0155510F0BDF6EF9
:1014380020EE0CF00150D9260250DA220F0152A7F3
:1014480002D0010E01D0000EDF6E0F0152B744D05A
:1014580051CF03F0046A056A066A030ED890033672
:10146800043605360636E82EF9D701C0D9FF02C082
:10147800DAFF03C0DEFF04C0DEFF05C0DEFF06C0E2
:10148800DEFF0F015239E842070B070B0C6E01C053
:10149800D9FF02C0DAFFDECF03F0DECF04F0DECFE3
:1014A80005F0DECF06F00C500324076E000E042072
:1014B800086E000E0520096E000E06200A6E01C097
:1014C800D9FF02C0DAFF07C0DEFF08C0DEFF09C08F
:1014D800DEFF0AC0DEFF8DD054CF03F0046A056A30
:1014E800066A01C0D9FF02C0DAFF03C0DEFF04C0EC
:1014F800DEFF05C0DEFF06C0DEFF53CF03F0046A3F
:10150800056A066A05C006F004C005F003C004F0C9
:10151800036A01C0D9FF02C0DAFF0350DE26045077
:10152800DE220550DE220650DE220F0152A10CD029
:1015380001C0D9FF02C0DAFF000EDE12000EDE1273
:10154800010EDE12000EDE120F0152A30CD001C0F4
:10155800D9FF02C0DAFF000EDE12000EDE12020E04
:10156800DE12000EDE120F0152AB0CD001C0D9FF03
:1015780002C0DAFF000EDE12000EDE12040EDE12CA
:10158800000EDE120F0152AD0CD001C0D9FF02C00F
:10159800DAFF000EDE12000EDE12080EDE12000E5A
:1015A800DE120F0152AF0CD001C0D9FF02C0DAFF22
:1015B800000EDE12000EDE12100EDE12000EDE121B
:1015C80051CF03F0046A056A066A150ED8900336EF
:1015D800043605360636E82EF9D701C0D9FF02C011
:1015E800DAFF0350DE120450DE120550DE120650F8
:1015F800DE120F01509F120060AE120001C0D9FF29
:1016080002C0DAFFDE6ADE6ADE6ADD6A20EE04F016
:101618000150D9260250DA2266CFDFFF20EE05F00E
:101628000150D9260250DA2267CFDFFF20EE06F0FC
:101638000150D9260250DA2268CFDFFF20EE07F0EA
:101648000150D9260250DA2269CFDFFF20EE08F0D8
:101658000150D9260250DA226ACFDFFF20EE09F0C6
:101668000150D9260250DA226BCFDFFF20EE0AF0B4
:101678000150D9260250DA226CCFDFFF20EE0BF0A2
:101688000150D9260250DA226DCFDFFF20EE0EF08E
:101698000150D9260250DA2265AC02D0010E01D0E1
:1016A800000EDF6E20EE0DF00150D9260250DA222E
:1016B80065500F0BDF6E20EE0CF00150D92602505A
:1016C800DA2262A602D0010E01D0000EDF6E62B6E9
:1016D80043D061CF03F0046A056A066A030ED89006
:1016E8000336043605360636E82EF9D701C0D9FF89
:1016F80002C0DAFF03C0DEFF04C0DEFF05C0DEFF64
:1017080006C0DEFF6238E842070B070B0C6E01C00B
:10171800D9FF02C0DAFFDECF03F0DECF04F0DECF60
:1017280005F0DECF06F00C500324076E000E0420EF
:10173800086E000E0520096E000E06200A6E01C014
:10174800D9FF02C0DAFF07C0DEFF08C0DEFF09C00C
:10175800DEFF0AC0DEFF88D064CF03F0046A056AA2
:10176800066A01C0D9FF02C0DAFF03C0DEFF04C069
:10177800DEFF05C0DEFF06C0DEFF63CF03F0046AAC
:10178800056A066A05C006F004C005F003C004F047
:10179800036A01C0D9FF02C0DAFF0350DE260450F5
:1017A800DE220550DE220650DE2262A00CD001C0E7
:1017B800D9FF02C0DAFF000EDE12000EDE12010EA3
:1017C800DE12000EDE1262A20CD001C0D9FF02C0E8
:1017D800DAFF000EDE12000EDE12020EDE12000E1E
:1017E800DE1262AA0CD001C0D9FF02C0DAFF000ED7
:1017F800DE12000EDE12040EDE12000EDE1262ACE5
:101808000CD001C0D9FF02C0DAFF000EDE12000EB4
:10181800DE12080EDE12000EDE1262AE0CD001C01F
:10182800D9FF02C0DAFF000EDE12000EDE12100E23
:10183800DE12000EDE1261CF03F0046A056A066A42
:10184800150ED8900336043605360636E82EF9D735
:1018580001C0D9FF02C0DAFF0350DE120450DE12C5
:101868000550DE120650DE12609E120044EC11F0A4
:10187800808282808282010E0001AC6FF40EAB6F11
:101888008BEC12F0809282908292040EE1EC12F0BE
:10189800F90E246E245003EC13F080BE32D13104CB
:1018A8003210D8A407D0FF0E1E6E7F0E2BEC12F05C
:1018B8008280829231503210D8A407D0FF0E1E6E5B
:1018C800FF0E2BEC12F0829082823950D8A402D0FD
:1018D800829082927CC0B8F07DC0B9F07EC0BAF028
:1018E8007FC0BBF00001B81FB91FBA1FBB1FB82BC0
:1018F800000EB923BA23BB2329500001B8250001E3
:10190800BC6F2A500001B9210001BD6F2B500001A6
:10191800BA210001BE6F2C500001BB210001BF6F2E
:101928000001BF510001BE110001BD1105E10A0E01
:101938000001BC5DD8A0E5D0060E0001A36F000E23
:10194800A46F000EA56F000EA66F000E0001A76F12
:10195800000E0001A86F000E0001A96FFC0E000127
:10196800AA6FFAEC05F03FA0CCD03F903A503D2446
:101978001E6E1F6A1F36000E216E020E206E98EC36
:1019880011F01E50406E3C500001B86FB96B000159
:10199800B81FB91FB84BB92B40500001BA6FBB6BC9
:1019A8000001B8510001BA270001B9510001BB2359
:1019B8000001BBBF9ED00001BB5104E10001BA0584
:1019C800D8A097D03C500001B86FB96B0001B81F80
:1019D800B91FB84BB92B40500001B8251E6E000E38
:1019E8000001B9211F6EBEEC12F01EC035F01FC0F9
:1019F80036F0000E216E110E206E35C01EF036C076
:101A08001FF098EC11F01EC0A7F01FC0A8F0000E40
:101A1800216E110E206E35C01EF036C01FF098ECF6
:101A280011F01EC0A9F01FC0AAF0A5EC12F0000129
:101A3800D890A737A8370001D890A737A837A7C0EC
:101A48002FF0A8C030F0305004E1020E2F5CD8A06F
:101A580049D03C500001B86FB96B0001B81FB91FDD
:101A6800B84BB92B40500001BA6FBB6B0001B8519D
:101A78000001BA270001B9510001BB230001BBBF17
:101A88002CD00001BB5104E10001BA05D8A025D033
:101A98003B502F5C000E3058D8B004D02F500008AF
:101AA8003B24396E3C500001B86FB96B0001B81F78
:101AB800B91FB84BB92B40500001BA6FBB6B00017E
:101AC800B8510001BA270001B9510001BB23000138
:101AD800BBAF03D03B502F24396E2F503010D8B4F1
:101AE8003BC039F039C03BF039C01EF01F6A6EECBC
:101AF80012F029C07CF02AC07DF02BC07EF02CC0EB
:101B08007FF03EAA3EB001D002D0CAEC10F00BEC38
:101B180013F0E806D8B405D011EC13F0E806D8A401
:101B280008D0000E1F6E000E1E6E6EEC12F0808E36
:101B380001D0809E78C0B8F079C0B9F07AC0BAF008
:101B48007BC0BBF00001B81FB91FBA1FBB1FB82B61
:101B5800000EB923BA23BB2329500001B825000180
:101B6800BC6F2A500001B9210001BD6F2B50000144
:101B7800BA210001BE6F2C500001BB210001BF6FCC
:101B88000001BF510001BE110001BD1105E1650E44
:101B98000001BC5DD8A035D03EBE18D0020E0001B1
:101BA800A36F000EA46F000EA56F000EA66F930E14
:101BB8000001A76F000E0001A86F080E0001A96FB1
:101BC800FC0E0001AA6FFAEC05F03E8E3EAE11D075
:101BD8003EB23EA607D03EA405D03E923E963E9425
:101BE800809E07D0000E1F6E000E1E6E6EEC12F067
:101BF800808E29C078F02AC079F02BC07AF02CC0EA
:101C08007BF080C0B8F081C0B9F082C0BAF083C060
:101C1800BBF00001B81FB91FBA1FBB1FB82B000EBD
:101C2800B923BA23BB2329500001B8250001BC6F92
:101C38002A500001B9210001BD6F2B500001BA21C3
:101C48000001BE6F2C500001BB210001BF6F0001D5
:101C5800BF510001BE110001BD1105E1640E000174
:101C6800BC5DD8A01AD6E6EC11F029C080F02AC0D5
:101C780081F02BC082F02CC083F00FD60001A76F33
:101C88000001A705D8A451D02228D8A44ED01EC040
:101C9800A3F01FC0A4F020C0A5F021C0A6F0040E38
:101CA80006D00001D890A633A533A433A333E82E79
:101CB800F8D7A3C0A8F0A4C0A9F0A5C0AAF0A6C0F0
:101CC800ABF00001A8510001A86FA96BAA6BAB6B20
:101CD800A8C018FF070E1E140001A86F000E1F14DD
:101CE8000001A96F000E20140001AA6F000E211434
:101CF8000001AB6FA8C0A3F0A9C0A4F0AAC0A5F0CA
:101D0800ABC0A6F0050ED8900001A337A437A537BD
:101D1800A637E82EF8D7A3C0A8F0A4C0A9F0A5C09C
:101D2800AAF0A6C0ABF0A8C019FF020E0001A719BF
:101D3800D8A451D02228D8A44ED01EC0A3F01FC0CA
:101D4800A4F020C0A5F021C0A6F0040E06D0000122
:101D5800D890A633A533A433A333E82EF8D7A3C06D
:101D6800A8F0A4C0A9F0A5C0AAF0A6C0ABF00001D5
:101D7800A8510001A86FA96BAA6BAB6BA8C01CFF88
:101D8800070E1E140001A86F000E1F140001A96F92
:101D9800000E20140001AA6F000E21140001AB6F81
:101DA800A8C0A3F0A9C0A4F0AAC0A5F0ABC0A6F033
:101DB800050ED8900001A337A437A537A637E82E1B
:101DC800F8D7A3C0A8F0A4C0A9F0A5C0AAF0A6C0DF
:101DD800ABF0A8C01DFF0001A705D8A47CD0F70E62
:101DE8002218D8A478D01E500001A86FA96BAA6B3E
:101DF800AB6BA8C01BFF000E1E140001A86FFF0EDE
:101E08001F140001A96F000E20140001AA6F000E14
:101E180021140001AB6FA8C0A3F0A9C0A4F0AAC008
:101E2800A5F0ABC0A6F0A4C0A3F0A5C0A4F0A6C0BE
:101E3800A5F00001A66BA3C0A8F0A4C0A9F0A5C096
:101E4800AAF0A6C0ABF0A8C01AFF20A003D00F01CB
:101E5800198102D00F01199120A203D00F01198313
:101E680002D00F01199320A403D00F01198B02D0BF
:101E78000F01199B20A603D00F01198D02D00F0165
:101E8800199D20A803D00F01198F02D00F01199FA7
:101E98001EC0A3F01FC0A4F020C0A5F021C0A6F06A
:101EA800160E06D00001D890A633A533A433A33369
:101EB800E82EF8D7A3C0A8F0A4C0A9F0A5C0AAF03E
:101EC800A6C0ABF00001A8510001A86FA96BAA6BCE
:101ED800AB6BA8C018FF020E0001A719D8A4120006
:101EE800F70E2218D8A412001E500001A86FA96B83
:101EF800AA6BAB6BA8C01FFF000E1E140001A86FD1
:101F0800FF0E1F140001A96F000E20140001AA6F14
:101F1800000E21140001AB6FA8C0A3F0A9C0A4F063
:101F2800AAC0A5F0ABC0A6F0A4C0A3F0A5C0A4F0B9
:101F3800A6C0A5F00001A66BA3C0A8F0A4C0A9F094
:101F4800A5C0AAF0A6C0ABF0A8C01EFF20A003D071
:101F58000F011D8102D00F011D9120A203D00F0196
:101F68001D8302D00F011D9320A403D00F011D8BE8
:101F780002D00F011D9B20A603D00F011D8D02D09A
:101F88000F011D9D20A803D00F011D8F02D00F0146
:101F98001D9F1EC0A3F01FC0A4F020C0A5F021C043
:101FA800A6F0160E06D00001D890A633A533A433A8
:101FB800A333E82EF8D7A3C0A8F0A4C0A9F0A5C001
:101FC800AAF0A6C0ABF00001A8510001A86FA96B48
:101FD800AA6BAB6BA8C01CFF12000001B56F800E86
:101FE800FAEC12F0000E706E000E716E000E726E3A
:101FF8000001AE41E842C00B0001AE6F0001AE51D6
:1020080070120001AF5170120001B5517112000138
:10201800AC39E842F80B0001AC6F0001AC51711209
:102028000001B0A5718C0001B0B1718E0001AD51F5
:1020380072120001B0B3728C0001B051600B606E77
:102048000001B051100BFF0AD8B4608460CF50FF74
:10205800000E1E6E000E1F6E000E206E000E216E0A
:10206800F70E226E010E42EC0EF0000E1E6E000EF0
:102078001F6E000E206E000E216EF70E226E020EED
:1020880042EC0EF00FD0F70E0001B66F07D000013A
:10209800B6690001B76928D00001B669F70E0001DA
:1020A800B76F22D09F0E0001B16FFF0E0001B26F13
:1020B8000001B051600B0001B36FB46B0001B15166
:1020C8000001B3130001B2510001B4130001B4516F
:1020D800000AD8A4E1D70001B351BF0AD8B4D7D7B2
:1020E800600AD8B4D0D7D8D7000E1E6E000E1F6E67
:1020F800000E206E000E216EB6C022F0000ED7EC46
:1021080000F0000E1E6E000E1F6E000E206E000EF8
:10211800216EB6C022F0010ED7EC00F0000E1E6E44
:10212800000E1F6E000E206E000E216EB7C022F04A
:10213800020ED7EC00F0000E1E6E000E1F6E000E91
:10214800206E000E216EB7C022F0030ED7EC00F00F
:10215800000E1E6E000E1F6E000E206E000E216E09
:10216800B7C022F0040ED7EC00F0000E1E6E000E71
:102178001F6E000E206E000E216EB7C022F0050EF5
:10218800D7EC00F0000EFAEC12F01200D2EC12F0CC
:102198000009D8B431D03EAA17D025C0A3F026C074
:1021A800A4F027C0A5F028C0A6F0930E0001A76FE1
:1021B800000E0001A86F080E0001A96FBC0E0001F7
:1021C800AA6FFAEC05F03E9A3EA016D074C0A3F0B0
:1021D80075C0A4F076C0A5F077C0A6F09B0E0001EC
:1021E800A76F000E0001A86F080E0001A96FBC0EB2
:1021F8000001AA6FFAEC05F00F0140BD03D00F01F2
:1022080030AD28D03E8025C074F026C075F027C0B8
:1022180076F028C077F03EAA02D03E8C01D03E9CD2
:10222800000E226E070E226401D028D02250010D24
:10223800930EF324D96E000EF420DA6E2250010DAD
:102248009B0EF324E16E000EF420E26EDFCFE7FF71
:10225800222AE8D73E903EAC10D03EAC02D03E8A4F
:1022680001D03E9A74C025F075C026F076C027F0DC
:1022780077C028F03E883E9C01D03E983E9A1200D6
:10228800060E0001AC6F050E0001AD6F010E0001D6
:10229800AE6F030E0001AF6F9D0E0001B06F040E0C
:1022A800F1EC0FF0D08EF292A492A490A592A59092
:1022B800F29EF28CF18C010EB16EA192A292630E85
:1022C800B36EC00EB26EC280C294C296C298C29A51
:1022D800C190C182C184C186C198C19AC080C09290
:1022E800C084C096C088C08AC09EF288A382A3809A
:1022F800A082000E896E7D0E926E000E8A6EFB0E15
:10230800936E000E8B6E000E946E000E8C6E000E97
:10231800956E000E8D6E9668000E0001AC6F020E71
:10232800AB6F8BEC12F01200000E0001A46F21AE0F
:1023380007D0206C211ED8B0212A010E0001A46FFD
:102348001FAE07D01E6C1F1ED8B01F2A010E000139
:10235800A41B000E0001A66F000EA56F20502110CF
:10236800D8B421D0010E0001A36F05D0D890203633
:1023780021360001A32B21AEF9D70001D890A5374B
:10238800A63720501E5C21501F58D8A006D02050D8
:102398001E5E21501F5A0001A581D890213220329B
:1023A8000001A32FEAD70001A4510001D8B405D039
:1023B8000001A56DA61FD8B0A62BA5C01EF0A6C00B
:1023C8001FF01200C282C2B2FED7C4CF37F0386AFB
:1023D80037C0A7F038C0A8F0000E0001AA6F0E0E93
:1023E800A96FA5EC12F0A7C01EF0A8C01FF0000E40
:1023F800216EEB0E206E98EC11F01EC037F01FC056
:1024080038F038BE06D0385021E10A0E375CD8B013
:102418001200D2EC12F00009D8B4FBD7090E000163
:10242800A36F000EA46F000EA56F000EA66F930E8B
:102438000001A76F000E0001A86F080E0001A96F28
:10244800FC0E0001AA6FFAEC05F0120012001F6ED4
:10245800BA50C0091F14BA6EBA500F091E14BA6ECA
:102468003F0E1F18D8A402D095981200BF0E1F184F
:10247800D8A403D09598959A12007F0E1F18D8B447
:1024880003D01F28D8A412009598959A959C959EDC
:10249800120000EE60F0430EEE6AE806FDE13F6AC6
:1024A8003E6A00EE25F0190EEE6AE806FDE12E0EF2
:1024B800F66E260EF76E000EF86E0900F5CF40F0A6
:1024C8000900F5CF41F042904292000EF86E0001EB
:1024D8003AEF0CF01EC020F01FC021F0060ED89075
:1024E80020362136E82EFBD720C022F021C023F069
:1024F80023C0BBFF22C020F0D8902032D8902032D1
:10250800300E2016BA50CF0B2010BA6E120041C000
:10251800A7F00001A86BABC0A9F0ACC0AAF0A5EC6D
:1025280012F0A7C02DF0A8C02EF006D0500EE82E4D
:10253800FED72D06D8A02E062D502E10D8B4120086
:10254800F5D70001A7510001A903F3CF22F0F4CF7A
:1025580023F00001A7510001AA03F350232600012C
:10256800A8510001A903F350232622C0A7F023C0D5
:10257800A8F012001FAE0DD01EC020F01FC021F021
:10258800201E211E204A212A20C01EF021C01FF033
:1025980012001EC01EF01FC01FF01200010E1E6E9A
:1025A8000F0140A708D00F0130A705D00F0120A7C1
:1025B80002D0000E1E6E1E5012001E6E1E50FB0B27
:1025C800CA6E000ECC6E9E921EAE02D09D8201D0C5
:1025D8009D92CA841200010E016E60BE05D00F01E3
:1025E80050BF02D0000E016E015012001E6E1EC0B8
:1025F8006FFF6E50E00B1E18D8B41200FAD71E6E8B
:102608000C0EBA6ECA941EC0CBFFCA84120074A402
:1026180002D0010E1200000E120074A202D0010EA8
:082628001200000E1200011067
:020000040030CA
:0E000000FF021F1EFF8285FF0FC00FE00F40A2
:00000001FF
