:04000000CFEF00F04E
:0E0008004782FACF68F0FBCF69F057ED12F097
:100018004780D8CF34F0E8CF35F0E0CF36F0FACFCC
:1000280037F0FBCF38F0E9CF39F0EACF3AF0E1CF3B
:100038003BF0E2CF3CF0D9CF3DF0DACF3EF0F3CF42
:100048003FF0F4CF40F0F6CF41F0F7CF42F0F8CFD1
:1000580043F0F5CF44F0A4A0A4B201D06BD02FECAC
:1000680014F00009D8B464D0110E286E000E296E61
:10007800C0EC0CF01F04D8A40DD011C0A1F012C020
:10008800A2F013C0A3F014C0A4F01FA002D04582B0
:1000980001D04592060E1118121013101410D8B47E
:1000A8004580050E1118121013101410D8A40FD083
:1000B800459009C020F00AC021F00AC022F0000EC5
:1000C800096E000E0A6E000E0B6E000E0C6E080E06
:1000D8001118121013101410D8B446C020F0020ED4
:1000E8001118121013101410D8A40ED015C046F011
:1000F80016C0AFF00001B06B0DC0A5F00EC0A6F0A1
:100108000FC0A7F010C0A8F011041210131014109B
:10011800D8A403D0000E466E8082020E1118121069
:1001280013101410D8A404D015C0B4F016C0B7F03A
:10013800A490A492A1A20BD0010E0D26000E0E22AF
:100148000F221022630EB36EC00EB26EA19244C08D
:10015800F5FF43C0F8FF42C0F7FF41C0F6FF40C0BB
:10016800F4FF3FC0F3FF3EC0DAFF3DC0D9FF3CC0FB
:10017800E2FF3BC0E1FF3AC0EAFF39C0E9FF38C0FF
:10018800FBFF37C0FAFF36C0E0FF35C0E8FF34C0D8
:10019800D8FF4790100049EF13F000017F6F00016E
:1001A8007F510001D8A458D000017A29D8A454D08E
:1001B8000F01019776C07BF077C07CF078C07DF0A6
:1001C80079C07EF0040E06D00001D8907E337D33CE
:1001D8007C337B33E82EF8D77BC080F07CC081F07D
:1001E8007DC082F07EC083F0000180510001806FE5
:1001F800816B826B836B80C000FF070E0001761550
:100208000001806F000E000177150001816F000E5C
:10021800000178150001826F000E000179150001B8
:10022800836F80C07BF081C07CF082C07DF083C08A
:100238007EF0050ED89000017B377C377D377E37FE
:10024800E82EF8D77BC080F07CC081F07DC082F0BA
:100258007EC083F080C001FF00017F05D8A458D07C
:1002680000017A29D8A454D00F01059776C07BF0F5
:1002780077C07CF078C07DF079C07EF0040E06D09F
:100288000001D8907E337D337C337B33E82EF8D75A
:100298007BC080F07CC081F07DC082F07EC083F09E
:1002A800000180510001806F816B826B836B80C07D
:1002B80004FF070E000176150001806F000E000193
:1002C80077150001816F000E000178150001826F1B
:1002D800000E000179150001836F80C07BF081C09A
:1002E8007CF082C07DF083C07EF0050ED8900001BE
:1002F8007B377C377D377E37E82EF8D77BC080F098
:100308007CC081F07DC082F07EC083F080C005FF94
:10031800020E00017F19D8A458D000017A29D8A468
:1003280054D00F01099776C07BF077C07CF078C075
:100338007DF079C07EF0040E06D00001D8907E339F
:100348007D337C337B33E82EF8D77BC080F07CC0CC
:1003580081F07DC082F07EC083F0000180510001F1
:10036800806F816B826B836B80C008FF070E000172
:1003780076150001806F000E000177150001816F6E
:10038800000E000178150001826F000E000179153A
:100398000001836F80C07BF081C07CF082C07DF05B
:1003A80083C07EF0050ED89000017B377C377D37FF
:1003B8007E37E82EF8D77BC080F07CC081F07DC006
:1003C80082F07EC083F080C009FF030E00017F1910
:1003D800D8A458D000017A29D8A454D00F010D9779
:1003E80076C07BF077C07CF078C07DF079C07EF075
:1003F800040E06D00001D8907E337D337C337B33E6
:10040800E82EF8D77BC080F07CC081F07DC082F0F8
:100418007EC083F0000180510001806F816B826B88
:10042800836B80C00CFF070E000176150001806FFA
:10043800000E000177150001816F000E000178158C
:100448000001826F000E000179150001836F80C0E2
:100458007BF081C07CF082C07DF083C07EF0050E09
:10046800D89000017B377C377D377E37E82EF8D768
:100478007BC080F07CC081F07DC082F07EC083F0BC
:1004880080C00DFF040E00017F19D8A458D00001C8
:100498007A29D8A454D00F01119776C07BF077C081
:1004A8007CF078C07DF079C07EF0040E06D00001A3
:1004B800D8907E337D337C337B33E82EF8D77BC0EE
:1004C80080F07CC081F07DC082F07EC083F00001A6
:1004D80080510001806F816B826B836B80C010FF3D
:1004E800070E000176150001806F000E00017715D8
:1004F8000001816F000E000178150001826F000E67
:10050800000179150001836F80C07BF081C07CF009
:1005180082C07DF083C07EF0050ED89000017B3745
:100528007C377D377E37E82EF8D77BC080F07CC0DB
:1005380081F07DC082F07EC083F080C011FF050E7F
:1005480000017F19D8A458D000017A29D8A454D022
:100558000F01159776C07BF077C07CF078C07DF0EE
:1005680079C07EF0040E06D00001D8907E337D332A
:100578007C337B33E82EF8D77BC080F07CC081F0D9
:100588007DC082F07EC083F0000180510001806F41
:10059800816B826B836B80C014FF070E0001761598
:1005A8000001806F000E000177150001816F000EB9
:1005B800000178150001826F000E00017915000115
:1005C800836F80C07BF081C07CF082C07DF083C0E7
:1005D8007EF0050ED89000017B377C377D377E375B
:1005E800E82EF8D77BC080F07CC081F07DC082F017
:1005F8007EC083F080C015FF00017F510001D8A4A0
:1006080089D0F70E00017A19D8A484D00F01018788
:10061800000176510001806F816B826B836B80C013
:1006280003FF000E000176150001806FFF0E000128
:1006380077150001816F000E000178150001826FA7
:10064800000E000179150001836F80C07BF081C026
:100658007CF082C07DF083C07EF07CC07BF07DC0E2
:100668007CF07EC07DF000017E6B7BC080F07CC09A
:1006780081F07DC082F07EC083F080C002FF00015F
:1006880078A103D00F01018102D00F01019100016F
:1006980078A303D00F01018302D00F010193000159
:1006A80078A503D00F01018B02D00F01019B000137
:1006B80078A703D00F01018D02D00F01019D000121
:1006C80078A903D00F01018F02D00F01019F76C0D6
:1006D8007BF077C07CF078C07DF079C07EF0160E94
:1006E80006D00001D8907E337D337C337B33E82EEF
:1006F800F8D77BC080F07CC081F07DC082F07EC0DE
:1007080083F0000180510001806F816B826B836BE5
:1007180080C000FF00017F05D8A489D0F70E000132
:100728007A19D8A484D00F010587000176510001F9
:10073800806F816B826B836B80C007FF000E0001A6
:1007480076150001806FFF0E000177150001816F9B
:10075800000E000178150001826F000E0001791566
:100768000001836F80C07BF081C07CF082C07DF087
:1007780083C07EF07CC07BF07DC07CF07EC07DF0C5
:1007880000017E6B7BC080F07CC081F07DC082F070
:100798007EC083F080C006FF000178A103D00F015E
:1007A800058102D00F010591000178A303D00F0144
:1007B800058302D00F010593000178A503D00F012E
:1007C800058B02D00F01059B000178A703D00F010C
:1007D800058D02D00F01059D000178A903D00F01F6
:1007E800058F02D00F01059F76C07BF077C07CF0A3
:1007F80078C07DF079C07EF0160E06D00001D89042
:100808007E337D337C337B33E82EF8D77BC080F092
:100818007CC081F07DC082F07EC083F000018051F1
:100828000001806F816B826B836B80C004FF020EB6
:1008380000017F19D8A489D0F70E00017A19D8A42D
:1008480084D00F010987000176510001806F816B08
:10085800826B836B80C00BFF000E000176150001D0
:10086800806FFF0E000177150001816F000E0001F7
:1008780078150001826F000E000179150001836F61
:1008880080C07BF081C07CF082C07DF083C07EF0A8
:100898007CC07BF07DC07CF07EC07DF000017E6B6B
:1008A8007BC080F07CC081F07DC082F07EC083F088
:1008B80080C00AFF000178A103D00F01098102D08E
:1008C8000F010991000178A303D00F01098302D019
:1008D8000F010993000178A503D00F01098B02D0FD
:1008E8000F01099B000178A703D00F01098D02D0E1
:1008F8000F01099D000178A903D00F01098F02D0CB
:100908000F01099F76C07BF077C07CF078C07DF03E
:1009180079C07EF0160E06D00001D8907E337D3364
:100928007C337B33E82EF8D77BC080F07CC081F025
:100938007DC082F07EC083F0000180510001806F8D
:10094800816B826B836B80C008FF030E00017F19E7
:10095800D8A489D0F70E00017A19D8A484D00F0141
:100968000D87000176510001806F816B826B836B6C
:1009780080C00FFF000E000176150001806FFF0E8A
:10098800000177150001816F000E00017815000144
:10099800826F000E000179150001836F80C07BF023
:1009A80081C07CF082C07DF083C07EF07CC07BF08B
:1009B8007DC07CF07EC07DF000017E6B7BC080F046
:1009C8007CC081F07DC082F07EC083F080C00EFFC5
:1009D800000178A103D00F010D8102D00F010D9104
:1009E800000178A303D00F010D8302D00F010D93EE
:1009F800000178A503D00F010D8B02D00F010D9BCC
:100A0800000178A703D00F010D8D02D00F010D9DB5
:100A1800000178A903D00F010D8F02D00F010D9F9F
:100A280076C07BF077C07CF078C07DF079C07EF02E
:100A3800160E06D00001D8907E337D337C337B338D
:100A4800E82EF8D77BC080F07CC081F07DC082F0B2
:100A58007EC083F0000180510001806F816B826B42
:100A6800836B80C00CFF040E00017F19D8A489D0C5
:100A7800F70E00017A19D8A484D00F01118700015C
:100A880076510001806F816B826B836B80C013FF8E
:100A9800000E000176150001806FFF0E000177152A
:100AA8000001816F000E000178150001826F000EB1
:100AB800000179150001836F80C07BF081C07CF054
:100AC80082C07DF083C07EF07CC07BF07DC07CF06E
:100AD8007EC07DF000017E6B7BC080F07CC081F021
:100AE8007DC082F07EC083F080C012FF000178A133
:100AF80003D00F01118102D00F011191000178A3D9
:100B080003D00F01118302D00F011193000178A5C2
:100B180003D00F01118B02D00F01119B000178A7A0
:100B280003D00F01118D02D00F01119D000178A98A
:100B380003D00F01118F02D00F01119F76C07BF0F7
:100B480077C07CF078C07DF079C07EF0160E06D0B4
:100B58000001D8907E337D337C337B33E82EF8D781
:100B68007BC080F07CC081F07DC082F07EC083F0C5
:100B7800000180510001806F816B826B836B80C0A4
:100B880010FF050E00017F19D8A41200F70E00010E
:100B98007A19D8A412000F011587000176510001B7
:100BA800806F816B826B836B80C017FF000E000122
:100BB80076150001806FFF0E000177150001816F27
:100BC800000E000178150001826F000E00017915F2
:100BD8000001836F80C07BF081C07CF082C07DF013
:100BE80083C07EF07CC07BF07DC07CF07EC07DF051
:100BF80000017E6B7BC080F07CC081F07DC082F0FC
:100C08007EC083F080C016FF000178A103D00F01D9
:100C1800158102D00F011591000178A303D00F01AF
:100C2800158302D00F011593000178A503D00F0199
:100C3800158B02D00F01159B000178A703D00F0177
:100C4800158D02D00F01159D000178A903D00F0161
:100C5800158F02D00F01159F76C07BF077C07CF00E
:100C680078C07DF079C07EF0160E06D00001D890CD
:100C78007E337D337C337B33E82EF8D77BC080F01E
:100C88007CC081F07DC082F07EC083F0000180517D
:100C98000001806F816B826B836B80C014FF120030
:100CA8000F0140B73FD17CC045FF00017DAD03D0A7
:100CB8000F01458D02D00F01459D00017DA779D018
:100CC800000176510001826F836B846B856B82C053
:100CD80044FF000E000176150001826FFF0E00012F
:100CE80077150001836F000E000178150001846FED
:100CF800000E000179150001856F82C07EF083C067
:100D08007FF084C080F085C081F07FC07EF080C015
:100D18007FF081C080F00001816B7EC082F07FC0CF
:100D280083F080C084F081C085F082C043FF000E4C
:100D38000F01426F0F014287000178A102D00F0115
:100D48004281000178A302D00F014283000178A5F7
:100D580002D00F01428B000178A702D00F01428D0B
:100D6800000178A902D00F01428F76C07EF077C0CB
:100D78007FF078C080F079C081F0160E06D00001AF
:100D8800D890813380337F337E33E82EF8D77EC006
:100D980082F07FC083F080C084F081C085F00001BC
:100DA80082510001826F836B846B856B82C041FF27
:100DB80059D00F01429776C07EF077C07FF078C097
:100DC80080F079C081F0040E06D00001D8908133FC
:100DD80080337F337E33E82EF8D77EC082F07FC021
:100DE80083F080C084F081C085F000018251000149
:100DF800826F836B846B856B82C041FF070E000195
:100E080076150001826F000E000177150001836FCF
:100E1800000E000178150001846F000E000179159D
:100E28000001856F82C07EF083C07FF084C080F0AF
:100E380085C081F0050ED89000017E377F37803756
:100E48008137E82EF8D77EC082F07FC083F080C05B
:100E580084F081C085F00F0142511F0B0F01426FD2
:100E680082C042FF00017DA103D00F01408102D062
:100E78000F01409100017DA303D00F01408302D0F0
:100E88000F0140937AC0D9FF7BC0DAFFDF500F0112
:100E9800466F000120EE01F07A51D9267B51DA2203
:100EA800DF500F01476F000120EE02F07A51D9267A
:100EB8007B51DA22DF500F01486F000120EE03F06A
:100EC8007A51D9267B51DA22DF500F01496F000190
:100ED80020EE04F07A51D9267B51DA22DF500F0137
:100EE8004A6F000120EE05F07A51D9267B51DA22AB
:100EF800DF500F014B6F000120EE06F07A51D92622
:100F08007B51DA22DF500F014C6F000120EE07F011
:100F18007A51D9267B51DA22DF500F014D6F0F012C
:100F2800408712000F0130B73FD17CC035FF000168
:100F38007DAD03D00F01358D02D00F01359D000125
:100F48007DA779D0000176510001826F836B846B95
:100F5800856B82C034FF000E000176150001826F98
:100F6800FF0E000177150001836F000E0001781550
:100F78000001846F000E000179150001856F82C0A1
:100F88007EF083C07FF084C080F085C081F07FC090
:100F98007EF080C07FF081C080F00001816B7EC050
:100FA80082F07FC083F080C084F081C085F082C069
:100FB80033FF000E0F01326F0F013287000178A155
:100FC80002D00F013281000178A302D00F013283D1
:100FD800000178A502D00F01328B000178A702D05A
:100FE8000F01328D000178A902D00F01328F76C02F
:100FF8007EF077C07FF078C080F079C081F0160E5F
:1010080006D00001D890813380337F337E33E82EB9
:10101800F8D77EC082F07FC083F080C084F081C0A2
:1010280085F0000182510001826F836B846B856BB0
:1010380082C031FF59D00F01329776C07EF077C059
:101048007FF078C080F079C081F0040E06D00001EE
:10105800D890813380337F337E33E82EF8D77EC033
:1010680082F07FC083F080C084F081C085F00001E9
:1010780082510001826F836B846B856B82C031FF64
:10108800070E000176150001826F000E000177152A
:101098000001836F000E000178150001846F000EB7
:1010A800000179150001856F82C07EF083C07FF052
:1010B80084C080F085C081F0050ED89000017E378D
:1010C8007F3780378137E82EF8D77EC082F07FC01F
:1010D80083F080C084F081C085F00F0132511F0B6E
:1010E8000F01326F82C032FF00017DA103D00F01D2
:1010F800308102D00F01309100017DA303D00F0190
:10110800308302D00F0130937AC0D9FF7BC0DAFF59
:10111800DF500F01366F000120EE01F07A51D92619
:101128007B51DA22DF500F01376F000120EE02F009
:101138007A51D9267B51DA22DF500F01386F00012E
:1011480020EE03F07A51D9267B51DA22DF500F01C5
:10115800396F000120EE04F07A51D9267B51DA224A
:10116800DF500F013A6F000120EE05F07A51D926C1
:101178007B51DA22DF500F013B6F000120EE06F0B1
:101188007A51D9267B51DA22DF500F013C6F0001DA
:1011980020EE07F07A51D9267B51DA22DF500F0171
:1011A8003D6F0F01308712000F0120B712007CC07D
:1011B80025FF00017DAD03D00F01258D02D00F0161
:1011C800259D00017DA779D0000176510001826F2D
:1011D800836B846B856B82C024FF000E000176153B
:1011E8000001826FFF0E000177150001836F000E6A
:1011F800000178150001846F000E000179150001C7
:10120800856F82C07EF083C07FF084C080F085C087
:1012180081F07FC07EF080C07FF081C080F0000147
:10122800816B7EC082F07FC083F080C084F081C073
:1012380085F082C023FF000E0F01226F0F01228765
:10124800000178A102D00F012281000178A302D009
:101258000F012283000178A502D00F01228B000123
:1012680078A702D00F01228D000178A902D00F01C2
:10127800228F76C07EF077C07FF078C080F079C08A
:1012880081F0160E06D00001D890813380337F3369
:101298007E33E82EF8D77EC082F07FC083F080C00E
:1012A80084F081C085F0000182510001826F836B58
:1012B800846B856B82C021FF59D00F01229776C0BD
:1012C8007EF077C07FF078C080F079C081F0040E9E
:1012D80006D00001D890813380337F337E33E82EE7
:1012E800F8D77EC082F07FC083F080C084F081C0D0
:1012F80085F0000182510001826F836B846B856BDE
:1013080082C021FF070E000176150001826F000ED2
:10131800000177150001836F000E000178150001A8
:10132800846F000E000179150001856F82C07EF080
:1013380083C07FF084C080F085C081F0050ED8900E
:1013480000017E377F3780378137E82EF8D77EC097
:1013580082F07FC083F080C084F081C085F00F01E7
:1013680022511F0B0F01226F82C022FF00017DA1B5
:1013780003D00F01208102D00F01209100017DA32D
:1013880003D00F01208302D00F0120937AC0D9FF28
:101398007BC0DAFFDF500F01266F000120EE01F05D
:1013A8007A51D9267B51DA22DF500F01276F0001CD
:1013B80020EE02F07A51D9267B51DA22DF500F0154
:1013C800286F000120EE03F07A51D9267B51DA22EA
:1013D800DF500F01296F000120EE04F07A51D92661
:1013E8007B51DA22DF500F012A6F000120EE05F051
:1013F8007A51D9267B51DA22DF500F012B6F000179
:1014080020EE06F07A51D9267B51DA22DF500F01FF
:101418002C6F000120EE07F07A51D9267B51DA2291
:10142800DF500F012D6F0F0120871200E4EC12F03E
:10143800040E13EC14F0F90E0001986F0001985196
:101448003AEC14F08368010E00017D6FF40E7C6F96
:1014580091EC13F0000E836E010E00017D6FF40E07
:101468007C6F91EC13F08368010E00017D6FF40E20
:101478007C6F91EC13F0000E836E010E00017D6FFE
:10148800F40E7C6F91EC13F00001AF050001B01170
:10149800D8A406D0FC0E0001766F7F0E20EC13F066
:1014A8000001AF510001B011D8A406D0FC0E000114
:1014B800766FFF0E20EC13F0A9C090F0AAC091F04F
:1014C800ABC092F0ACC093F00001901F911F921F27
:1014D800931F902B000E9123922393230D5000010C
:1014E80090250001946F0E50000191210001956F25
:1014F8000F50000192210001966F105000019321B6
:101508000001976F00019751000196110001951194
:1015180005E10A0E0001945DD8A0D1D1020E0001A8
:10152800766F000E776F000E786F000E796F000EE1
:1015380000017A6F000E00017B6F000E00017C6FC6
:10154800FC0E00017D6F54EC06F00001B45100015F
:10155800B7250001766F0001776B00017737000E21
:101568000001796F020E786FF8EC11F000017651E6
:10157800466E0001B6510001906F916B0001901FFB
:10158800911F904B912B46500001926F936B000175
:10159800905100019227000191510001932300010D
:1015A80093BF8DD10001935104E100019205D8A0A9
:1015B80086D10001B651040DF3CFB1F0F4CFB2F0EB
:1015C8000001B5510001906F916B0001901F911FB0
:1015D800904B912B0001B151000190270001B251AD
:1015E80000019123000191BFA4D00001915104E1B1
:1015F80000019005D8A09DD00001B5510001906F61
:10160800916B0001901F911F904B912B0001B151DC
:10161800000190270001B25100019123000191BF00
:101628000CD00001915105E1060E0001905DD8A093
:1016380004D00001B5512C0FEAD00001B5510001CA
:10164800906F916B0001901F911F904B912B00019F
:10165800B151000190270001B2510001912300010E
:1016680091BF0CD00001915105E10B0E0001905D76
:10167800D8A004D00001B551500FC9D00001B55110
:101688000001906F916B0001901F911F904B912B5F
:101698000001B151000190270001B25100019123CE
:1016A800000191BF0CD00001915105E11F0E00010E
:1016B800905DD8A004D00001B551140FA8D0000146
:1016C800B5510001906F916B0001901F911F904BD5
:1016D800912B0001B151000190270001B251000186
:1016E8009123000191BF08D00001915104E1320E0D
:1016F8000001905DD8B0D0D00001B5510001906FC5
:10170800916B0001901F911F904B912B0001B151DB
:10171800000190270001B25100019123000191BFFF
:10172800BBD00001915104E100019005D8A0B4D0CC
:10173800B1D0B1C090F0B2C091F00001901F911FDC
:10174800904B912B0001B5510001926F936B0001F2
:10175800905100019227000191510001932300014B
:1017680093BF0CD00001935105E1060E0001925D74
:10177800D8A004D00001B551CE0F49D0B1C090F027
:10178800B2C091F00001901F911F904B912B000166
:10179800B5510001926F936B00019051000192279F
:1017A8000001915100019323000193BF0CD0000167
:1017B800935105E10B0E0001925DD8A004D0000101
:1017C800B551E20F24D0B1C090F0B2C091F0000141
:1017D800901F911F904B912B0001B5510001926F02
:1017E800936B000190510001922700019151000173
:1017F8009323000193BF0ED00001935105E11F0E02
:101808000001925DD8A006D00001B551F60F000185
:10181800B36F42D0B1C090F0B2C091F00001901FF8
:10182800911F904B912B0001B5510001926F936B62
:10183800000190510001922700019151000193236A
:10184800000193BF08D00001935126E1320E000138
:10185800925DD8B021D0B1C090F0B2C091F0000133
:10186800901F911F904B912B0001B5510001926F71
:10187800936B0001905100019227000191510001E2
:101888009323000193BF08D00001935103E10001A5
:1018980092054CD7B5C0B3F0B3C0B5F0B3C076F07D
:1018A8000001776B6FEC13F045B2A0EC12F00DC09D
:1018B800A5F00EC0A6F00FC0A7F010C0A8F043EC2A
:1018C80014F0E806D8B405D049EC14F0E806D8A41A
:1018D80020D0000E0001776F000E766F6FEC13F0CA
:1018E800808017D0000E0001776F000E766F6FECC6
:1018F80013F08080000E00017D6FFA0E7C6F91EC72
:1019080013F08090000E00017D6FFA0E7C6F91EC51
:1019180013F0A5C090F0A6C091F0A7C092F0A8C09F
:1019280093F00001901F911F921F931F902B000EA0
:101938009123922393230D50000190250001946F69
:101948000E50000191210001956F0F500001922166
:101958000001966F1050000193210001976F00015C
:1019680097510001961100019511BCE1650E000127
:10197800945DD8A089D5B6D7000E326E74BE328079
:1019880074BC32820F0150AF43D128C0D9FF29C09F
:10199800DAFFDE6ADE6ADE6ADD6A20EE04F02850CD
:1019A800D9262950DA2256CFDFFF20EE05F028503D
:1019B800D9262950DA2257CFDFFF20EE06F028502B
:1019C800D9262950DA2258CFDFFF20EE07F0285019
:1019D800D9262950DA2259CFDFFF20EE08F0285007
:1019E800D9262950DA225ACFDFFF20EE09F02850F5
:1019F800D9262950DA225BCFDFFF20EE0AF02850E3
:101A0800D9262950DA225CCFDFFF20EE0BF02850D0
:101A1800D9262950DA225DCFDFFF20EE0EF02850BC
:101A2800D9262950DA220F0155AD02D0010E01D076
:101A3800000EDF6E20EE0DF02850D9262950DA224C
:101A48000F0155510F0BDF6E20EE0CF02850D926F0
:101A58002950DA220F0152A702D0010E01D0000E40
:101A6800DF6E0F0152B744D051CF2AF02B6A2C6A8F
:101A78002D6A030ED8902A362B362C362D36E82EB2
:101A8800F9D728C0D9FF29C0DAFF2AC0DEFF2BC04A
:101A9800DEFF2CC0DEFF2DC0DEFF0F015239E84209
:101AA800070B070B336E28C0D9FF29C0DAFFDECF3A
:101AB8002AF0DECF2BF0DECF2CF0DECF2DF0335026
:101AC8002A242E6E000E2B202F6E000E2C20306E36
:101AD800000E2D20316E28C0D9FF29C0DAFF2EC094
:101AE800DEFF2FC0DEFF30C0DEFF31C0DEFF8DD04D
:101AF80054CF2AF02B6A2C6A2D6A28C0D9FF29C036
:101B0800DAFF2AC0DEFF2BC0DEFF2CC0DEFF2DC0AF
:101B1800DEFF53CF2AF02B6A2C6A2D6A2CC02DF0D9
:101B28002BC02CF02AC02BF02A6A28C0D9FF29C064
:101B3800DAFF2A50DE262B50DE222C50DE222D50D2
:101B4800DE220F0152A10CD028C0D9FF29C0DAFF2C
:101B5800000EDE12000EDE12010EDE12000EDE1284
:101B68000F0152A30CD028C0D9FF29C0DAFF000EFC
:101B7800DE12000EDE12020EDE12000EDE120F0161
:101B880052AB0CD028C0D9FF29C0DAFF000EDE12F4
:101B9800000EDE12040EDE12000EDE120F0152AD30
:101BA8000CD028C0D9FF29C0DAFF000EDE12000EC3
:101BB800DE12080EDE12000EDE120F0152AF0CD03C
:101BC80028C0D9FF29C0DAFF000EDE12000EDE128F
:101BD800100EDE12000EDE1251CF2AF02B6A2C6A8C
:101BE8002D6A150ED8902A362B362C362D36E82E2F
:101BF800F9D728C0D9FF29C0DAFF2A50DE122B50A6
:101C0800DE122C50DE122D50DE120F01509F1200F2
:101C180060AE120028C0D9FF29C0DAFFDE6ADE6A8A
:101C2800DE6ADD6A20EE04F02850D9262950DA222F
:101C380066CFDFFF20EE05F02850D9262950DA229A
:101C480067CFDFFF20EE06F02850D9262950DA2288
:101C580068CFDFFF20EE07F02850D9262950DA2276
:101C680069CFDFFF20EE08F02850D9262950DA2264
:101C78006ACFDFFF20EE09F02850D9262950DA2252
:101C88006BCFDFFF20EE0AF02850D9262950DA2240
:101C98006CCFDFFF20EE0BF02850D9262950DA222E
:101CA8006DCFDFFF20EE0EF02850D9262950DA221A
:101CB80065AC02D0010E01D0000EDF6E20EE0DF0F3
:101CC8002850D9262950DA2265500F0BDF6E20EEF6
:101CD8000CF02850D9262950DA2262A602D0010E2B
:101CE80001D0000EDF6E62B643D061CF2AF02B6AB6
:101CF8002C6A2D6A030ED8902A362B362C362D36B0
:101D0800E82EF9D728C0D9FF29C0DAFF2AC0DEFF9C
:101D18002BC0DEFF2CC0DEFF2DC0DEFF6238E8429C
:101D2800070B070B336E28C0D9FF29C0DAFFDECFB7
:101D38002AF0DECF2BF0DECF2CF0DECF2DF03350A3
:101D48002A242E6E000E2B202F6E000E2C20306EB3
:101D5800000E2D20316E28C0D9FF29C0DAFF2EC011
:101D6800DEFF2FC0DEFF30C0DEFF31C0DEFF88D0CF
:101D780064CF2AF02B6A2C6A2D6A28C0D9FF29C0A3
:101D8800DAFF2AC0DEFF2BC0DEFF2CC0DEFF2DC02D
:101D9800DEFF63CF2AF02B6A2C6A2D6A2CC02DF047
:101DA8002BC02CF02AC02BF02A6A28C0D9FF29C0E2
:101DB800DAFF2A50DE262B50DE222C50DE222D5050
:101DC800DE2262A00CD028C0D9FF29C0DAFF000E9D
:101DD800DE12000EDE12010EDE12000EDE1262A20C
:101DE8000CD028C0D9FF29C0DAFF000EDE12000E81
:101DF800DE12020EDE12000EDE1262AA0CD028C01D
:101E0800D9FF29C0DAFF000EDE12000EDE12040E22
:101E1800DE12000EDE1262AC0CD028C0D9FF29C039
:101E2800DAFF000EDE12000EDE12080EDE12000EC1
:101E3800DE1262AE0CD028C0D9FF29C0DAFF000E2E
:101E4800DE12000EDE12100EDE12000EDE1261CF60
:101E58002AF02B6A2C6A2D6A150ED8902A362B3652
:101E68002C362D36E82EF9D728C0D9FF29C0DAFF3D
:101E78002A50DE122B50DE122C50DE122D50DE12AC
:101E8800609E120000017F6F00017F05D8A456D024
:101E980000017A29D8A452D076C07BF077C07CF0B4
:101EA80078C07DF079C07EF0040E06D00001D8908D
:101EB8007E337D337C337B33E82EF8D77BC080F0CC
:101EC8007CC081F07DC082F07EC083F0000180512B
:101ED8000001806F816B826B836B80C018FF070ED7
:101EE800000176150001806F000E000177150001D2
:101EF800816F000E000178150001826F000E00014D
:101F080079150001836F80C07BF081C07CF082C0AE
:101F18007DF083C07EF0050ED89000017B377C37BA
:101F28007D377E37E82EF8D77BC080F07CC081F003
:101F38007DC082F07EC083F080C019FF020E0001D0
:101F48007F19D8A456D000017A29D8A452D076C0D7
:101F58007BF077C07CF078C07DF079C07EF0040E0D
:101F680006D00001D8907E337D337C337B33E82E56
:101F7800F8D77BC080F07CC081F07DC082F07EC045
:101F880083F0000180510001806F816B826B836B4D
:101F980080C01CFF070E000176150001806F000E3F
:101FA800000177150001816F000E0001781500010E
:101FB800826F000E000179150001836F80C07BF0ED
:101FC80081C07CF082C07DF083C07EF0050ED89081
:101FD80000017B377C377D377E37E82EF8D77BC00A
:101FE80080F07CC081F07DC082F07EC083F080C02C
:101FF8001DFF00017F05D8A487D0F70E00017A19CC
:10200800D8A482D0000176510001806F816B826B69
:10201800836B80C01BFF000E000176150001806FE6
:10202800FF0E000177150001816F000E0001781581
:102038000001826F000E000179150001836F80C0D6
:102048007BF081C07CF082C07DF083C07EF07CC0D4
:102058007BF07DC07CF07EC07DF000017E6B7BC094
:1020680080F07CC081F07DC082F07EC083F080C0AB
:102078001AFF000178A103D00F01198102D00F01C6
:102088001991000178A303D00F01198302D00F0121
:102098001993000178A503D00F01198B02D00F0105
:1020A800199B000178A703D00F01198D02D00F01E9
:1020B800199D000178A903D00F01198F02D00F01D3
:1020C800199F76C07BF077C07CF078C07DF079C02E
:1020D8007EF0160E06D00001D8907E337D337C3317
:1020E8007B33E82EF8D77BC080F07CC081F07DC0C0
:1020F80082F07EC083F0000180510001806F816B07
:10210800826B836B80C018FF020E00017F19D8A470
:102118001200F70E00017A19D8A4120000017651B6
:102128000001806F816B826B836B80C01FFF000E84
:10213800000176150001806FFF0E00017715000180
:10214800816F000E000178150001826F000E0001FA
:1021580079150001836F80C07BF081C07CF082C05C
:102168007DF083C07EF07CC07BF07DC07CF07EC0BB
:102178007DF000017E6B7BC080F07CC081F07DC06B
:1021880082F07EC083F080C01EFF000178A103D0DA
:102198000F011D8102D00F011D91000178A303D00A
:1021A8000F011D8302D00F011D93000178A503D0F4
:1021B8000F011D8B02D00F011D9B000178A703D0D2
:1021C8000F011D8D02D00F011D9D000178A903D0BC
:1021D8000F011D8F02D00F011D9F76C07BF077C0C5
:1021E8007CF078C07DF079C07EF0160E06D0000134
:1021F800D8907E337D337C337B33E82EF8D77BC091
:1022080080F07CC081F07DC082F07EC083F0000148
:1022180080510001806F816B826B836B80C01CFFD3
:10222800120000018D6F800E24EC14F0000E706E09
:10223800000E716E000E726E00018641E842C00BFE
:102248000001866F000186517012000187517012DB
:1022580000018D51711200018439E842F80B000128
:10226800846F000184517112000188A5718C0001EE
:1022780088B1718E000185517212000188B3728C89
:1022880000018851600B606E00018851100BFF0A35
:10229800D8B4608460CF50FF000E0001766F000E46
:1022A800776F000E786F000E796FF70E00017A6F66
:1022B800010E46EC0FF0000E0001766F000E776FEE
:1022C800000E786F000E796FF70E00017A6F020E1C
:1022D80046EC0FF00FD0F70E00018E6F07D000010B
:1022E8008E6900018F6928D000018E69F70E000100
:1022F8008F6F22D09F0E0001896FFF0E00018A6F39
:1023080000018851600B00018B6F8C6B00018951B3
:1023180000018B1300018A5100018C1300018C51BC
:10232800000AD8A4E1D700018B51BF0AD8B4D7D787
:10233800600AD8B4D0D7D8D7000E0001766F000E47
:10234800776F000E786F000E796F8EC07AF0000EEE
:10235800D1EC00F0000E0001766F000E776F000ED2
:10236800786F000E796F8EC07AF0010ED1EC00F014
:10237800000E0001766F000E776F000E786F000E6A
:10238800796F8FC07AF0020ED1EC00F0000E0001D8
:10239800766F000E776F000E786F000E796F8FC022
:1023A8007AF0030ED1EC00F0000E0001766F000EFB
:1023B800776F000E786F000E796F8FC07AF0040E79
:1023C800D1EC00F0000E0001766F000E776F000E62
:1023D800786F000E796F8FC07AF0050ED1EC00F09F
:1023E800000E24EC14F01200000E00017B6F0001B7
:1023F80079AF08D00001786D791FD8B0792B010E1C
:1024080000017B6F000177AF08D00001766D771F60
:10241800D8B0772B010E00017B1B000E00017D6FE9
:10242800000E7C6F0001785100017911D8B42CD0CE
:10243800010E00017A6F06D00001D89078377937FD
:1024480000017A2B000179AFF7D70001D8907C37CB
:102458007D37000178510001765D00017951000156
:102468007759D8A00AD0000178510001765F0001A1
:1024780079510001775B00017C810001D8907933A4
:10248800783300017A2FE1D700017B510001D8B4DD
:1024980005D000017C6D7D1FD8B07D2B7CC076F007
:1024A8007DC077F012000600E9CF6AF0EACF6BF042
:1024B800E1CF6CF0E2CF6DF0D9CF6EF0DACF6FF0EC
:1024C800F3CF70F0F4CF71F0F6CF72F0F7CF73F06E
:1024D800F8CF74F0F5CF75F0F2A210D0000E00011D
:1024E800676F010E666FAEEC13F045A006D0010EC3
:1024F8000926000E0A220B220C22F29275C0F5FF63
:1025080074C0F8FF73C0F7FF72C0F6FF71C0F4FF24
:1025180070C0F3FF6FC0DAFF6EC0D9FF6DC0E2FF75
:102528006CC0E1FF6BC0EAFF6AC0E9FF69C0FBFF4E
:1025380068C0FAFF4792110001EC14F00009D8A412
:1025480045A217D0A1C076F0A2C077F0A3C078F05A
:10255800A4C079F0200E00017A6F000E00017B6F95
:10256800080E00017C6FBC0E00017D6F54EC06F074
:1025780045920F0140BD03D00F0130AD1200000E8F
:1025880000017D6F050E7C6F91EC13F045A21200DF
:10259800A1C076F0A2C077F0A3C078F0A4C079F00B
:1025A800200E00017A6F000E00017B6F080E0001FB
:1025B8007C6FBC0E00017D6F54EC06F04592120052
:1025C800060E0001846F050E0001856F010E0001E3
:1025D800866F030E0001876F9D0E0001886F040E41
:1025E80015EC11F0D08EF292F288A492A490A382F6
:1025F800A380A592A590F28EF28CF18C010EB16E9B
:10260800A192A292630EB36EC00EB26EA082000EAB
:10261800896EFC0E926E000E8A6EFB0E936E000E93
:102628008B6E000E946E000E8C6E000E956E000E72
:102638008D6E9668C16812000001776FBA50C009A4
:1026480000017715BA6EBA500F0900017615BA6EF7
:102658003F0E00017719D8A402D095981200BF0E3A
:1026680000017719D8A403D09598959A12007F0E87
:1026780000017719D8B404D000017729D8A4120032
:102688009598959A959C959E120000EE99F01F0ECC
:10269800EE6AE806FDE1456A00EE01F0270EEE6AF3
:1026A800E806FDE19F0EF66E280EF76E000EF86E36
:1026B8000900F5CFB8F09E0EF66E280EF76E000EE4
:1026C800F86E0900F5CF46F047904792000EF86E75
:1026D80000011AEF0AF076C078F077C079F0060E9C
:1026E800D890000178377937E82EFAD778C07AF091
:1026F80079C07BF07BC0BBFF7AC078F00001D8902E
:1027080078330001D8907833300E00017817BA502A
:10271800CF0B00017811BA6E1200B8C076F0000134
:10272800776B7CC078F07DC079F0CBEC13F076C085
:10273800ADF077C0AEF007D0500EE82EFED70001FE
:10274800AD07D8A0AE070001AD510001AE11D8B455
:102758001200F2D7B8C060F00001616B66C062F089
:1027680067C063F0E6EC13F060C0ADF061C0AEF096
:1027780007D0500EE82EFED70001AD07D8A0AE074F
:102788000001AD510001AE11D8B41200F2D700011A
:10279800765100017803F3CF7AF0F4CF7BF0000193
:1027A800765100017903F35000017B27000177512E
:1027B80000017803F35000017B277AC076F07BC0D4
:1027C80077F012000001605100016203F3CF64F05A
:1027D800F4CF65F00001605100016303F35000017C
:1027E80065270001615100016203F350000165276C
:1027F80064C060F065C061F01200010E0001766FE0
:102808000F0140A709D00F0130A706D00F0120A75C
:1028180003D0000E0001766F00017651120000010E
:10282800766F00017651FB0BCA6E000ECC6E9E923D
:10283800000176AF02D09D8201D09D92CA84120019
:102848000001766F76C06FFF6E50E00B00017619BD
:10285800D8B41200F9D7010E286E60BE05D00F015A
:1028680050BF02D0000E286E285012000001766F6B
:102878000C0EBA6ECA9476C0CBFFCA84120074A438
:1028880002D0010E1200000E120074A202D0010E36
:082898001200000E12000110F5
:020000040030CA
:0E000000FF021F1EFF8281FF0FC00FE00F40A6
:00000001FF
