:04000000C6EF00F057
:10000800FACF93F0FBCF94F0E9CF95F0A6ED14F07A
:10001800D8CF36F0E8CF37F0E0CF38F0FACF39F064
:10002800FBCF3AF0E9CF3BF0EACF3CF0E1CF3DF02F
:10003800E2CF3EF0D9CF3FF0DACF40F0F3CF41F036
:10004800F4CF42F0F6CF43F0F7CF44F0F8CF45F0C5
:10005800F5CF46F0A4B002D0A4A271D0CEEC15F032
:100068000009D8B45FD0000E2B6E130E2A6E9DECDB
:100078000DF02104D8A40CD013C005F014C006F06C
:1000880015C007F016C008F00001479A21B0478A4A
:100098001350030A141015101610D8A40FD017C047
:1000A800C4F0000118C080F00001816B0DC070F031
:1000B8000EC071F00FC072F010C073F0130414106A
:1000C80015101610D8A404D0000E0001C46F808249
:1000D8001350060A141015101610D8A406D017C00D
:1000E80087F018C08AF0000148801350020A1410E3
:1000F80015101610D8B40AD015D00001478210D0B8
:10010800000147860DD0000147840AD01750010A24
:10011800D8B4F3D7030AD8B4F3D7010AD8B4F3D7BD
:10012800A490A492A1A20BD0010E0D26000E0E22BF
:100138000F221022630EB36EC00EB26EA19246C09B
:10014800F5FF45C0F8FF44C0F7FF43C0F6FF42C0C3
:10015800F4FF41C0F3FF40C0DAFF3FC0D9FF3EC003
:10016800E2FF3DC0E1FF3CC0EAFF3BC0E9FF3AC007
:10017800FBFF39C0FAFF38C0E0FF37C0E8FF36C0E0
:10018800D8FF100047EF15F00001AA6F0001AA6719
:1001980063D00001A529D8A45FD00F010197000101
:1001A800A1C0A6F00001A2C0A7F00001A3C0A8F05A
:1001B8000001A4C0A9F0040E06D00001D890A9330C
:1001C800A833A733A633E82EF8D7A6C0ABF0A7C04C
:1001D800ACF0A8C0ADF0A9C0AEF00001AB51000171
:1001E800AB6F0001AC6B0001AD6B0001AE6BABC037
:1001F80000FF070E0001A1150001AB6F000E000102
:10020800A2150001AC6F000E0001A3150001AD6F2F
:10021800000E0001A4150001AE6F0001ABC0A6F0EE
:100228000001ACC0A7F00001ADC0A8F00001AEC04D
:10023800A9F0050ED8900001A637A737A837A93727
:10024800E82EF8D7A6C0ABF0A7C0ACF0A8C0ADF0B8
:10025800A9C0AEF0ABC001FF0001AA05D8A463D0C5
:100268000001A529D8A45FD00F0105970001A1C0FE
:10027800A6F00001A2C0A7F00001A3C0A8F00001E9
:10028800A4C0A9F0040E06D00001D890A933A83361
:10029800A733A633E82EF8D7A6C0ABF0A7C0ACF0BA
:1002A800A8C0ADF0A9C0AEF00001AB510001AB6F22
:1002B8000001AC6B0001AD6B0001AE6BABC004FF7D
:1002C800070E0001A1150001AB6F000E0001A21579
:1002D8000001AC6F000E0001A3150001AD6F000E08
:1002E8000001A4150001AE6F0001ABC0A6F000012B
:1002F800ACC0A7F00001ADC0A8F00001AEC0A9F0E5
:10030800050ED8900001A637A737A837A937E82ED9
:10031800F8D7A6C0ABF0A7C0ACF0A8C0ADF0A9C094
:10032800AEF0ABC005FF0001AA51020AD8A463D001
:100338000001A529D8A45FD00F0109970001A1C029
:10034800A6F00001A2C0A7F00001A3C0A8F0000118
:10035800A4C0A9F0040E06D00001D890A933A83390
:10036800A733A633E82EF8D7A6C0ABF0A7C0ACF0E9
:10037800A8C0ADF0A9C0AEF00001AB510001AB6F51
:100388000001AC6B0001AD6B0001AE6BABC008FFA8
:10039800070E0001A1150001AB6F000E0001A215A8
:1003A8000001AC6F000E0001A3150001AD6F000E37
:1003B8000001A4150001AE6F0001ABC0A6F000015A
:1003C800ACC0A7F00001ADC0A8F00001AEC0A9F014
:1003D800050ED8900001A637A737A837A937E82E09
:1003E800F8D7A6C0ABF0A7C0ACF0A8C0ADF0A9C0C4
:1003F800AEF0ABC009FF0001AA51030AD8A463D02C
:100408000001A529D8A45FD00F010D970001A1C054
:10041800A6F00001A2C0A7F00001A3C0A8F0000147
:10042800A4C0A9F0040E06D00001D890A933A833BF
:10043800A733A633E82EF8D7A6C0ABF0A7C0ACF018
:10044800A8C0ADF0A9C0AEF00001AB510001AB6F80
:100458000001AC6B0001AD6B0001AE6BABC00CFFD3
:10046800070E0001A1150001AB6F000E0001A215D7
:100478000001AC6F000E0001A3150001AD6F000E66
:100488000001A4150001AE6F0001ABC0A6F0000189
:10049800ACC0A7F00001ADC0A8F00001AEC0A9F043
:1004A800050ED8900001A637A737A837A937E82E38
:1004B800F8D7A6C0ABF0A7C0ACF0A8C0ADF0A9C0F3
:1004C800AEF0ABC00DFF0001AA51040AD8A463D056
:1004D8000001A529D8A45FD00F0111970001A1C080
:1004E800A6F00001A2C0A7F00001A3C0A8F0000177
:1004F800A4C0A9F0040E06D00001D890A933A833EF
:10050800A733A633E82EF8D7A6C0ABF0A7C0ACF047
:10051800A8C0ADF0A9C0AEF00001AB510001AB6FAF
:100528000001AC6B0001AD6B0001AE6BABC010FFFE
:10053800070E0001A1150001AB6F000E0001A21506
:100548000001AC6F000E0001A3150001AD6F000E95
:100558000001A4150001AE6F0001ABC0A6F00001B8
:10056800ACC0A7F00001ADC0A8F00001AEC0A9F072
:10057800050ED8900001A637A737A837A937E82E67
:10058800F8D7A6C0ABF0A7C0ACF0A8C0ADF0A9C022
:10059800AEF0ABC011FF0001AA51050AD8A463D080
:1005A8000001A529D8A45FD00F0115970001A1C0AB
:1005B800A6F00001A2C0A7F00001A3C0A8F00001A6
:1005C800A4C0A9F0040E06D00001D890A933A8331E
:1005D800A733A633E82EF8D7A6C0ABF0A7C0ACF077
:1005E800A8C0ADF0A9C0AEF00001AB510001AB6FDF
:1005F8000001AC6B0001AD6B0001AE6BABC014FF2A
:10060800070E0001A1150001AB6F000E0001A21535
:100618000001AC6F000E0001A3150001AD6F000EC4
:100628000001A4150001AE6F0001ABC0A6F00001E7
:10063800ACC0A7F00001ADC0A8F00001AEC0A9F0A1
:10064800050ED8900001A637A737A837A937E82E96
:10065800F8D7A6C0ABF0A7C0ACF0A8C0ADF0A9C051
:10066800AEF0ABC015FF0001AA6797D00001A551F5
:10067800F70AD8A492D00F0101870001A151000107
:10068800AB6F0001AC6B0001AD6B0001AE6BABC092
:1006980003FF000E0001A1150001AB6FFF0E000162
:1006A800A2150001AC6F000E0001A3150001AD6F8B
:1006B800000E0001A4150001AE6F0001ABC0A6F04A
:1006C8000001ACC0A7F00001ADC0A8F00001AEC0A9
:1006D800A9F0A7C0A6F0A8C0A7F0A9C0A8F000017B
:1006E800A96BA6C0ABF0A7C0ACF0A8C0ADF0A9C07C
:1006F800AEF0ABC002FF0001A3A103D00F0101813E
:1007080002D00F0101910001A3A303D00F010183BF
:1007180002D00F0101930001A3A503D00F01018BA3
:1007280002D00F01019B0001A3A703D00F01018D87
:1007380002D00F01019D0001A3A903D00F01018F71
:1007480002D00F01019F0001A1C0A6F00001A2C0C4
:10075800A7F00001A3C0A8F00001A4C0A9F0160EDC
:1007680006D00001D890A933A833A733A633E82EC2
:10077800F8D7A6C0ABF0A7C0ACF0A8C0ADF0A9C030
:10078800AEF00001AB510001AB6F0001AC6B000192
:10079800AD6B0001AE6BABC000FF0001AA05D8A489
:1007A80097D00001A551F70AD8A492D00F01058768
:1007B8000001A1510001AB6F0001AC6B0001AD6BF2
:1007C8000001AE6BABC007FF000E0001A1150001D0
:1007D800AB6FFF0E0001A2150001AC6F000E000107
:1007E800A3150001AD6F000E0001A4150001AE6F46
:1007F8000001ABC0A6F00001ACC0A7F00001ADC07D
:10080800A8F00001AEC0A9F0A7C0A6F0A8C0A7F044
:10081800A9C0A8F00001A96BA6C0ABF0A7C0ACF0B6
:10082800A8C0ADF0A9C0AEF0ABC006FF0001A3A1FF
:1008380003D00F01058102D00F0105910001A3A388
:1008480003D00F01058302D00F0105930001A3A572
:1008580003D00F01058B02D00F01059B0001A3A750
:1008680003D00F01058D02D00F01059D0001A3A93A
:1008780003D00F01058F02D00F01059F0001A1C011
:10088800A6F00001A2C0A7F00001A3C0A8F00001D3
:10089800A4C0A9F0160E06D00001D890A933A83339
:1008A800A733A633E82EF8D7A6C0ABF0A7C0ACF0A4
:1008B800A8C0ADF0A9C0AEF00001AB510001AB6F0C
:1008C8000001AC6B0001AD6B0001AE6BABC004FF67
:1008D8000001AA51020AD8A497D00001A551F70A2D
:1008E800D8A492D00F0109870001A1510001AB6F74
:1008F8000001AC6B0001AD6B0001AE6BABC00BFF30
:10090800000E0001A1150001AB6FFF0E0001A2153A
:100918000001AC6F000E0001A3150001AD6F000EC1
:100928000001A4150001AE6F0001ABC0A6F00001E4
:10093800ACC0A7F00001ADC0A8F00001AEC0A9F09E
:10094800A7C0A6F0A8C0A7F0A9C0A8F00001A96B8D
:10095800A6C0ABF0A7C0ACF0A8C0ADF0A9C0AEF07F
:10096800ABC00AFF0001A3A103D00F01098102D087
:100978000F0109910001A3A303D00F01098302D03D
:100988000F0109930001A3A503D00F01098B02D021
:100998000F01099B0001A3A703D00F01098D02D005
:1009A8000F01099D0001A3A903D00F01098F02D0EF
:1009B8000F01099F0001A1C0A6F00001A2C0A7F085
:1009C8000001A3C0A8F00001A4C0A9F0160E06D02B
:1009D8000001D890A933A833A733A633E82EF8D757
:1009E800A6C0ABF0A7C0ACF0A8C0ADF0A9C0AEF0EF
:1009F8000001AB510001AB6F0001AC6B0001AD6BA6
:100A08000001AE6BABC008FF0001AA51030AD8A4CD
:100A180097D00001A551F70AD8A492D00F010D87ED
:100A28000001A1510001AB6F0001AC6B0001AD6B7F
:100A38000001AE6BABC00FFF000E0001A115000155
:100A4800AB6FFF0E0001A2150001AC6F000E000194
:100A5800A3150001AD6F000E0001A4150001AE6FD3
:100A68000001ABC0A6F00001ACC0A7F00001ADC00A
:100A7800A8F00001AEC0A9F0A7C0A6F0A8C0A7F0D2
:100A8800A9C0A8F00001A96BA6C0ABF0A7C0ACF044
:100A9800A8C0ADF0A9C0AEF0ABC00EFF0001A3A185
:100AA80003D00F010D8102D00F010D910001A3A306
:100AB80003D00F010D8302D00F010D930001A3A5F0
:100AC80003D00F010D8B02D00F010D9B0001A3A7CE
:100AD80003D00F010D8D02D00F010D9D0001A3A9B8
:100AE80003D00F010D8F02D00F010D9F0001A1C08F
:100AF800A6F00001A2C0A7F00001A3C0A8F0000161
:100B0800A4C0A9F0160E06D00001D890A933A833C6
:100B1800A733A633E82EF8D7A6C0ABF0A7C0ACF031
:100B2800A8C0ADF0A9C0AEF00001AB510001AB6F99
:100B38000001AC6B0001AD6B0001AE6BABC00CFFEC
:100B48000001AA51040AD8A497D00001A551F70AB8
:100B5800D8A492D00F0111870001A1510001AB6FF9
:100B68000001AC6B0001AD6B0001AE6BABC013FFB5
:100B7800000E0001A1150001AB6FFF0E0001A215C8
:100B88000001AC6F000E0001A3150001AD6F000E4F
:100B98000001A4150001AE6F0001ABC0A6F0000172
:100BA800ACC0A7F00001ADC0A8F00001AEC0A9F02C
:100BB800A7C0A6F0A8C0A7F0A9C0A8F00001A96B1B
:100BC800A6C0ABF0A7C0ACF0A8C0ADF0A9C0AEF00D
:100BD800ABC012FF0001A3A103D00F01118102D005
:100BE8000F0111910001A3A303D00F01118302D0BB
:100BF8000F0111930001A3A503D00F01118B02D09F
:100C08000F01119B0001A3A703D00F01118D02D082
:100C18000F01119D0001A3A903D00F01118F02D06C
:100C28000F01119F0001A1C0A6F00001A2C0A7F00A
:100C38000001A3C0A8F00001A4C0A9F0160E06D0B8
:100C48000001D890A933A833A733A633E82EF8D7E4
:100C5800A6C0ABF0A7C0ACF0A8C0ADF0A9C0AEF07C
:100C68000001AB510001AB6F0001AC6B0001AD6B33
:100C78000001AE6BABC010FF0001AA51050AD8A451
:100C880097D00001A551F70AD8A492D00F01158773
:100C98000001A1510001AB6F0001AC6B0001AD6B0D
:100CA8000001AE6BABC017FF000E0001A1150001DB
:100CB800AB6FFF0E0001A2150001AC6F000E000122
:100CC800A3150001AD6F000E0001A4150001AE6F61
:100CD8000001ABC0A6F00001ACC0A7F00001ADC098
:100CE800A8F00001AEC0A9F0A7C0A6F0A8C0A7F060
:100CF800A9C0A8F00001A96BA6C0ABF0A7C0ACF0D2
:100D0800A8C0ADF0A9C0AEF0ABC016FF0001A3A10A
:100D180003D00F01158102D00F0115910001A3A383
:100D280003D00F01158302D00F0115930001A3A56D
:100D380003D00F01158B02D00F01159B0001A3A74B
:100D480003D00F01158D02D00F01159D0001A3A935
:100D580003D00F01158F02D00F01159F0001A1C00C
:100D6800A6F00001A2C0A7F00001A3C0A8F00001EE
:100D7800A4C0A9F0160E06D00001D890A933A83354
:100D8800A733A633E82EF8D7A6C0ABF0A7C0ACF0BF
:100D9800A8C0ADF0A9C0AEF00001AB510001AB6F27
:100DA8000001AC6B0001AD6B0001AE6BABC014FF72
:100DB80012000F0140B766D1A7C045FF0001A8ADDA
:100DC80003D00F01458D02D00F01459D0001A8A752
:100DD80087D00001A1510001AD6F0001AE6B000189
:100DE800AF6B0001B06BADC044FF000E0001A11550
:100DF8000001AD6FFF0E0001A2150001AE6F000EDD
:100E08000001A3150001AF6F000E0001A415000139
:100E1800B06F0001ADC0A9F00001AEC0AAF000019A
:100E2800AFC0ABF00001B0C0ACF0AAC0A9F0ABC035
:100E3800AAF0ACC0ABF00001AC6BA9C0ADF0AAC081
:100E4800AEF0ABC0AFF0ACC0B0F0ADC043FF000E29
:100E58000F01426F0F0142870001A3A102D00F01C9
:100E680042810001A3A302D00F0142830001A3A580
:100E780002D00F01428B0001A3A702D00F01428DBF
:100E88000001A3A902D00F01428F0001A1C0A9F05F
:100E98000001A2C0AAF00001A3C0ABF00001A4C0E9
:100EA800ACF0160E06D00001D890AC33AB33AA33A1
:100EB800A933E82EF8D7A9C0ADF0AAC0AEF0ABC0F0
:100EC800AFF0ACC0B0F00001AD510001AD6F000152
:100ED800AE6B0001AF6B0001B06BADC041FF64D0D9
:100EE8000F0142970001A1C0A9F00001A2C0AAF019
:100EF8000001A3C0ABF00001A4C0ACF0040E06D002
:100F08000001D890AC33AB33AA33A933E82EF8D715
:100F1800A9C0ADF0AAC0AEF0ABC0AFF0ACC0B0F0A5
:100F28000001AD510001AD6F0001AE6B0001AF6B68
:100F38000001B06BADC041FF070E0001A115000113
:100F4800AD6F000E0001A2150001AE6F000E00018A
:100F5800A3150001AF6F000E0001A4150001B06FCA
:100F68000001ADC0A9F00001AEC0AAF00001AFC0F9
:100F7800ABF00001B0C0ACF0050ED8900001A93765
:100F8800AA37AB37AC37E82EF8D7A9C0ADF0AAC05E
:100F9800AEF0ABC0AFF0ACC0B0F00F0142511F0BC8
:100FA8000F01426FADC042FF0001A8A103D00F019D
:100FB800408102D00F0140910001A8A303D00F0186
:100FC800408302D00F014093A5C0D9FFA6C0DAFF25
:100FD800DF500F01466F000120EE01F00001A5511E
:100FE800D9260001A651DA22DF500F01476F000110
:100FF80020EE02F00001A551D9260001A651DA22FF
:10100800DF500F01486F000120EE03F00001A551E9
:10101800D9260001A651DA22DF500F01496F0001DD
:1010280020EE04F00001A551D9260001A651DA22CC
:10103800DF500F014A6F000120EE05F00001A551B5
:10104800D9260001A651DA22DF500F014B6F0001AB
:1010580020EE06F00001A551D9260001A651DA229A
:10106800DF500F014C6F000120EE07F00001A55181
:10107800D9260001A651DA22DF500F014D6F0F016A
:101088004087D1D20F0130B766D1A7C035FF000124
:10109800A8AD03D00F01358D02D00F01359D000199
:1010A800A8A787D00001A1510001AD6F0001AE6B68
:1010B8000001AF6B0001B06BADC034FF000E000142
:1010C800A1150001AD6FFF0E0001A2150001AE6F62
:1010D800000E0001A3150001AF6F000E0001A4155A
:1010E8000001B06F0001ADC0A9F00001AEC0AAF0C8
:1010F8000001AFC0ABF00001B0C0ACF0AAC0A9F0CD
:10110800ABC0AAF0ACC0ABF00001AC6BA9C0ADF0AD
:10111800AAC0AEF0ABC0AFF0ACC0B0F0ADC033FF0A
:10112800000E0F01326F0F0132870001A3A102D018
:101138000F0132810001A3A302D00F013283000105
:10114800A3A502D00F01328B0001A3A702D00F0183
:10115800328D0001A3A902D00F01328F0001A1C076
:10116800A9F00001A2C0AAF00001A3C0ABF00001E1
:10117800A4C0ACF0160E06D00001D890AC33AB3347
:10118800AA33A933E82EF8D7A9C0ADF0AAC0AEF0AB
:10119800ABC0AFF0ACC0B0F00001AD510001AD6F15
:1011A8000001AE6B0001AF6B0001B06BADC031FF49
:1011B80064D00F0132970001A1C0A9F00001A2C0BC
:1011C800AAF00001A3C0ABF00001A4C0ACF0040E6B
:1011D80006D00001D890AC33AB33AA33A933E82E3C
:1011E800F8D7A9C0ADF0AAC0AEF0ABC0AFF0ACC0A4
:1011F800B0F00001AD510001AD6F0001AE6B000110
:10120800AF6B0001B06BADC031FF070E0001A11537
:101218000001AD6F000E0001A2150001AE6F000EB7
:101228000001A3150001AF6F000E0001A415000115
:10123800B06F0001ADC0A9F00001AEC0AAF0000176
:10124800AFC0ABF00001B0C0ACF0050ED890000103
:10125800A937AA37AB37AC37E82EF8D7A9C0ADF015
:10126800AAC0AEF0ABC0AFF0ACC0B0F00F013251C5
:101278001F0B0F01326FADC032FF0001A8A103D0D0
:101288000F01308102D00F0130910001A8A303D0D3
:101298000F01308302D00F013093A5C0D9FFA6C03B
:1012A800DAFFDF500F01366F000120EE01F0000178
:1012B800A551D9260001A651DA22DF500F01376F58
:1012C800000120EE02F00001A551D9260001A65127
:1012D800DA22DF500F01386F000120EE03F0000121
:1012E800A551D9260001A651DA22DF500F01396F26
:1012F800000120EE04F00001A551D9260001A651F5
:10130800DA22DF500F013A6F000120EE05F00001EC
:10131800A551D9260001A651DA22DF500F013B6FF3
:10132800000120EE06F00001A551D9260001A651C2
:10133800DA22DF500F013C6F000120EE07F00001B8
:10134800A551D9260001A651DA22DF500F013D6FC1
:101358000F01308768D10F0120B765D1A7C025FFDD
:101368000001A8AD03D00F01258D02D00F01259DE6
:101378000001A8A787D00001A1510001AD6F0001AD
:10138800AE6B0001AF6B0001B06BADC024FF000E67
:101398000001A1150001AD6FFF0E0001A2150001AB
:1013A800AE6F000E0001A3150001AF6F000E000123
:1013B800A4150001B06F0001ADC0A9F00001AEC0D6
:1013C800AAF00001AFC0ABF00001B0C0ACF0AAC0F9
:1013D800A9F0ABC0AAF0ACC0ABF00001AC6BA9C0DF
:1013E800ADF0AAC0AEF0ABC0AFF0ACC0B0F0ADC0CD
:1013F80023FF000E0F01226F0F0122870001A3A116
:1014080002D00F0122810001A3A302D00F01228381
:101418000001A3A502D00F01228B0001A3A702D0CF
:101428000F01228D0001A3A902D00F01228F000114
:10143800A1C0A9F00001A2C0AAF00001A3C0ABF0AE
:101448000001A4C0ACF0160E06D00001D890AC3351
:10145800AB33AA33A933E82EF8D7A9C0ADF0AAC098
:10146800AEF0ABC0AFF0ACC0B0F00001AD510001C0
:10147800AD6F0001AE6B0001AF6B0001B06BADC08A
:1014880021FF64D00F0122970001A1C0A9F000013B
:10149800A2C0AAF00001A3C0ABF00001A4C0ACF048
:1014A800040E06D00001D890AC33AB33AA33A9336D
:1014B800E82EF8D7A9C0ADF0AAC0AEF0ABC0AFF027
:1014C800ACC0B0F00001AD510001AD6F0001AE6BD2
:1014D8000001AF6B0001B06BADC021FF070E00012A
:1014E800A1150001AD6F000E0001A2150001AE6F3D
:1014F800000E0001A3150001AF6F000E0001A41536
:101508000001B06F0001ADC0A9F00001AEC0AAF0A3
:101518000001AFC0ABF00001B0C0ACF0050ED89030
:101528000001A937AA37AB37AC37E82EF8D7A9C0DE
:10153800ADF0AAC0AEF0ABC0AFF0ACC0B0F00F01D8
:1015480022511F0B0F01226FADC022FF0001A8A17D
:1015580003D00F01208102D00F0120910001A8A320
:1015680003D00F01208302D00F012093A5C0D9FF1B
:10157800A6C0DAFFDF500F01266F000120EE01F050
:101588000001A551D9260001A651DA22DF500F012A
:10159800276F000120EE02F00001A551D9260001B5
:1015A800A651DA22DF500F01286F000120EE03F068
:1015B8000001A551D9260001A651DA22DF500F01FA
:1015C800296F000120EE04F00001A551D926000181
:1015D800A651DA22DF500F012A6F000120EE05F034
:1015E8000001A551D9260001A651DA22DF500F01CA
:1015F8002B6F000120EE06F00001A551D92600014D
:10160800A651DA22DF500F012C6F000120EE07F0FF
:101618000001A551D9260001A651DA22DF500F0199
:101628002D6F0F012087120059EC14F0040EB2EC54
:1016380015F0F90E0001C36F0001C351D9EC15F084
:101648008368010E0001B06FF40E0001AF6F66EC05
:1016580015F0000E836E010E0001B06FF40E00014C
:10166800AF6F66EC15F08368010E0001B06FF40EE1
:101678000001AF6F66EC15F0000E836E010E0001DD
:10168800B06FF40E0001AF6F66EC15F080BE72D13A
:10169800000180058111D8A408D0FF0E0001A16FB8
:1016A8007F0EDAEC14F08280829200018151801161
:1016B800D8A408D0FF0E0001A16FFF0EDAEC14F0D9
:1016C800829082820001866702D082908292000115
:1016D80074C0BBF0000175C0BCF0000176C0BDF05D
:1016E800000177C0BEF00001BB1FBC1FBD1FBE1F9D
:1016F800BB2B000EBC23BD23BE230D500001BB2510
:101708000001BF6F0E500001BC210001C06F0F50D7
:101718000001BD210001C16F10500001BE21000170
:10172800C26F0A0E0001BF5D000EC059000EC159FC
:10173800000E0001C259D8A01DD1060E0001A16FEC
:10174800000E0001A26F000E0001A36F000E000141
:10175800A46F000E0001A66F000E0001A56F000E19
:101768000001A76FFC0E0001A86FDDEC06F0000178
:1017780048A000D1000148900001875100018A2546
:101788000001A16F0001A26B0001A237000E000149
:10179800A46F020E0001A36F93EC13F00001A15196
:1017A8000001C46F000189510001BB6FBC6B0001CF
:1017B800BB1FBC1FBB4BBC2B0001C4510001BD6F3C
:1017C800BE6B0001BB510001BD270001BC510001E7
:1017D800BE230001BE51800A800F010ED8B4BD5D42
:1017E800D8A0C0D0000189510001BB6FBC6B0001BB
:1017F800BB1FBC1FBB4BBC2B0001C4510001BB2548
:101808000001A16F000E0001BC210001A26F27ECAE
:1018180015F00001A1C082F00001A2C083F0000E03
:101828000001A46F110E0001A36F82C0A1F083C054
:10183800A2F093EC13F00001A1C0A9F00001A2C02E
:10184800AAF0000E0001A46F110E0001A36F82C060
:10185800A1F083C0A2F093EC13F00001A1C0ABF09B
:101868000001A2C0ACF085EC15F00001D890A937B2
:10187800AA370001D890A937AA370001A9C07EF07D
:101888000001AAC07FF0020E00017E5D000E00017B
:101898007F59D8A05ED0000189510001BB6FBC6B95
:1018A8000001BB1FBC1FBB4BBC2B0001C451000176
:1018B800BD6FBE6B0001BB510001BD270001BC51CB
:1018C8000001BE230001BE51800A800F010ED8B46A
:1018D800BD5DD8A038D00001885100017E5D000EA2
:1018E80000017F59D8B007D000017E5100080001DF
:1018F80088250001866F000189510001BB6FBC6B10
:101908000001BB1FBC1FBB4BBC2B0001C451000115
:10191800BD6FBE6B0001BB510001BD270001BC516A
:101928000001BE230001BE51800AF36E800EF35CF5
:10193800000ED8B4BD5DD8B006D0000188510001B2
:101948007E250001866F00017F517E11D8B488C0C2
:1019580086F086C088F0000186C0A1F00001A26B65
:1019680003EC15F00DC074F00EC075F00FC076F0E2
:1019780010C077F0000147BA02D0000147B006EC6A
:1019880013F0E2EC15F00001BB6F0001BB05D8B401
:1019980008D0E8EC15F00001BB6F0001BB05D8A426
:1019A8000AD0000E0001A26F000E0001A16F03EC27
:1019B80015F0808E01D0809E000170C0BBF0000140
:1019C80071C0BCF0000172C0BDF0000173C0BEF070
:1019D8000001BB1FBC1FBD1FBE1FBB2B000EBC23BD
:1019E800BD23BE230D500001BB250001BF6F0E5063
:1019F8000001BC210001C06F0F500001BD21000192
:101A0800C16F10500001BE210001C26F650E0001B8
:101A1800BF5D000EC059000EC159000E0001C25929
:101A2800D8A046D0000147BE1ED0020E0001A16F0B
:101A3800000E0001A26F000E0001A36F000E00014E
:101A4800A46F0001000E0001A66F00018B0E0001BB
:101A5800A56F080E0001A76FFC0E0001A86FDDEC52
:101A680006F00001478E000147AE1AD0000147A2D8
:101A78000ED0000147A60BD0000147A408D00001F2
:101A880047920001479600014794809E09D0000EB6
:101A98000001A26F000E0001A16F03EC15F0808E0B
:101AA8000DC070F00EC071F00FC072F010C073F06E
:101AB800000178C0BBF0000179C0BCF000017AC019
:101AC800BDF000017BC0BEF00001BB1FBC1FBD1FE5
:101AD800BE1FBB2B000EBC23BD23BE230D5000012F
:101AE800BB250001BF6F0E500001BC210001C06F73
:101AF8000F500001BD210001C16F10500001BE212F
:101B08000001C26F640E0001BF5D000EC059000ED7
:101B1800C159000E0001C259D8A0B8D504EC14F080
:101B28000DC078F00EC079F00FC07AF010C07BF0CD
:101B3800ADD5000E346E74BE348074BC34820F018F
:101B480050AF3BD12AC0D9FF2BC0DAFFDE6ADE6A6C
:101B5800DE6ADD6A20EE04F02A50D9262B50DA22FC
:101B68000F0156CFDFFF20EE05F02A50D9262B5063
:101B7800DA220F0157CFDFFF20EE06F02A50D926D0
:101B88002B50DA220F0158CFDFFF20EE07F02A5042
:101B9800D9262B50DA220F0159CFDFFF20EE08F0AB
:101BA8002A50D9262B50DA220F015ACFDFFF20EE18
:101BB80009F02A50D9262B50DA220F015BCFDFFF1C
:101BC80020EE0AF02A50D9262B50DA220F015CCFDA
:101BD800DFFF20EE0BF02A50D9262B50DA220F0116
:101BE8005DCFDFFF20EE0EF02A50D9262B50DA22E7
:101BF8000F0155AD02D0010E01D0000EDF6E20EEB0
:101C08000DF02A50D9262B50DA220F0155510F0B0F
:101C1800DF6E20EE0CF02A50D9262B50DA220F0165
:101C280052A702D0010E01D0000EDF6E0F0152B78D
:101C380049D00F0151CF2CF02D6A2E6A2F6A030E5E
:101C4800D8902C362D362E362F36E82EF9D72AC0C6
:101C5800D9FF2BC0DAFF2CC0DEFF2DC0DEFF2EC05F
:101C6800DEFF2FC0DDFFD906D9060F015239E84241
:101C7800070B070B356E2AC0D9FF2BC0DAFFDECF62
:101C88002CF0DECF2DF0DECF2EF0DECF2FF035504A
:101C98002C24306E000E2D20316E000E2E20326E58
:101CA800000E2F20336E2AC0D9FF2BC0DAFF30C0B8
:101CB800DEFF31C0DEFF32C0DEFF33C0DDFFD906F4
:101CC800D90678D00F0154CF2CF02D6A2E6A2F6ACE
:101CD8002AC0D9FF2BC0DAFF2CC0DEFF2DC0DEFFE3
:101CE8002EC0DEFF2FC0DDFFD906D9060F0153CF66
:101CF8002CF02D6A2E6A2F6A2EC02FF02DC02EF0E0
:101D08002CC02DF02C6A2AC0D9FF2BC0DAFF2C502A
:101D1800DE262D50DE222E50DE222F50DD22DD520F
:101D2800DD520F0152A106D02AC0D9FF2BC0DAFF1D
:101D3800020EDB800F0152A306D02AC0D9FF2BC0A8
:101D4800DAFF020EDB820F0152AB06D02AC0D9FFA0
:101D58002BC0DAFF020EDB840F0152AD06D02AC079
:101D6800D9FF2BC0DAFF020EDB860F0152AF06D077
:101D78002AC0D9FF2BC0DAFF020EDB880F0151CF32
:101D88002CF02D6A2E6A2F6A150ED8902C362D3617
:101D98002E362F36E82EF9D72AC0D9FF2BC0DAFF06
:101DA8002C50DE122D50DE122E50DE122F50DD1276
:101DB800DD52DD520F01509F25D160AE23D12AC0DC
:101DC800D9FF2BC0DAFFDE6ADE6ADE6ADD6A20EE42
:101DD80004F02A50D9262B50DA2266CFDFFF20EEF6
:101DE80005F02A50D9262B50DA2267CFDFFF20EEE4
:101DF80006F02A50D9262B50DA2268CFDFFF20EED2
:101E080007F02A50D9262B50DA2269CFDFFF20EEBF
:101E180008F02A50D9262B50DA226ACFDFFF20EEAD
:101E280009F02A50D9262B50DA226BCFDFFF20EE9B
:101E38000AF02A50D9262B50DA226CCFDFFF20EE89
:101E48000BF02A50D9262B50DA226DCFDFFF20EE77
:101E58000EF02A50D9262B50DA2265AC02D0010E9A
:101E680001D0000EDF6E20EE0DF02A50D9262B503F
:101E7800DA2265500F0BDF6E20EE0CF02A50D926BF
:101E88002B50DA2262A602D0010E01D0000EDF6EBE
:101E980062B647D061CF2CF02D6A2E6A2F6A030EE6
:101EA800D8902C362D362E362F36E82EF9D72AC064
:101EB800D9FF2BC0DAFF2CC0DEFF2DC0DEFF2EC0FD
:101EC800DEFF2FC0DDFFD906D9066238E842070BCE
:101ED800070B356E2AC0D9FF2BC0DAFFDECF2CF0F6
:101EE800DECF2DF0DECF2EF0DECF2FF035502C24B4
:101EF800306E000E2D20316E000E2E20326E000E38
:101F08002F20336E2AC0D9FF2BC0DAFF30C0DEFF86
:101F180031C0DEFF32C0DEFF33C0DDFFD906D9068F
:101F280070D064CF2CF02D6A2E6A2F6A2AC0D9FF90
:101F38002BC0DAFF2CC0DEFF2DC0DEFF2EC0DEFF77
:101F48002FC0DDFFD906D90663CF2CF02D6A2E6A83
:101F58002F6A2EC02FF02DC02EF02CC02DF02C6A29
:101F68002AC0D9FF2BC0DAFF2C50DE262D50DE22E6
:101F78002E50DE222F50DD22DD52DD5262A006D027
:101F88002AC0D9FF2BC0DAFF020EDB8062A206D07E
:101F98002AC0D9FF2BC0DAFF020EDB8262AA06D064
:101FA8002AC0D9FF2BC0DAFF020EDB8462AC06D050
:101FB8002AC0D9FF2BC0DAFF020EDB8662AE06D03C
:101FC8002AC0D9FF2BC0DAFF020EDB8861CF2CF0C4
:101FD8002D6A2E6A2F6A150ED8902C362D362E367D
:101FE8002F36E82EF9D72AC0D9FF2BC0DAFF2C509C
:101FF800DE122D50DE122E50DE122F50DD12DD5271
:10200800DD52609E12000001AA6F0001AA05D8A443
:1020180061D00001A529D8A45DD00001A1C0A6F017
:102028000001A2C0A7F00001A3C0A8F00001A4C04D
:10203800A9F0040E06D00001D890A933A833A7331D
:10204800A633E82EF8D7A6C0ABF0A7C0ACF0A8C05E
:10205800ADF0A9C0AEF00001AB510001AB6F0001BB
:10206800AC6B0001AD6B0001AE6BABC018FF070E87
:102078000001A1150001AB6F000E0001A2150001BF
:10208800AC6F000E0001A3150001AD6F000E00013A
:10209800A4150001AE6F0001ABC0A6F00001ACC0F2
:1020A800A7F00001ADC0A8F00001AEC0A9F0050E70
:1020B800D8900001A637A737A837A937E82EF8D750
:1020C800A6C0ABF0A7C0ACF0A8C0ADF0A9C0AEF0F8
:1020D800ABC019FF0001AA51020AD8A461D00001BF
:1020E800A529D8A45DD00001A1C0A6F00001A2C016
:1020F800A7F00001A3C0A8F00001A4C0A9F0040E35
:1021080006D00001D890A933A833A733A633E82E08
:10211800F8D7A6C0ABF0A7C0ACF0A8C0ADF0A9C076
:10212800AEF00001AB510001AB6F0001AC6B0001D8
:10213800AD6B0001AE6BABC01CFF070E0001A11513
:102148000001AB6F000E0001A2150001AC6F000E7C
:102158000001A3150001AD6F000E0001A4150001D8
:10216800AE6F0001ABC0A6F00001ACC0A7F0000143
:10217800ADC0A8F00001AEC0A9F0050ED8900001CE
:10218800A637A737A837A937E82EF8D7A6C0ABF0E7
:10219800A7C0ACF0A8C0ADF0A9C0AEF0ABC01DFFA1
:1021A8000001AA05D8A495D00001A551F70AD8A422
:1021B80090D00001A1510001AB6F0001AC6B000190
:1021C800AD6B0001AE6BABC01BFF000E0001A1158B
:1021D8000001AB6FFF0E0001A2150001AC6F000EED
:1021E8000001A3150001AD6F000E0001A415000148
:1021F800AE6F0001ABC0A6F00001ACC0A7F00001B3
:10220800ADC0A8F00001AEC0A9F0A7C0A6F0A8C054
:10221800A7F0A9C0A8F00001A96BA6C0ABF0A7C0A1
:10222800ACF0A8C0ADF0A9C0AEF0ABC01AFF000179
:10223800A3A103D00F01198102D00F011991000148
:10224800A3A303D00F01198302D00F011993000132
:10225800A3A503D00F01198B02D00F01199B000110
:10226800A3A703D00F01198D02D00F01199D0001FA
:10227800A3A903D00F01198F02D00F01199F0001E4
:10228800A1C0A6F00001A2C0A7F00001A3C0A8F059
:102298000001A4C0A9F0160E06D00001D890A933F9
:1022A800A833A733A633E82EF8D7A6C0ABF0A7C04B
:1022B800ACF0A8C0ADF0A9C0AEF00001AB51000170
:1022C800AB6F0001AC6B0001AD6B0001AE6BABC036
:1022D80018FF0001AA51020AD8A495D00001A551FF
:1022E800F70AD8A490D00001A1510001AB6F0001FA
:1022F800AC6B0001AD6B0001AE6BABC01FFF000EF5
:102308000001A1150001AB6FFF0E0001A21500012D
:10231800AC6F000E0001A3150001AD6F000E0001A7
:10232800A4150001AE6F0001ABC0A6F00001ACC05F
:10233800A7F00001ADC0A8F00001AEC0A9F0A7C089
:10234800A6F0A8C0A7F0A9C0A8F00001A96BA6C074
:10235800ABF0A7C0ACF0A8C0ADF0A9C0AEF0ABC060
:102368001EFF0001A3A103D00F011D8102D00F01A0
:102378001D910001A3A303D00F011D8302D00F01FB
:102388001D930001A3A503D00F011D8B02D00F01DF
:102398001D9B0001A3A703D00F011D8D02D00F01C3
:1023A8001D9D0001A3A903D00F011D8F02D00F01AD
:1023B8001D9F0001A1C0A6F00001A2C0A7F0000166
:1023C800A3C0A8F00001A4C0A9F0160E06D0000111
:1023D800D890A933A833A733A633E82EF8D7A6C0D8
:1023E800ABF0A7C0ACF0A8C0ADF0A9C0AEF000013A
:1023F800AB510001AB6F0001AC6B0001AD6B00018C
:10240800AE6BABC01CFF12000001B86F800EC3ECAE
:1024180015F0000E706E000E716E000E726E0001E7
:10242800B141E842C00B0001B16F0001B151701217
:102438000001B25170120001B85171120001AF3998
:10244800E842F80B0001AF6F0001AF5171120001B3
:10245800B3A5718C0001B3B1718E0001B051721235
:102468000001B3B3728C0001B351600B606EB3C04E
:10247800B4F0100E0001B4170001B451FF0AD8B42B
:10248800608460CF50FF000E0001A16F000E0001B4
:10249800A26F000E0001A36F000E0001A46FF70EDB
:1024A8000001A56F010E07EC10F0000E0001A16FEE
:1024B800000E0001A26F000E0001A36F000E0001C4
:1024C800A46FF70E0001A56F020E07EC10F00FD0F5
:1024D800F70E0001B96F07D00001B9690001BA69A8
:1024E80027D00001B969F70E0001BA6F21D09F0EFD
:1024F8000001B46FFF0EB56F0001B351600B00010E
:10250800B66FB76B0001B4510001B6130001B551A5
:102518000001B7130001B751000AD8A4E2D700019F
:10252800B651BF0AD8B4D8D7600AD8B4D1D7D9D74A
:10253800000E0001A16F000E0001A26F000E000145
:10254800A36F000E0001A46FB9C0A5F0000EC8EC7F
:1025580000F0000E0001A16F000E0001A26F000E36
:102568000001A36F000E0001A46FB9C0A5F0010E11
:10257800C8EC00F0000E0001A16F000E0001A26F70
:10258800000E0001A36F000E0001A46FBAC0A5F0F1
:10259800020EC8EC00F0000E0001A16F000E000151
:1025A800A26F000E0001A36F000E0001A46FBAC055
:1025B800A5F0030EC8EC00F0000E0001A16F000E9C
:1025C8000001A26F000E0001A36F000E0001A46FAE
:1025D800BAC0A5F0040EC8EC00F0000E0001A16F0F
:1025E800000E0001A26F000E0001A36F000E000193
:1025F800A46FBAC0A5F0050EC8EC00F0000EC3EC3D
:1026080015F01200A0EC15F00009D8B436D000017E
:1026180047AA1AD005C0A1F006C0A2F007C0A3F0CF
:1026280008C0A4F00001000E0001A66F00018B0E87
:102638000001A56F080E0001A76FBC0E0001A86F6E
:10264800DDEC06F00001479A000147A016D009C04A
:10265800A1F00AC0A2F00BC0A3F00CC0A4F0000EB9
:102668000001A66F220E0001A56F080E0001A76FDA
:10267800BC0E0001A86FDDEC06F00F0140BD03D0D1
:102688000F0130AD30D00001478005C009F006C009
:102698000AF007C00BF008C00CF000010001479CCD
:1026A80047BA478C000E0001B16F18D00001B15134
:1026B800010D00018B0EF324D96E0001000EF420E9
:1026C800DA6E0001B151010D220EF324E16E000E05
:1026D800F420E26EDFCFE7FF0001B12B070E000107
:1026E800B165E4D719D000014790000147AC12D07A
:1026F80000010001479A47BC478A09C005F00AC093
:1027080006F00BC007F00CC008F000014788000174
:10271800479C02D0000147980001479A1200000E1A
:102728000001A66F0001A451800AF36E800EF35CCD
:10273800000ED8B4A35DD8B009D00001A36D000184
:10274800A41FD8B0A42B010E0001A66F0001A2514E
:10275800800AF36E800EF35C000ED8B4A15DD8B089
:1027680009D00001A16D0001A21FD8B0A22B010E53
:102778000001A61B000E0001A86F000E0001A76F44
:102788000001A451A311D8B42CD0010E0001A56FEB
:1027980006D00001D890A337A4370001A52B00016B
:1027A800A4AFF7D70001D890A737A8370001A351E5
:1027B8000001A15D0001A4510001A259D8A00AD0CE
:1027C8000001A3510001A15F0001A4510001A25B17
:1027D8000001A7810001D890A433A3330001A52FDD
:1027E800E1D70001A651D8B406D00001A76D0001B9
:1027F800A81FD8B0A82BA7C0A1F0A8C0A2F01200AB
:10280800C282C2B2FED70001C4CF84F00001856B3A
:1028180084C0A9F085C0AAF0000E0001AC6F0E0EAE
:102828000001AB6F85EC15F00001A9C0A1F0000113
:10283800AAC0A2F0000E0001A46FEB0E0001A36F66
:1028480093EC13F00001A1C084F00001A2C085F050
:1028580000018551800AF36E800EF35C0A0ED8B42D
:10286800845DD8B021D0A0EC15F00009D8B4FBD70E
:10287800090E0001A16F000E0001A26F000E0001F9
:10288800A36F000E0001A46F0001000E0001A66FE7
:1028980000018B0E0001A56F080E0001A76FFC0E4A
:1028A8000001A86FDDEC06F01200060E0001AF6F04
:1028B800050E0001B06F010E0001B16F030E00019B
:1028C800B26F9D0E0001B36F040E08EC12F0D08EAB
:1028D800F292F288A492A490A382A380A592A590D4
:1028E800F28EF28CF18C010EB16EA192A292630E5F
:1028F800B36EC00EB26EA082C280C294C296C29855
:10290800C29AC190C182C184C186C198C19AC0804F
:10291800C092C084C096C088C08AC09E000E896ECE
:102928007F0E926E000E8A6EFB0E936E000E8B6EFB
:10293800000E946E000E8C6E000E956E000E8D6E5D
:10294800966812000600EACF96F0E1CF97F0E2CF42
:1029580098F0D9CF99F0DACF9AF0F3CF9BF0F4CF73
:102968009CF0F6CF9DF0F7CF9EF0F8CF9FF0F5CF13
:10297800A0F0A0C0F5FF9FC0F8FF9EC0F7FF9DC064
:10298800F6FF9CC0F4FF9BC0F3FF9AC0DAFF99C022
:10299800D9FF98C0E2FF97C0E1FF96C0EAFF95C053
:1029A800E9FF94C0FBFF93C0FAFF11000001A26F7A
:1029B800BA50C0090001A215BA6EBA500F09000139
:1029C800A115BA6E0001A2513F0AD8A402D0959869
:1029D80015D00001A251BF0AD8A403D09598959AA2
:1029E8000DD00001A2517F0AD8B404D00001A22959
:1029F800D8A404D09598959A959C959E12000001AC
:102A0800A1C0A3F00001A2C0A4F0060ED890000156
:102A1800A337A437E82EFAD7A3C0A5F0A4C0A6F020
:102A2800A6C0BBFFA5C0A3F00001D890A333000146
:102A3800D890A333300E0001A317BA50CF0B000172
:102A4800A311BA6E12000001A251800AF36E800E23
:102A5800F35C000ED8B4A15DD8B010D00001A1C0BD
:102A6800A3F00001A2C0A4F00001A31FA41FA34B60
:102A7800A42BA3C0A1F0A4C0A2F004D0A1C0A1F0CF
:102A8800A2C0A2F0120000EE60F0330EEE6AE80673
:102A9800FDE1486A476A00EE01F0290EEE6AE80691
:102AA800FDE1DC0EF66E2B0EF76E000EF86E0900D7
:102AB800F5CFC4F00900F5CFC5F0000EF86E00019F
:102AC80018EF0BF00001C5C0A9F00001AA6BAFC058
:102AD800ABF0B0C0ACF085EC15F00001A9C07CF0FB
:102AE8000001AAC07DF007D0500EE82EFED70001E5
:102AF8007C07D8A07D0700017D517C11D8B4120055
:102B0800F3D70001A9510001AB03F3CFADF0F4CF27
:102B1800AEF00001A9510001AC03F3500001AE274B
:102B28000001AA510001AB03F3500001AE27ADC06C
:102B3800A9F0AEC0AAF01200010E0001A16F0F01AA
:102B480040A709D00F0130A706D00F0120A703D056
:102B5800000E0001A16F0001A15112000001A16F38
:102B68000001A151FB0BCA6E000ECC6E9E920001B3
:102B7800A1AF02D09D8201D09D92CA8412000001AB
:102B8800A16FA1C06FFF6E50E00B0001A119D8B46E
:102B98001200F9D7010E2A6E60BE05D00F0150BF92
:102BA80002D0000E2A6E2A5012000001A16F0C0EEE
:102BB800BA6ECA94A1C0CBFFCA84120074A402D012
:102BC800010E01D0000E120074A202D0010E01D035
:062BD800000E12000108CE
:020000040030CA
:0E000000FF021F1EFF8281FF0FC00FE00F40A6
:00000001FF
