:04000000BDEF00F060
:100018004280D8CF11F0E8CF12F0E0CF13F0FACF3A
:1000280014F0FBCF15F0E9CF16F0EACF17F0E1CFC7
:1000380018F0E2CF19F0D9CF1AF0DACF1BF0F3CFCE
:100048001CF0F4CF1DF0F6CF1EF0F7CF1FF0F8CF5D
:1000580020F0F5CF21F0A4B002D0A4A258D0A4B0CB
:10006800828294EC29F00009D8B44FD0100E016EAA
:10007800010E026EF0EC0FF001011EA102D03F8CC0
:1000880001D03F9C10C123F011C124F012C125F00A
:1000980013C126F0000E226E070E226401D014D080
:1000A8002250010D140EF324D96E010EF420DA6EDD
:1000B8002250010D370EF324E16E000EF420E26E9B
:1000C800DFCFE7FF222AE8D7030E231824102510D4
:1000D8002610D8A419D038502B6E2C6A2D6A2E6A97
:1000E80037502BC00EF02CC00FF02DC010F00D6A49
:1000F8000D102B6E0E502C6E0F502D6E10502E6E54
:1001080039C0FDF00001FE6B3F8AA490A492A1A221
:100118000CD0010E0001EF27000EF023F123F2238B
:10012800630EB36EC00EB26EA19221C0F5FF20C05F
:10013800F8FF1FC0F7FF1EC0F6FF1DC0F4FF1CC06C
:10014800F3FF1BC0DAFF1AC0D9FF19C0E2FF18C0BD
:10015800E1FF17C0EAFF16C0E9FF15C0FBFF14C096
:10016800FAFF13C0E0FF12C0E8FF11C0D8FF4290A9
:0601780010003BEF28F02F
:100D0000000000803F1872313FF0FD753E47586388
:100D10003D58951D3C82C4AE3AA8782139EF9380A6
:100D200037A092A7354656153400000000C4FF7F57
:100D30003F80EFFFBE90E1A93EEC8276BE82AD2BF4
:100D40003E0E3CC3BD87D1133D4178D3BB000001AB
:100D5000696F000169510001D8A458D000016429CD
:100D6000D8A454D00F01019760C065F061C066F04F
:100D700062C067F063C068F0040E06D00001D8902E
:100D80006833673366336533E82EF8D765C06AF099
:100D900066C06BF067C06CF068C06DF000016A510E
:100DA00000016A6F6B6B6C6B6D6B6AC000FF070EA6
:100DB0000001601500016A6F000E0001611500015D
:100DC0006B6F000E0001621500016C6F000E0001D8
:100DD000631500016D6F6AC065F06BC066F06CC092
:100DE00067F06DC068F0050ED89000016537663772
:100DF00067376837E82EF8D765C06AF066C06BF0D1
:100E000067C06CF068C06DF06AC001FF0001690541
:100E1000D8A458D000016429D8A454D00F01059754
:100E200060C065F061C066F062C067F063C068F0E2
:100E3000040E06D00001D8906833673366336533FB
:100E4000E82EF8D765C06AF066C06BF067C06CF03A
:100E500068C06DF000016A5100016A6F6B6B6C6BCA
:100E60006D6B6AC004FF070E0001601500016A6F18
:100E7000000E0001611500016B6F000E000162158C
:100E800000016C6F000E0001631500016D6F6AC0F8
:100E900065F06BC066F06CC067F06DC068F0050E61
:100EA000D89000016537663767376837E82EF8D77E
:100EB00065C06AF066C06BF067C06CF068C06DF02A
:100EC0006AC005FF020E00016919D8A458D00001BC
:100ED0006429D8A454D00F01099760C065F061C09F
:100EE00066F062C067F063C068F0040E06D00001CF
:100EF000D8906833673366336533E82EF8D765C01A
:100F00006AF066C06BF067C06CF068C06DF00001FD
:100F10006A5100016A6F6B6B6C6B6D6B6AC008FF86
:100F2000070E0001601500016A6F000E00016115D7
:100F300000016B6F000E0001621500016C6F000E66
:100F40000001631500016D6F6AC065F06BC066F04B
:100F50006CC067F06DC068F0050ED8900001653771
:100F6000663767376837E82EF8D765C06AF066C01D
:100F70006BF067C06CF068C06DF06AC009FF030ECB
:100F800000016919D8A458D000016429D8A454D00C
:100F90000F010D9760C065F061C066F062C067F038
:100FA00063C068F0040E06D00001D8906833673340
:100FB00066336533E82EF8D765C06AF066C06BF01B
:100FC00067C06CF068C06DF000016A5100016A6F83
:100FD0006B6B6C6B6D6B6AC00CFF070E00016015CC
:100FE00000016A6F000E0001611500016B6F000EB9
:100FF0000001621500016C6F000E00016315000115
:101000006D6F6AC065F06BC066F06CC067F06DC054
:1010100068F0050ED8900001653766376737683786
:10102000E82EF8D765C06AF066C06BF067C06CF058
:1010300068C06DF06AC00DFF040E00016919D8A4E4
:1010400058D000016429D8A454D00F01119760C072
:1010500065F061C066F062C067F063C068F0040EBE
:1010600006D00001D8906833673366336533E82EC5
:10107000F8D765C06AF066C06BF067C06CF068C0F6
:101080006DF000016A5100016A6F6B6B6C6B6D6BE8
:101090006AC010FF070E0001601500016A6F000EA4
:1010A0000001611500016B6F000E00016215000167
:1010B0006C6F000E0001631500016D6F6AC065F072
:1010C0006BC066F06CC067F06DC068F0050ED8901C
:1010D00000016537663767376837E82EF8D765C08F
:1010E0006AF066C06BF067C06CF068C06DF06AC0F3
:1010F00011FF050E00016919D8A458D00001642918
:10110000D8A454D00F01159760C065F061C066F097
:1011100062C067F063C068F0040E06D00001D8908A
:101120006833673366336533E82EF8D765C06AF0F5
:1011300066C06BF067C06CF068C06DF000016A516A
:1011400000016A6F6B6B6C6B6D6B6AC014FF070EEE
:101150000001601500016A6F000E000161150001B9
:101160006B6F000E0001621500016C6F000E000134
:10117000631500016D6F6AC065F06BC066F06CC0EE
:1011800067F06DC068F0050ED890000165376637CE
:1011900067376837E82EF8D765C06AF066C06BF02D
:1011A00067C06CF068C06DF06AC015FF000169513E
:1011B0000001D8A489D0F70E00016419D8A484D006
:1011C0000F0101870001605100016A6F6B6B6C6B4E
:1011D0006D6B6AC003FF000E0001601500016A6FAD
:1011E000FF0E0001611500016B6F000E000162151A
:1011F00000016C6F000E0001631500016D6F6AC085
:1012000065F06BC066F06CC067F06DC068F066C0DA
:1012100065F067C066F068C067F00001686B65C084
:101220006AF066C06BF067C06CF068C06DF06AC0B1
:1012300002FF000162A103D00F01018102D00F0162
:101240000191000162A303D00F01018302D00F01BD
:101250000193000162A503D00F01018B02D00F01A1
:10126000019B000162A703D00F01018D02D00F0185
:10127000019D000162A903D00F01018F02D00F016F
:10128000019F60C065F061C066F062C067F063C036
:1012900068F0160E06D00001D890683367336633C5
:1012A0006533E82EF8D765C06AF066C06BF067C09A
:1012B0006CF068C06DF000016A5100016A6F6B6BE1
:1012C0006C6B6D6B6AC000FF00016905D8A489D002
:1012D000F70E00016419D8A484D00F01058700011E
:1012E000605100016A6F6B6B6C6B6D6B6AC007FFBE
:1012F000000E0001601500016A6FFF0E000161150C
:1013000000016B6F000E0001621500016C6F000E92
:101310000001631500016D6F6AC065F06BC066F077
:101320006CC067F06DC068F066C065F067C066F0BD
:1013300068C067F00001686B65C06AF066C06BF05A
:1013400067C06CF068C06DF06AC006FF000162A162
:1013500003D00F01058102D00F010591000162A3A6
:1013600003D00F01058302D00F010593000162A590
:1013700003D00F01058B02D00F01059B000162A76E
:1013800003D00F01058D02D00F01059D000162A958
:1013900003D00F01058F02D00F01059F60C065F0DB
:1013A00061C066F062C067F063C068F0160E06D0D8
:1013B0000001D8906833673366336533E82EF8D779
:1013C00065C06AF066C06BF067C06CF068C06DF015
:1013D00000016A5100016A6F6B6B6C6B6D6B6AC0C8
:1013E00004FF020E00016919D8A489D0F70E00018C
:1013F0006419D8A484D00F0109870001605100014D
:101400006A6F6B6B6C6B6D6B6AC00BFF000E00013B
:10141000601500016A6FFF0E0001611500016B6F1E
:10142000000E0001621500016C6F000E00016315D3
:1014300000016D6F6AC065F06BC066F06CC067F04C
:101440006DC068F066C065F067C066F068C067F0A0
:101450000001686B65C06AF066C06BF067C06CF035
:1014600068C06DF06AC00AFF000162A103D00F01DD
:10147000098102D00F010991000162A303D00F017D
:10148000098302D00F010993000162A503D00F0167
:10149000098B02D00F01099B000162A703D00F0145
:1014A000098D02D00F01099D000162A903D00F012F
:1014B000098F02D00F01099F60C065F061C066F01E
:1014C00062C067F063C068F0160E06D00001D890C5
:1014D0006833673366336533E82EF8D765C06AF042
:1014E00066C06BF067C06CF068C06DF000016A51B7
:1014F00000016A6F6B6B6C6B6D6B6AC008FF030E4B
:1015000000016919D8A489D0F70E00016419D8A484
:1015100084D00F010D870001605100016A6F6B6B71
:101520006C6B6D6B6AC00FFF000E0001601500014F
:101530006A6FFF0E0001611500016B6F000E000164
:10154000621500016C6F000E0001631500016D6FE4
:101550006AC065F06BC066F06CC067F06DC068F083
:1015600066C065F067C066F068C067F00001686B30
:1015700065C06AF066C06BF067C06CF068C06DF063
:101580006AC00EFF000162A103D00F010D8102D0DD
:101590000F010D91000162A303D00F010D8302D052
:1015A0000F010D93000162A503D00F010D8B02D036
:1015B0000F010D9B000162A703D00F010D8D02D01A
:1015C0000F010D9D000162A903D00F010D8F02D004
:1015D0000F010D9F60C065F061C066F062C067F0EA
:1015E00063C068F0160E06D00001D89068336733E8
:1015F00066336533E82EF8D765C06AF066C06BF0D5
:1016000067C06CF068C06DF000016A5100016A6F3C
:101610006B6B6C6B6D6B6AC00CFF040E000169197B
:10162000D8A489D0F70E00016419D8A484D00F0182
:1016300011870001605100016A6F6B6B6C6B6D6B01
:101640006AC013FF000E0001601500016A6FFF0EF3
:101650000001611500016B6F000E000162150001B1
:101660006C6F000E0001631500016D6F6AC065F0BC
:101670006BC066F06CC067F06DC068F066C065F066
:1016800067C066F068C067F00001686B65C06AF00B
:1016900066C06BF067C06CF068C06DF06AC012FF86
:1016A000000162A103D00F01118102D00F0111913D
:1016B000000162A303D00F01118302D00F01119327
:1016C000000162A503D00F01118B02D00F01119B05
:1016D000000162A703D00F01118D02D00F01119DEF
:1016E000000162A903D00F01118F02D00F01119FD9
:1016F00060C065F061C066F062C067F063C068F00A
:10170000160E06D00001D890683367336633653310
:10171000E82EF8D765C06AF066C06BF067C06CF061
:1017200068C06DF000016A5100016A6F6B6B6C6BF1
:101730006D6B6AC010FF050E00016919D8A4120074
:10174000F70E00016419D8A412000F0115870001DB
:10175000605100016A6F6B6B6C6B6D6B6AC017FF39
:10176000000E0001601500016A6FFF0E0001611597
:1017700000016B6F000E0001621500016C6F000E1E
:101780000001631500016D6F6AC065F06BC066F003
:101790006CC067F06DC068F066C065F067C066F049
:1017A00068C067F00001686B65C06AF066C06BF0E6
:1017B00067C06CF068C06DF06AC016FF000162A1DE
:1017C00003D00F01158102D00F011591000162A312
:1017D00003D00F01158302D00F011593000162A5FC
:1017E00003D00F01158B02D00F01159B000162A7DA
:1017F00003D00F01158D02D00F01159D000162A9C4
:1018000003D00F01158F02D00F01159F60C065F046
:1018100061C066F062C067F063C068F0160E06D063
:101820000001D8906833673366336533E82EF8D704
:1018300065C06AF066C06BF067C06CF068C06DF0A0
:1018400000016A5100016A6F6B6B6C6B6D6B6AC053
:1018500014FF12000F0140B73FD166C045FF0001E1
:1018600067AD03D00F01458D02D00F01459D0001EA
:1018700067A779D00001605100016C6F6D6B6E6BD2
:101880006F6B6CC044FF000E0001601500016C6FAF
:10189000FF0E0001611500016D6F000E0001621561
:1018A00000016E6F000E0001631500016F6F6CC0C8
:1018B00068F06DC069F06EC06AF06FC06BF069C00F
:1018C00068F06AC069F06BC06AF000016B6B68C0B9
:1018D0006CF069C06DF06AC06EF06BC06FF06CC0E8
:1018E00043FF000E0F01426F0F014287000162A10A
:1018F00002D00F014281000162A302D00F01428396
:10190000000162A502D00F01428B000162A702D044
:101910000F01428D000162A902D00F01428F60C009
:1019200068F061C069F062C06AF063C06BF0160EC7
:1019300006D00001D8906B336A3369336833E82EE0
:10194000F8D768C06CF069C06DF06AC06EF06BC00B
:101950006FF000016C5100016C6F6D6B6E6B6F6B03
:101960006CC041FF59D00F01429760C068F061C060
:1019700069F062C06AF063C06BF0040E06D000012B
:10198000D8906B336A3369336833E82EF8D768C070
:101990006CF069C06DF06AC06EF06BC06FF0000152
:1019A0006C5100016C6F6D6B6E6B6F6B6CC041FFA7
:1019B000070E0001601500016C6F000E000161153B
:1019C00000016D6F000E0001621500016E6F000EC8
:1019D0000001631500016F6F6CC068F06DC069F0A5
:1019E0006EC06AF06FC06BF0050ED89000016837CA
:1019F00069376A376B37E82EF8D768C06CF069C072
:101A00006DF06AC06EF06BC06FF00F0142511F0B9A
:101A10000F01426F6CC042FF000167A103D00F01AC
:101A2000408102D00F014091000167A303D00F0154
:101A3000408302D00F01409364C0D9FF65C0DAFF34
:101A4000DF500F01466F000120EE01F06451D926EE
:101A50006551DA22DF500F01476F000120EE02F0DE
:101A60006451D9266551DA22DF500F01486F000119
:101A700020EE03F06451D9266551DA22DF500F01C0
:101A8000496F000120EE04F06451D9266551DA2235
:101A9000DF500F014A6F000120EE05F06451D92696
:101AA0006551DA22DF500F014B6F000120EE06F086
:101AB0006451D9266551DA22DF500F014C6F0001C5
:101AC00020EE07F06451D9266551DA22DF500F016C
:101AD0004D6F0F01408712000F0130B73FD166C034
:101AE00035FF000167AD03D00F01358D02D00F0126
:101AF000359D000167A779D00001605100016C6F2E
:101B00006D6B6E6B6F6B6CC034FF000E0001601567
:101B100000016C6FFF0E0001611500016D6F000E7A
:101B20000001621500016E6F000E000163150001D7
:101B30006F6F6CC068F06DC069F06EC06AF06FC006
:101B40006BF069C068F06AC069F06BC06AF00001B0
:101B50006B6B68C06CF069C06DF06AC06EF06BC0F2
:101B60006FF06CC033FF000E0F01326F0F01328730
:101B7000000162A102D00F013281000162A302D0F4
:101B80000F013283000162A502D00F01328B0001E8
:101B900062A702D00F01328D000162A902D00F01AD
:101BA000328F60C068F061C069F062C06AF063C0E3
:101BB0006BF0160E06D00001D8906B336A33693390
:101BC0006833E82EF8D768C06CF069C06DF06AC061
:101BD0006EF06BC06FF000016C5100016C6F6D6BAB
:101BE0006E6B6F6B6CC031FF59D00F01329760C0C4
:101BF00068F061C069F062C06AF063C06BF0040E07
:101C000006D00001D8906B336A3369336833E82E0D
:101C1000F8D768C06CF069C06DF06AC06EF06BC038
:101C20006FF000016C5100016C6F6D6B6E6B6F6B30
:101C30006CC031FF070E0001601500016C6F000ED3
:101C40000001611500016D6F000E000162150001B9
:101C50006E6F000E0001631500016F6F6CC068F0BD
:101C60006DC069F06EC06AF06FC06BF0050ED89061
:101C70000001683769376A376B37E82EF8D768C0D4
:101C80006CF069C06DF06AC06EF06BC06FF00F0150
:101C900032511F0B0F01326F6CC032FF000167A180
:101CA00003D00F01308102D00F013091000167A3F2
:101CB00003D00F01308302D00F01309364C0D9FFED
:101CC00065C0DAFFDF500F01366F000120EE01F032
:101CD0006451D9266551DA22DF500F01376F0001B8
:101CE00020EE02F06451D9266551DA22DF500F014F
:101CF000386F000120EE03F06451D9266551DA22D5
:101D0000DF500F01396F000120EE04F06451D92635
:101D10006551DA22DF500F013A6F000120EE05F025
:101D20006451D9266551DA22DF500F013B6F000163
:101D300020EE06F06451D9266551DA22DF500F01FA
:101D40003C6F000120EE07F06451D9266551DA227C
:101D5000DF500F013D6F0F01308712000F0120B7D8
:101D6000120066C025FF000167AD03D00F01258D6D
:101D700002D00F01259D000167A779D000016051B5
:101D800000016C6F6D6B6E6B6F6B6CC024FF000E8F
:101D90000001601500016C6FFF0E0001611500016C
:101DA0006D6F000E0001621500016E6F000E0001E4
:101DB000631500016F6F6CC068F06DC069F06EC094
:101DC0006AF06FC06BF069C068F06AC069F06BC000
:101DD0006AF000016B6B68C06CF069C06DF06AC09E
:101DE0006EF06BC06FF06CC023FF000E0F01226F0E
:101DF0000F012287000162A102D00F0122810001A0
:101E000062A302D00F012283000162A502D00F015C
:101E1000228B000162A702D00F01228D000162A96E
:101E200002D00F01228F60C068F061C069F062C00B
:101E30006AF063C06BF0160E06D00001D8906B33C9
:101E40006A3369336833E82EF8D768C06CF069C02C
:101E50006DF06AC06EF06BC06FF000016C51000154
:101E60006C6F6D6B6E6B6F6B6CC021FF59D00F0187
:101E7000229760C068F061C069F062C06AF063C018
:101E80006BF0040E06D00001D8906B336A336933CF
:101E90006833E82EF8D768C06CF069C06DF06AC08E
:101EA0006EF06BC06FF000016C5100016C6F6D6BD8
:101EB0006E6B6F6B6CC021FF070E00016015000197
:101EC0006C6F000E0001611500016D6F000E0001C6
:101ED000621500016E6F000E0001631500016F6F47
:101EE0006CC068F06DC069F06EC06AF06FC06BF0D6
:101EF000050ED8900001683769376A376B37E82ECE
:101F0000F8D768C06CF069C06DF06AC06EF06BC045
:101F10006FF00F0122511F0B0F01226F6CC022FFC7
:101F2000000167A103D00F01208102D00F01209191
:101F3000000167A303D00F01208302D00F0120937B
:101F400064C0D9FF65C0DAFFDF500F01266F0001C2
:101F500020EE01F06451D9266551DA22DF500F01DD
:101F6000276F000120EE02F06451D9266551DA2274
:101F7000DF500F01286F000120EE03F06451D926D5
:101F80006551DA22DF500F01296F000120EE04F0C5
:101F90006451D9266551DA22DF500F012A6F000102
:101FA00020EE05F06451D9266551DA22DF500F0189
:101FB0002B6F000120EE06F06451D9266551DA221C
:101FC000DF500F012C6F000120EE07F06451D9267D
:101FD0006551DA22DF500F012D6F0F0120871200AB
:101FE000000E0B6E74BE0B8074BC0B820F0150AFE1
:101FF00043D101C0D9FF02C0DAFFDE6ADE6ADE6AC1
:10200000DD6A20EE04F00150D9260250DA2256CFC4
:10201000DFFF20EE05F00150D9260250DA2257CF1B
:10202000DFFF20EE06F00150D9260250DA2258CF09
:10203000DFFF20EE07F00150D9260250DA2259CFF7
:10204000DFFF20EE08F00150D9260250DA225ACFE5
:10205000DFFF20EE09F00150D9260250DA225BCFD3
:10206000DFFF20EE0AF00150D9260250DA225CCFC1
:10207000DFFF20EE0BF00150D9260250DA225DCFAF
:10208000DFFF20EE0EF00150D9260250DA220F01B8
:1020900055AD02D0010E01D0000EDF6E20EE0DF026
:1020A0000150D9260250DA220F0155510F0BDF6E75
:1020B00020EE0CF00150D9260250DA220F0152A76F
:1020C00002D0010E01D0000EDF6E0F0152B744D0D6
:1020D00051CF03F0046A056A066A030ED8900336EE
:1020E000043605360636E82EF9D701C0D9FF02C0FE
:1020F000DAFF03C0DEFF04C0DEFF05C0DEFF06C05E
:10210000DEFF0F015239E842070B070B0C6E01C0CE
:10211000D9FF02C0DAFFDECF03F0DECF04F0DECF5E
:1021200005F0DECF06F00C500324076E000E0420ED
:10213000086E000E0520096E000E06200A6E01C012
:10214000D9FF02C0DAFF07C0DEFF08C0DEFF09C00A
:10215000DEFF0AC0DEFF8DD054CF03F0046A056AAB
:10216000066A01C0D9FF02C0DAFF03C0DEFF04C067
:10217000DEFF05C0DEFF06C0DEFF53CF03F0046ABA
:10218000056A066A05C006F004C005F003C004F045
:10219000036A01C0D9FF02C0DAFF0350DE260450F3
:1021A000DE220550DE220650DE220F0152A10CD0A5
:1021B00001C0D9FF02C0DAFF000EDE12000EDE12EF
:1021C000010EDE12000EDE120F0152A30CD001C070
:1021D000D9FF02C0DAFF000EDE12000EDE12020E80
:1021E000DE12000EDE120F0152AB0CD001C0D9FF7F
:1021F00002C0DAFF000EDE12000EDE12040EDE1246
:10220000000EDE120F0152AD0CD001C0D9FF02C08A
:10221000DAFF000EDE12000EDE12080EDE12000ED5
:10222000DE120F0152AF0CD001C0D9FF02C0DAFF9D
:10223000000EDE12000EDE12100EDE12000EDE1296
:1022400051CF03F0046A056A066A150ED89003366A
:10225000043605360636E82EF9D701C0D9FF02C08C
:10226000DAFF0350DE120450DE120550DE12065073
:10227000DE120F01509F120060AE120001C0D9FFA4
:1022800002C0DAFFDE6ADE6ADE6ADD6A20EE04F092
:102290000150D9260250DA2266CFDFFF20EE05F08A
:1022A0000150D9260250DA2267CFDFFF20EE06F078
:1022B0000150D9260250DA2268CFDFFF20EE07F066
:1022C0000150D9260250DA2269CFDFFF20EE08F054
:1022D0000150D9260250DA226ACFDFFF20EE09F042
:1022E0000150D9260250DA226BCFDFFF20EE0AF030
:1022F0000150D9260250DA226CCFDFFF20EE0BF01E
:102300000150D9260250DA226DCFDFFF20EE0EF009
:102310000150D9260250DA2265AC02D0010E01D05C
:10232000000EDF6E20EE0DF00150D9260250DA22A9
:1023300065500F0BDF6E20EE0CF00150D9260250D5
:10234000DA2262A602D0010E01D0000EDF6E62B664
:1023500043D061CF03F0046A056A066A030ED89081
:102360000336043605360636E82EF9D701C0D9FF04
:1023700002C0DAFF03C0DEFF04C0DEFF05C0DEFFDF
:1023800006C0DEFF6238E842070B070B0C6E01C087
:10239000D9FF02C0DAFFDECF03F0DECF04F0DECFDC
:1023A00005F0DECF06F00C500324076E000E04206B
:1023B000086E000E0520096E000E06200A6E01C090
:1023C000D9FF02C0DAFF07C0DEFF08C0DEFF09C088
:1023D000DEFF0AC0DEFF88D064CF03F0046A056A1E
:1023E000066A01C0D9FF02C0DAFF03C0DEFF04C0E5
:1023F000DEFF05C0DEFF06C0DEFF63CF03F0046A28
:10240000056A066A05C006F004C005F003C004F0C2
:10241000036A01C0D9FF02C0DAFF0350DE26045070
:10242000DE220550DE220650DE2262A00CD001C062
:10243000D9FF02C0DAFF000EDE12000EDE12010E1E
:10244000DE12000EDE1262A20CD001C0D9FF02C063
:10245000DAFF000EDE12000EDE12020EDE12000E99
:10246000DE1262AA0CD001C0D9FF02C0DAFF000E52
:10247000DE12000EDE12040EDE12000EDE1262AC60
:102480000CD001C0D9FF02C0DAFF000EDE12000E30
:10249000DE12080EDE12000EDE1262AE0CD001C09B
:1024A000D9FF02C0DAFF000EDE12000EDE12100E9F
:1024B000DE12000EDE1261CF03F0046A056A066ABE
:1024C000150ED8900336043605360636E82EF9D7B1
:1024D00001C0D9FF02C0DAFF0350DE120450DE1241
:1024E0000550DE120650DE12609E12002EBE54D23F
:1024F0002E502D102C1004E1020E2B5CD8A04CD2D3
:1025000066EC29F0E806D8A4FBD7060E0001606F40
:10251000000E616F000E626F000E636F1F0E0001F0
:10252000646F010E0001656F080E0001666FFC0EFE
:102530000001676F2AEC0CF040A21BD20001FD05E0
:102540000001FE11D8A406D0FC0E0001606F7F0EC2
:1025500069EC28F00001FD510001FE11D8A406D05D
:10256000FC0E0001606FFF0E69EC28F04092000144
:10257000FB510001F7250101276F0001FC5100010B
:10258000F8210101286FD8900101283101012A6F3B
:10259000010127310101296F29C1DFF02AC1E0F0D3
:1025A0000001E16BE26B0001DF510001E01100016D
:1025B000E1110001E211D8A40CD0030E0001616FFB
:1025C000E80E606FDDEC28F0030E0001FA6FE80EF4
:1025D000F96F2BC027F12CC028F10101271F281FFC
:1025E000274B282B0001DF51010127250001606FD7
:1025F0000001E051010128210001616F50EC29F038
:1026000060C0F5F061C0F6F0B90E0001F55D0B0E8B
:102610000001F659D8A058D0000E0001636FC80E13
:10262000626FF5C060F0F6C061F0FFEC27F00001CA
:1026300060C067F0000161C068F00001696B6A6BFF
:10264000000ED2EC20F067C02FF168C030F169C0F5
:1026500031F16AC032F12FC1C9F030C1CAF031C1C5
:10266000CBF032C1CCF0000E0001C56F000EC66F7A
:10267000000EC76F400EC86FD2EC1FF0C5C033F11B
:10268000C6C034F1C7C035F1C8C036F1000E000134
:10269000926F000E936F800E946FBF0E956F33C1D3
:1026A0008EF034C18FF035C190F036C191F0D4EC8A
:1026B00014F08EC0A2F08FC0A3F090C0A4F091C01F
:1026C000A5F0D9EC25F0B7D0D10E0001F55D070ECD
:1026D0000001F659D8A058D0000E0001636F960E85
:1026E000626FF5C060F0F6C061F0FFEC27F000010A
:1026F00060C067F0000161C068F00001696B6A6B3F
:10270000000ED2EC20F067C02FF168C030F169C034
:1027100031F16AC032F12FC1C9F030C1CAF031C104
:10272000CBF032C1CCF0000E0001C56F000EC66FB9
:10273000000EC76F400EC86FD2EC1FF0C5C033F15A
:10274000C6C034F1C7C035F1C8C036F1000E000173
:10275000926F000E936F800E946FBF0E956F33C112
:102760008EF034C18FF035C190F036C191F0D4ECC9
:1027700014F08EC0A2F08FC0A3F090C0A4F091C05E
:10278000A5F0D9EC25F057D0000E0001636F640E60
:10279000626FF5C060F0F6C061F0FFEC27F0000159
:1027A00060C067F0000161C068F00001696B6A6B8E
:1027B000000ED2EC20F067C02FF168C030F169C084
:1027C00031F16AC032F12FC1C9F030C1CAF031C154
:1027D000CBF032C1CCF0000E0001C56F000EC66F09
:1027E000000EC76F400EC86FD2EC1FF0C5C033F1AA
:1027F000C6C034F1C7C035F1C8C036F1000E0001C3
:10280000926F000E936F800E946FBF0E956F33C161
:102810008EF034C18FF035C190F036C191F0D4EC18
:1028200014F08EC0A2F08FC0A3F090C0A4F091C0AD
:10283000A5F0D9EC25F0A2C0DBF0A3C0DCF0A4C069
:10284000DDF0A5C0DEF02BC027F12CC028F12DC093
:1028500029F12EC02AF10101271F281F291F2A1F35
:10286000272B000E282329232A230001DF510101F1
:10287000272501012B6F0001E051010128210101F1
:102880002C6F0001E1510101292101012D6F00018F
:10289000E25101012A2101012E6F01012EBF3BD01F
:1028A00001012E5101012D1101012C1104E1010141
:1028B0002B05D8A030D0DBC027F1DCC028F1DDC06B
:1028C00029F1DEC02AF10101271F281F291F2A1F15
:1028D000272B000E282329232A230001F951010167
:1028E00027250001E36F0001FA51010128210001B1
:1028F000E46F000E010129210001E56F000E0101C6
:102900002A210001E66F0001E6AF33D0000E00017E
:10291000E36F000E29D00001F9510001DB25000111
:10292000E36F0001FA510001DC210001E46F000EA9
:102930000001DD210001E56F000E0001DE21000134
:10294000E66F0001E6BF15D00001E6510001E51178
:1029500007E10001E329030E0001E459D8A009D0E2
:10296000FF0E0001E36F030EE46F000EE56F000E33
:10297000E66FE3C0F9F0E4C0FAF0EFC0EBF0F0C0AE
:10298000ECF0F1C0EDF0F2C0EEF0E3C060F0E4C0B6
:1029900061F0DDEC28F01200000E0001616F000E06
:1029A000606FDDEC28F0120000019151800B0001F6
:1029B0009E6F0001915191250001A06F000190AF21
:1029C00002D00001A0810001A0510001D8B412D0B2
:1029D0000001A029D8A409D0000E00018E6F000EBE
:1029E0008F6F000E906F000E916F0001908F000EA0
:1029F000000108D0000E00018E6F000E8F6F000ED8
:102A0000906F000E916F00019551800B00019F6F38
:102A100000019E5100019F19D8B402D000019E8D83
:102A200000019551952500019F6F000194AF02D0E0
:102A300000019F8100019F510001D8B412D0000114
:102A40009F29D8A409D0000E0001926F000E936F49
:102A5000000E946F000E956F0001948F000E000120
:102A600008D0000E0001926F000E936F000E946F5D
:102A7000000E956F0001A05100019F5DD8B024D0D9
:102A800000019EAD03D0800E00019E1BA0C0A1F0EE
:102A90009FC0A0F0A1C09FF08EC0A1F092C08EF0A8
:102AA000A1C092F08FC0A1F093C08FF0A1C093F0AD
:102AB00090C0A1F094C090F0A1C094F091C0A1F09A
:102AC00095C091F0A1C095F0000E0001A16F00012A
:102AD000A0510001966F976B0001961F971F964BB0
:102AE000972B00019F510001986F996B000196513F
:102AF000000198270001975100019923000199BF17
:102B00003DD00001995105E11A0E0001985DD8A051
:102B100035D000018E5100018F110001901100018C
:102B20009111D8B402D0010E01D0000E0001A16FA6
:102B3000000E00018E6F000E8F6F000E906F000E62
:102B4000916F9FC0A0F020D00001A1A107D000018B
:102B5000D890A13101090001A16F03D00001D890E4
:102B6000A13300018EA102D00001A18F0001913597
:102B7000913390338F338E330001A02B00019F518E
:102B80000001A05DD8A0E0D700019EBD3FD00001AC
:102B9000A0510001D8A40AD0000E00018E6F000ED3
:102BA0008F6F000E906F000E916F12000001925116
:102BB00000018E270001935100018F2300019451E1
:102BC000000190230001955100019123000191A182
:102BD000CCD00001A1A109D00001D890A1330001FF
:102BE000A15101090001A16F03D00001D890A133C8
:102BF00000018EA102D00001A18F00019135913317
:102C000090338F338E330001A02BAFD0000192514F
:102C100000018E5D0001935100018F590001945114
:102C20000001905900019151800A0001966F000146
:102C30009551800A00019659D8B050D08EC096F0B8
:102C40008FC097F090C098F091C099F00001961F46
:102C5000971F981F991F962B000E9723982399234F
:102C6000000192510001962500019A6F00019351D5
:102C70000001972100019B6F0001945100019821F0
:102C800000019C6F000195510001992100019D6F89
:102C9000FF0E00019A2500018E6FFF0E00019B219F
:102CA00000018F6FFF0E00019C210001906FFF0E4D
:102CB00000019D210001916F800E00019E1B00010B
:102CC000A16D0001A1510001D8A418D0010E00018E
:102CD0008E27000E8F239023912310D00001925154
:102CE00000018E5F0001935100018F5B0001945140
:102CF0000001905B000195510001915B00018E5134
:102D000000018F110001901100019111D8A42AD067
:102D10000001A1510001D8A425D0000E00018E6F42
:102D2000000E8F6F000E906F000E916F1200000169
:102D3000D8908E378F37903791370001A1AF02D0EE
:102D400000018E810001A1A103D0D880000102D032
:102D50000001D890A1370001A0510001D8B402D0E1
:102D60000001A007000190AFE2D7000E00019F6FA5
:102D70000001A1AF0DD0A1C096F07F0E0001961703
:102D8000D8A403D000018EA103D0010E00019F6FD3
:102D900000019F510001D8B426D0010E00018E27FA
:102DA000000E8F2390239123000191A11CD08EC08F
:102DB00096F08FC097F090C098F091C099F0000104
:102DC0009935993398339733963396C08EF097C0E0
:102DD0008FF098C090F099C091F00001A029D8B46C
:102DE00002D00001A02B0001A029D8B405D0000119
:102DF000A0510001D8A411D0000E00018E6F000E6A
:102E00008F6F000E906F000E916F0001A0510001B6
:102E1000D8A403D0000E00019E6F0001A0A103D032
:102E20000001908F02D00001909F0001D890A03146
:102E30000001916F00019EAF02D00001918F8EC002
:102E40008EF08FC08FF090C090F091C091F0120082
:102E500000017851800B0001816F000178517825C5
:102E60000001876F000177AF02D000018781000168
:102E700087510001D8B410D000018729D8A409D007
:102E8000000E0001756F000E766F000E776F000E5A
:102E9000786F0001778F09D0000E0001756F000E6A
:102EA000766F000E776F000E786F00017C51800BFB
:102EB0000001811B00017C517C250001826F000113
:102EC0007BAF02D000018281000182510001D8B4A1
:102ED00010D000018229D8A409D0000E0001796F1A
:102EE000000E7A6F000E7B6F000E7C6F00017B8FEF
:102EF00009D0000E0001796F000E7A6F000E7B6F13
:102F0000000E7C6F000182510001D8B405D0000191
:102F100087510001D8A40AD0000E0001756F000E81
:102F2000766F000E776F000E786F120000017B51F4
:102F300000017503F3CF8CF0F4CF8DF000018C51BC
:102F40000001836F846B856B866B00018D510001DE
:102F5000886F896B8A6B8B6B00017A510001760355
:102F6000F3CF8CF0F4CF8DF000018C51000183275A
:102F7000000E84238523862300018D5100018827BC
:102F8000000E89238A238B230001795100017703E6
:102F9000F3CF8CF0F4CF8DF000018C51000183272A
:102FA000000E84238523862300018D51000188278C
:102FB000000E89238A238B2385C086F084C085F088
:102FC00083C084F00001836B000179510001760316
:102FD000F3CF8CF0F4CF8DF000018C5100018327EA
:102FE00000018D5100018423000E00018523000E95
:102FF0000001862300017A5100017503F3CF8CF0A4
:10300000F4CF8DF000018C510001832700018D5118
:1030100000018423000E00018523000E0001862399
:1030200085C086F084C085F083C084F00001836B86
:103030000001795100017503F3CF8CF0F4CF8DF0CE
:1030400000018C510001832700018D510001842370
:10305000000E00018523000E0001862300017B5134
:1030600000017603F3CF8CF0F4CF8DF000018C518A
:103070000001882700018D5100018923000E000105
:103080008A23000E00018B2300017A51000177038F
:10309000F3CF8CF0F4CF8DF000018C510001882724
:1030A00000018D5100018923000E00018A23000ECA
:1030B00000018B2300017B5100017703F3CF8CF0DB
:1030C000F4CF8DF000018C5100017D6F00018D5116
:1030D00000017E6F00017F6B0001806B7FC080F07C
:1030E0007EC07FF07DC07EF000017D6B00017D51D0
:1030F0000001882700017E510001892300017F51D2
:1031000000018A230001805100018B2383C07DF0E0
:1031100084C07EF085C07FF086C080F0190E06D096
:103120000001D89080337F337E337D33E82EF8D78B
:1031300000017D510001882700017E510001892393
:1031400000017F5100018A230001805100018B237F
:1031500085C086F084C085F083C084F00001836B55
:103160000001825187C07DF000017E6B00017D2748
:10317000000E7E23820E00017D2500018C6FFF0E64
:1031800000017E2100018D6F15D00001D890883795
:1031900089378A378B37000186AF02D000018881DA
:1031A0000001D890833784378537863700018C0734
:1031B000D8A08D0700018AAFE8D7000E0001826F0A
:1031C000000186AF24D0FF0E0001831500017D6F42
:1031D000FF0E0001841500017E6FFF0E00018515B2
:1031E00000017F6F7F0E000186150001806F0001D6
:1031F0007D5100017E1100017F1100018011D8A4D2
:1032000003D0000188A103D0010E0001826F0001EC
:1032100082510001D8B423D0010E00018827000E8E
:1032200089238A238B2300018BA119D088C07DF0CC
:1032300089C07EF08AC07FF08BC080F000018035AD
:1032400080337F337E337D337DC088F07EC089F04C
:103250007FC08AF080C08BF000018C4B8D2B000169
:103260008DBF10D000018D5104E100018C29D8A040
:1032700009D0000E0001886F000E896F800E8A6FE2
:103280007F0E2BD000018DBF07D000018D5111E1C1
:1032900000018C05D8B00DD0000E0001886F000E23
:1032A000896F000E8A6F000E8B6F000E0001816F18
:1032B00015D08CC087F0FF0E00018817FF0E89170C
:1032C0007F0E8A17000E8B17000187A102D0000124
:1032D0008A8F0001D890873100018B6F00018151E6
:1032E00000018B1388C075F089C076F08AC077F032
:1032F0008BC078F0120000016351800B00016C6FED
:103300000001635163250001776F000162AF02D0B5
:1033100000017781000177510001D8B412D000017B
:103320007729D8A409D0000E0001606F000E616FEC
:10333000000E626F000E636F0001628F000E0001CD
:1033400008D0000E0001606F000E616F000E626F0A
:10335000000E636F00016751800B00016C1B0001C0
:10336000675167250001786F000166AF02D0000148
:103370007881000178510001D8B412D00001782979
:10338000D8A409D0000E0001646F000E656F000E16
:10339000666F000E676F0001668F000E000108D097
:1033A000000E0001646F000E656F000E666F000E68
:1033B000676F000164510001651100016611000191
:1033C0006711D8A417D0000E0001606F000E616F66
:1033D000000E626F000E636F0001800E62137F0E9D
:1033E000631360C060F061C061F062C062F063C0EE
:1033F00063F01200000177510001D8A412D0000E32
:103400000001606F000E616F000E626F000E636F4F
:1034100060C060F061C061F062C062F063C063F0E0
:103420001200000178510001686F696B0001681F8C
:10343000691F684B692B0001775100016A6F6B6B44
:103440000001685100016A270001695100016B23E6
:103450007F0E00016A250001716F000E00016B21D3
:103460000001726F60C06DF061C06EF062C06FF0FD
:1034700063C070F0000E0001606F000E616F000EFF
:10348000626F000E636F000E0001736F000E746FA9
:10349000000E756F000E766F000E0001786F42D03F
:1034A000000178510001D8B417D00001D8906D37D1
:1034B0006E376F3770370001D890603761376237E9
:1034C0006337000176AF02D0000160810001D8901F
:1034D00073377437753776370001645100016D5DBD
:1034E0000001655100016E590001665100016F59DC
:1034F0000001675100017059D8A012D00001768DEB
:103500000001645100016D5F0001655100016E5BB7
:103510000001665100016F5B000167510001705BA3
:103520000001782B190E00017865BAD700016D51A2
:1035300000016E1100016F1100017011D8B418D094
:103540000001738115D00001D89060376137623770
:103550006337000176AF02D0000160810001D8908E
:10356000733774377537763700017107D8A0720743
:10357000000162AFE8D7000E0001786F000176AF5E
:1035800024D0FF0E000173150001686FFF0E0001CB
:1035900074150001696FFF0E0001751500016A6F57
:1035A0007F0E0001761500016B6F0001685100016C
:1035B000691100016A1100016B11D8A403D0000148
:1035C00060A103D0010E0001786F00017851000165
:1035D000D8B423D0010E00016027000E61236223BE
:1035E0006323000163A119D060C068F061C069F075
:1035F00062C06AF063C06BF000016B356B336A33F5
:103600006933683368C060F069C061F06AC062F015
:103610006BC063F00001714B722B000172BF14D0BC
:103620000001725104E100017129D8A00DD0000EF3
:103630000001726F7169000E0001606F000E616F12
:10364000000E626F000E636F000172BF07D00001B1
:10365000725115E100017105D8B011D0000E0001C2
:10366000726F000E716F000E0001606F000E616FCF
:10367000000E626F000E636F000E00016C6F71C070
:1036800077F0000177A103D00001628F02D0000122
:10369000629F0001D89077310001636F00016C5187
:1036A0000001631360C060F061C061F062C062F04D
:1036B00063C063F012000001696F00016905D8A4BE
:1036C00056D000016429D8A452D060C065F061C012
:1036D00066F062C067F063C068F0040E06D00001B7
:1036E000D8906833673366336533E82EF8D765C002
:1036F0006AF066C06BF067C06CF068C06DF00001E6
:103700006A5100016A6F6B6B6C6B6D6B6AC018FF5E
:10371000070E0001601500016A6F000E00016115BF
:1037200000016B6F000E0001621500016C6F000E4E
:103730000001631500016D6F6AC065F06BC066F033
:103740006CC067F06DC068F0050ED8900001653759
:10375000663767376837E82EF8D765C06AF066C005
:103760006BF067C06CF068C06DF06AC019FF020EA4
:1037700000016919D8A456D000016429D8A452D0F8
:1037800060C065F061C066F062C067F063C068F059
:10379000040E06D00001D890683367336633653372
:1037A000E82EF8D765C06AF066C06BF067C06CF0B1
:1037B00068C06DF000016A5100016A6F6B6B6C6B41
:1037C0006D6B6AC01CFF070E0001601500016A6F77
:1037D000000E0001611500016B6F000E0001621503
:1037E00000016C6F000E0001631500016D6F6AC06F
:1037F00065F06BC066F06CC067F06DC068F0050ED8
:10380000D89000016537663767376837E82EF8D7F4
:1038100065C06AF066C06BF067C06CF068C06DF0A0
:103820006AC01DFF00016905D8A487D0F70E00010A
:103830006419D8A482D00001605100016A6F6B6BDB
:103840006C6B6D6B6AC01BFF000E00016015000100
:103850006A6FFF0E0001611500016B6F000E000121
:10386000621500016C6F000E0001631500016D6FA1
:103870006AC065F06BC066F06CC067F06DC068F040
:1038800066C065F067C066F068C067F00001686BED
:1038900065C06AF066C06BF067C06CF068C06DF020
:1038A0006AC01AFF000162A103D00F01198102D082
:1038B0000F011991000162A303D00F01198302D0F7
:1038C0000F011993000162A503D00F01198B02D0DB
:1038D0000F01199B000162A703D00F01198D02D0BF
:1038E0000F01199D000162A903D00F01198F02D0A9
:1038F0000F01199F60C065F061C066F062C067F09B
:1039000063C068F0160E06D00001D89068336733A4
:1039100066336533E82EF8D765C06AF066C06BF091
:1039200067C06CF068C06DF000016A5100016A6FF9
:103930006B6B6C6B6D6B6AC018FF020E000169192E
:10394000D8A41200F70E00016419D8A412000001D7
:10395000605100016A6F6B6B6C6B6D6B6AC01FFF0F
:10396000000E0001601500016A6FFF0E0001611575
:1039700000016B6F000E0001621500016C6F000EFC
:103980000001631500016D6F6AC065F06BC066F0E1
:103990006CC067F06DC068F066C065F067C066F027
:1039A00068C067F00001686B65C06AF066C06BF0C4
:1039B00067C06CF068C06DF06AC01EFF000162A1B4
:1039C00003D00F011D8102D00F011D91000162A3E0
:1039D00003D00F011D8302D00F011D93000162A5CA
:1039E00003D00F011D8B02D00F011D9B000162A7A8
:1039F00003D00F011D8D02D00F011D9D000162A992
:103A000003D00F011D8F02D00F011D9F60C065F014
:103A100061C066F062C067F063C068F0160E06D041
:103A20000001D8906833673366336533E82EF8D7E2
:103A300065C06AF066C06BF067C06CF068C06DF07E
:103A400000016A5100016A6F6B6B6C6B6D6B6AC031
:103A50001CFF120019EC27F080828282010E000107
:103A6000676FF40E666F36EC29F0809282927E0EBC
:103A700078EC29F0FA0E0001DA6F0001DA519FECC0
:103A800029F04082FC0E0001606F7F0E69EC28F087
:103A900071EC27F080B239D0EBC037F1ECC038F1CF
:103AA000EDC039F1EEC03AF10101371F381F391F5F
:103AB0003A1F372B000E382339233A230001EF51E8
:103AC0000101372501013B6F0001F051010138214F
:103AD00001013C6F0001F1510101392101013D6FEC
:103AE0000001F25101013A2101013E6F01013E51F5
:103AF00001013D1101013C1105E1140E01013B5D85
:103B0000D8A00AD076EC12F007D0000E0001616F49
:103B1000000E606FDDEC28F03FB03FAC02D092ECBD
:103B200028F0E7C037F1E8C038F1E9C039F1EAC060
:103B30003AF10101371F381F391F3A1F372B000E8A
:103B4000382339233A230001EF51010137250101C0
:103B50003B6F0001F0510101382101013C6F000170
:103B6000F1510101392101013D6F0001F2510101C3
:103B70003A2101013E6F01013E5101013D1140E139
:103B8000F50E01013B5D010E01013C59D8B038D062
:103B900080A27AD0E7C037F1E8C038F1E9C039F146
:103BA000EAC03AF10101371F381F391F3A1F372B7E
:103BB000000E382339233A230001EF510101372544
:103BC00001013B6F0001F0510101382101013C6FFF
:103BD0000001F1510101392101013D6F0001F25154
:103BE00001013A2101013E6F01013E5101013D11E8
:103BF00001013C1105E1060E01013B5DD8A044D056
:103C000040B01ED066EC29F0E806D8A4FBD7020E1F
:103C10000001606F000E616F000E626F000E636F37
:103C2000370E0001646F000E0001656F080E000181
:103C3000666FFC0E0001676F2AEC0CF040801CD010
:103C40003FB23FA607D03FA405D03F923F963F9496
:103C5000809211D08082000E0001676FC80E666FDF
:103C600036EC29F08092000E0001676FC80E666F77
:103C700036EC29F080824090EFC0E7F0F0C0E8F029
:103C8000F1C0E9F0F2C0EAF027C037F128C038F1FE
:103C900029C039F12AC03AF10101371F381F391FF5
:103CA0003A1F372B000E382339233A230001EF51F6
:103CB0000101372501013B6F0001F051010138215D
:103CC00001013C6F0001F1510101392101013D6FFA
:103CD0000001F25101013A2101013E6F01013E5103
:103CE00001013D1101013C1105E1650E01013B5D42
:103CF000D8A0CED6B8EC27F0EFC027F0F0C028F05F
:103D0000F1C029F0F2C02AF0C3D60001BA51000177
:103D1000BB110001BC110001BD11D8A40AD0000ED6
:103D20000001BA6F000EBB6F800EBC6F3F0EBD6FFF
:103D30001200180E0001606F720E616F310E626F1B
:103D4000440E636FBAC064F0BBC065F0BCC066F0DF
:103D5000BDC067F09CEC22F00001D8B00FD0000E7F
:103D60000001F46F220EF36FFF0E0001BA6FFF0E19
:103D7000BB6F7F0EBC6F7F0EBD6F1200BAC060F0CC
:103D8000BBC061F0BCC062F0BDC063F0870E000133
:103D9000646F480E656F3A0E666FC40E676F9CECD9
:103DA00022F00001D8B00FD0000E0001F46F220EF7
:103DB000F36F000E0001BA6F000EBB6F000EBC6FF8
:103DC000000EBD6F12000001BDAF02D0010E01D088
:103DD000000E0001C46F0001C4510001D8B412D01C
:103DE000BAC060F0BBC061F0BCC062F0BDC063F09F
:103DF000FFEC28F060C0BAF061C0BBF062C0BCF05C
:103E000063C0BDF0BAC075F0BBC076F0BCC077F03F
:103E1000BDC078F03B0E0001796FAA0E7A6FB80E24
:103E20007B6F3F0E7C6F28EC17F075C0BAF076C040
:103E3000BBF077C0BCF078C0BDF0BAC0ACF0BBC07E
:103E4000ADF0BCC0AEF0BDC0AFF0BBEC24F0ACC078
:103E5000BEF0ADC0BFF0AEC0C0F0AFC0C1F0BEC0DC
:103E6000A2F0BFC0A3F0C0C0A4F0C1C0A5F0D9ECBF
:103E700025F0A2C0C2F0A3C0C3F0BAC0A2F0BBC07C
:103E8000A3F0BCC0A4F0BDC0A5F0C2C067F0C3C021
:103E900068F00001000E68BFFF0E696F6A6F010EC7
:103EA000D2EC20F067C0A6F068C0A7F069C0A8F007
:103EB0006AC0A9F0B9EC28F0A2C0BAF0A3C0BBF068
:103EC000A4C0BCF0A5C0BDF0BAC0A2F0BBC0A3F0B6
:103ED000BCC0A4F0BDC0A5F0010E0001A66F0D0E80
:103EE0000001A76F000E0001A96F090EA86F4DEC2D
:103EF00025F0A2C0B2F0A3C0B3F0A4C0B4F0A5C036
:103F0000B5F0C2C0B6F0C3C0B7F029EC24F0B2C01F
:103F1000BAF0B3C0BBF0B4C0BCF0B5C0BDF0000196
:103F2000C4510001D8B435D00001BA2916E100010E
:103F3000BB2913E17F0E0001BC190FE17F0E0001C8
:103F4000BD19D8A40AD0000E0001BA6F000EBB6FD5
:103F5000000EBC6F000EBD6F1200000E0001606FFE
:103F6000000E616F800E626F3F0E636FBAC064F027
:103F7000BBC065F0BCC066F0BDC067F07BEC19F05B
:103F800060C0BAF061C0BBF062C0BCF063C0BDF0FD
:103F90001200BAC0BAF0BBC0BBF0BCC0BCF0BDC020
:103FA000BDF01200000E0001D56F0001C5510001E7
:103FB000C6110001C7110001C811D8A425D0000EF8
:103FC0000001606F000E616F000E626F000E636F84
:103FD000C9C064F0CAC065F0CBC066F0CCC067F061
:103FE0009CEC22F00001D8A005D0000E0001F46F77
:103FF000210EF36F000E0001C56F000EC66F000E9C
:10400000C76F000EC86F12000001C9510001CA112C
:104010000001CB110001CC11D8A40AD0000E000180
:10402000C56F000EC66F800EC76F3F0EC86F1200BF
:104030000001C8AF58D0C9C0A2F0CAC0A3F0CBC01D
:10404000A4F0CCC0A5F0D9EC25F0A2C0D6F0A3C056
:10405000D7F0A4C0D8F0A5C0D9F0D6C067F0D7C0BB
:1040600068F0D8C069F0D9C06AF0000ED2EC20F038
:104070000001C9510001671910E10001CA51000196
:1040800068190BE10001CB510001691906E100013B
:10409000CC5100016A19D8B40FD0000E0001F46FA2
:1040A000210EF36F000E0001C56F000EC66F000EEB
:1040B000C76F000EC86F12000001D651010B00013E
:1040C000D56FC5C060F0C6C061F0C7C062F0C8C09F
:1040D00063F0FFEC28F060C0C5F061C0C6F062C0BC
:1040E000C7F063C0C8F0C5C0B2F0C6C0B3F0C7C067
:1040F000B4F0C8C0B5F064EC23F0B2C0CDF0B3C0EA
:10410000CEF0B4C0CFF0B5C0D0F0CDC075F0CEC009
:1041100076F0CFC077F0D0C078F0C9C079F0CAC0CF
:104120007AF0CBC07BF0CCC07CF028EC17F075C0E7
:10413000D1F076C0D2F077C0D3F078C0D4F0D1C03F
:10414000BAF0D2C0BBF0D3C0BCF0D4C0BDF085EC97
:104150001EF0BAC0C5F0BBC0C6F0BCC0C7F0BDC041
:10416000C8F00001D5510001D8B413D0C5C060F02B
:10417000C6C061F0C7C062F0C8C063F0FFEC28F0B1
:1041800060C0C5F061C0C6F062C0C7F063C0C8F0CF
:104190001200C5C0C5F0C6C0C6F0C7C0C7F0C8C0D1
:1041A000C8F0120000016F6F00016F510001D8B418
:1041B0001ED000016AAF1BD067C06BF068C06CF006
:1041C00069C06DF06AC06EF000016B1F6C1F6D1F3F
:1041D0006E1F6B2B000E6C236D236E236BC071F072
:1041E0006CC072F06DC073F06EC074F008D067C020
:1041F00071F068C072F069C073F06AC074F00001B9
:104200006751000168110001691100016A11D8A409
:104210000AD0000E0001676F000E686F000E696F14
:10422000000E6A6F1200960E0001706F08D0000138
:10423000702B0001D8907433733372337133000ED6
:104240000001711500016B6F000E00017215000175
:104250006C6F000E0001731500016D6FFE0E000102
:10426000741500016E6F00016B5100016C110001AB
:104270006D1100016E11D8B410D0D9D70001702B88
:10428000010E00017127000E7223732374230001B5
:10429000D8907433733372337133000E000171158B
:1042A00000016B6F000E0001721500016C6F000EB3
:1042B0000001731500016D6FFF0E00017415000100
:1042C0006E6F00016B5100016C1100016D11000156
:1042D0006E11D8B409D0D2D7000170070001D89070
:1042E0007137723773377437000173BF04D0020E11
:1042F00000017061F1D7000170B109D0FF0E00011B
:104300007117FF0E72177F0E7317FF0E74170001DF
:10431000D890703370C06BF000016C6B6D6B6E6B7E
:104320006BC06EF000016D6B6C6B6B6B00016B51C1
:104330000001711300016C510001721300016D51F5
:104340000001731300016E510001741300016F51DD
:104350000001D8B405D000016AAF02D00001748F0B
:1043600071C067F072C068F073C069F074C06AF021
:1043700012000001776F800E89EC29F0000E706E3C
:10438000000E716E000E726E00017041E842C00BAB
:104390000001706F000170517012000171517012B4
:1043A00000017751711200016E39E842F80B0001EB
:1043B0006E6F00016E517112000172A5718C0001C7
:1043C00072B1718E00016F517212000172B3728C62
:1043D00000017251600B606E00017251100BFF0AF8
:1043E000D8B4608460CF50FF000E0001606F000EF3
:1043F000616F000E626F000E636FF70E0001646F55
:10440000010E5BEC1BF0000E0001606F000E616F8F
:10441000000E626F000E636FF70E0001646F020EF4
:104420005BEC1BF00FD0F70E0001786F07D0000196
:1044300078690001796928D000017869F70E0001D8
:10444000796F22D09F0E0001736FFF0E0001746F11
:1044500000017251600B0001756F766B00017351A2
:1044600000017513000174510001761300017651AB
:10447000000AD8A4E1D700017551BF0AD8B4D7D734
:10448000600AD8B4D0D7D8D7000E0001606F000EF4
:10449000616F000E626F000E636F78C064F0000EF3
:1044A000A7EC06F0000E0001606F000E616F000EB9
:1044B000626F000E636F78C064F0010EA7EC06F027
:1044C000000E0001606F000E616F000E626F000E43
:1044D000636F79C064F0020EA7EC06F0000E0001D5
:1044E000606F000E616F000E626F000E636F79C027
:1044F00064F0030EA7EC06F0000E0001606F000EE2
:10450000616F000E626F000E636F79C064F0040E7D
:10451000A7EC06F0000E0001606F000E616F000E48
:10452000626F000E636F79C064F0050EA7EC06F0B1
:10453000000E89EC29F01200000E00016015000148
:10454000686F000E000161150001696F800E0001A7
:10455000621500016A6F7F0E0001631500016B6F29
:10456000000168510001691100016A1100016B111D
:10457000D8A409D0000E0001606F000E616F000E1C
:10458000626F000E636F000E000164150001686F1A
:10459000000E000165150001696F800E00016615AF
:1045A00000016A6F7F0E0001671500016B6F00014B
:1045B00068510001691100016A1100016B11D8A452
:1045C00009D0000E0001646F000E656F000E666F6B
:1045D000000E676F000163AF26D060C068F061C055
:1045E00069F062C06AF063C06BF00001681F691F68
:1045F0006A1F6B1F682B000E69236A236B23000E52
:10460000000168250001606F000E000169210001B2
:10461000616F000E00016A210001626F800E0001CF
:104620006B210001636F000167AF26D064C068F0A2
:1046300065C069F066C06AF067C06BF00001681F72
:10464000691F6A1F6B1F682B000E69236A236B2387
:10465000000E000168250001646F000E0001692151
:104660000001656F000E00016A210001666F800E77
:1046700000016B210001676F000E0001601B000E3E
:10468000611B000E621B800E631B000E0001641B89
:10469000000E651B000E661B800E671B0001645137
:1046A0000001605D00016551000161590001665122
:1046B000000162590001675100016359D8B002D06E
:1046C000D8901200D88012000001B5AF0FD0000EB4
:1046D0000001F46F210EF36F000E0001B26F000EA7
:1046E000B36F000EB46F000EB56F12000001B2512F
:1046F0000001B3110001B4110001B511D8A40FD00D
:10470000000E0001F46F220EF36F000E0001B26F75
:10471000000EB36F000EB46F000EB56F1200000EE6
:104720000001796F000E7A6F000E7B6F400E7C6F78
:10473000B60E0001646F000E0001656FB2C060F03C
:10474000B3C061F0B4C062F0B5C063F0BEEC26F057
:1047500060C075F061C076F062C077F063C078F039
:1047600028EC17F075C08EF076C08FF077C090F00F
:1047700078C091F0000E0001926F000E936F800ED2
:10478000946FBF0E956FD4EC14F08EC0B2F08FC052
:10479000B3F090C0B4F091C0B5F00001B607D8A056
:1047A000B707B2C0A2F0B3C0A3F0B4C0A4F0B5C0C4
:1047B000A5F0290E0001A66F0D0E0001A76F000ED7
:1047C0000001A96F080EA86F4DEC25F0A2C0B2F051
:1047D000A3C0B3F0A4C0B4F0A5C0B5F0180E00019A
:1047E000796F720E7A6F310E7B6F3F0E7C6FB6C0A1
:1047F00067F0B7C068F00001000E68BFFF0E696F78
:104800006A6F010ED2EC20F067C075F068C076F0D8
:1048100069C077F06AC078F028EC17F075C08EF0A8
:1048200076C08FF077C090F078C091F0B2C092F06F
:10483000B3C093F0B4C094F0B5C095F0D4EC14F0CC
:104840008EC0B2F08FC0B3F090C0B4F091C0B5F09C
:1048500012000001B2510001B3110001B4110001B6
:10486000B511D8A40AD0000E0001B26F000EB36FCC
:10487000000EB46F000EB56F12000001B5517F0B32
:104880000001B86FB96BD8900001B837B937000193
:10489000B8510001B6270001B9510001B72300014A
:1048A000B4AF04D00001B86BB82B02D00001B86BD4
:1048B0000001B8510001B627000EB7230001B7AFC1
:1048C0000FD0000E0001F46F220EF36F000E0001F6
:1048D000B26F000EB36F000EB46F000EB56F120012
:1048E0000001B7BF1ED00001B705D8A01AD0000E36
:1048F0000001F46F220EF36F0001B5AF09D0FF0E77
:104900000001B26FFF0EB36F7F0EB46FFF0EE6D7DC
:10491000FF0E0001B26FFF0EB36F7F0EB46F7F0EFC
:10492000DDD70001B735B7310001B96F0001B631ED
:104930000001B86F0001B5510001B819800BB8191A
:104940000001B56FB6C0B8F0010E0001B817000144
:10495000B833B8330001B4510001B8197F0BB8194E
:104960000001B46FB2C0B2F0B3C0B3F0B4C0B4F0E1
:10497000B5C0B5F01200ACC060F0ADC061F0AEC023
:1049800062F0AFC063F0B40E0001646F000E00016E
:10499000656FBEEC26F00001B5AF17D00001AFAFD8
:1049A0000AD0000E0001AC6F000EAD6F800EAE6F2E
:1049B000BF0EAF6F1200000E0001AC6F000EAD6FA6
:1049C000000EAE6F000EAF6F12000001B55105E191
:1049D0001D0E0001B45DD8A009D0ACC0ACF0ADC0D4
:1049E000ADF0AEC0AEF0AFC0AFF01200ACC0A2F000
:1049F000ADC0A3F0AEC0A4F0AFC0A5F0D9EC25F0D7
:104A0000A2C067F0A3C068F0A4C069F0A5C06AF0B6
:104A1000010ED2EC20F067C0B0F068C0B1F069C000
:104A2000B2F06AC0B3F0ACC060F0ADC061F0AEC02F
:104A300062F0AFC063F0B0C064F0B1C065F0B2C066
:104A400066F0B3C067F09CEC22F00001D8B01CD037
:104A5000B0C08EF0B1C08FF0B2C090F0B3C091F092
:104A6000000E0001926F000E936F800E946FBF0EC8
:104A7000956FD4EC14F08EC0ACF08FC0ADF090C048
:104A8000AEF091C0AFF01200B0C0ACF0B1C0ADF06C
:104A9000B2C0AEF0B3C0AFF01200A8C0AAF0A9C077
:104AA000ABF00001D890AA37AB370001D890AA37F5
:104AB000AB37A6C0ACF0A7C0ADF00001AA51000111
:104AC000AC270001AB510001AD23ACC0F6FFADC077
:104AD000F7FF000EF86E0900F5CFAEF00900F5CF34
:104AE000AFF00900F5CFB0F00A00F5CFB1F052D029
:104AF000AEC079F0AFC07AF0B0C07BF0B1C07CF04E
:104B0000A2C075F0A3C076F0A4C077F0A5C078F07D
:104B100028EC17F075C08EF076C08FF077C090F05B
:104B200078C091F00001A807D8A0A907A8C0AAF0F2
:104B3000A9C0ABF00001D890AA37AB370001D890DC
:104B4000AA37AB37A6C0ACF0A7C0ADF00001AA51A0
:104B50000001AC270001AB510001AD23ACC0F6FF52
:104B6000ADC0F7FF000EF86E0900F5CF92F0090016
:104B7000F5CF93F00900F5CF94F00A00F5CF95F04A
:104B8000D4EC14F08EC0AEF08FC0AFF090C0B0F097
:104B900091C0B1F00001A8510001A911D8A4A8D773
:104BA000AEC0A2F0AFC0A3F0B0C0A4F0B1C0A5F0F9
:104BB00012000001A435A5350001AB6F0001AB5117
:104BC000D8A40AD0000E0001A26F000EA36F000E41
:104BD000A46F000EA56F1200A2C0A6F0A3C0A7F09C
:104BE000A4C0A8F0A5C0A9F0200E06D00001D8905E
:104BF000A933A833A733A633E82EF8D70001A6516E
:104C00000001AA6F0001A48FFF0E0001A217FF0E82
:104C1000A317FF0EA417000EA517960E0001AB5F99
:104C20000001ABAF1AD00001AB51800A970FD8B08A
:104C30000AD0000E0001A26F000EA36F000EA46F39
:104C4000000EA56F12000001D890A533A433A33342
:104C5000A2330001AB3FF7D71BD01F0E0001AB659D
:104C600012D0000E0001A26F000EA36F000EA46F01
:104C7000000EA56F12000001D890A237A337A43709
:104C8000A5370001AB070001AB510001D8A4F3D751
:104C90000001AA510001D8B409D00001A51FA41F2A
:104CA000A31FA26D000EA323A423A523A2C0A2F0DC
:104CB000A3C0A3F0A4C0A4F0A5C0A5F01200000EEC
:104CC00000016B6F000169AF08D00001686D691FBA
:104CD000D8B0692B010E00016B6F000167AF08D0DF
:104CE0000001666D671FD8B0672B010E00016B1BBA
:104CF000000E00016D6F000E6C6F00016851000125
:104D00006911D8B42CD0010E00016A6F06D00001E1
:104D1000D8906837693700016A2B000169AFF7D76F
:104D20000001D8906C376D37000168510001665D55
:104D30000001695100016759D8A00AD000016851EB
:104D40000001665F000169510001675B00016C8131
:104D50000001D8906933683300016A2FE1D7000160
:104D60006B510001D8B405D000016C6D6D1FD8B037
:104D70006D2B6CC066F06DC067F0120000016051D1
:104D8000000161110001621100016311D8A412D069
:104D900064C0D9FF65C0DAFF000EDE6E000EDD6E66
:104DA000000E0001606F000E616F000E626F000E5A
:104DB000636F1200000163517F0B0001666F676B28
:104DC000D89000016637673764C0D9FF65C0DAFF45
:104DD00066C0DEFF67C0DDFF000162AF04D00001E6
:104DE000666B662B02D00001666B0001665164C0E1
:104DF000D9FF65C0DAFFDE12000EDD1264C0D9FFF4
:104E000065C0DAFF820EDE26FF0EDD22000163811F
:104E10006383638563876389638B639D0001629FFE
:104E200060C060F061C061F062C062F063C063F0B6
:104E30001200060E00016E6F050E00016F6F010E6D
:104E40000001706F030E0001716F9D0E0001726F03
:104E5000040EB9EC21F0D08EF292A492A490A59207
:104E6000A590F28EF28C010EB16EA192A292630E09
:104E7000B36EC00EB26EC280C294C296C298C29A7D
:104E8000C190C182C184C186C198C19AC080C092BC
:104E9000C084C096C088C08AC09EA382A380A0821E
:104EA000000E896E7D0E926E000E8A6EFB0E936E62
:104EB000000E8B6E000E946E000E8C6E000E956EC2
:104EC000000E8D6E9668000E0001676F020E666F11
:104ED00036EC29F0FC0E0001606F7F0E69EC28F0C3
:104EE00012003FAA43D02304241025102610D8A472
:104EF00009D0000E2B6E000E2C6E000E2D6E000ED3
:104F00002E6E8082060E2318241025102610D8A499
:104F10001BD038C0F7F00001F86B0001F751000119
:104F2000606F37500001F76F60C0F8F03AC0FBF0D7
:104F30000001FC6B0001FB510001606F3950000162
:104F4000FB6F60C0FCF04082020E23182410251075
:104F50002610D8A40BD03704D8B43F82020E3718DD
:104F6000D8B43F86030E3718D8B43F843F9A120056
:104F7000C282C2B2FED7C4CF33F0346A33C060F00D
:104F800034C061F0000E0001636F0E0E626F1BEC07
:104F900029F060C066F061C067F0000E0001696F23
:104FA00068695FEC26F066C033F067C034F034BE49
:104FB00006D0345022E1080E335CD8B01ED066EC27
:104FC00029F0E806D8A4FBD7090E0001606F000E97
:104FD000616F000E626F000E636F370E0001646F29
:104FE000000E0001656F080E0001666FFC0E0001E7
:104FF000676F2AEC0CF08282120082921200000E7F
:105000000001666F000E656F0001625100016311BF
:10501000D8B42CD0010E0001646F06D00001D890E6
:10502000623763370001642B000163AFF7D70001DB
:10503000D89065376637000162510001605D00015C
:10504000635100016159D8A00AD0000162510001EA
:10505000605F000163510001615B00016581000137
:10506000D890633362330001642FE1D765C060F0EC
:1050700066C061F0120001EE00F0270EEE6AE8064D
:10508000FDE100EEDBF0220EEE6AE806FDE1406A8B
:105090003F6A00EE23F01C0EEE6AE806FDE1500EBA
:1050A000F66E530EF76E000EF86E0900F5CFFDF0A8
:1050B0000900F5CFFEF0520EF66E530EF76E000E9D
:1050C000F86E0900F5CF41F04290429200012AEFBC
:1050D0001DF00001616FBA50C00900016115BA6E80
:1050E000BA500F0900016015BA6E3F0E0001611938
:1050F000D8A402D095981200BF0E00016119D8A45F
:1051000003D09598959A12007F0E00016119D8B4CA
:1051100004D000016129D8A412009598959A959C15
:10512000959E120066EC29F00009D8A43FAC17D078
:1051300023C060F024C061F025C062F026C063F097
:10514000370E0001646F000E0001656F080E00014C
:10515000666FBC0E0001676F2AEC0CF03F9C0F01DC
:1051600040BD03D00F0130AD02D03F8012003F9010
:105170001200000E0001A61B000EA71B000EA81BAC
:10518000800EA91BA2C08EF0A3C08FF0A4C090F027
:10519000A5C091F0A6C092F0A7C093F0A8C094F06B
:1051A000A9C095F0D4EC14F08EC0A2F08FC0A3F08B
:1051B00090C0A4F091C0A5F0120060C062F061C080
:1051C00063F0060ED890000162376337E82EFAD7F5
:1051D00062C064F063C065F065C0BBFF64C062F08C
:1051E0000001D89062330001D8906233300E000184
:1051F0006217BA50CF0B00016211BA6E12000001A3
:105200006051000161110001621100016311D8B405
:1052100009D0000E0001601B000E611B000E621B16
:10522000800E631B60C060F061C061F062C062F01C
:1052300063C063F012000001605100016203F3CF0C
:1052400064F0F4CF65F00001605100016303F35096
:10525000000165270001615100016203F350000164
:10526000652764C060F065C061F0120041C060F065
:105270000001616B66C062F067C063F01BEC29F04F
:1052800060C02FF061C030F006D0500EE82EFED77F
:105290002F06D8A030062F503010D8B41200F5D702
:1052A000000161AF0ED060C062F061C063F0000128
:1052B000621F631F624B632B62C060F063C061F0CA
:1052C000120060C060F061C061F01200010E0001C8
:1052D000606F0F0140A709D00F0130A706D00F0162
:1052E00020A703D0000E0001606F00016051120082
:1052F0000001606F00016051FB0BCA6E000ECC6EA6
:105300009E92000160AF02D09D8201D09D92CA841E
:1053100012000001606F60C06FFF6E50E00B000173
:105320006019D8B41200F9D7010E016E60BE05D025
:105330000F0150BF02D0000E016E0150120000019B
:10534000606F0C0EBA6ECA9460C0CBFFCA841200A4
:045350000100100048
:020000040030CA
:0E000000FF021F1EFF8081FF3FC03FE03F4018
:00000001FF
