:04000000C1EF00F05C
:10001800D8CF11F0E8CF12F0E0CF13F0FACF14F0F8
:10002800FBCF15F0E9CF16F0EACF17F0E1CF18F0C3
:10003800E2CF19F0D9CF1AF0DACF1BF0F3CF1CF0CA
:10004800F4CF1DF0F6CF1EF0F7CF1FF0F8CF20F059
:10005800F5CF21F0A4B002D0A4A25DD0A4A002D014
:10006800828200D065EC27F00009D8B451D0E60EA2
:10007800016E000E026EECEC12F00001F4B102D039
:100088003F9E01D03F8EE6C023F0E7C024F0E8C0D1
:1000980025F0E9C026F0000E226E070E226401D07A
:1000A80014D02250010DEA0EF324D96E000EF4206C
:1000B800DA6E2250010D370EF324E16E000EF420A3
:1000C800E26EDFCFE7FF222AE8D7050E23182410B7
:1000D80025102610D8A41AD038502B6E2C6A2D6AF9
:1000E8002E6A37502BC00EF02CC00FF02DC010F028
:1000F8000D6A0D102B6E0E502C6E0F502D6E105079
:100108002E6E39C0FDF00001FE6B00D03F8C00D090
:10011800A490A49200D0A1A20DD0010E0001D7276F
:10012800000ED823D923DA23630EB36EC00EB26E45
:10013800A19200D021C0F5FF20C0F8FF1FC0F7FF33
:100148001EC0F6FF1DC0F4FF1CC0F3FF1BC0DAFF82
:100158001AC0D9FF19C0E2FF18C0E1FF17C0EAFFB3
:1001680016C0E9FF15C0FBFF14C0FAFF13C0E0FF7B
:0E01780012C0E8FF11C0D8FF1000A5EF25F05F
:100D0000000000803F1872313FF0FD753E47586388
:100D10003D58951D3C82C4AE3AA8782139EF9380A6
:100D200037A092A7354656153400000000C4FF7F57
:100D30003F80EFFFBE90E1A93EEC8276BE82AD2BF4
:100D40003E0E3CC3BD87D1133D4178D3BB000001AB
:100D5000696F000169510001D8A459D000016429CC
:100D6000D8A455D00F01019760C065F061C066F04E
:100D700062C067F063C068F0040E06D00001D8902E
:100D80006833673366336533E82EF8D765C06AF099
:100D900066C06BF067C06CF068C06DF000016A510E
:100DA00000016A6F6B6B6C6B6D6B6AC000FF070EA6
:100DB0000001601500016A6F000E0001611500015D
:100DC0006B6F000E0001621500016C6F000E0001D8
:100DD000631500016D6F6AC065F06BC066F06CC092
:100DE00067F06DC068F0050ED89000016537663772
:100DF00067376837E82EF8D765C06AF066C06BF0D1
:100E000067C06CF068C06DF06AC001FF00D00001DF
:100E10006905D8A459D000016429D8A455D00F0180
:100E2000059760C065F061C066F062C067F063C09E
:100E300068F0040E06D00001D8906833673366333B
:100E40006533E82EF8D765C06AF066C06BF067C0FE
:100E50006CF068C06DF000016A5100016A6F6B6B45
:100E60006C6B6D6B6AC004FF070E0001601500011A
:100E70006A6F000E0001611500016B6F000E00012A
:100E8000621500016C6F000E0001631500016D6FAB
:100E90006AC065F06BC066F06CC067F06DC068F04A
:100EA000050ED89000016537663767376837E82E3A
:100EB000F8D765C06AF066C06BF067C06CF068C0B8
:100EC0006DF06AC005FF00D0020E00016919D8A4B8
:100ED00059D000016429D8A455D00F01099760C0EA
:100EE00065F061C066F062C067F063C068F0040E30
:100EF00006D00001D8906833673366336533E82E37
:100F0000F8D765C06AF066C06BF067C06CF068C067
:100F10006DF000016A5100016A6F6B6B6C6B6D6B59
:100F20006AC008FF070E0001601500016A6F000E1D
:100F30000001611500016B6F000E000162150001D8
:100F40006C6F000E0001631500016D6F6AC065F0E3
:100F50006BC066F06CC067F06DC068F0050ED8908D
:100F600000016537663767376837E82EF8D765C000
:100F70006AF066C06BF067C06CF068C06DF06AC064
:100F800009FF00D0030E00016919D8A459D000014F
:100F90006429D8A455D00F010D9760C065F061C0D9
:100FA00066F062C067F063C068F0040E06D000010E
:100FB000D8906833673366336533E82EF8D765C059
:100FC0006AF066C06BF067C06CF068C06DF000013D
:100FD0006A5100016A6F6B6B6C6B6D6B6AC00CFFC2
:100FE000070E0001601500016A6F000E0001611517
:100FF00000016B6F000E0001621500016C6F000EA6
:101000000001631500016D6F6AC065F06BC066F08A
:101010006CC067F06DC068F0050ED89000016537B0
:10102000663767376837E82EF8D765C06AF066C05C
:101030006BF067C06CF068C06DF06AC00DFF00D047
:10104000040E00016919D8A459D000016429D8A45C
:1010500055D00F01119760C065F061C066F062C0A5
:1010600067F063C068F0040E06D00001D8906833C2
:10107000673366336533E82EF8D765C06AF066C01B
:101080006BF067C06CF068C06DF000016A51000140
:101090006A6F6B6B6C6B6D6B6AC010FF070E0001A3
:1010A000601500016A6F000E0001611500016B6F91
:1010B000000E0001621500016C6F000E0001631547
:1010C00000016D6F6AC065F06BC066F06CC067F0C0
:1010D0006DC068F0050ED890000165376637673738
:1010E0006837E82EF8D765C06AF066C06BF067C055
:1010F0006CF068C06DF06AC011FF00D0050E0001F1
:101100006919D8A459D000016429D8A455D00F0179
:10111000159760C065F061C066F062C067F063C09B
:1011200068F0040E06D00001D89068336733663348
:101130006533E82EF8D765C06AF066C06BF067C00B
:101140006CF068C06DF000016A5100016A6F6B6B52
:101150006C6B6D6B6AC014FF070E00016015000117
:101160006A6F000E0001611500016B6F000E000137
:10117000621500016C6F000E0001631500016D6FB8
:101180006AC065F06BC066F06CC067F06DC068F057
:10119000050ED89000016537663767376837E82E47
:1011A000F8D765C06AF066C06BF067C06CF068C0C5
:1011B0006DF06AC015FF00D0000169510001D8A48C
:1011C0008BD0F70E00016419D8A486D00F010187D7
:1011D0000001605100016A6F6B6B6C6B6D6B6AC0D4
:1011E00003FF000E0001601500016A6FFF0E000191
:1011F000611500016B6F000E0001621500016C6F3C
:10120000000E0001631500016D6F6AC065F06BC0D0
:1012100066F06CC067F06DC068F066C065F067C0CE
:1012200066F068C067F00001686B65C06AF066C070
:101230006BF067C06CF068C06DF06AC002FF00011F
:1012400062A103D00F01018102D00F0101910001C1
:1012500062A303D00F01018302D00F0101930001AB
:1012600062A503D00F01018B02D00F01019B000189
:1012700062A703D00F01018D02D00F01019D000173
:1012800062A903D00F01018F03D00F01019F00D08D
:1012900060C065F061C066F062C067F063C068F06E
:1012A000160E06D00001D890683367336633653375
:1012B000E82EF8D765C06AF066C06BF067C06CF0C6
:1012C00068C06DF000016A5100016A6F6B6B6C6B56
:1012D0006D6B6AC000FF00D000016905D8A48BD0F7
:1012E000F70E00016419D8A486D00F01058700010C
:1012F000605100016A6F6B6B6C6B6D6B6AC007FFAE
:10130000000E0001601500016A6FFF0E00016115FB
:1013100000016B6F000E0001621500016C6F000E82
:101320000001631500016D6F6AC065F06BC066F067
:101330006CC067F06DC068F066C065F067C066F0AD
:1013400068C067F00001686B65C06AF066C06BF04A
:1013500067C06CF068C06DF06AC006FF000162A152
:1013600003D00F01058102D00F010591000162A396
:1013700003D00F01058302D00F010593000162A580
:1013800003D00F01058B02D00F01059B000162A75E
:1013900003D00F01058D02D00F01059D000162A948
:1013A00003D00F01058F03D00F01059F00D060C04F
:1013B00065F061C066F062C067F063C068F0160E49
:1013C00006D00001D8906833673366336533E82E62
:1013D000F8D765C06AF066C06BF067C06CF068C093
:1013E0006DF000016A5100016A6F6B6B6C6B6D6B85
:1013F0006AC004FF00D0020E00016919D8A48BD086
:10140000F70E00016419D8A486D00F0109870001E6
:10141000605100016A6F6B6B6C6B6D6B6AC00BFF88
:10142000000E0001601500016A6FFF0E00016115DA
:1014300000016B6F000E0001621500016C6F000E61
:101440000001631500016D6F6AC065F06BC066F046
:101450006CC067F06DC068F066C065F067C066F08C
:1014600068C067F00001686B65C06AF066C06BF029
:1014700067C06CF068C06DF06AC00AFF000162A12D
:1014800003D00F01098102D00F010991000162A36D
:1014900003D00F01098302D00F010993000162A557
:1014A00003D00F01098B02D00F01099B000162A735
:1014B00003D00F01098D02D00F01099D000162A91F
:1014C00003D00F01098F03D00F01099F00D060C026
:1014D00065F061C066F062C067F063C068F0160E28
:1014E00006D00001D8906833673366336533E82E41
:1014F000F8D765C06AF066C06BF067C06CF068C072
:101500006DF000016A5100016A6F6B6B6C6B6D6B63
:101510006AC008FF00D0030E00016919D8A48BD05F
:10152000F70E00016419D8A486D00F010D870001C1
:10153000605100016A6F6B6B6C6B6D6B6AC00FFF63
:10154000000E0001601500016A6FFF0E00016115B9
:1015500000016B6F000E0001621500016C6F000E40
:101560000001631500016D6F6AC065F06BC066F025
:101570006CC067F06DC068F066C065F067C066F06B
:1015800068C067F00001686B65C06AF066C06BF008
:1015900067C06CF068C06DF06AC00EFF000162A108
:1015A00003D00F010D8102D00F010D91000162A344
:1015B00003D00F010D8302D00F010D93000162A52E
:1015C00003D00F010D8B02D00F010D9B000162A70C
:1015D00003D00F010D8D02D00F010D9D000162A9F6
:1015E00003D00F010D8F03D00F010D9F00D060C0FD
:1015F00065F061C066F062C067F063C068F0160E07
:1016000006D00001D8906833673366336533E82E1F
:10161000F8D765C06AF066C06BF067C06CF068C050
:101620006DF000016A5100016A6F6B6B6C6B6D6B42
:101630006AC00CFF00D0040E00016919D8A48BD039
:10164000F70E00016419D8A486D00F01118700019C
:10165000605100016A6F6B6B6C6B6D6B6AC013FF3E
:10166000000E0001601500016A6FFF0E0001611598
:1016700000016B6F000E0001621500016C6F000E1F
:101680000001631500016D6F6AC065F06BC066F004
:101690006CC067F06DC068F066C065F067C066F04A
:1016A00068C067F00001686B65C06AF066C06BF0E7
:1016B00067C06CF068C06DF06AC012FF000162A1E3
:1016C00003D00F01118102D00F011191000162A31B
:1016D00003D00F01118302D00F011193000162A505
:1016E00003D00F01118B02D00F01119B000162A7E3
:1016F00003D00F01118D02D00F01119D000162A9CD
:1017000003D00F01118F03D00F01119F00D060C0D3
:1017100065F061C066F062C067F063C068F0160EE5
:1017200006D00001D8906833673366336533E82EFE
:10173000F8D765C06AF066C06BF067C06CF068C02F
:101740006DF000016A5100016A6F6B6B6C6B6D6B21
:101750006AC010FF00D0050E00016919D8A412005C
:10176000F70E00016419D8A412000F0115870001BB
:10177000605100016A6F6B6B6C6B6D6B6AC017FF19
:10178000000E0001601500016A6FFF0E0001611577
:1017900000016B6F000E0001621500016C6F000EFE
:1017A0000001631500016D6F6AC065F06BC066F0E3
:1017B0006CC067F06DC068F066C065F067C066F029
:1017C00068C067F00001686B65C06AF066C06BF0C6
:1017D00067C06CF068C06DF06AC016FF000162A1BE
:1017E00003D00F01158102D00F011591000162A3F2
:1017F00003D00F01158302D00F011593000162A5DC
:1018000003D00F01158B02D00F01159B000162A7B9
:1018100003D00F01158D02D00F01159D000162A9A3
:1018200003D00F01158F03D00F01159F00D060C0AA
:1018300065F061C066F062C067F063C068F0160EC4
:1018400006D00001D8906833673366336533E82EDD
:10185000F8D765C06AF066C06BF067C06CF068C00E
:101860006DF000016A5100016A6F6B6B6C6B6D6B00
:101870006AC014FF120012000F0140B742D166C0C7
:1018800045FF000167AD03D00F01458D02D00F0168
:10189000459D000167A77AD00001605100016C6F7F
:1018A0006D6B6E6B6F6B6CC044FF000E00016015BA
:1018B00000016C6FFF0E0001611500016D6F000EDD
:1018C0000001621500016E6F000E0001631500013A
:1018D0006F6F6CC068F06DC069F06EC06AF06FC069
:1018E0006BF069C068F06AC069F06BC06AF0000113
:1018F0006B6B68C06CF069C06DF06AC06EF06BC055
:101900006FF06CC043FF000E0F01426F0F01428762
:10191000000162A102D00F014281000162A302D046
:101920000F014283000162A502D00F01428B00012A
:1019300062A702D00F01428D000162A903D00F01FE
:10194000428F00D060C068F061C069F062C06AF088
:1019500063C06BF0160E06D00001D8906B336A336B
:1019600069336833E82EF8D768C06CF069C06DF051
:101970006AC06EF06BC06FF000016C5100016C6FBB
:101980006D6B6E6B6F6B6CC041FF5AD00F0142974D
:1019900060C068F061C069F062C06AF063C06BF05B
:1019A000040E06D00001D8906B336A336933683374
:1019B000E82EF8D768C06CF069C06DF06AC06EF0B0
:1019C0006BC06FF000016C5100016C6F6D6B6E6B42
:1019D0006F6B6CC041FF070E0001601500016C6F5A
:1019E000000E0001611500016D6F000E000162150F
:1019F00000016E6F000E0001631500016F6F6CC077
:101A000068F06DC069F06EC06AF06FC06BF0050ED3
:101A1000D8900001683769376A376B37E82EF8D7F6
:101A200068C06CF069C06DF06AC06EF06BC06FF09A
:101A30000F0142511F0B0F01426F6CC042FF00D0DB
:101A4000000167A103D00F01408102D00F01409136
:101A5000000167A303D00F01408303D00F0140931F
:101A600000D064C0D9FF65C0DAFFDF500F01466FB8
:101A7000000120EE01F06451D9266551DA22DF50D1
:101A80000F01476F000120EE02F06451D926655125
:101A9000DA22DF500F01486F000120EE03F064519D
:101AA000D9266551DA22DF500F01496F000120EE7F
:101AB00004F06451D9266551DA22DF500F014A6FD4
:101AC000000120EE05F06451D9266551DA22DF507D
:101AD0000F014B6F000120EE06F06451D9266551CD
:101AE000DA22DF500F014C6F000120EE07F0645145
:101AF000D9266551DA22DF500F014D6F0F01408763
:101B000012000F0130B742D166C035FF000167AD4A
:101B100003D00F01358D02D00F01359D000167A75D
:101B20007AD00001605100016C6F6D6B6E6B6F6B52
:101B30006CC034FF000E0001601500016C6FFF0ED9
:101B40000001611500016D6F000E000162150001BA
:101B50006E6F000E0001631500016F6F6CC068F0BE
:101B60006DC069F06EC06AF06FC06BF069C068F05C
:101B70006AC069F06BC06AF000016B6B68C06CF002
:101B800069C06DF06AC06EF06BC06FF06CC033FF5F
:101B9000000E0F01326F0F013287000162A102D0E7
:101BA0000F013281000162A302D00F0132830001D4
:101BB00062A502D00F01328B000162A702D00F0193
:101BC000328D000162A903D00F01328F00D060C0B6
:101BD00068F061C069F062C06AF063C06BF0160E15
:101BE00006D00001D8906B336A3369336833E82E2E
:101BF000F8D768C06CF069C06DF06AC06EF06BC059
:101C00006FF000016C5100016C6F6D6B6E6B6F6B50
:101C10006CC031FF5AD00F01329760C068F061C0CC
:101C200069F062C06AF063C06BF0040E06D0000178
:101C3000D8906B336A3369336833E82EF8D768C0BD
:101C40006CF069C06DF06AC06EF06BC06FF000019F
:101C50006C5100016C6F6D6B6E6B6F6B6CC031FF04
:101C6000070E0001601500016C6F000E0001611588
:101C700000016D6F000E0001621500016E6F000E15
:101C80000001631500016F6F6CC068F06DC069F0F2
:101C90006EC06AF06FC06BF0050ED8900001683717
:101CA00069376A376B37E82EF8D768C06CF069C0BF
:101CB0006DF06AC06EF06BC06FF00F0132511F0BF8
:101CC0000F01326F6CC032FF00D0000167A103D05A
:101CD0000F01308102D00F013091000167A303D0C2
:101CE0000F01308303D00F01309300D064C0D9FFBF
:101CF00065C0DAFFDF500F01366F000120EE01F002
:101D00006451D9266551DA22DF500F01376F000187
:101D100020EE02F06451D9266551DA22DF500F011E
:101D2000386F000120EE03F06451D9266551DA22A4
:101D3000DF500F01396F000120EE04F06451D92605
:101D40006551DA22DF500F013A6F000120EE05F0F5
:101D50006451D9266551DA22DF500F013B6F000133
:101D600020EE06F06451D9266551DA22DF500F01CA
:101D70003C6F000120EE07F06451D9266551DA224C
:101D8000DF500F013D6F0F01308712000F0120B7A8
:101D9000120066C025FF000167AD03D00F01258D3D
:101DA00002D00F01259D000167A77AD00001605184
:101DB00000016C6F6D6B6E6B6F6B6CC024FF000E5F
:101DC0000001601500016C6FFF0E0001611500013C
:101DD0006D6F000E0001621500016E6F000E0001B4
:101DE000631500016F6F6CC068F06DC069F06EC064
:101DF0006AF06FC06BF069C068F06AC069F06BC0D0
:101E00006AF000016B6B68C06CF069C06DF06AC06D
:101E10006EF06BC06FF06CC023FF000E0F01226FDD
:101E20000F012287000162A102D00F01228100016F
:101E300062A302D00F012283000162A502D00F012C
:101E4000228B000162A702D00F01228D000162A93E
:101E500003D00F01228F00D060C068F061C069F02C
:101E600062C06AF063C06BF0160E06D00001D89015
:101E70006B336A3369336833E82EF8D768C06CF087
:101E800069C06DF06AC06EF06BC06FF000016C51FC
:101E900000016C6F6D6B6E6B6F6B6CC021FF5AD065
:101EA0000F01229760C068F061C069F062C06AF0FB
:101EB00063C06BF0040E06D00001D8906B336A3318
:101EC00069336833E82EF8D768C06CF069C06DF0EC
:101ED0006AC06EF06BC06FF000016C5100016C6F56
:101EE0006D6B6E6B6F6B6CC021FF070E0001601590
:101EF00000016C6F000E0001611500016D6F000E96
:101F00000001621500016E6F000E000163150001F3
:101F10006F6F6CC068F06DC069F06EC06AF06FC022
:101F20006BF0050ED8900001683769376A376B3758
:101F3000E82EF8D768C06CF069C06DF06AC06EF02A
:101F40006BC06FF00F0122511F0B0F01226F6CC08D
:101F500022FF00D0000167A103D00F01208102D031
:101F60000F012091000167A303D00F01208303D04C
:101F70000F01209300D064C0D9FF65C0DAFFDF50A5
:101F80000F01266F000120EE01F06451D926655142
:101F9000DA22DF500F01276F000120EE02F06451BA
:101FA000D9266551DA22DF500F01286F000120EE9B
:101FB00003F06451D9266551DA22DF500F01296FF1
:101FC000000120EE04F06451D9266551DA22DF5079
:101FD0000F012A6F000120EE05F06451D9266551EA
:101FE000DA22DF500F012B6F000120EE06F0645162
:101FF000D9266551DA22DF500F012C6F000120EE47
:1020000007F06451D9266551DA22DF500F012D6F98
:102010000F012087120012002EBED5D22E502D1097
:102020002C1006E1020E2B5CD8B002D0CCD200D02E
:1020300035EC27F0E806D8A4FBD7080E0001606F46
:10204000000E616F000E626F000E636FF50E0001EF
:10205000646F000E0001656F080E0001666FFC0ED4
:102060000001676F3CEC0CF040A49AD20001FD0522
:102070000001FE11D8A407D0FC0E0001606F7F0E96
:10208000FDEC25F000D00001FD510001FE11D8A4A7
:1020900007D0FC0E0001606FFF0EFDEC25F000D0B4
:1020A00040940001E3510001DF250001B66F0001FB
:1020B000E4510001E0210001B76FD8900001B73171
:1020C0000001B96F0001B6310001B86FB8C0C3F0AC
:1020D000B9C0C4F00001C56BC66B0001C35100015B
:1020E000C4110001C5110001C611D8B42EBE16D00E
:1020F0002E502D1006E1E90E2B5C030E2C58D8A0B3
:102100000DD0030E0001616FE80E606F76EC26F0D3
:10211000030E0001E26FE80EE16F00D00001C35131
:102120000001C4110001C5110001C611D8A418D0C6
:102130002EBE09D02E502D1013E1E80E2B5C030E9D
:102140002C58D8B00DD0020E0001616F580E606F90
:1021500076EC26F0020E0001E26F580EE16F00D01F
:102160002BC0B6F02CC0B7F00001B61FB71FB64B9E
:10217000B72B0001C3510001B6250001606F0001BB
:10218000C4510001B7210001616F1FEC27F060C04E
:10219000DDF061C0DEF0B90E0001DD5D0B0E000167
:1021A000DE59D8A04AD0030E0001636F200E626F83
:1021B000DDC060F0DEC061F034EC25F060C06AF094
:1021C00061C06BF006EC27F06AC0B2F06BC0B3F0F0
:1021D0006CC0B4F06DC0B5F0000E0001AE6F000E23
:1021E000AF6F000EB06F400EB16F77EC1BF0AEC05A
:1021F0000DF1AFC00EF1B0C00FF1B1C010F1000E83
:102200000001826F000E836F800E846FBF0E856F9A
:102210000DC17EF00EC17FF00FC180F010C181F0C2
:1022200041EC1AF07EC08AF07FC08BF080C08CF049
:1022300081C08DF0EAEC21F0F5D0D10E0001DD5D1A
:10224000070E0001DE59D8A04AD0010E0001636FCD
:10225000900E626FDDC060F0DEC061F034EC25F0FE
:1022600060C06AF061C06BF006EC27F06AC0B2F0A3
:102270006BC0B3F06CC0B4F06DC0B5F0000E0001DF
:10228000AE6F000EAF6F000EB06F400EB16F77EC07
:102290001BF0AEC00DF1AFC00EF1B0C00FF1B1C078
:1022A00010F1000E0001826F000E836F800E846FAC
:1022B000BF0E856F0DC17EF00EC17FF00FC180F0A3
:1022C00010C181F041EC1AF07EC08AF07FC08BF023
:1022D00080C08CF081C08DF0EAEC21F0A3D0E90E33
:1022E0000001DD5D030E0001DE59D8A04AD0000ECA
:1022F0000001636FC80E626FDDC060F0DEC061F088
:1023000034EC25F060C06AF061C06BF006EC27F099
:102310006AC0B2F06BC0B3F06CC0B4F06DC0B5F081
:10232000000E0001AE6F000EAF6F000EB06F400EDA
:10233000B16F77EC1BF0AEC00DF1AFC00EF1B0C0C5
:102340000FF1B1C010F1000E0001826F000E836F1B
:10235000800E846FBF0E856F0DC17EF00EC17FF0C1
:102360000FC180F010C181F041EC1AF07EC08AF0FC
:102370007FC08BF080C08CF081C08DF0EAEC21F042
:1023800051D0E80E0001DD5D030E0001DE59D8B02A
:1023900052D0000E0001636FC80E626FDDC060F0A6
:1023A000DEC061F034EC25F060C06AF061C06BF013
:1023B00006EC27F06AC0B2F06BC0B3F06CC0B4F0AA
:1023C0006DC0B5F0000E0001AE6F000EAF6F000ED5
:1023D000B06F400EB16F77EC1BF0AEC00DF1AFC027
:1023E0000EF1B0C00FF1B1C010F1000E0001826F0C
:1023F000000E836F800E846FBF0E856F0DC17EF05F
:102400000EC17FF00FC180F010C181F041EC1AF0D5
:102410007EC08AF07FC08BF080C08CF081C08DF0D0
:10242000EAEC21F08AC0BFF08BC0C0F08CC0C1F0D4
:102430008DC0C2F000D02BC0B6F02CC0B7F02DC0BC
:10244000B8F02EC0B9F00001B61FB71FB81FB91FF2
:10245000B62B000EB723B823B9230001C3510001E6
:10246000B6250001BA6F0001C4510001B721000177
:10247000BB6F0001C5510001B8210001BC6F000114
:10248000C6510001B9210001BD6F0001BDBF59D087
:102490000001BD510001BC110001BB1104E10001AC
:1024A000BA05D8A04ED0BFC060F0C0C061F0C1C0B6
:1024B00062F0C2C063F00A0E0001646F000E656F27
:1024C000000E666F000E676FC3EC20F00001601F06
:1024D0000001611F0001621F0001631F0001602BEA
:1024E000000E00016123000162230001632300014B
:1024F000E151000160250001C76F0001E2510001B8
:1025000061210001C86F000E000162210001C96F46
:10251000000E000163210001CA6F0001CABF0BD089
:102520000001CA510001C9110001C81139E10001BF
:10253000C705D8B035D0000E0001C76F000E2AD0F5
:102540002FD00001E1510001BF250001C76F00013C
:10255000E2510001C0210001C86F000E0001C1213D
:102560000001C96F000E0001C2210001CA6F000105
:10257000CABF16D00001CA510001C91107E100010C
:10258000C729030E0001C859D8A00AD0FF0E0001C8
:10259000C76F030EC86F000EC96F000ECA6F00D060
:1025A000C7C0E1F0C8C0E2F0D7C0CFF0D8C0D0F0CB
:1025B000D9C0D1F0DAC0D2F0C7C060F0C8C061F0B5
:1025C00076EC26F01200000E0001616F000E606FC5
:1025D00076EC26F012001200000E0B6E74AE02D0E4
:1025E0000B8000D074AC02D00B8200D00F0150AF32
:1025F00049D101C0D9FF02C0DAFFDE6ADE6ADE6AB5
:10260000DD6A20EE04F00150D9260250DA2256CFBE
:10261000DFFF20EE05F00150D9260250DA2257CF15
:10262000DFFF20EE06F00150D9260250DA2258CF03
:10263000DFFF20EE07F00150D9260250DA2259CFF1
:10264000DFFF20EE08F00150D9260250DA225ACFDF
:10265000DFFF20EE09F00150D9260250DA225BCFCD
:10266000DFFF20EE0AF00150D9260250DA225CCFBB
:10267000DFFF20EE0BF00150D9260250DA225DCFA9
:10268000DFFF20EE0EF00150D9260250DA220F01B2
:1026900055AD02D0010E01D0000EDF6E20EE0DF020
:1026A0000150D9260250DA220F0155510F0BDF6E6F
:1026B00020EE0CF00150D9260250DA220F0152A769
:1026C00002D0010E01D0000EDF6E0F0152B744D0D0
:1026D00051CF03F0046A056A066A030ED8900336E8
:1026E000043605360636E82EF9D701C0D9FF02C0F8
:1026F000DAFF03C0DEFF04C0DEFF05C0DEFF06C058
:10270000DEFF0F015239E842070B070B0C6E01C0C8
:10271000D9FF02C0DAFFDECF03F0DECF04F0DECF58
:1027200005F0DECF06F00C500324076E000E0420E7
:10273000086E000E0520096E000E06200A6E01C00C
:10274000D9FF02C0DAFF07C0DEFF08C0DEFF09C004
:10275000DEFF0AC0DEFF93D054CF03F0046A056A9F
:10276000066A01C0D9FF02C0DAFF03C0DEFF04C061
:10277000DEFF05C0DEFF06C0DEFF53CF03F0046AB4
:10278000056A066A05C006F004C005F003C004F03F
:10279000036A01C0D9FF02C0DAFF0350DE260450ED
:1027A000DE220550DE220650DE220F0152A10DD09E
:1027B00001C0D9FF02C0DAFF000EDE12000EDE12E9
:1027C000010EDE12000EDE1200D00F0152A30DD05A
:1027D00001C0D9FF02C0DAFF000EDE12000EDE12C9
:1027E000020EDE12000EDE1200D00F0152AB0DD031
:1027F00001C0D9FF02C0DAFF000EDE12000EDE12A9
:10280000040EDE12000EDE1200D00F0152AD0DD00C
:1028100001C0D9FF02C0DAFF000EDE12000EDE1288
:10282000080EDE12000EDE1200D00F0152AF0DD0E6
:1028300001C0D9FF02C0DAFF000EDE12000EDE1268
:10284000100EDE12000EDE1200D051CF03F0046A2B
:10285000056A066A150ED890033604360536063624
:10286000E82EF9D701C0D9FF02C0DAFF0350DE120B
:102870000450DE120550DE120650DE1200D00F01A9
:10288000509F120060AE120001C0D9FF02C0DAFFF3
:10289000DE6ADE6ADE6ADD6A20EE04F00150D926C7
:1028A0000250DA2266CFDFFF20EE05F00150D92674
:1028B0000250DA2267CFDFFF20EE06F00150D92662
:1028C0000250DA2268CFDFFF20EE07F00150D92650
:1028D0000250DA2269CFDFFF20EE08F00150D9263E
:1028E0000250DA226ACFDFFF20EE09F00150D9262C
:1028F0000250DA226BCFDFFF20EE0AF00150D9261A
:102900000250DA226CCFDFFF20EE0BF00150D92607
:102910000250DA226DCFDFFF20EE0EF00150D926F3
:102920000250DA2265AC02D0010E01D0000EDF6E3B
:1029300020EE0DF00150D9260250DA2265500F0B1F
:10294000DF6E20EE0CF00150D9260250DA2262A68A
:1029500002D0010E01D0000EDF6E62B643D061CF0F
:1029600003F0046A056A066A030ED890033604363B
:1029700005360636E82EF9D701C0D9FF02C0DAFFC6
:1029800003C0DEFF04C0DEFF05C0DEFF06C0DEFFC1
:102990006238E842070B070B0C6E01C0D9FF02C07A
:1029A000DAFFDECF03F0DECF04F0DECF05F0DECFBE
:1029B00006F00C500324076E000E0420086E000E73
:1029C0000520096E000E06200A6E01C0D9FF02C064
:1029D000DAFF07C0DEFF08C0DEFF09C0DEFF0AC065
:1029E000DEFF8ED064CF03F0046A056A066A01C078
:1029F000D9FF02C0DAFF03C0DEFF04C0DEFF05C05E
:102A0000DEFF06C0DEFF63CF03F0046A056A066AD4
:102A100005C006F004C005F003C004F0036A01C05D
:102A2000D9FF02C0DAFF0350DE260450DE22055033
:102A3000DE220650DE2262A00DD001C0D9FF02C006
:102A4000DAFF000EDE12000EDE12010EDE12000EA4
:102A5000DE1200D062A20DD001C0D9FF02C0DAFFA1
:102A6000000EDE12000EDE12020EDE12000EDE126C
:102A700000D062AA0DD001C0D9FF02C0DAFF000E5B
:102A8000DE12000EDE12040EDE12000EDE1200D088
:102A900062AC0DD001C0D9FF02C0DAFF000EDE1219
:102AA000000EDE12080EDE12000EDE1200D062AE44
:102AB0000DD001C0D9FF02C0DAFF000EDE12000EF9
:102AC000DE12100EDE12000EDE1200D061CF03F017
:102AD000046A056A066A150ED89003360436053670
:102AE0000636E82EF9D701C0D9FF02C0DAFF03503D
:102AF000DE120450DE120550DE120650DE1200D047
:102B0000609E120012000001696F00016905D8A4DF
:102B100057D000016429D8A453D060C065F061C0CB
:102B200066F062C067F063C068F0040E06D0000172
:102B3000D8906833673366336533E82EF8D765C0BD
:102B40006AF066C06BF067C06CF068C06DF00001A1
:102B50006A5100016A6F6B6B6C6B6D6B6AC018FF1A
:102B6000070E0001601500016A6F000E000161157B
:102B700000016B6F000E0001621500016C6F000E0A
:102B80000001631500016D6F6AC065F06BC066F0EF
:102B90006CC067F06DC068F0050ED8900001653715
:102BA000663767376837E82EF8D765C06AF066C0C1
:102BB0006BF067C06CF068C06DF06AC019FF00D0A0
:102BC000020E00016919D8A457D000016429D8A4C5
:102BD00053D060C065F061C066F062C067F063C04A
:102BE00068F0040E06D00001D8906833673366336E
:102BF0006533E82EF8D765C06AF066C06BF067C031
:102C00006CF068C06DF000016A5100016A6F6B6B77
:102C10006C6B6D6B6AC01CFF070E00016015000134
:102C20006A6F000E0001611500016B6F000E00015C
:102C3000621500016C6F000E0001631500016D6FDD
:102C40006AC065F06BC066F06CC067F06DC068F07C
:102C5000050ED89000016537663767376837E82E6C
:102C6000F8D765C06AF066C06BF067C06CF068C0EA
:102C70006DF06AC01DFF00D000016905D8A489D09D
:102C8000F70E00016419D8A484D00001605100013E
:102C90006A6F6B6B6C6B6D6B6AC01BFF000E000183
:102CA000601500016A6FFF0E0001611500016B6F76
:102CB000000E0001621500016C6F000E000163152B
:102CC00000016D6F6AC065F06BC066F06CC067F0A4
:102CD0006DC068F066C065F067C066F068C067F0F8
:102CE0000001686B65C06AF066C06BF067C06CF08D
:102CF00068C06DF06AC01AFF000162A103D00F0125
:102D0000198102D00F011991000162A303D00F01B4
:102D1000198302D00F011993000162A503D00F019E
:102D2000198B02D00F01199B000162A703D00F017C
:102D3000198D02D00F01199D000162A903D00F0166
:102D4000198F03D00F01199F00D060C065F061C0DA
:102D500066F062C067F063C068F0160E06D000012E
:102D6000D8906833673366336533E82EF8D765C08B
:102D70006AF066C06BF067C06CF068C06DF000016F
:102D80006A5100016A6F6B6B6C6B6D6B6AC018FFE8
:102D900000D0020E00016919D8A41200F70E00013C
:102DA0006419D8A412000001605100016A6F6B6BB6
:102DB0006C6B6D6B6AC01FFF000E00016015000197
:102DC0006A6FFF0E0001611500016B6F000E0001BC
:102DD000621500016C6F000E0001631500016D6F3C
:102DE0006AC065F06BC066F06CC067F06DC068F0DB
:102DF00066C065F067C066F068C067F00001686B88
:102E000065C06AF066C06BF067C06CF068C06DF0BA
:102E10006AC01EFF000162A103D00F011D8102D014
:102E20000F011D91000162A303D00F011D8302D089
:102E30000F011D93000162A503D00F011D8B02D06D
:102E40000F011D9B000162A703D00F011D8D02D051
:102E50000F011D9D000162A903D00F011D8F03D03A
:102E60000F011D9F00D060C065F061C066F062C0B8
:102E700067F063C068F0160E06D00001D890683382
:102E8000673366336533E82EF8D765C06AF066C0ED
:102E90006BF067C06CF068C06DF000016A51000112
:102EA0006A6F6B6B6C6B6D6B6AC01CFF120012005B
:102EB00043EC24F080828282010E0001676FF40EE1
:102EC000666FECEC26F0809282927E0E48EC27F042
:102ED000FA0E0001BE6F0001BE5171EC27F0408474
:102EE000FC0E0001606F7F0EFDEC25F000D09BEC26
:102EF00024F080B239D0CFC011F1D0C012F1D1C0CE
:102F000013F1D2C014F10101111F121F131F141F5E
:102F1000112B000E1223132314230001D75101019A
:102F200011250101156F0001D85101011221010184
:102F3000166F0001D951010113210101176F000122
:102F4000DA51010114210101186F01011851010129
:102F500017110101161105E1140E0101155DD8A02C
:102F60000BD00CEC10F008D0000E0001616F000EC9
:102F7000606F76EC26F000D03FB23FAE03D027EC76
:102F800026F000D0CBC011F1CCC012F1CDC013F1AE
:102F9000CEC014F10101111F121F131F141F112B9A
:102FA000000E1223132314230001D7510101112510
:102FB0000101156F0001D851010112210101166FA5
:102FC0000001D951010113210101176F0001DA51EC
:102FD000010114210101186F01011851010117119C
:102FE000010116113FE1150E0101155DD8B03AD06F
:102FF00080A2BED0CBC011F1CCC012F1CDC013F174
:10300000CEC014F10101111F121F131F141F112B29
:10301000000E1223132314230001D751010111259F
:103020000101156F0001D851010112210101166F34
:103030000001D951010113210101176F0001DA517B
:10304000010114210101186F01011851010117112B
:103050000101161107E1060E0101155DD8B002D07D
:1030600087D000D00001E52B020E0001E56504D0F9
:10307000000E0001E56F00D03FA002D0808202D098
:10308000809200D035EC27F0E806D8B45DD0FAD7AE
:103090005BD000D035EC27F0E806D8A4FBD7030EB0
:1030A0000001606F000E616F000E626F000E636FB3
:1030B000F50E0001646F000E0001656F080E00013F
:1030C000666FFC0E0001676F3CEC0CF03BD000D04B
:1030D00035EC27F0E806D8A4FBD7020E0001606F9C
:1030E000000E616F000E626F000E636FF50E00013F
:1030F000646F000E0001656F080E0001666FFC0E24
:103100000001676F3CEC0CF01DD000D035EC27F0CF
:10311000E806D8A4FBD7040E0001606F000E616FB3
:10312000000E626F000E636FF50E0001646F000EFB
:103130000001656F080E0001666FFC0E0001676FED
:103140003CEC0CF03F800BD00001E551000AD8B4F4
:10315000A1D7010AD8B4BCD7030AD8B4D7D7D7C0EF
:10316000CBF0D8C0CCF0D9C0CDF0DAC0CEF000D0D2
:10317000D3C011F1D4C012F1D5C013F1D6C014F1EF
:103180000101111F121F131F141F112B000E1223F8
:10319000132314230001D751010111250101156FDB
:1031A0000001D851010112210101166F0001D9510E
:1031B000010113210101176F0001DA5101011421EE
:1031C0000101186F010118510101171101011611B8
:1031D00005E1650E0101155DD8A089D6E9EC24F062
:1031E000D7C0D3F0D8C0D4F0D9C0D5F0DAC0D6F06B
:1031F0007ED6C1EF00F00001A3510001A41100012F
:10320000A5110001A611D8A40AD0000E0001A36FD9
:10321000000EA46F800EA56F3F0EA66F1200180E51
:103220000001606F720E616F310E626F440E636F4A
:10323000A3C064F0A4C065F0A5C066F0A6C067F0A6
:1032400004EC23F00001D8B00FD0000E0001DC6FB9
:10325000220EDB6FFF0E0001A36FFF0EA46F7F0E27
:10326000A56F7F0EA66F1200A3C060F0A4C061F02E
:10327000A5C062F0A6C063F0870E0001646F480E1F
:10328000656F3A0E666FC40E676F04EC23F00001A1
:10329000D8B00FD0000E0001DC6F220EDB6F000EE5
:1032A0000001A36F000EA46F000EA56F000EA66FA5
:1032B00012000001A6AF02D0010E01D0000E0001E5
:1032C000AD6F0001AD510001D8B412D0A3C060F0C1
:1032D000A4C061F0A5C062F0A6C063F098EC26F02F
:1032E00060C0A3F061C0A4F062C0A5F063C0A6F006
:1032F000A3C06FF0A4C070F0A5C071F0A6C072F0BA
:103300003B0E0001736FAA0E746FB80E756F3F0EFF
:10331000766FDDEC1EF06FC0A3F070C0A4F071C03A
:10332000A5F072C0A6F0A3C099F0A4C09AF0A5C001
:103330009BF0A6C09CF059EC21F099C0A7F09AC070
:10334000A8F09BC0A9F09CC0AAF0A7C08AF0A8C0B2
:103350008BF0A9C08CF0AAC08DF0EAEC21F08AC0F5
:10336000ABF08BC0ACF0A3C08AF0A4C08BF0A5C0BA
:103370008CF0A6C08DF0ABC06AF0ACC06BF050EC26
:1033800026F06AC08EF06BC08FF06CC090F06DC0FC
:1033900091F075EC25F08AC0A3F08BC0A4F08CC02E
:1033A000A5F08DC0A6F0A3C08AF0A4C08BF0A5C084
:1033B0008CF0A6C08DF0010E00018E6F0D0E000185
:1033C0008F6F000E0001916F090E906F77EC22F065
:1033D0008AC09AF08BC09BF08CC09CF08DC09DF091
:1033E000ABC09EF0ACC09FF02AEC20F09AC0A3F0D6
:1033F0009BC0A4F09CC0A5F09DC0A6F00001AD51FB
:103400000001D8B435D00001A32916E10001A42998
:1034100013E17F0E0001A5190FE17F0E0001A6192F
:10342000D8A40AD0000E0001A36F000EA46F000EF6
:10343000A56F000EA66F1200000E00016A6F000E4D
:103440006B6F800E6C6F3F0E6D6FA3C06EF0A4C0EB
:103450006FF0A5C070F0A6C071F08FEC1FF06AC0CD
:10346000A3F06BC0A4F06CC0A5F06DC0A6F0120074
:10347000A3C0A3F0A4C0A4F0A5C0A5F0A6C0A6F068
:1034800012000001803581350001896F000184350B
:1034900085350001886F000189510001D8B411D031
:1034A000000188510001895DD8B014D00001895114
:1034B0000008000188250001866F200E0001866546
:1034C00009D082C07EF083C07FF084C080F085C0C8
:1034D00081F01200000188510001D8B411D0000120
:1034E00089510001885DD8B014D0000188510008CE
:1034F000000189250001866F200E0001866509D034
:103500007EC07EF07FC07FF080C080F081C081F0FF
:103510001200060E0001876F000181AF03D0000189
:10352000878F00D0000185AF02D00001878D000198
:10353000808FFF0E00017E17FF0E7F17FF0E801792
:10354000000E81170001848FFF0E00018217FF0E0D
:103550008317FF0E8417000E8517000188510001A4
:10356000895DD8B02AD00001D8908237833784375C
:103570008537000188070001895100018819D8B4F6
:1035800014D00001870787C086F0070E0001861758
:10359000D8B40BD0E8D709D00001D890813380335C
:1035A0007F337E330001892B00D000018851000158
:1035B0008919D8B432D0F0D730D000018951000138
:1035C000885DD8B02AD00001D8907E377F37803709
:1035D0008137000189070001895100018819D8B499
:1035E00014D00001870787C086F0070E00018617F8
:1035F000D8B40BD0E8D709D00001D89085338433F4
:10360000833382330001882B00D0000188510001F0
:103610008919D8B402D0F0D700D0000187AF11D0FB
:10362000FF0E00017E1BFF0E7F1BFF0E801BFF0E97
:10363000811B010E00017E27000E7F238023812342
:1036400000D0000187AD11D0FF0E0001821BFF0EDC
:10365000831BFF0E841BFF0E851B010E00018227BA
:10366000000E83238423852300D0000E0001876F82
:1036700000017E510001822700017F510001832358
:103680000001805100018423000181510001852344
:10369000000185AF14D0FF0E0001821BFF0E831BBB
:1036A000FF0E841BFF0E851B010E00018227000EFA
:1036B000832384238523010E0001876F00D082C0FD
:1036C00060F083C061F084C062F085C063F089C09F
:1036D00064F087C065F05EEC1DF060C07EF061C0F4
:1036E0007FF062C080F063C081F012001200000E13
:1036F0000101086F0001AE510001AF110001B011CE
:103700000001B111D8A425D0000E0001606F000E99
:10371000616F000E626F000E636FB2C064F0B3C0E1
:1037200065F0B4C066F0B5C067F004EC23F00001AA
:10373000D8A005D0000E0001DC6F210EDB6F000E5B
:103740000001AE6F000EAF6F000EB06F000EB16FD4
:1037500012000001B2510001B3110001B4110001C7
:10376000B511D8A40AD0000E0001AE6F000EAF6FE5
:10377000800EB06F3F0EB16F12000001B1AF58D094
:10378000B2C08AF0B3C08BF0B4C08CF0B5C08DF07D
:10379000EAEC21F08AC009F18BC00AF18CC00BF170
:1037A0008DC00CF109C16AF00AC16BF00BC16CF05D
:1037B0000CC16DF0D2EC26F00001B25100016A1983
:1037C00010E10001B35100016B190BE10001B4518C
:1037D00000016C1906E10001B55100016D19D8B462
:1037E0000FD0000E0001DC6F210EDB6F000E000118
:1037F000AE6F000EAF6F000EB06F000EB16F120013
:1038000001010951010B0101086FAEC060F0AFC0AA
:1038100061F0B0C062F0B1C063F098EC26F060C017
:10382000AEF061C0AFF062C0B0F063C0B1F000D0E4
:10383000AEC09AF0AFC09BF0B0C09CF0B1C09DF09C
:103840001EEC1EF09AC000F19BC001F19CC002F179
:103850009DC003F100C16FF001C170F002C171F0B1
:1038600003C172F0B2C073F0B3C074F0B4C075F0AD
:10387000B5C076F0DDEC1EF06FC004F170C005F14C
:1038800071C006F172C007F104C1A3F005C1A4F034
:1038900006C1A5F007C1A6F0FBEC18F0A3C0AEF07E
:1038A000A4C0AFF0A5C0B0F0A6C0B1F001010851AE
:1038B0000101D8B413D0AEC060F0AFC061F0B0C0A9
:1038C00062F0B1C063F098EC26F060C0AEF061C069
:1038D000AFF062C0B0F063C0B1F01200AEC0AEF0A5
:1038E000AFC0AFF0B0C0B0F0B1C0B1F01200000195
:1038F000776F800E59EC27F0000E706E000E716E1F
:10390000000E726E00017041E842C00B0001706F42
:103910000001705170120001715170120001775155
:10392000711200016E39E842F80B00016E6F000160
:103930006E517112000172A5718C000172A102D04A
:10394000718E00D000016F517212000172A302D07B
:10395000728C00D000017251600B606E00017251D8
:10396000100BFF0AD8B4608460CF50FF000E000136
:10397000606F000E616F000E626F000E636FF70ED6
:103980000001646F010E83EC15F0000E0001606F02
:10399000000E616F000E626F000E636FF70E000184
:1039A000646F020E83EC15F00FD0F70E0001786FF4
:1039B00007D0000178690001796928D00001786991
:1039C000F70E0001796F22D09F0E0001736FFF0E7A
:1039D0000001746F00017251600B0001756F766B0E
:1039E0000001735100017513000174510001761339
:1039F00000017651000AD8A4E1D700017551BF0A31
:103A0000D8B4D7D7600AD8B4D0D7D8D7000E000121
:103A1000606F000E616F000E626F000E636F78C002
:103A200064F0000EA7EC06F0000E0001606F000EBF
:103A3000616F000E626F000E636F78C064F0010E5C
:103A4000A7EC06F0000E0001606F000E616F000E23
:103A5000626F000E636F79C064F0020EA7EC06F08F
:103A6000000E0001606F000E616F000E626F000EAD
:103A7000636F79C064F0030EA7EC06F0000E00013E
:103A8000606F000E616F000E626F000E636F79C091
:103A900064F0040EA7EC06F0000E0001606F000E4B
:103AA000616F000E626F000E636F79C064F0050EE7
:103AB000A7EC06F0000E59EC27F01200000164514B
:103AC0000001D8B40AD00001605100016111000169
:103AD000621100016311D8A414D0000E0001606FC0
:103AE000000E616F000E626F000E636F120009D04E
:103AF0000001642B0001D89063336233613360337B
:103B000000D0000E000160150001666F000E00017C
:103B100061150001676F000E000162150001686FFA
:103B2000FE0E000163150001696F0001665100017E
:103B300067110001681100016911D8B411D0D8D7FC
:103B40000FD00001642B010E00016027000E6123DD
:103B5000622363230001D89063336233613360339F
:103B6000000E000160150001666F000E0001611576
:103B70000001676F000E000162150001686FFF0E03
:103B8000000163150001696F0001665100016711B2
:103B90000001681100016911D8B40BD0D2D709D047
:103BA000000164070001D8906037613762376337DE
:103BB00000D0000162BF05D0020E00016461F0D7A1
:103BC00000D0000164B109D0FF0E00016017FF0EA4
:103BD00061177F0E6217FF0E63170001D8906433E0
:103BE00064C066F00001676B686B696B66C069F062
:103BF0000001686B676B666B000166510001601322
:103C00000001675100016113000168510001621356
:103C10000001695100016313000165510001D8B42E
:103C200003D00001638F00D060C060F061C061F01C
:103C300062C062F063C063F01200120000019DAF29
:103C40000FD0000E0001DC6F210EDB6F000E0001B3
:103C50009A6F000E9B6F000E9C6F000E9D6F1200FE
:103C600000019A5100019B1100019C1100019D115E
:103C7000D8A40FD0000E0001DC6F220EDB6F000E07
:103C800000019A6F000E9B6F000E9C6F000E9D6FDF
:103C90001200000E0001736F000E746F000E756F3E
:103CA000400E766F9E0E0001646F000E0001656F7E
:103CB0009AC060F09BC061F09CC062F09DC063F050
:103CC000E8EC23F060C06FF061C070F062C071F08A
:103CD00063C072F0DDEC1EF06FC07EF070C07FF04C
:103CE00071C080F072C081F0000E0001826F000E82
:103CF000836F800E846FBF0E856F41EC1AF07EC01B
:103D00009AF07FC09BF080C09CF081C09DF00001C4
:103D10009E07D8A09F079AC08AF09BC08BF09CC0DA
:103D20008CF09DC08DF0290E00018E6F0D0E0001EC
:103D30008F6F000E0001916F080E906F77EC22F0EC
:103D40008AC09AF08BC09BF08CC09CF08DC09DF017
:103D5000180E0001736F720E746F310E756F3F0E87
:103D6000766F9EC06AF09FC06BF050EC26F06AC080
:103D70006FF06BC070F06CC071F06DC072F0DDEC74
:103D80001EF06FC07EF070C07FF071C080F072C016
:103D900081F09AC082F09BC083F09CC084F09DC0EB
:103DA00085F041EC1AF07EC09AF07FC09BF080C095
:103DB0009CF081C09DF01200120000017135723537
:103DC0000001776F00017751D8A40AD0000E0001DE
:103DD0006F6F000E706F000E716F000E726F120029
:103DE00000017535763500017D6F00017D51D8A445
:103DF0000AD0000E00016F6F000E706F000E716F21
:103E0000000E726F120000017D517B0F00017727B9
:103E100072C07DF00001765100017D1B800E000113
:103E20007D170001718F0001758FFF0E0001731760
:103E3000FF0E7417FF0E7517000E7617000E0001A7
:103E4000786F000E796F000E7A6F000E7B6F070E91
:103E500000017C6F00D000016FA111D000017351EF
:103E60000001782700017451000179230001755188
:103E700000017A230001765100017B2300D000016C
:103E8000D8907233713370336F330001D890733729
:103E900074377537763700017C2FDDD700D0110ECF
:103EA00000017C6F00D000016FA111D0000173519F
:103EB0000001782700017451000179230001755138
:103EC00000017A230001765100017B2300D000011C
:103ED000D8907233713370336F330001D8907B33D5
:103EE0007A337933783300017C2FDDD700D078C066
:103EF00060F079C061F07AC062F07BC063F077C097
:103F000064F07DC065F05EEC1DF060C06FF061C0D4
:103F100070F062C071F063C072F012001200000114
:103F20006C356D350001776F00017751D8A40AD048
:103F3000000E00016A6F000E6B6F000E6C6F000EBA
:103F40006D6F12000001703571350001786F00014E
:103F50007851D8A40AD0000E00016A6F000E6B6F72
:103F6000000E6C6F000E6D6F120000017851890F0A
:103F70000001775F6DC078F0000171510001781B7E
:103F8000800E0001781700016C8FFF0E00016A1788
:103F9000FF0E6B17FF0E6C17000E6D170001708F70
:103FA000FF0E00016E17FF0E6F17FF0E7017000E49
:103FB0007117200E0001766F00D00001D890723783
:103FC00073377437753700016E5100016A5D000167
:103FD0006F5100016B590001705100016C590001D3
:103FE000715100016D59D8A013D000016E5100012C
:103FF0006A5F00016F5100016B5B000170510001AD
:104000006C5B0001715100016D5B0001728100D099
:104010000001D8906A376B376C376D370001762F07
:10402000CCD700D072C060F073C061F074C062F091
:1040300075C063F077C064F078C065F05EEC1DF089
:1040400060C06AF061C06BF062C06CF063C06DF07C
:104050001200120000019A5100019B1100019C11F5
:1040600000019D11D8A40AD0000E00019A6F000E25
:104070009B6F000E9C6F000E9D6F120000019D5102
:104080007F0B0001A06FA16BD8900001A037A13772
:104090000001A05100019E270001A15100019F23B2
:1040A00000019CAF04D00001A06BA02B02D0000146
:1040B000A06B0001A05100019E27000E9F2300016C
:1040C0009FAF10D0000E0001DC6F220EDB6F000EE0
:1040D00000019A6F000E9B6F000E9C6F000E9D6F8B
:1040E000120047D000019FBF22D000019F05D8A039
:1040F0001ED0000E0001DC6F220EDB6F00019DAFB1
:104100000BD0FF0E00019A6FFF0E9B6F7F0E9C6F0E
:10411000FF0EE5D712002DD0FF0E00019A6FFF0EA3
:104120009B6F7F0E9C6F7F0EDAD7120022D00001AA
:104130009F359F310001A16F00019E310001A06FEA
:1041400000019D510001A019800BA01900019D6F75
:104150009EC0A0F0010E0001A0170001A033A03303
:1041600000019C510001A0197F0BA01900019C6F58
:1041700000D09AC09AF09BC09BF09CC09CF09DC060
:104180009DF012001200000E0001696F000167AF80
:104190000DD00001671F661F651F646D000E65234B
:1041A00066236723010E0001696F00D0000163AF31
:1041B0000DD00001631F621F611F606D000E61233F
:1041C00062236323010E0001691B00D0000E000171
:1041D0006A6F000E6B6F000E6C6F000E6D6F00014A
:1041E0006451000165110001661100016711D8B426
:1041F00047D0010E0001686F09D00001D8906437E4
:104200006537663767370001682B00D0000167BF4C
:1042100002D0F3D700D00001D8906A376B376C37E3
:104220006D37000164510001605D000165510001BE
:104230006159000166510001625900016751000196
:104240006359D8A013D0000164510001605F0001E0
:1042500065510001615B000166510001625B000174
:1042600067510001635B00016A8100D00001D890B2
:1042700067336633653364330001682FCCD700D0D1
:10428000000169510001D8B40AD000016D1F6C1FF4
:104290006B1F6A6D000E6B236C236D2300D06AC008
:1042A00060F06BC061F06CC062F06DC063F0120032
:1042B000120099C060F09AC061F09BC062F09CC08F
:1042C00063F0A10E0001646F000E0001656FE8EC61
:1042D00023F00001A2AF17D000019CAF0AD0000E5E
:1042E0000001996F000E9A6F800E9B6FBF0E9C6F3E
:1042F0001200000E0001996F000E9A6F000E9B6F66
:10430000000E9C6F12000001A25105E11D0E00017C
:10431000A15DD8A009D099C099F09AC09AF09BC02D
:104320009BF09CC09CF0120099C08AF09AC08BF060
:104330009BC08CF09CC08DF0EAEC21F08AC094F018
:104340008BC095F08CC096F08DC097F0D1EC25F025
:1043500094C09DF095C09EF096C09FF097C0A0F0CD
:1043600099C060F09AC061F09BC062F09CC063F09D
:104370009DC064F09EC065F09FC066F0A0C067F06D
:1043800004EC23F00001D8B01CD09DC07EF09EC08C
:104390007FF09FC080F0A0C081F0000E0001826F0E
:1043A000000E836F800E846FBF0E856F41EC1AF094
:1043B0007EC099F07FC09AF080C09BF081C09CF0D5
:1043C00012009DC099F09EC09AF09FC09BF0A0C0C3
:1043D0009CF0120000018C358D350001936F0001B7
:1043E0009351D8A40AD0000E00018A6F000E8B6F83
:1043F000000E8C6F000E8D6F12008AC08EF08BC085
:104400008FF08CC090F08DC091F0200E06D000018E
:10441000D890913390338F338E33E82EF8D7000144
:104420008E510001926F00018C8FFF0E00018A17E0
:10443000FF0E8B17FF0E8C17000E8D17960E0001C6
:10444000935F000193AF1BD000019351800A970F37
:10445000D8B00BD0000E00018A6F000E8B6F000EDB
:104460008C6F000E8D6F120000D00001D8908D333C
:104470008C338B338A330001933FF7D71FD01F0E45
:104480000001936514D0000E00018A6F000E8B6F3F
:10449000000E8C6F000E8D6F120009D00001D890B5
:1044A0008A378B378C378D370001930700D0000196
:1044B00093510001D8B402D0F1D700D0000192513D
:1044C0000001D8B40AD000018D1F8C1F8B1F8A6D8C
:1044D000000E8B238C238D2300D08AC08AF08BC0E2
:1044E0008BF08CC08CF08DC08DF01200120090C04B
:1044F00092F091C093F00001D89092379337000169
:10450000D890923793378EC094F08FC095F0000109
:10451000925100019427000193510001952394C00A
:10452000F6FF95C0F7FF000EF86E0900F5CF96F084
:104530000900F5CF97F00900F5CF98F00A00F5CF04
:1045400099F053D096C073F097C074F098C075F08E
:1045500099C076F08AC06FF08BC070F08CC071F09B
:104560008DC072F0DDEC1EF06FC07EF070C07FF089
:1045700071C080F072C081F000019007D8A091074F
:1045800090C092F091C093F00001D8909237933789
:104590000001D890923793378EC094F08FC095F079
:1045A00000019251000194270001935100019523CD
:1045B00094C0F6FF95C0F7FF000EF86E0900F5CF26
:1045C00082F00900F5CF83F00900F5CF84F00A00EE
:1045D000F5CF85F041EC1AF07EC096F07FC097F0E1
:1045E00080C098F081C099F000D000019051000186
:1045F0009111D8A4A7D796C08AF097C08BF098C025
:104600008CF099C08DF01200000163AF27D060C01C
:1046100068F061C069F062C06AF063C06BF00001CD
:10462000681F691F6A1F6B1F682B000E69236A23AE
:104630006B23000E000168250001606F000E000171
:1046400069210001616F000E00016A210001626FA3
:10465000800E00016B210001636F00D0000167AF85
:1046600026D064C068F065C069F066C06AF067C0B3
:104670006BF00001681F691F6A1F6B1F682B000E1B
:1046800069236A236B23000E000168250001646F13
:10469000000E000169210001656F000E00016A2112
:1046A0000001666F800E00016B210001676F000E34
:1046B0000001601B000E611B000E621B800E631B5D
:1046C000000E0001641B000E651B000E661B800EB1
:1046D000671B000164510001605D0001655100012C
:1046E00061590001665100016259000167510001E2
:1046F0006359D8B002D0D8901200D88012001200AE
:10470000000E00016B6F000169AF09D00001686DF8
:10471000691FD8B0692B010E00016B6F00D000013A
:1047200067AF09D00001666D671FD8B0672B010E17
:1047300000016B1B00D0000E00016D6F000E6C6F4E
:104740000001685100016911D8B431D0010E000197
:104750006A6F07D00001D8906837693700016A2B6B
:1047600000D0000169BF02D0F5D700D00001D89079
:104770006C376D37000168510001665D00016951B9
:1047800000016759D8A00BD0000168510001665F95
:10479000000169510001675B00016C8100D00001DC
:1047A000D8906933683300016A2FE0D700D0000148
:1047B0006B510001D8B406D000016C6D6D1FD8B0EC
:1047C0006D2B00D06CC066F06DC067F01200120057
:1047D00000016051000161110001621100016311CB
:1047E000D8A412D064C0D9FF65C0DAFF000EDE6E17
:1047F000000EDD6E000E0001606F000E616F000E96
:10480000626F000E636F1200000163517F0B0001A5
:10481000666F676BD89000016637673764C0D9FF51
:1048200065C0DAFF66C0DEFF67C0DDFF000162AF72
:1048300004D00001666B662B02D00001666B00019C
:10484000665164C0D9FF65C0DAFFDE12000EDD12CA
:1048500064C0D9FF65C0DAFF820EDE26FF0EDD22BE
:1048600063816383638563876389638B639D0001D1
:10487000629F60C060F061C061F062C062F063C0BE
:1048800063F012001200060E00016E6F050E0001AB
:104890006F6F010E0001706F030E0001716F9D0EAE
:1048A0000001726F040E77EC1CF0D08EF292A4928D
:1048B000A490A592A590F28EF28C010EB16EA192F9
:1048C000A292630EB36EC00EB26EC280C294C29644
:1048D000C298C29AC190C182C184C186C198C19A4E
:1048E000C080C092C084C096C088C08AC09EA38287
:1048F000A380A082000E896E7D0E926E000E8A6EDD
:10490000FB0E936E000E8B6E000E946E000E8C6E7E
:10491000000E956E000E8D6E9668000E0001676F9A
:10492000020E666FECEC26F0FC0E0001606F7F0E4D
:10493000FDEC25F012003FAC4AD0230424102510D2
:104940002610D8A40AD0000E2B6E000E2C6E000E7E
:104950002D6E000E2E6E808200D0080E23182410BB
:1049600025102610D8A41CD038C0DFF00001E06B61
:104970000001DF510001606F37500001DF6F60C040
:10498000E0F03AC0E3F00001E46B0001E351000104
:10499000606F39500001E36F60C0E4F0408400D0E4
:1049A000020E2318241025102610D8B40ED0030EA2
:1049B0002318241025102610D8B407D0040E23186D
:1049C000241025102610D8A402D03F9000D03F9C80
:1049D0001200C28200D0C2B2FED7C4CF33F0346A14
:1049E00033C060F034C061F0000E0001636F0E0E42
:1049F000626FB6EC26F060C066F061C067F0000E32
:104A00000001696F686980EC23F066C033F067C00D
:104A100034F034BE08D0345024E10A0E335CD8A000
:104A200002D01FD000D035EC27F0E806D8A4FBD781
:104A30000B0E0001606F000E616F000E626F000EC2
:104A4000636F370E0001646F000E0001656F080E82
:104A50000001666FFC0E0001676F3CEC0CF0828277
:104A60001200829212001200000E0001666F000E0A
:104A7000656F0001625100016311D8B431D0010E9D
:104A80000001646F07D00001D890623763370001DE
:104A9000642B00D0000163BF02D0F5D700D0000125
:104AA000D89065376637000162510001605D0001F2
:104AB000635100016159D8A00BD00001625100017F
:104AC000605F000163510001615B0001658100D0FE
:104AD0000001D890633362330001642FE0D700D027
:104AE00065C060F066C061F0120000018E510001E7
:104AF0008F110001901100019111D8B40AD0000E5D
:104B000000018E1B000E8F1B000E901B800E911B50
:104B100000D08AC07EF08BC07FF08CC080F08DC04A
:104B200081F08EC082F08FC083F090C084F091C07D
:104B300085F041EC1AF07EC08AF07FC08BF080C017
:104B40008CF081C08DF01200120001EE19F0100EF1
:104B5000EE6AE806FDE100EEBFF03E0EEE6AE80602
:104B6000FDE1406A3F6A00EE23F01C0EEE6AE806A3
:104B7000FDE1F40EF66E4E0EF76E000EF86E0900B3
:104B8000F5CFFDF00900F5CFFEF0F60EF66E4E0EF5
:104B9000F76E000EF86E0900F5CF41F0000158EFF6
:104BA00017F0000E0001986F000197AF0DD00001C3
:104BB000971F961F951F946D000E9523962397239C
:104BC000010E0001986F00D094C060F095C061F0B4
:104BD00096C062F097C063F0960E0001646F98C0B3
:104BE00065F05EEC1DF060C094F061C095F062C0AD
:104BF00096F063C097F0120012000001616FBA5086
:104C0000C00900016115BA6EBA500F0900016015A4
:104C1000BA6E3F0E00016119D8A402D09598120017
:104C2000BF0E00016119D8A403D09598959A12007F
:104C30007F0E00016119D8B404D000016129D8A405
:104C400012009598959A959C959E1200120035EC4D
:104C500027F00009D8A43FAE18D023C060F024C0CC
:104C600061F025C062F026C063F0370E0001646F6A
:104C7000000E0001656F080E0001666FBC0E00019A
:104C8000676F3CEC0CF03F9E00D00F0140BD03D09D
:104C90000F0130AD02D03F8212003F92120012008D
:104CA000000E00016E6F00016BAF08D000016A6D4D
:104CB0006B1FD8B06B2B00016E2B00D06AC060F068
:104CC0006BC061F00001626B636B960E0001646F54
:104CD0006EC065F05EEC1DF060C06AF061C06BF004
:104CE00062C06CF063C06DF01200120060C062F030
:104CF00061C063F0060ED890000162376337E82E7A
:104D0000FAD762C064F063C065F065C0BBFF64C0E1
:104D100062F00001D89062330001D8906233300E07
:104D200000016217BA50CF0B00016211BA6E120077
:104D30000001605100016111000162110001631165
:104D4000D8B40AD0000E0001601B000E611B000EDB
:104D5000621B800E631B00D060C060F061C061F018
:104D600062C062F063C063F0120012000001605183
:104D700000016203F3CF64F0F4CF65F000016051ED
:104D800000016303F3500001652700016151000138
:104D90006203F3500001652764C060F065C061F0F4
:104DA000120012006AC060F06BC061F06CC062F06B
:104DB0006DC063F0960E0001646F000E0001656F18
:104DC0005EEC1DF060C06AF061C06BF062C06CF018
:104DD00063C06DF01200120041C060F00001616B11
:104DE00066C062F067C063F0B6EC26F060C02FF0DA
:104DF00061C030F006D0500EE82EFED72F06D8A0A6
:104E000030062F503010D8A4F6D712006AC060F0D8
:104E10006BC061F00001626B636B960E0001646F02
:104E2000000E0001656F5EEC1DF060C06AF061C0AD
:104E30006BF062C06CF063C06DF0120012000001F4
:104E400061AF0ED060C062F061C063F00001621F0C
:104E5000631F624B632B62C060F063C061F012009D
:104E600060C060F061C061F01200010E0001606F6F
:104E70000F0140A709D00F0130A706D00F0120A7CE
:104E800003D0000E0001606F00016051120012009B
:104E90000001606F00016051FB0BCA6E000ECC6E0A
:104EA0009E92000160AF02D09D8201D09D92CA8483
:104EB00012000001606F60C06FFF00D06E50E00B09
:104EC00000016019D8A4FAD71200010E016E60BE6D
:104ED00005D00F0150BF02D0000E016E015012002C
:104EE00012000001606F0C0EBA6ECA9460C0CBFF56
:084EF000CA8412000100100049
:020000040030CA
:0E000000FF021F1EFF8081FF3FC03FE03F4018
:00000001FF
