:040000009BEF00F082
:100018004180D8CF0DF0E8CF0EF0E0CF0FF0FACF47
:1000280010F0FBCF11F0E9CF12F0EACF13F0E1CFD7
:1000380014F0E2CF15F0D9CF16F0DACF17F0F3CFDE
:1000480018F0F4CF19F0F6CF1AF0F7CF1BF0F8CF6D
:100058001CF0F5CF1DF0A4A0A4B201D036D060ECFE
:1000680013F00009D8B42FD08C0E016E000E026E6A
:100078007AEC09F000019AA102D0388C01D0389CA2
:100088008CC028F08DC029F08EC02AF08FC02BF0CC
:10009800000E1E6E070E1E6401D014D01E50010DF6
:1000A800900EF324D96E000EF420DA6E1E50010D66
:1000B8009B0EF324E16E000EF420E26EDFCFE7FF23
:1000C8001E2AE8D7388AA490A492A1A20CD0010EC7
:1000D80000018027000E812382238323630EB36EE1
:1000E800C00EB26EA1921DC0F5FF1CC0F8FF1BC068
:1000F800F7FF1AC0F6FF19C0F4FF18C0F3FF17C0C6
:10010800DAFF16C0D9FF15C0E2FF14C0E1FF13C023
:10011800EAFF12C0E9FF11C0FBFF10C0FAFF0FC0D1
:10012800E0FF0EC0E8FF0DC0D8FF419010006EEF51
:1001380012F00001AF6F0001AF510001D8A453D0F5
:100148002328D8A450D00F0101971FC0ABF020C0BE
:10015800ACF021C0ADF022C0AEF0040E06D0000114
:10016800D890AE33AD33AC33AB33E82EF8D7ABC051
:10017800B0F0ACC0B1F0ADC0B2F0AEC0B3F00001A9
:10018800B0510001B06FB16BB26BB36BB0C000FF80
:10019800070E1F140001B06F000E20140001B16F8C
:1001A800000E21140001B26F000E22140001B36F7B
:1001B800B0C0ABF0B1C0ACF0B2C0ADF0B3C0AEF0FF
:1001C800050ED8900001AB37AC37AD37AE37E82E07
:1001D800F8D7ABC0B0F0ACC0B1F0ADC0B2F0AEC0B3
:1001E800B3F0B0C001FF0001AF05D8A453D0232855
:1001F800D8A450D00F0105971FC0ABF020C0ACF0B9
:1002080021C0ADF022C0AEF0040E06D00001D89097
:10021800AE33AD33AC33AB33E82EF8D7ABC0B0F068
:10022800ACC0B1F0ADC0B2F0AEC0B3F00001B05197
:100238000001B06FB16BB26BB36BB0C004FF070EB7
:100248001F140001B06F000E20140001B16F000EE2
:1002580021140001B26F000E22140001B36FB0C068
:10026800ABF0B1C0ACF0B2C0ADF0B3C0AEF0050EAB
:10027800D8900001AB37AC37AD37AE37E82EF8D79A
:10028800ABC0B0F0ACC0B1F0ADC0B2F0AEC0B3F02E
:10029800B0C005FF020E0001AF19D8A453D023281F
:1002A800D8A450D00F0109971FC0ABF020C0ACF004
:1002B80021C0ADF022C0AEF0040E06D00001D890E7
:1002C800AE33AD33AC33AB33E82EF8D7ABC0B0F0B8
:1002D800ACC0B1F0ADC0B2F0AEC0B3F00001B051E7
:1002E8000001B06FB16BB26BB36BB0C008FF070E03
:1002F8001F140001B06F000E20140001B16F000E32
:1003080021140001B26F000E22140001B36FB0C0B7
:10031800ABF0B1C0ACF0B2C0ADF0B3C0AEF0050EFA
:10032800D8900001AB37AC37AD37AE37E82EF8D7E9
:10033800ABC0B0F0ACC0B1F0ADC0B2F0AEC0B3F07D
:10034800B0C009FF030E0001AF19D8A453D0232869
:10035800D8A450D00F010D971FC0ABF020C0ACF04F
:1003680021C0ADF022C0AEF0040E06D00001D89036
:10037800AE33AD33AC33AB33E82EF8D7ABC0B0F007
:10038800ACC0B1F0ADC0B2F0AEC0B3F00001B05136
:100398000001B06FB16BB26BB36BB0C00CFF070E4E
:1003A8001F140001B06F000E20140001B16F000E81
:1003B80021140001B26F000E22140001B36FB0C007
:1003C800ABF0B1C0ACF0B2C0ADF0B3C0AEF0050E4A
:1003D800D8900001AB37AC37AD37AE37E82EF8D739
:1003E800ABC0B0F0ACC0B1F0ADC0B2F0AEC0B3F0CD
:1003F800B0C00DFF040E0001AF19D8A453D02328B4
:10040800D8A450D00F0111971FC0ABF020C0ACF09A
:1004180021C0ADF022C0AEF0040E06D00001D89085
:10042800AE33AD33AC33AB33E82EF8D7ABC0B0F056
:10043800ACC0B1F0ADC0B2F0AEC0B3F00001B05185
:100448000001B06FB16BB26BB36BB0C010FF070E99
:100458001F140001B06F000E20140001B16F000ED0
:1004680021140001B26F000E22140001B36FB0C056
:10047800ABF0B1C0ACF0B2C0ADF0B3C0AEF0050E99
:10048800D8900001AB37AC37AD37AE37E82EF8D788
:10049800ABC0B0F0ACC0B1F0ADC0B2F0AEC0B3F01C
:1004A800B0C011FF050E0001AF19D8A453D02328FE
:1004B800D8A450D00F0115971FC0ABF020C0ACF0E6
:1004C80021C0ADF022C0AEF0040E06D00001D890D5
:1004D800AE33AD33AC33AB33E82EF8D7ABC0B0F0A6
:1004E800ACC0B1F0ADC0B2F0AEC0B3F00001B051D5
:1004F8000001B06FB16BB26BB36BB0C014FF070EE5
:100508001F140001B06F000E20140001B16F000E1F
:1005180021140001B26F000E22140001B36FB0C0A5
:10052800ABF0B1C0ACF0B2C0ADF0B3C0AEF0050EE8
:10053800D8900001AB37AC37AD37AE37E82EF8D7D7
:10054800ABC0B0F0ACC0B1F0ADC0B2F0AEC0B3F06B
:10055800B0C015FF0001AF510001D8A47ED0F70E3E
:100568002318D8A47AD00F0101871F500001B06F5B
:10057800B16BB26BB36BB0C003FF000E1F14000168
:10058800B06FFF0E20140001B16F000E211400019E
:10059800B26F000E22140001B36FB0C0ABF0B1C04F
:1005A800ACF0B2C0ADF0B3C0AEF0ACC0ABF0ADC013
:1005B800ACF0AEC0ADF00001AE6BABC0B0F0ACC0FB
:1005C800B1F0ADC0B2F0AEC0B3F0B0C002FF21A030
:1005D80003D00F01018102D00F01019121A203D0A4
:1005E8000F01018302D00F01019321A403D00F0151
:1005F800018B02D00F01019B21A603D00F01018DB1
:1006080002D00F01019D21A803D00F01018F02D054
:100618000F01019F1FC0ABF020C0ACF021C0ADF0AE
:1006280022C0AEF0160E06D00001D890AE33AD331E
:10063800AC33AB33E82EF8D7ABC0B0F0ACC0B1F0F8
:10064800ADC0B2F0AEC0B3F00001B0510001B06F60
:10065800B16BB26BB36BB0C000FF0001AF05D8A49B
:100668007ED0F70E2318D8A47AD00F0105871F5023
:100678000001B06FB16BB26BB36BB0C007FF000E77
:100688001F140001B06FFF0E20140001B16F000E9F
:1006980021140001B26F000E22140001B36FB0C024
:1006A800ABF0B1C0ACF0B2C0ADF0B3C0AEF0ACC00E
:1006B800ABF0ADC0ACF0AEC0ADF00001AE6BABC0FE
:1006C800B0F0ACC0B1F0ADC0B2F0AEC0B3F0B0C0E5
:1006D80006FF21A003D00F01058102D00F0105916B
:1006E80021A203D00F01058302D00F01059321A495
:1006F80003D00F01058B02D00F01059B21A603D063
:100708000F01058D02D00F01059D21A803D00F010F
:10071800058F02D00F01059F1FC0ABF020C0ACF0C1
:1007280021C0ADF022C0AEF0160E06D00001D89060
:10073800AE33AD33AC33AB33E82EF8D7ABC0B0F043
:10074800ACC0B1F0ADC0B2F0AEC0B3F00001B05172
:100758000001B06FB16BB26BB36BB0C004FF020E97
:100768000001AF19D8A47ED0F70E2318D8A47AD0E8
:100778000F0109871F500001B06FB16BB26BB36BEB
:10078800B0C00BFF000E1F140001B06FFF0E201445
:100798000001B16F000E21140001B26F000E221487
:1007A8000001B36FB0C0ABF0B1C0ACF0B2C0ADF0F7
:1007B800B3C0AEF0ACC0ABF0ADC0ACF0AEC0ADF005
:1007C8000001AE6BABC0B0F0ACC0B1F0ADC0B2F0E0
:1007D800AEC0B3F0B0C00AFF21A003D00F01098159
:1007E80002D00F01099121A203D00F01098302D081
:1007F8000F01099321A403D00F01098B02D00F0127
:10080800099B21A603D00F01098D02D00F01099D74
:1008180021A803D00F01098F02D00F01099F1FC023
:10082800ABF020C0ACF021C0ADF022C0AEF0160E87
:1008380006D00001D890AE33AD33AC33AB33E82EDD
:10084800F8D7ABC0B0F0ACC0B1F0ADC0B2F0AEC03C
:10085800B3F00001B0510001B06FB16BB26BB36B74
:10086800B0C008FF030E0001AF19D8A47ED0F70E60
:100878002318D8A47AD00F010D871F500001B06F3C
:10088800B16BB26BB36BB0C00FFF000E1F14000149
:10089800B06FFF0E20140001B16F000E211400018B
:1008A800B26F000E22140001B36FB0C0ABF0B1C03C
:1008B800ACF0B2C0ADF0B3C0AEF0ACC0ABF0ADC000
:1008C800ACF0AEC0ADF00001AE6BABC0B0F0ACC0E8
:1008D800B1F0ADC0B2F0AEC0B3F0B0C00EFF21A011
:1008E80003D00F010D8102D00F010D9121A203D079
:1008F8000F010D8302D00F010D9321A403D00F0126
:100908000D8B02D00F010D9B21A603D00F010D8D79
:1009180002D00F010D9D21A803D00F010D8F02D029
:100928000F010D9F1FC0ABF020C0ACF021C0ADF08F
:1009380022C0AEF0160E06D00001D890AE33AD330B
:10094800AC33AB33E82EF8D7ABC0B0F0ACC0B1F0E5
:10095800ADC0B2F0AEC0B3F00001B0510001B06F4D
:10096800B16BB26BB36BB0C00CFF040E0001AF19D2
:10097800D8A47ED0F70E2318D8A47AD00F011187F7
:100988001F500001B06FB16BB26BB36BB0C013FFF7
:10099800000E1F140001B06FFF0E20140001B16F8C
:1009A800000E21140001B26F000E22140001B36F73
:1009B800B0C0ABF0B1C0ACF0B2C0ADF0B3C0AEF0F7
:1009C800ACC0ABF0ADC0ACF0AEC0ADF00001AE6BEA
:1009D800ABC0B0F0ACC0B1F0ADC0B2F0AEC0B3F0D7
:1009E800B0C012FF21A003D00F01118102D00F0166
:1009F800119121A203D00F01118302D00F0111938D
:100A080021A403D00F01118B02D00F01119B21A645
:100A180003D00F01118D02D00F01119D21A803D021
:100A28000F01118F02D00F01119F1FC0ABF020C022
:100A3800ACF021C0ADF022C0AEF0160E06D0000119
:100A4800D890AE33AD33AC33AB33E82EF8D7ABC068
:100A5800B0F0ACC0B1F0ADC0B2F0AEC0B3F00001C0
:100A6800B0510001B06FB16BB26BB36BB0C010FF87
:100A7800050E0001AF19D8A41200F70E2318D8A448
:100A880012000F0115871F500001B06FB16BB26BD8
:100A9800B36BB0C017FF000E1F140001B06FFF0E3C
:100AA80020140001B16F000E21140001B26F000E76
:100AB80022140001B36FB0C0ABF0B1C0ACF0B2C04B
:100AC800ADF0B3C0AEF0ACC0ABF0ADC0ACF0AEC0F2
:100AD800ADF00001AE6BABC0B0F0ACC0B1F0ADC0D2
:100AE800B2F0AEC0B3F0B0C016FF21A003D00F0122
:100AF800158102D00F01159121A203D00F01158392
:100B080002D00F01159321A403D00F01158B02D039
:100B18000F01159B21A603D00F01158D02D00F01DF
:100B2800159D21A803D00F01158F02D00F01159F25
:100B38001FC0ABF020C0ACF021C0ADF022C0AEF0B9
:100B4800160E06D00001D890AE33AD33AC33AB33BC
:100B5800E82EF8D7ABC0B0F0ACC0B1F0ADC0B2F081
:100B6800AEC0B3F00001B0510001B06FB16BB26B11
:100B7800B36BB0C014FF12000F0140B73BD1B1C036
:100B880045FF0001B2AD03D00F01458D02D00F0122
:100B9800459D0001B2A777D00001AB510001B36FAA
:100BA800B46BB56BB66BB3C044FF000E0001AB1558
:100BB8000001B36FFF0E0001AC150001B46F000E09
:100BC8000001AD150001B56F000E0001AE15000162
:100BD800B66FB3C01FF0B4C020F0B5C021F0B6C0E6
:100BE80022F020C01FF021C020F022C021F0226A8C
:100BF8001FC0B3F020C0B4F021C0B5F022C0B6F0D9
:100C0800B3C043FF000E0F01426F0F01428700017E
:100C1800ADA102D00F0142810001ADA302D00F01A6
:100C280042830001ADA502D00F01428B0001ADA7A0
:100C380002D00F01428D0001ADA902D00F01428FF1
:100C4800ABC01FF0ACC020F0ADC021F0AEC022F0A8
:100C5800160E05D0D8902232213220321F32E82ECB
:100C6800F9D71FC0B3F020C0B4F021C0B5F022C03E
:100C7800B6F00001B3510001B36FB46BB56BB66B3E
:100C8800B3C041FF57D00F014297ABC01FF0ACC0B3
:100C980020F0ADC021F0AEC022F0040E05D0D890EF
:100CA8002232213220321F32E82EF9D71FC0B3F08A
:100CB80020C0B4F021C0B5F022C0B6F00001B35195
:100CC8000001B36FB46BB56BB66BB3C041FF070ED1
:100CD8000001AB150001B36F000E0001AC15000157
:100CE800B46F000E0001AD150001B56F000E0001D4
:100CF800AE150001B66FB3C01FF0B4C020F0B5C088
:100D080021F0B6C022F0050ED8901F3620362136C5
:100D18002236E82EF9D71FC0B3F020C0B4F021C0A6
:100D2800B5F022C0B6F00F0142511F0B0F01426F00
:100D3800B3C042FF0001B2A103D00F01408102D02D
:100D48000F0140910001B2A303D00F01408302D0EC
:100D58000F014093AFC0D9FFB0C0DAFFDF500F01D9
:100D6800466F000120EE01F0AF51D926B051DA22CA
:100D7800DF500F01476F000120EE02F0AF51D92676
:100D8800B051DA22DF500F01486F000120EE03F066
:100D9800AF51D926B051DA22DF500F01496F000157
:100DA80020EE04F0AF51D926B051DA22DF500F01FE
:100DB8004A6F000120EE05F0AF51D926B051DA2272
:100DC800DF500F014B6F000120EE06F0AF51D9261E
:100DD800B051DA22DF500F014C6F000120EE07F00E
:100DE800AF51D926B051DA22DF500F014D6F0F01F4
:100DF800408712000F0130B73BD1B1C035FF000169
:100E0800B2AD03D00F01358D02D00F01359D000121
:100E1800B2A777D00001AB510001B36FB46BB56BCB
:100E2800B66BB3C034FF000E0001AB150001B36F01
:100E3800FF0E0001AC150001B46F000E0001AD15E6
:100E48000001B56F000E0001AE150001B66FB3C00A
:100E58001FF0B4C020F0B5C021F0B6C022F020C009
:100E68001FF021C020F022C021F0226A1FC0B3F079
:100E780020C0B4F021C0B5F022C0B6F0B3C033FF33
:100E8800000E0F01326F0F0132870001ADA102D0B1
:100E98000F0132810001ADA302D00F01328300019E
:100EA800ADA502D00F01328B0001ADA702D00F0112
:100EB800328D0001ADA902D00F01328FABC01FF0F7
:100EC800ACC020F0ADC021F0AEC022F0160E05D0A7
:100ED800D8902232213220321F32E82EF9D71FC093
:100EE800B3F020C0B4F021C0B5F022C0B6F00001C4
:100EF800B3510001B36FB46BB56BB66BB3C031FFC0
:100F080057D00F013297ABC01FF0ACC020F0ADC076
:100F180021F0AEC022F0040E05D0D8902232213242
:100F280020321F32E82EF9D71FC0B3F020C0B4F02A
:100F380021C0B5F022C0B6F00001B3510001B36F73
:100F4800B46BB56BB66BB3C031FF070E0001AB15C0
:100F58000001B36F000E0001AC150001B46F000E64
:100F68000001AD150001B56F000E0001AE150001BE
:100F7800B66FB3C01FF0B4C020F0B5C021F0B6C042
:100F880022F0050ED8901F36203621362236E82E5C
:100F9800F9D71FC0B3F020C0B4F021C0B5F022C00B
:100FA800B6F00F0132511F0B0F01326FB3C032FF81
:100FB8000001B2A103D00F01308102D00F0130919E
:100FC8000001B2A303D00F01308302D00F01309388
:100FD800AFC0D9FFB0C0DAFFDF500F01366F000194
:100FE80020EE01F0AF51D926B051DA22DF500F01BF
:100FF800376F000120EE02F0AF51D926B051DA2246
:10100800DF500F01386F000120EE03F0AF51D926F1
:10101800B051DA22DF500F01396F000120EE04F0E1
:10102800AF51D926B051DA22DF500F013A6F0001D3
:1010380020EE05F0AF51D926B051DA22DF500F016A
:101048003B6F000120EE06F0AF51D926B051DA22ED
:10105800DF500F013C6F000120EE07F0AF51D92699
:10106800B051DA22DF500F013D6F0F0130871200B7
:101078000F0120B71200B1C025FF0001B2AD03D0A7
:101088000F01258D02D00F01259D0001B2A777D051
:101098000001AB510001B36FB46BB56BB66BB3C055
:1010A80024FF000E0001AB150001B36FFF0E000115
:1010B800AC150001B46F000E0001AD150001B56F4D
:1010C800000E0001AE150001B66FB3C01FF0B4C02A
:1010D80020F0B5C021F0B6C022F020C01FF021C01A
:1010E80020F022C021F0226A1FC0B3F020C0B4F063
:1010F80021C0B5F022C0B6F0B3C023FF000E0F0127
:10110800226F0F0122870001ADA102D00F012281B9
:101118000001ADA302D00F0122830001ADA502D0CA
:101128000F01228B0001ADA702D00F01228D000113
:10113800ADA902D00F01228FABC01FF0ACC020F0C8
:10114800ADC021F0AEC022F0160E05D0D8902232E4
:10115800213220321F32E82EF9D71FC0B3F020C049
:10116800B4F021C0B5F022C0B6F00001B3510001BF
:10117800B36FB46BB56BB66BB3C021FF57D00F011B
:101188002297ABC01FF0ACC020F0ADC021F0AEC0BC
:1011980022F0040E05D0D8902232213220321F329C
:1011A800E82EF9D71FC0B3F020C0B4F021C0B5F0C5
:1011B80022C0B6F00001B3510001B36FB46BB56B38
:1011C800B66BB3C021FF070E0001AB150001B36F6A
:1011D800000E0001AC150001B46F000E0001AD1542
:1011E8000001B56F000E0001AE150001B66FB3C067
:1011F8001FF0B4C020F0B5C021F0B6C022F0050E33
:10120800D8901F36203621362236E82EF9D71FC04F
:10121800B3F020C0B4F021C0B5F022C0B6F00F0181
:1012280022511F0B0F01226FB3C022FF0001B2A190
:1012380003D00F01208102D00F0120910001B2A339
:1012480003D00F01208302D00F012093AFC0D9FF34
:10125800B0C0DAFFDF500F01266F000120EE01F069
:10126800AF51D926B051DA22DF500F01276F0001A4
:1012780020EE02F0AF51D926B051DA22DF500F012B
:10128800286F000120EE03F0AF51D926B051DA22C1
:10129800DF500F01296F000120EE04F0AF51D9266D
:1012A800B051DA22DF500F012A6F000120EE05F05D
:1012B800AF51D926B051DA22DF500F012B6F000150
:1012C80020EE06F0AF51D926B051DA22DF500F01D7
:1012D8002C6F000120EE07F0AF51D926B051DA2269
:1012E800DF500F012D6F0F0120871200000E0B6ECB
:1012F80074BE0B8074BC0B820F0150AF43D101C088
:10130800D9FF02C0DAFFDE6ADE6ADE6ADD6A20EE35
:1013180004F00150D9260250DA2256CFDFFF20EE22
:1013280005F00150D9260250DA2257CFDFFF20EE10
:1013380006F00150D9260250DA2258CFDFFF20EEFE
:1013480007F00150D9260250DA2259CFDFFF20EEEC
:1013580008F00150D9260250DA225ACFDFFF20EEDA
:1013680009F00150D9260250DA225BCFDFFF20EEC8
:101378000AF00150D9260250DA225CCFDFFF20EEB6
:101388000BF00150D9260250DA225DCFDFFF20EEA4
:101398000EF00150D9260250DA220F0155AD02D0C5
:1013A800010E01D0000EDF6E20EE0DF00150D9269F
:1013B8000250DA220F0155510F0BDF6E20EE0CF0B0
:1013C8000150D9260250DA220F0152A702D0010E8D
:1013D80001D0000EDF6E0F0152B744D051CF03F099
:1013E800046A056A066A030ED89003360436053681
:1013F8000636E82EF9D701C0D9FF02C0DAFF03C0CC
:10140800DEFF04C0DEFF05C0DEFF06C0DEFF0F0101
:101418005239E842070B070B0C6E01C0D9FF02C016
:10142800DAFFDECF03F0DECF04F0DECF05F0DECF4B
:1014380006F00C500324076E000E0420086E000E00
:101448000520096E000E06200A6E01C0D9FF02C0F1
:10145800DAFF07C0DEFF08C0DEFF09C0DEFF0AC0F2
:10146800DEFF8DD054CF03F0046A056A066A01C016
:10147800D9FF02C0DAFF03C0DEFF04C0DEFF05C0EB
:10148800DEFF06C0DEFF53CF03F0046A056A066A72
:1014980005C006F004C005F003C004F0036A01C0EB
:1014A800D9FF02C0DAFF0350DE260450DE220550C1
:1014B800DE220650DE220F0152A10CD001C0D9FF56
:1014C80002C0DAFF000EDE12000EDE12010EDE127E
:1014D800000EDE120F0152A30CD001C0D9FF02C0CA
:1014E800DAFF000EDE12000EDE12020EDE12000E11
:1014F800DE120F0152AB0CD001C0D9FF02C0DAFFD7
:10150800000EDE12000EDE12040EDE12000EDE12D7
:101518000F0152AD0CD001C0D9FF02C0DAFF000E96
:10152800DE12000EDE12080EDE12000EDE120F01B1
:1015380052AF0CD001C0D9FF02C0DAFF000EDE1294
:10154800000EDE12100EDE12000EDE1251CF03F076
:10155800046A056A066A150ED890033604360536FD
:101568000636E82EF9D701C0D9FF02C0DAFF0350CA
:10157800DE120450DE120550DE120650DE120F0194
:10158800509F120060AE120001C0D9FF02C0DAFFFE
:10159800DE6ADE6ADE6ADD6A20EE04F00150D926D2
:1015A8000250DA2266CFDFFF20EE05F00150D9267F
:1015B8000250DA2267CFDFFF20EE06F00150D9266D
:1015C8000250DA2268CFDFFF20EE07F00150D9265B
:1015D8000250DA2269CFDFFF20EE08F00150D92649
:1015E8000250DA226ACFDFFF20EE09F00150D92637
:1015F8000250DA226BCFDFFF20EE0AF00150D92625
:101608000250DA226CCFDFFF20EE0BF00150D92612
:101618000250DA226DCFDFFF20EE0EF00150D926FE
:101628000250DA2265AC02D0010E01D0000EDF6E46
:1016380020EE0DF00150D9260250DA2265500F0B2A
:10164800DF6E20EE0CF00150D9260250DA2262A695
:1016580002D0010E01D0000EDF6E62B643D061CF1A
:1016680003F0046A056A066A030ED8900336043646
:1016780005360636E82EF9D701C0D9FF02C0DAFFD1
:1016880003C0DEFF04C0DEFF05C0DEFF06C0DEFFCC
:101698006238E842070B070B0C6E01C0D9FF02C085
:1016A800DAFFDECF03F0DECF04F0DECF05F0DECFC9
:1016B80006F00C500324076E000E0420086E000E7E
:1016C8000520096E000E06200A6E01C0D9FF02C06F
:1016D800DAFF07C0DEFF08C0DEFF09C0DEFF0AC070
:1016E800DEFF88D064CF03F0046A056A066A01C089
:1016F800D9FF02C0DAFF03C0DEFF04C0DEFF05C069
:10170800DEFF06C0DEFF63CF03F0046A056A066ADF
:1017180005C006F004C005F003C004F0036A01C068
:10172800D9FF02C0DAFF0350DE260450DE2205503E
:10173800DE220650DE2262A00CD001C0D9FF02C012
:10174800DAFF000EDE12000EDE12010EDE12000EAF
:10175800DE1262A20CD001C0D9FF02C0DAFF000E6F
:10176800DE12000EDE12020EDE12000EDE1262AA79
:101778000CD001C0D9FF02C0DAFF000EDE12000E45
:10178800DE12040EDE12000EDE1262AC0CD001C0B6
:10179800D9FF02C0DAFF000EDE12000EDE12080EBC
:1017A800DE12000EDE1262AE0CD001C0D9FF02C0FC
:1017B800DAFF000EDE12000EDE12100EDE12000E30
:1017C800DE1261CF03F0046A056A066A150ED89026
:1017D8000336043605360636E82EF9D701C0D9FF98
:1017E80002C0DAFF0350DE120450DE120550DE128A
:1017F8000650DE12609E12000001AF6F0001AF05B7
:10180800D8A451D02328D8A44ED01FC0ABF020C0F4
:10181800ACF021C0ADF022C0AEF0040E06D000013D
:10182800D890AE33AD33AC33AB33E82EF8D7ABC07A
:10183800B0F0ACC0B1F0ADC0B2F0AEC0B3F00001D2
:10184800B0510001B06FB16BB26BB36BB0C018FF91
:10185800070E1F140001B06F000E20140001B16FB5
:10186800000E21140001B26F000E22140001B36FA4
:10187800B0C0ABF0B1C0ACF0B2C0ADF0B3C0AEF028
:10188800050ED8900001AB37AC37AD37AE37E82E30
:10189800F8D7ABC0B0F0ACC0B1F0ADC0B2F0AEC0DC
:1018A800B3F0B0C019FF020E0001AF19D8A451D08F
:1018B8002328D8A44ED01FC0ABF020C0ACF021C064
:1018C800ADF022C0AEF0040E06D00001D890AE33C1
:1018D800AD33AC33AB33E82EF8D7ABC0B0F0ACC007
:1018E800B1F0ADC0B2F0AEC0B3F00001B05100012C
:1018F800B06FB16BB26BB36BB0C01CFF070E1F1497
:101908000001B06F000E20140001B16F000E211409
:101918000001B26F000E22140001B36FB0C0ABF02B
:10192800B1C0ACF0B2C0ADF0B3C0AEF0050ED89007
:101938000001AB37AC37AD37AE37E82EF8D7ABC0C0
:10194800B0F0ACC0B1F0ADC0B2F0AEC0B3F0B0C052
:101958001DFF0001AF05D8A47CD0F70E2318D8A42A
:1019680078D01F500001B06FB16BB26BB36BB0C0D1
:101978001BFF000E1F140001B06FFF0E20140001A2
:10198800B16F000E21140001B26F000E2214000185
:10199800B36FB0C0ABF0B1C0ACF0B2C0ADF0B3C083
:1019A800AEF0ACC0ABF0ADC0ACF0AEC0ADF0000175
:1019B800AE6BABC0B0F0ACC0B1F0ADC0B2F0AEC071
:1019C800B3F0B0C01AFF21A003D00F01198102D0D3
:1019D8000F01199121A203D00F01198302D00F0121
:1019E800199321A403D00F01198B02D00F01199B61
:1019F80021A603D00F01198D02D00F01199D21A82E
:101A080003D00F01198F02D00F01199F1FC0ABF02F
:101A180020C0ACF021C0ADF022C0AEF0160E06D04A
:101A28000001D890AE33AD33AC33AB33E82EF8D7E2
:101A3800ABC0B0F0ACC0B1F0ADC0B2F0AEC0B3F066
:101A48000001B0510001B06FB16BB26BB36BB0C0A5
:101A580018FF020E0001AF19D8A41200F70E2318C0
:101A6800D8A412001F500001B06FB16BB26BB36BFA
:101A7800B0C01FFF000E1F140001B06FFF0E20142E
:101A88000001B16F000E21140001B26F000E221484
:101A98000001B36FB0C0ABF0B1C0ACF0B2C0ADF0F4
:101AA800B3C0AEF0ACC0ABF0ADC0ACF0AEC0ADF002
:101AB8000001AE6BABC0B0F0ACC0B1F0ADC0B2F0DD
:101AC800AEC0B3F0B0C01EFF21A003D00F011D812E
:101AD80002D00F011D9121A203D00F011D8302D056
:101AE8000F011D9321A403D00F011D8B02D00F01FC
:101AF8001D9B21A603D00F011D8D02D00F011D9D36
:101B080021A803D00F011D8F02D00F011D9F1FC0F8
:101B1800ABF020C0ACF021C0ADF022C0AEF0160E84
:101B280006D00001D890AE33AD33AC33AB33E82EDA
:101B3800F8D7ABC0B0F0ACC0B1F0ADC0B2F0AEC039
:101B4800B3F00001B0510001B06FB16BB26BB36B71
:101B5800B0C01CFF120043EC13F0E806D8A4FBD772
:101B6800060E0001AB6F000EAC6F000EAD6F000EDD
:101B7800AE6FA30E0001AF6F000E0001B06F080E2C
:101B88000001B16FFC0E0001B26FC0EC05F039A284
:101B980005D13E043F10D8A405D0FC0E1F6E7F0E61
:101BA800B8EC12F03E503F10D8A405D0FC0E1F6EC2
:101BB800FF0EB8EC12F03992345030240001B76FA0
:101BC800355031200001B86FD8900001B8310001BC
:101BD800BA6F0001B7310001B96FB9C03AF0BAC0A5
:101BE8003BF03C6A3D6A2CC0B7F02DC0B8F000014C
:101BF800B71FB81FB74BB82B3A500001B7251F6E57
:101C08003B500001B821206E2FEC13F01FC088F064
:101C180020C089F0000E226E960E216E88C01FF03B
:101C280089C020F03FEC12F01FC0AEF020C0AFF02A
:101C3800000E226E960E216E88C01FF089C020F01B
:101C48003FEC12F01FC0B0F020C0B1F014EC13F05C
:101C5800D8900001AE370001AF370001AEC070F078
:101C68000001AFC071F00001726B736B000173BFAC
:101C78008BD000017351000172110001711105E14F
:101C8800020E0001705DD8A07FD02CC0B7F02DC027
:101C9800B8F02EC0B9F02FC0BAF00001B71FB81FB6
:101CA800B91FBA1FB72B000EB823B923BA233A506D
:101CB8000001B7250001BB6F3B500001B8210001AE
:101CC800BC6F3C500001B9210001BD6F3D500001BF
:101CD800BA210001BE6F0001BEBF33D00001BE5162
:101CE8000001BD110001BC1104E10001BB05D8A031
:101CF80028D070C0B7F071C0B8F072C0B9F073C026
:101D0800BAF00001B71FB81FB91FBA1FB72B000ED2
:101D1800B823B923BA2332500001B725246E3350B3
:101D28000001B821256E000E0001B921266E000EB3
:101D38000001BA21276E27AE2DD0000E246E000EAA
:101D48001DD0325000017025246E335000017121DE
:101D5800256E000E00017221266E000E000173210F
:101D6800276E27BE17D02750261005E12404040E3D
:101D78002558D8A00FD0FF0E246E030E256E000E36
:101D8800266E000E276E06D032C024F033C025F030
:101D9800266A276A24C032F025C033F080C078F064
:101DA80081C079F082C07AF083C07BF024C01FF034
:101DB80025C020F0DAEC12F012009DEC11F08082C0
:101DC8008282010E0001B56FF40EB46FF7EC12F0C9
:101DD80080928292060E52EC13F0FE0E0001C86F3C
:101DE8000001C85174EC13F03982FC0E1F6E7F0E8F
:101DF800B8EC12F0D4EC10F080A282B237D078C0E0
:101E0800C0F079C0C1F07AC0C2F07BC0C3F0000155
:101E1800C01FC11FC21FC31FC02B000EC123C22376
:101E2800C323000180510001C0250001C46F0001D7
:101E380081510001C1210001C56F000182510001DB
:101E4800C2210001C66F000183510001C3210001B6
:101E5800C76F0001C7510001C6110001C51104E197
:101E68001E0E0001C45DD8B0AFEC0DF038B038AC30
:101E780002D093EC12F074C0C0F075C0C1F076C007
:101E8800C2F077C0C3F00001C01FC11FC21FC31F2B
:101E9800C02B000EC123C223C323000180510001BF
:101EA800C0250001C46F000181510001C12100015A
:101EB800C56F000182510001C2210001C66F0001F7
:101EC80083510001C3210001C76F0001C751000100
:101ED800C61108E1F50E0001C45D010E0001C559E7
:101EE800D8A044D039B01ED043EC13F0E806D8A4EB
:101EF800FBD7020E0001AB6F000EAC6F000EAD6F8A
:101F0800000EAE6F9B0E0001AF6F000E0001B06FA8
:101F1800080E0001B16FFC0E0001B26FC0EC05F0B5
:101F280039801CD038B238A607D038A405D03892EA
:101F380038963894809211D08082000E0001B56FD7
:101F4800C80EB46FF7EC12F08092000E0001B56F66
:101F5800C80EB46FF7EC12F08082399080C074F02C
:101F680081C075F082C076F083C077F07CC0C0F085
:101F78007DC0C1F07EC0C2F07FC0C3F00001C01FA9
:101F8800C11FC21FC31FC02B000EC123C223C323FE
:101F9800000180510001C0250001C46F000181517A
:101FA8000001C1210001C56F000182510001C22159
:101FB8000001C66F000183510001C3210001C76FF2
:101FC8000001C7510001C6110001C51105E1650EE8
:101FD8000001C45DD8A00ED7F4EC11F080C07CF0ED
:101FE80081C07DF082C07EF083C07FF003D70001FE
:101FF800BD6F800E6BEC13F0000E706E000E716EEC
:10200800000E726E0001B641E842C00B0001B66FC7
:102018000001B65170120001B75170120001BD5194
:1020280071120001B439E842F80B0001B46F0001E5
:10203800B45171120001B8A5718C0001B8B1718E4C
:102048000001B55172120001B8B3728C0001B85189
:10205800600B606E0001B851100BFF0AD8B46084A1
:1020680060CF50FF000E1F6E000E206E000E216E16
:10207800000E226EF70E236E010E00EC0CF0000E1F
:102088001F6E000E206E000E216E000E226EF70EDF
:10209800236E020E00EC0CF00FD0F70E0001BE6F9D
:1020A80007D00001BE690001BF6928D00001BE69E0
:1020B800F70E0001BF6F22D09F0E0001B96FFF0E0F
:1020C8000001BA6F0001B851600B0001BB6FBC6B17
:1020D8000001B9510001BB130001BA510001BC1342
:1020E8000001BC51000AD8A4E1D70001BB51BF0AC6
:1020F800D8B4D7D7600AD8B4D0D7D8D7000E1F6EB7
:10210800000E206E000E216E000E226EBEC023F05F
:10211800000E9DEC00F0000E1F6E000E206E000EEB
:10212800216E000E226EBEC023F0010E9DEC00F061
:10213800000E1F6E000E206E000E216E000E226E25
:10214800BFC023F0020E9DEC00F0000E1F6E000EC3
:10215800206E000E216E000E226EBFC023F0030E0B
:102168009DEC00F0000E1F6E000E206E000E216E1A
:10217800000E226EBFC023F0040E9DEC00F0000E8E
:102188001F6E000E206E000E216E000E226EBFC064
:1021980023F0050E9DEC00F0000E6BEC13F012001E
:1021A80038AA66D0030E281829102A102B10D8A494
:1021B8001AD000019C512C6E2D6A2E6A2F6A0001DC
:1021C80090512CC020F02DC021F02EC022F01F6AA3
:1021D8001F102C6E20502D6E21502E6E22502F6E07
:1021E8009DC03EF03F6A280429102A102B10D8A45D
:1021F80009D0000E2C6E000E2D6E000E2E6E000EF5
:102208002F6E8082060E281829102A102B10D8A4A9
:1022180015D09CC030F0316A30501F6E00019B51C0
:10222800306E1FC031F09EC034F0356A34501F6ED6
:1022380000019D51346E1FC035F03982020E2818F6
:1022480029102A102B10D8A413D000019B05D8A45C
:1022580002D03882829A020E00019B19D8A403D0BA
:10226800388638848298030E00019B19D8B43884C4
:10227800389A1200000E0001B96F0001B7AF08D0FC
:102288000001B66DB71FD8B0B72B010E0001B96FAA
:102298000001B5AF08D00001B46DB51FD8B0B52B9B
:1022A800010E0001B91B000E0001BB6F000EBA6FD2
:1022B8000001B6510001B711D8B42CD0010E0001AD
:1022C800B86F06D00001D890B637B7370001B82BE1
:1022D8000001B7AFF7D70001D890BA37BB37000174
:1022E800B6510001B45D0001B7510001B559D8A03D
:1022F8000AD00001B6510001B45F0001B7510001D6
:10230800B55B0001BA810001D890B733B63300013C
:10231800B82FE1D70001B9510001D8B405D00001A8
:10232800BA6DBB1FD8B0BB2BBAC0B4F0BBC0B5F0F8
:102338001200060E0001B46F050E0001B56F010E04
:102348000001B66F030E0001B76F9D0E0001B86F54
:10235800040EFBEC0FF0D08EF292A492A490A592FA
:10236800A590F28EF28C010EB16EA192A292630E2C
:10237800B36EC00EB26EC280C294C296C298C29AA0
:10238800C190C182C184C186C198C19AC080C092DF
:10239800C084C096C088C08AC09EA382A380A08241
:1023A800000E896E7D0E926E000E8A6EFB0E936E85
:1023B800000E8B6E000E946E000E8C6E000E956EE5
:1023C800000E8D6E9668000E0001B56F020EB46F98
:1023D800F7EC12F0FC0E1F6E7F0EB8EC12F0120034
:1023E800C282C2B2FED7C4CF8AF000018B6B8AC00A
:1023F800AEF08BC0AFF0000E0001B16F0E0EB06FE3
:1024080014EC13F0AEC0B4F0AFC0B5F0000E00018C
:10241800B76FB6693EEC11F0B4C08AF0B5C08BF066
:1024280000018BBF08D000018B5123E1080E000189
:102438008A5DD8B01ED043EC13F0E806D8A4FBD7C9
:10244800090E0001AB6F000EAC6F000EAD6F000EF1
:10245800AE6F9B0E0001AF6F000E0001B06F080E4B
:102468000001B16FFC0E0001B26FC0EC05F0828272
:10247800120082921200000E0001AD6F000EAC6FC8
:1024880021502210D8B421D0010E0001AB6F05D025
:10249800D890213622360001AB2B22AEF9D70001A5
:1024A800D890AC37AD3721501F5C22502058D8A0A7
:1024B80006D021501F5E2250205A0001AC81D890CE
:1024C800223221320001AB2FEAD7ACC01FF0ADC0D9
:1024D80020F0120000EE60F04B0EEE6AE806FDE117
:1024E800396A386A00EE24F0140EEE6AE806FDE157
:1024F800F80EF66E260EF76E000EF86E00EE3AF045
:1025080010EE07F00900F5CFEEFFE550E150FAE1D3
:1025180041904192000EF86E0001E1EF0EF043EC9D
:1025280013F00009D8A438AC17D028C0ABF029C0E4
:10253800ACF02AC0ADF02BC0AEF09B0E0001AF6F1F
:10254800000E0001B06F080E0001B16FBC0E000153
:10255800B26FC0EC05F0389C0F0140BD03D00F01ED
:1025680030AD120038801200206EBA50C009201415
:10257800BA6EBA500F091F14BA6E3F0E2018D8A4AD
:1025880002D095981200BF0E2018D8A403D09598B1
:10259800959A12007F0E2018D8B403D02028D8A40A
:1025A80012009598959A959C959E12001FC021F04F
:1025B80020C022F0060ED89021362236E82EFBD70E
:1025C80021C0ABF022C0ACF0ACC0BBFFABC021F067
:1025D800D8902132D8902132300E2116BA50CF0B24
:1025E8002110BA6E120040C0AEF00001AF6BB4C04B
:1025F800B0F0B5C0B1F014EC13F0AEC084F0AFC0C9
:1026080085F007D0500EE82EFED700018407D8A029
:1026180085070001845100018511D8B41200F2D752
:102628000001AE510001B003F3CFB2F0F4CFB3F024
:102638000001AE510001B103F3500001B3270001BE
:10264800AF510001B003F3500001B327B2C0AEF0A0
:10265800B3C0AFF0120020AE0DD01FC021F020C0D3
:1026680022F0211E221E214A222A21C01FF022C048
:1026780020F012001FC01FF020C020F01200010E31
:102688001F6E0F0140A708D00F0130A705D00F011A
:1026980020A702D0000E1F6E1F5012001F6E1F5081
:1026A800FB0BCA6E000ECC6E9E921FAE02D09D82AE
:1026B80001D09D92CA841200010E016E60BE05D041
:1026C8000F0150BF02D0000E016E015012001F6EA4
:1026D8001FC06FFF6E50E00B1F18D8B41200FAD756
:1026E8001F6E0C0EBA6ECA941FC0CBFFCA841200AC
:0826F8000100000001001000C8
:020000040030CA
:0E000000FF021F1EFF8281FF0FC00FE00F40A6
:00000001FF
