:040000000AEF01F012
:100018003F80D8CF0FF0E8CF10F0E0CF11F0FACF43
:1000280012F0FBCF13F0E9CF14F0EACF15F0E1CFCF
:1000380016F0E2CF17F0D9CF18F0DACF19F0F3CFD6
:100048001AF0F4CF1BF0F6CF1CF0F7CF1DF0F8CF65
:100058001EF0F5CF1FF0A4A0A4B201D0A5D03AECB1
:1000680015F00009D8B49ED0930E016E000E026EF2
:10007800EEEC0CF0030E000193190001941100013D
:10008800951100019611D8A41CD0000197510001C8
:10009800846F856B866B876B98C03CF03D6A3C0427
:1000A8003D10D8A405D0FC0E016E7F0E9FEC14F015
:1000B8003C503D10D8A405D0FC0E016EFF0E9FECFD
:1000C80014F000019305000194110001951100013D
:1000D8009611D8A40AD0000E0001846F000E856F17
:1000E800000E866F000E876F8082060E000193193E
:1000F800000194110001951100019611D8A436D081
:10010800000E216E000E206E21BE06D0215019E18E
:10011800080E205CD8B015D0970E2024D96E000E9A
:100128002120DA6E390E2024E16E000E2120E26EC5
:10013800DFCFE7FF204A212A21BEEED7215001E177
:10014800E7D798C032F0336A32500D6E00019751EC
:10015800326E0DC033F09AC034F0356A34500D6EEB
:1001680000019951346E0DC035F03B80020E00013C
:100178009319000194110001951100019611D8B44A
:1001880006D010D03A820ED03A863A840BD00001BD
:100198009751010AD8B4F6D7030AD8B4F5D7010A9B
:1001A800D8B4F3D7A490A492A1A20CD0010E000158
:1001B8008827000E89238A238B23630EB36EC00E13
:1001C800B26EA1921FC0F5FF1EC0F8FF1DC0F7FF59
:1001D8001CC0F6FF1BC0F4FF1AC0F3FF19C0DAFFFA
:1001E80018C0D9FF17C0E2FF16C0E1FF15C0EAFF2B
:1001F80014C0E9FF13C0FBFF12C0FAFF11C0E0FFF3
:1002080010C0E8FF0FC0D8FF3F90100020EF14F097
:100218000001C36F0001C3510001D8A458D00001E8
:10022800BE29D8A454D00F010197BAC0BFF0BBC0F3
:10023800C0F0BCC0C1F0BDC0C2F0040E06D00001C1
:10024800D890C233C133C033BF33E82EF8D7BFC00C
:10025800C4F0C0C0C5F0C1C0C6F0C2C0C7F000013C
:10026800C4510001C46FC56BC66BC76BC4C000FF27
:10027800070E0001BA150001C46F000E0001BB157E
:100288000001C56F000E0001BC150001C66F000E0D
:100298000001BD150001C76FC4C0BFF0C5C0C0F0E4
:1002A800C6C0C1F0C7C0C2F0050ED8900001BF3764
:1002B800C037C137C237E82EF8D7BFC0C4F0C0C0B6
:1002C800C5F0C1C0C6F0C2C0C7F0C4C001FF00017C
:1002D800C305D8A458D00001BE29D8A454D00F0112
:1002E8000597BAC0BFF0BBC0C0F0BCC0C1F0BDC06C
:1002F800C2F0040E06D00001D890C233C133C03317
:10030800BF33E82EF8D7BFC0C4F0C0C0C5F0C1C025
:10031800C6F0C2C0C7F00001C4510001C46FC56B6C
:10032800C66BC76BC4C004FF070E0001BA150001F5
:10033800C46F000E0001BB150001C56F000E00015F
:10034800BC150001C66F000E0001BD150001C76F86
:10035800C4C0BFF0C5C0C0F0C6C0C1F0C7C0C2F0BD
:10036800050ED8900001BF37C037C137C237E82E15
:10037800F8D7BFC0C4F0C0C0C5F0C1C0C6F0C2C085
:10038800C7F0C4C005FF020E0001C319D8A458D095
:100398000001BE29D8A454D00F010997BAC0BFF0F4
:1003A800BBC0C0F0BCC0C1F0BDC0C2F0040E06D0D6
:1003B8000001D890C233C133C033BF33E82EF8D719
:1003C800BFC0C4F0C0C0C5F0C1C0C6F0C2C0C7F04D
:1003D8000001C4510001C46FC56BC66BC76BC4C0B4
:1003E80008FF070E0001BA150001C46F000E0001D6
:1003F800BB150001C56F000E0001BC150001C66FDA
:10040800000E0001BD150001C76FC4C0BFF0C5C014
:10041800C0F0C6C0C1F0C7C0C2F0050ED890000138
:10042800BF37C037C137C237E82EF8D7BFC0C4F0CE
:10043800C0C0C5F0C1C0C6F0C2C0C7F0C4C009FF83
:10044800030E0001C319D8A458D00001BE29D8A4AE
:1004580054D00F010D97BAC0BFF0BBC0C0F0BCC0EC
:10046800C1F0BDC0C2F0040E06D00001D890C2335E
:10047800C133C033BF33E82EF8D7BFC0C4F0C0C003
:10048800C5F0C1C0C6F0C2C0C7F00001C451000128
:10049800C46FC56BC66BC76BC4C00CFF070E0001E9
:1004A800BA150001C46F000E0001BB150001C56F2D
:1004B800000E0001BC150001C66F000E0001BD153D
:1004C8000001C76FC4C0BFF0C5C0C0F0C6C0C1F04E
:1004D800C7C0C2F0050ED8900001BF37C037C1377A
:1004E800C237E82EF8D7BFC0C4F0C0C0C5F0C1C03D
:1004F800C6F0C2C0C7F0C4C00DFF040E0001C31986
:10050800D8A458D00001BE29D8A454D00F011197FF
:10051800BAC0BFF0BBC0C0F0BCC0C1F0BDC0C2F023
:10052800040E06D00001D890C233C133C033BF33A4
:10053800E82EF8D7BFC0C4F0C0C0C5F0C1C0C6F02F
:10054800C2C0C7F00001C4510001C46FC56BC66BBF
:10055800C76BC4C010FF070E0001BA150001C46FB5
:10056800000E0001BB150001C56F000E0001BC158F
:100578000001C66F000E0001BD150001C76FC4C0A1
:10058800BFF0C5C0C0F0C6C0C1F0C7C0C2F0050EFC
:10059800D8900001BF37C037C137C237E82EF8D727
:1005A800BFC0C4F0C0C0C5F0C1C0C6F0C2C0C7F06B
:1005B800C4C011FF050E0001C319D8A458D000010A
:1005C800BE29D8A454D00F011597BAC0BFF0BBC03C
:1005D800C0F0BCC0C1F0BDC0C2F0040E06D000011E
:1005E800D890C233C133C033BF33E82EF8D7BFC069
:1005F800C4F0C0C0C5F0C1C0C6F0C2C0C7F0000199
:10060800C4510001C46FC56BC66BC76BC4C014FF6F
:10061800070E0001BA150001C46F000E0001BB15DA
:100628000001C56F000E0001BC150001C66F000E69
:100638000001BD150001C76FC4C0BFF0C5C0C0F040
:10064800C6C0C1F0C7C0C2F0050ED8900001BF37C0
:10065800C037C137C237E82EF8D7BFC0C4F0C0C012
:10066800C5F0C1C0C6F0C2C0C7F0C4C015FF0001C4
:10067800C3510001D8A489D0F70E0001BE19D8A42F
:1006880084D00F0101870001BA510001C46FC56B06
:10069800C66BC76BC4C003FF000E0001BA1500018A
:1006A800C46FFF0E0001BB150001C56F000E0001ED
:1006B800BC150001C66F000E0001BD150001C76F13
:1006C800C4C0BFF0C5C0C0F0C6C0C1F0C7C0C2F04A
:1006D800C0C0BFF0C1C0C0F0C2C0C1F00001C26B51
:1006E800BFC0C4F0C0C0C5F0C1C0C6F0C2C0C7F02A
:1006F800C4C002FF0001BCA103D00F01018102D0D8
:100708000F0101910001BCA303D00F01018302D0A6
:100718000F0101930001BCA503D00F01018B02D08A
:100728000F01019B0001BCA703D00F01018D02D06E
:100738000F01019D0001BCA903D00F01018F02D058
:100748000F01019FBAC0BFF0BBC0C0F0BCC0C1F070
:10075800BDC0C2F0160E06D00001D890C233C13316
:10076800C033BF33E82EF8D7BFC0C4F0C0C0C5F04F
:10077800C1C0C6F0C2C0C7F00001C4510001C46FB7
:10078800C56BC66BC76BC4C000FF0001C305D8A406
:1007980089D0F70E0001BE19D8A484D00F010587AF
:1007A8000001BA510001C46FC56BC66BC76BC4C0EA
:1007B80007FF000E0001BA150001C46FFF0E00010B
:1007C800BB150001C56F000E0001BC150001C66F06
:1007D800000E0001BD150001C76FC4C0BFF0C5C041
:1007E800C0F0C6C0C1F0C7C0C2F0C0C0BFF0C1C031
:1007F800C0F0C2C0C1F00001C26BBFC0C4F0C0C02D
:10080800C5F0C1C0C6F0C2C0C7F0C4C006FF000131
:10081800BCA103D00F01058102D00F010591000191
:10082800BCA303D00F01058302D00F01059300017B
:10083800BCA503D00F01058B02D00F01059B000159
:10084800BCA703D00F01058D02D00F01059D000143
:10085800BCA903D00F01058F02D00F01059FBAC0B4
:10086800BFF0BBC0C0F0BCC0C1F0BDC0C2F0160E26
:1008780006D00001D890C233C133C033BF33E82E4D
:10088800F8D7BFC0C4F0C0C0C5F0C1C0C6F0C2C070
:10089800C7F00001C4510001C46FC56BC66BC76BBC
:1008A800C4C004FF020E0001C319D8A489D0F70EF2
:1008B8000001BE19D8A484D00F0109870001BA51DC
:1008C8000001C46FC56BC66BC76BC4C00BFF000EBD
:1008D8000001BA150001C46FFF0E0001BB1500012D
:1008E800C56F000E0001BC150001C66F000E0001A7
:1008F800BD150001C76FC4C0BFF0C5C0C0F0C6C0F9
:10090800C1F0C7C0C2F0C0C0BFF0C1C0C0F0C2C013
:10091800C1F00001C26BBFC0C4F0C0C0C5F0C1C007
:10092800C6F0C2C0C7F0C4C00AFF0001BCA103D012
:100938000F01098102D00F0109910001BCA303D066
:100948000F01098302D00F0109930001BCA503D050
:100958000F01098B02D00F01099B0001BCA703D02E
:100968000F01098D02D00F01099D0001BCA903D018
:100978000F01098F02D00F01099FBAC0BFF0BBC099
:10098800C0F0BCC0C1F0BDC0C2F0160E06D0000158
:10099800D890C233C133C033BF33E82EF8D7BFC0B5
:1009A800C4F0C0C0C5F0C1C0C6F0C2C0C7F00001E5
:1009B800C4510001C46FC56BC66BC76BC4C008FFC8
:1009C800030E0001C319D8A489D0F70E0001BE197F
:1009D800D8A484D00F010D870001BA510001C46F5B
:1009E800C56BC66BC76BC4C00FFF000E0001BA15FC
:1009F8000001C46FFF0E0001BB150001C56F000E9A
:100A08000001BC150001C66F000E0001BD150001F4
:100A1800C76FC4C0BFF0C5C0C0F0C6C0C1F0C7C072
:100A2800C2F0C0C0BFF0C1C0C0F0C2C0C1F0000178
:100A3800C26BBFC0C4F0C0C0C5F0C1C0C6F0C2C060
:100A4800C7F0C4C00EFF0001BCA103D00F010D8187
:100A580002D00F010D910001BCA303D00F010D833B
:100A680002D00F010D930001BCA503D00F010D8B1F
:100A780002D00F010D9B0001BCA703D00F010D8D03
:100A880002D00F010D9D0001BCA903D00F010D8FED
:100A980002D00F010D9FBAC0BFF0BBC0C0F0BCC0F0
:100AA800C1F0BDC0C2F0160E06D00001D890C23306
:100AB800C133C033BF33E82EF8D7BFC0C4F0C0C0BD
:100AC800C5F0C1C0C6F0C2C0C7F00001C4510001E2
:100AD800C46FC56BC66BC76BC4C00CFF040E0001A6
:100AE800C319D8A489D0F70E0001BE19D8A484D0A0
:100AF8000F0111870001BA510001C46FC56BC66BA5
:100B0800C76BC4C013FF000E0001BA150001C46F03
:100B1800FF0E0001BB150001C56F000E0001BC15DA
:100B28000001C66F000E0001BD150001C76FC4C0EB
:100B3800BFF0C5C0C0F0C6C0C1F0C7C0C2F0C0C0D9
:100B4800BFF0C1C0C0F0C2C0C1F00001C26BBFC0DD
:100B5800C4F0C0C0C5F0C1C0C6F0C2C0C7F0C4C0B0
:100B680012FF0001BCA103D00F01118102D00F01B7
:100B780011910001BCA303D00F01118302D00F0112
:100B880011930001BCA503D00F01118B02D00F01F6
:100B9800119B0001BCA703D00F01118D02D00F01DA
:100BA800119D0001BCA903D00F01118F02D00F01C4
:100BB800119FBAC0BFF0BBC0C0F0BCC0C1F0BDC07F
:100BC800C2F0160E06D00001D890C233C133C0332C
:100BD800BF33E82EF8D7BFC0C4F0C0C0C5F0C1C04D
:100BE800C6F0C2C0C7F00001C4510001C46FC56B94
:100BF800C66BC76BC4C010FF050E0001C319D8A48B
:100C08001200F70E0001BE19D8A412000F011587B3
:100C18000001BA510001C46FC56BC66BC76BC4C075
:100C280017FF000E0001BA150001C46FFF0E000186
:100C3800BB150001C56F000E0001BC150001C66F91
:100C4800000E0001BD150001C76FC4C0BFF0C5C0CC
:100C5800C0F0C6C0C1F0C7C0C2F0C0C0BFF0C1C0BC
:100C6800C0F0C2C0C1F00001C26BBFC0C4F0C0C0B8
:100C7800C5F0C1C0C6F0C2C0C7F0C4C016FF0001AD
:100C8800BCA103D00F01158102D00F0115910001FD
:100C9800BCA303D00F01158302D00F0115930001E7
:100CA800BCA503D00F01158B02D00F01159B0001C5
:100CB800BCA703D00F01158D02D00F01159D0001AF
:100CC800BCA903D00F01158F02D00F01159FBAC020
:100CD800BFF0BBC0C0F0BCC0C1F0BDC0C2F0160EB2
:100CE80006D00001D890C233C133C033BF33E82ED9
:100CF800F8D7BFC0C4F0C0C0C5F0C1C0C6F0C2C0FC
:100D0800C7F00001C4510001C46FC56BC66BC76B47
:100D1800C4C014FF12000F0140B73FD1C0C045FF47
:100D28000001C1AD03D00F01458D02D00F01459DD3
:100D38000001C1A779D00001BA510001C66FC76B85
:100D4800C86BC96BC6C044FF000E0001BA1500018C
:100D5800C66FFF0E0001BB150001C76F000E000132
:100D6800BC150001C86F000E0001BD150001C96F58
:100D7800C6C0C2F0C7C0C3F0C8C0C4F0C9C0C5F07F
:100D8800C3C0C2F0C4C0C3F0C5C0C4F00001C56B85
:100D9800C2C0C6F0C3C0C7F0C4C0C8F0C5C0C9F05F
:100DA800C6C043FF000E0F01426F0F0142870001CA
:100DB800BCA102D00F0142810001BCA302D00F01E7
:100DC80042830001BCA502D00F01428B0001BCA7E1
:100DD80002D00F01428D0001BCA902D00F01428F41
:100DE800BAC0C2F0BBC0C3F0BCC0C4F0BDC0C5F03F
:100DF800160E06D00001D890C533C433C333C233AE
:100E0800E82EF8D7C2C0C6F0C3C0C7F0C4C0C8F047
:100E1800C5C0C9F00001C6510001C66FC76BC86BD9
:100E2800C96BC6C041FF59D00F014297BAC0C2F082
:100E3800BBC0C3F0BCC0C4F0BDC0C5F0040E06D032
:100E48000001D890C533C433C333C233E82EF8D772
:100E5800C2C0C6F0C3C0C7F0C4C0C8F0C5C0C9F09E
:100E68000001C6510001C66FC76BC86BC96BC6C00D
:100E780041FF070E0001BA150001C66F000E000100
:100E8800BB150001C76F000E0001BC150001C86F3B
:100E9800000E0001BD150001C96FC6C0C2F0C7C071
:100EA800C3F0C8C0C4F0C9C0C5F0050ED890000191
:100EB800C237C337C437C537E82EF8D7C2C0C6F023
:100EC800C3C0C7F0C4C0C8F0C5C0C9F00F014251C3
:100ED8001F0B0F01426FC6C042FF0001C1A103D022
:100EE8000F01408102D00F0140910001C1A303D03E
:100EF8000F01408302D00F014093BEC0D9FFBFC08D
:100F0800DAFFDF500F01466F000120EE01F0BE51FD
:100F1800D926BF51DA22DF500F01476F000120EEBA
:100F280002F0BE51D926BF51DA22DF500F01486FB7
:100F3800000120EE03F0BE51D926BF51DA22DF505E
:100F48000F01496F000120EE04F0BE51D926BF51B0
:100F5800DA22DF500F014A6F000120EE05F0BE5182
:100F6800D926BF51DA22DF500F014B6F000120EE66
:100F780006F0BE51D926BF51DA22DF500F014C6F5F
:100F8800000120EE07F0BE51D926BF51DA22DF500A
:100F98000F014D6F0F01408712000F0130B73FD18D
:100FA800C0C035FF0001C1AD03D00F01358D02D09F
:100FB8000F01359D0001C1A779D00001BA51000188
:100FC800C66FC76BC86BC96BC6C034FF000E000183
:100FD800BA150001C66FFF0E0001BB150001C76FEF
:100FE800000E0001BC150001C86F000E0001BD1500
:100FF8000001C96FC6C0C2F0C7C0C3F0C8C0C4F002
:10100800C9C0C5F0C3C0C2F0C4C0C3F0C5C0C4F0F5
:101018000001C56BC2C0C6F0C3C0C7F0C4C0C8F0E9
:10102800C5C0C9F0C6C033FF000E0F01326F0F01F3
:1010380032870001BCA102D00F0132810001BCA39C
:1010480002D00F0132830001BCA502D00F01328B00
:101058000001BCA702D00F01328D0001BCA902D04B
:101068000F01328FBAC0C2F0BBC0C3F0BCC0C4F01D
:10107800BDC0C5F0160E06D00001D890C533C433E4
:10108800C333C233E82EF8D7C2C0C6F0C3C0C7F016
:10109800C4C0C8F0C5C0C9F00001C6510001C66F80
:1010A800C76BC86BC96BC6C031FF59D00F013297E7
:1010B800BAC0C2F0BBC0C3F0BCC0C4F0BDC0C5F06C
:1010C800040E06D00001D890C533C433C333C233ED
:1010D800E82EF8D7C2C0C6F0C3C0C7F0C4C0C8F075
:1010E800C5C0C9F00001C6510001C66FC76BC86B07
:1010F800C96BC6C031FF070E0001BA150001C66FE3
:10110800000E0001BB150001C76F000E0001BC15E1
:101118000001C86F000E0001BD150001C96FC6C0EF
:10112800C2F0C7C0C3F0C8C0C4F0C9C0C5F0050E3E
:10113800D8900001C237C337C437C537E82EF8D76F
:10114800C2C0C6F0C3C0C7F0C4C0C8F0C5C0C9F0AB
:101158000F0132511F0B0F01326FC6C032FF000161
:10116800C1A103D00F01308102D00F0130910001DD
:10117800C1A303D00F01308302D00F013093BEC04A
:10118800D9FFBFC0DAFFDF500F01366F000120EE34
:1011980001F0BE51D926BF51DA22DF500F01376F57
:1011A800000120EE02F0BE51D926BF51DA22DF50ED
:1011B8000F01386F000120EE03F0BE51D926BF5150
:1011C800DA22DF500F01396F000120EE04F0BE5122
:1011D800D926BF51DA22DF500F013A6F000120EE05
:1011E80005F0BE51D926BF51DA22DF500F013B6FFF
:1011F800000120EE06F0BE51D926BF51DA22DF5099
:101208000F013C6F000120EE07F0BE51D926BF51F7
:10121800DA22DF500F013D6F0F01308712000F01F6
:1012280020B71200C0C025FF0001C1AD03D00F01D7
:10123800258D02D00F01259D0001C1A779D000019D
:10124800BA510001C66FC76BC86BC96BC6C024FF13
:10125800000E0001BA150001C66FFF0E0001BB1594
:101268000001C76F000E0001BC150001C86F000E19
:101278000001BD150001C96FC6C0C2F0C7C0C3F0E8
:10128800C8C0C4F0C9C0C5F0C3C0C2F0C4C0C3F070
:10129800C5C0C4F00001C56BC2C0C6F0C3C0C7F06A
:1012A800C4C0C8F0C5C0C9F0C6C023FF000E0F01F6
:1012B800226F0F0122870001BCA102D00F012281F9
:1012C8000001BCA302D00F0122830001BCA502D0FB
:1012D8000F01228B0001BCA702D00F01228D000153
:1012E800BCA902D00F01228FBAC0C2F0BBC0C3F0A4
:1012F800BCC0C4F0BDC0C5F0160E06D00001D89021
:10130800C533C433C333C233E82EF8D7C2C0C6F0DE
:10131800C3C0C7F0C4C0C8F0C5C0C9F00001C651F9
:101328000001C66FC76BC86BC96BC6C021FF59D017
:101338000F012297BAC0C2F0BBC0C3F0BCC0C4F052
:10134800BDC0C5F0040E06D00001D890C533C43323
:10135800C333C233E82EF8D7C2C0C6F0C3C0C7F043
:10136800C4C0C8F0C5C0C9F00001C6510001C66FAD
:10137800C76BC86BC96BC6C021FF070E0001BA1541
:101388000001C66F000E0001BB150001C76F000EFB
:101398000001BC150001C86F000E0001BD15000159
:1013A800C96FC6C0C2F0C7C0C3F0C8C0C4F0C9C0C6
:1013B800C5F0050ED8900001C237C337C437C5370A
:1013C800E82EF8D7C2C0C6F0C3C0C7F0C4C0C8F082
:1013D800C5C0C9F00F0122511F0B0F01226FC6C0F3
:1013E80022FF0001C1A103D00F01208102D00F010B
:1013F80020910001C1A303D00F01208302D00F0167
:101408002093BEC0D9FFBFC0DAFFDF500F01266F9F
:10141800000120EE01F0BE51D926BF51DA22DF507B
:101428000F01276F000120EE02F0BE51D926BF51EF
:10143800DA22DF500F01286F000120EE03F0BE51C1
:10144800D926BF51DA22DF500F01296F000120EEA3
:1014580004F0BE51D926BF51DA22DF500F012A6F9E
:10146800000120EE05F0BE51D926BF51DA22DF5027
:101478000F012B6F000120EE06F0BE51D926BF5197
:10148800DA22DF500F012C6F000120EE07F0BE5169
:10149800D926BF51DA22DF500F012D6F0F012087A7
:1014A800120008EC13F080828282010E0001C86FDE
:1014B800F40EC76FDCEC14F080928292060E1EECDC
:1014C80015F0FE0E0001DC6F0001DC514FEC15F049
:1014D8003B80FC0E0001BA6F7F0E54EC14F0949C14
:1014E800948E3C0E0001906F670E0001916F91C0C1
:1014F800BAF00001BB6B00019051E6EC13F0010E4D
:1015080045EC15F07CC0D4F07DC0D5F07EC0D6F097
:101518007FC0D7F00001D41FD51FD61FD71FD42BEB
:10152800000ED523D623D723000188510001D425E6
:101538000001D86F000189510001D5210001D96F40
:1015480000018A510001D6210001DA6F00018B5198
:101558000001D7210001DB6F0001DB510001DA1126
:101568000001D91105E10A0E0001D85DD8A04FD1BC
:10157800060E0001BA6F000EBB6F000EBC6F000EA6
:10158800BD6FB20E0001BE6F000E0001BF6F080EE6
:101598000001C06FFC0E0001C16F8FEC06F03BA08C
:1015A80028D1FF0E45EC15F0000E0001DE6F000E8D
:1015B800DD6F0001DEBF08D00001DE511EE1080E1C
:1015C8000001DD5DD8B019D0390E0001DD25D96ED6
:1015D800000E0001DE21DA6EDF500001926F00017B
:1015E800925145EC15F00001DD4BDE2B0001DEBF0A
:1015F800EBD70001DE5101E1E2D73B9034503224B1
:101608000001D46F355033200001D56FD890000108
:10161800D5310001D76F0001D4310001D66FD6C093
:10162800DFF0D7C0E0F00001E16BE26BE80E0001EB
:10163800846F030E856F000E866F000E876F84C05F
:10164800D4F085C0D5F00001D41FD51FD44BD52BBD
:101658000001DF510001D4250001BA6F0001E051FB
:101668000001D5210001BB6FF6EC14F0BAC08CF074
:10167800BBC08DF0000E0001BD6F640EBC6F8CC046
:10168800BAF08DC0BBF0AAEC13F0BAC0C1F0BBC071
:10169800C2F0000E0001BD6F640EBC6F8CC0BAF0C2
:1016A8008DC0BBF0AAEC13F0BAC0C3F0BBC0C4F045
:1016B800C1EC14F0D8900001C1370001C237000115
:1016C800C1C070F00001C2C071F00001726B736B91
:1016D800000173BF83D00001735100017211000132
:1016E800711105E1020E0001705DD8A077D00001EC
:1016F800DF510001845D0001E051000185590001BE
:10170800E1510001865900018751800A0001D46F18
:101718000001E251800A0001D459D8B030D070C01D
:10172800D4F071C0D5F072C0D6F073C0D7F0000104
:10173800D41FD51FD61FD71FD42B000ED523D623D1
:10174800D72300018E510001D4250001746F0001D8
:101758008F510001D5210001756F000E0001D621BF
:101768000001766F000E0001D7210001776F00019C
:1017780077AF3BD0000E0001746F000E29D0000136
:101788008E51000170250001746F00018F51000116
:1017980071210001756F000E000172210001766F42
:1017A800000E000173210001776F000177BF1DD083
:1017B800000177510001761107E100017405040E5C
:1017C80000017559D8A011D0FF0E0001746F030EE7
:1017D800756F000E766F000E776F07D08EC074F0AD
:1017E8008FC075F00001766B776B74C08EF075C092
:1017F8008FF088C07CF089C07DF08AC07EF08BC0F5
:101808007FF074C0BAF075C0BBF07DEC14F03AAA52
:101818003AB001D002D026EC12F058EC15F0E806E8
:10182800D8B405D05EEC15F0E806D8A414D08082B0
:10183800000E0001C86FC80EC76FDCEC14F0809270
:10184800000E0001C86FC80EC76FDCEC14F0808270
:101858007494749201D0809278C0D4F079C0D5F095
:101868007AC0D6F07BC0D7F00001D41FD51FD61F91
:10187800D71FD42B000ED523D623D7230001885198
:101888000001D4250001D86F000189510001D5213C
:101898000001D96F00018A510001D6210001DA6FD9
:1018A80000018B510001D7210001DB6F0001DB51E2
:1018B8000001DA1108E1F50E0001D85D010E000102
:1018C800D959D8A036D03ABE18D0020E0001BA6F46
:1018D800000EBB6F000EBC6F000EBD6FA20E0001A4
:1018E800BE6F000E0001BF6F080E0001C06FFC0E36
:1018F8000001C16F8FEC06F03A8E3AAE12D03AB2C0
:101908003AA607D03AA405D03A923A963A948092E9
:1019180008D08082000E0001C86FC80EC76FDCECCB
:1019280014F088C078F089C079F08AC07AF08BC04A
:101938007BF080C0D4F081C0D5F082C0D6F083C0DF
:10194800D7F00001D41FD51FD61FD71FD42B000EE8
:10195800D523D623D723000188510001D4250001BF
:10196800D86F000189510001D5210001D96F00010C
:101978008A510001D6210001DA6F00018B51000164
:10198800D7210001DB6F0001DB510001DA110001F2
:10199800D91105E1650E0001D85DD8A0B3D582A2A2
:1019A80002D0010E01D0000EFF0A0001D46F000121
:1019B800D44782500001D419FD0BD419826E60EC13
:1019C80013F088C080F089C081F08AC082F08BC093
:1019D80083F098D5000E0B6E74BE0B8074BC0B821E
:1019E8000F0150AF43D101C0D9FF02C0DAFFDE6A50
:1019F800DE6ADE6ADD6A20EE04F00150D926025064
:101A0800DA2256CFDFFF20EE05F00150D92602502A
:101A1800DA2257CFDFFF20EE06F00150D926025018
:101A2800DA2258CFDFFF20EE07F00150D926025006
:101A3800DA2259CFDFFF20EE08F00150D9260250F4
:101A4800DA225ACFDFFF20EE09F00150D9260250E2
:101A5800DA225BCFDFFF20EE0AF00150D9260250D0
:101A6800DA225CCFDFFF20EE0BF00150D9260250BE
:101A7800DA225DCFDFFF20EE0EF00150D9260250AA
:101A8800DA220F0155AD02D0010E01D0000EDF6E33
:101A980020EE0DF00150D9260250DA220F015551DF
:101AA8000F0BDF6E20EE0CF00150D9260250DA221F
:101AB8000F0152A702D0010E01D0000EDF6E0F01F8
:101AC80052B744D051CF03F0046A056A066A030E80
:101AD800D8900336043605360636E82EF9D701C005
:101AE800D9FF02C0DAFF03C0DEFF04C0DEFF05C075
:101AF800DEFF06C0DEFF0F015239E842070B070B75
:101B08000C6E01C0D9FF02C0DAFFDECF03F0DECFD2
:101B180004F0DECF05F0DECF06F00C500324076E8C
:101B2800000E0420086E000E0520096E000E062027
:101B38000A6E01C0D9FF02C0DAFF07C0DEFF08C085
:101B4800DEFF09C0DEFF0AC0DEFF8DD054CF03F0F0
:101B5800046A056A066A01C0D9FF02C0DAFF03C039
:101B6800DEFF04C0DEFF05C0DEFF06C0DEFF53CF88
:101B780003F0046A056A066A05C006F004C005F0A9
:101B880003C004F0036A01C0D9FF02C0DAFF0350A2
:101B9800DE260450DE220550DE220650DE220F012A
:101BA80052A10CD001C0D9FF02C0DAFF000EDE122C
:101BB800000EDE12010EDE12000EDE120F0152A31D
:101BC8000CD001C0D9FF02C0DAFF000EDE12000EF1
:101BD800DE12020EDE12000EDE120F0152AB0CD026
:101BE80001C0D9FF02C0DAFF000EDE12000EDE12BD
:101BF800040EDE12000EDE120F0152AD0CD001C031
:101C0800D9FF02C0DAFF000EDE12000EDE12080E47
:101C1800DE12000EDE120F0152AF0CD001C0D9FF48
:101C280002C0DAFF000EDE12000EDE12100EDE1207
:101C3800000EDE1251CF03F0046A056A066A150E1B
:101C4800D8900336043605360636E82EF9D701C093
:101C5800D9FF02C0DAFF0350DE120450DE1205502D
:101C6800DE120650DE120F01509F120060AE120005
:101C780001C0D9FF02C0DAFFDE6ADE6ADE6ADD6A09
:101C880020EE04F00150D9260250DA2266CFDFFF99
:101C980020EE05F00150D9260250DA2267CFDFFF87
:101CA80020EE06F00150D9260250DA2268CFDFFF75
:101CB80020EE07F00150D9260250DA2269CFDFFF63
:101CC80020EE08F00150D9260250DA226ACFDFFF51
:101CD80020EE09F00150D9260250DA226BCFDFFF3F
:101CE80020EE0AF00150D9260250DA226CCFDFFF2D
:101CF80020EE0BF00150D9260250DA226DCFDFFF1B
:101D080020EE0EF00150D9260250DA2265AC02D03E
:101D1800010E01D0000EDF6E20EE0DF00150D92625
:101D28000250DA2265500F0BDF6E20EE0CF00150E6
:101D3800D9260250DA2262A602D0010E01D0000E86
:101D4800DF6E62B643D061CF03F0046A056A066AA3
:101D5800030ED8900336043605360636E82EF9D732
:101D680001C0D9FF02C0DAFF03C0DEFF04C0DEFFF6
:101D780005C0DEFF06C0DEFF6238E842070B070B2E
:101D88000C6E01C0D9FF02C0DAFFDECF03F0DECF50
:101D980004F0DECF05F0DECF06F00C500324076E0A
:101DA800000E0420086E000E0520096E000E0620A5
:101DB8000A6E01C0D9FF02C0DAFF07C0DEFF08C003
:101DC800DEFF09C0DEFF0AC0DEFF88D064CF03F063
:101DD800046A056A066A01C0D9FF02C0DAFF03C0B7
:101DE800DEFF04C0DEFF05C0DEFF06C0DEFF63CFF6
:101DF80003F0046A056A066A05C006F004C005F027
:101E080003C004F0036A01C0D9FF02C0DAFF03501F
:101E1800DE260450DE220550DE220650DE2262A0B5
:101E28000CD001C0D9FF02C0DAFF000EDE12000E8E
:101E3800DE12010EDE12000EDE1262A20CD001C00C
:101E4800D9FF02C0DAFF000EDE12000EDE12020E0B
:101E5800DE12000EDE1262AA0CD001C0D9FF02C049
:101E6800DAFF000EDE12000EDE12040EDE12000E85
:101E7800DE1262AC0CD001C0D9FF02C0DAFF000E3E
:101E8800DE12000EDE12080EDE12000EDE1262AE48
:101E98000CD001C0D9FF02C0DAFF000EDE12000E1E
:101EA800DE12100EDE12000EDE1261CF03F0046A9D
:101EB800056A066A150ED8900336043605360636C6
:101EC800E82EF9D701C0D9FF02C0DAFF0350DE12AD
:101ED8000450DE120550DE120650DE12609E12001B
:101EE8000001C36F0001C305D8A456D00001BE2964
:101EF800D8A452D0BAC0BFF0BBC0C0F0BCC0C1F0BB
:101F0800BDC0C2F0040E06D00001D890C233C13360
:101F1800C033BF33E82EF8D7BFC0C4F0C0C0C5F087
:101F2800C1C0C6F0C2C0C7F00001C4510001C46FEF
:101F3800C56BC66BC76BC4C018FF070E0001BA1586
:101F48000001C46F000E0001BB150001C56F000E33
:101F58000001BC150001C66F000E0001BD1500018F
:101F6800C76FC4C0BFF0C5C0C0F0C6C0C1F0C7C00D
:101F7800C2F0050ED8900001BF37C037C137C2374D
:101F8800E82EF8D7BFC0C4F0C0C0C5F0C1C0C6F0C5
:101F9800C2C0C7F0C4C019FF020E0001C319D8A4FB
:101FA80056D00001BE29D8A452D0BAC0BFF0BBC0D9
:101FB800C0F0BCC0C1F0BDC0C2F0040E06D0000124
:101FC800D890C233C133C033BF33E82EF8D7BFC06F
:101FD800C4F0C0C0C5F0C1C0C6F0C2C0C7F000019F
:101FE800C4510001C46FC56BC66BC76BC4C01CFF6E
:101FF800070E0001BA150001C46F000E0001BB15E1
:102008000001C56F000E0001BC150001C66F000E6F
:102018000001BD150001C76FC4C0BFF0C5C0C0F046
:10202800C6C0C1F0C7C0C2F0050ED8900001BF37C6
:10203800C037C137C237E82EF8D7BFC0C4F0C0C018
:10204800C5F0C1C0C6F0C2C0C7F0C4C01DFF0001C2
:10205800C305D8A487D0F70E0001BE19D8A482D032
:102068000001BA510001C46FC56BC66BC76BC4C011
:102078001BFF000E0001BA150001C46FFF0E00011E
:10208800BB150001C56F000E0001BC150001C66F2D
:10209800000E0001BD150001C76FC4C0BFF0C5C068
:1020A800C0F0C6C0C1F0C7C0C2F0C0C0BFF0C1C058
:1020B800C0F0C2C0C1F00001C26BBFC0C4F0C0C054
:1020C800C5F0C1C0C6F0C2C0C7F0C4C01AFF000145
:1020D800BCA103D00F01198102D00F011991000191
:1020E800BCA303D00F01198302D00F01199300017B
:1020F800BCA503D00F01198B02D00F01199B000159
:10210800BCA703D00F01198D02D00F01199D000142
:10211800BCA903D00F01198F02D00F01199FBAC0B3
:10212800BFF0BBC0C0F0BCC0C1F0BDC0C2F0160E4D
:1021380006D00001D890C233C133C033BF33E82E74
:10214800F8D7BFC0C4F0C0C0C5F0C1C0C6F0C2C097
:10215800C7F00001C4510001C46FC56BC66BC76BE3
:10216800C4C018FF020E0001C319D8A41200F70E4C
:102178000001BE19D8A412000001BA510001C46FB1
:10218800C56BC66BC76BC4C01FFF000E0001BA1534
:102198000001C46FFF0E0001BB150001C56F000EE2
:1021A8000001BC150001C66F000E0001BD1500013D
:1021B800C76FC4C0BFF0C5C0C0F0C6C0C1F0C7C0BB
:1021C800C2F0C0C0BFF0C1C0C0F0C2C0C1F00001C1
:1021D800C26BBFC0C4F0C0C0C5F0C1C0C6F0C2C0A9
:1021E800C7F0C4C01EFF0001BCA103D00F011D81B0
:1021F80002D00F011D910001BCA303D00F011D8364
:1022080002D00F011D930001BCA503D00F011D8B47
:1022180002D00F011D9B0001BCA703D00F011D8D2B
:1022280002D00F011D9D0001BCA903D00F011D8F15
:1022380002D00F011D9FBAC0BFF0BBC0C0F0BCC028
:10224800C1F0BDC0C2F0160E06D00001D890C2334E
:10225800C133C033BF33E82EF8D7BFC0C4F0C0C005
:10226800C5F0C1C0C6F0C2C0C7F00001C45100012A
:10227800C46FC56BC66BC76BC4C01CFF12000001DE
:10228800D16F800E2FEC15F0000E706E000E716E7F
:10229800000E726E0001CA41E842C00B0001CA6F0D
:1022A8000001CA5170120001CB5170120001D151C6
:1022B80071120001C839E842F80B0001C86F00012B
:1022C800C85171120001CCA5718C0001CCB1718E7E
:1022D8000001C95172120001CCB3728C0001CC51BB
:1022E800600B606E0001CC51100BFF0AD8B46084FB
:1022F80060CF50FF000E0001BA6F000EBB6F000EDA
:10230800BC6F000EBD6FF70E0001BE6F010E74ECBE
:102318000FF0000E0001BA6F000EBB6F000EBC6F0D
:10232800000EBD6FF70E0001BE6F020E74EC0FF0C9
:102338000FD0F70E0001D26F07D00001D26900015B
:10234800D36928D00001D269F70E0001D36F22D0DB
:102358009F0E0001CD6FFF0E0001CE6F0001CC5122
:10236800600B0001CF6FD06B0001CD510001CF137E
:102378000001CE510001D0130001D051000AD8A4A9
:10238800E1D70001CF51BF0AD8B4D7D7600AD8B473
:10239800D0D7D8D7000E0001BA6F000EBB6F000E61
:1023A800BC6F000EBD6FD2C0BEF0000E0CEC01F089
:1023B800000E0001BA6F000EBB6F000EBC6F000E5E
:1023C800BD6FD2C0BEF0010E0CEC01F0000E000192
:1023D800BA6F000EBB6F000EBC6F000EBD6FD3C08E
:1023E800BEF0020E0CEC01F0000E0001BA6F000EF8
:1023F800BB6F000EBC6F000EBD6FD3C0BEF0030EE6
:102408000CEC01F0000E0001BA6F000EBB6F000E5D
:10241800BC6F000EBD6FD3C0BEF0040E0CEC01F013
:10242800000E0001BA6F000EBB6F000EBC6F000EED
:10243800BD6FD3C0BEF0050E0CEC01F0000E2FEC02
:1024480015F012000CEC15F00009D8B431D03AAAF6
:1024580017D026C0BAF027C0BBF028C0BCF029C0EE
:10246800BDF0A20E0001BE6F000E0001BF6F080E86
:102478000001C06FBC0E0001C16F8FEC06F03A9AE4
:102488003AA016D02AC0BAF02BC0BBF02CC0BCF0C2
:102498002DC0BDF0AA0E0001BE6F000E0001BF6F77
:1024A800080E0001C06FBC0E0001C16F8FEC06F072
:1024B8000F0140BD03D00F0130AD31D03A8026C0A6
:1024C8002AF027C02BF028C02CF029C02DF03AAAFA
:1024D80002D03A8C01D03A9C000E0001CA6F070E58
:1024E8000001CA6501D02FD00001CA51010DA20E0A
:1024F800F324D96E000EF420DA6E0001CA51010DE2
:10250800AA0EF324E16E000EF420E26EDFCFE7FF9F
:102518000F01409D0F01309D0001CA2BE0D73A9072
:102528003AAC10D03AAC02D03A8A01D03A9A2AC0D2
:1025380026F02BC027F02CC028F02DC029F03A88AF
:102548003A9C01D03A983A9A1200000E0001CC6FDA
:102558000001CAAF08D00001C96DCA1FD8B0CA2B84
:10256800010E0001CC6F0001C8AF08D00001C76D93
:10257800C81FD8B0C82B010E0001CC1B000E0001EB
:10258800CE6F000ECD6F0001C9510001CA11D8B439
:102598002CD0010E0001CB6F06D00001D890C937AE
:1025A800CA370001CB2B0001CAAFF7D70001D8907A
:1025B800CD37CE370001C9510001C75D0001CA51AE
:1025C8000001C859D8A00AD00001C9510001C75F4D
:1025D8000001CA510001C85B0001CD810001D890FB
:1025E800CA33C9330001CB2FE1D70001CC51000118
:1025F800D8B405D00001CD6DCE1FD8B0CE2BCDC03C
:10260800C7F0CEC0C8F01200060E0001C86F050E54
:102618000001C96F010E0001CA6F030E0001CB6FE4
:102628009D0E0001CC6F040E43EC11F0D08EF29297
:10263800A492A490A592A590F28EF28C010EB16E90
:10264800A192A292630EB36EC00EB26EC280C29403
:10265800C296C298C29AC190C182C184C186C198EB
:10266800C19AC080C092C084C096C088C08AC09EEB
:10267800A382A380A082000E896E7D0E926E000E4A
:102688008A6EFB0E936E000E8B6E000E946E000E1B
:102698008C6E000E956E000E8D6E9668000E000111
:1026A800C86F020EC76FDCEC14F0FC0E0001BA6FA5
:1026B8007F0E54EC14F01200C282C2B2FED7C4CF0F
:1026C80036F0376A36C0C1F037C0C2F0000E0001DC
:1026D800C46F0E0EC36FC1EC14F0C1C0C7F0C2C006
:1026E800C8F0000E0001CA6FC969A9EC12F0C7C092
:1026F80036F0C8C037F0365045EC15F037BE06D076
:10270800375022E1080E365CD8B01ED00CEC15F01C
:102718000009D8B4FBD7090E0001BA6F000EBB6FD1
:10272800000EBC6F000EBD6FA20E0001BE6F000E42
:102738000001BF6F080E0001C06FFC0E0001C16FE1
:102748008FEC06F08282120082921200000E0001C5
:10275800C06F000EBF6F0001BC510001BD11D8B49D
:102768002CD0010E0001BE6F06D00001D890BC37F6
:10277800BD370001BE2B0001BDAFF7D70001D890CF
:10278800BF37C0370001BC510001BA5D0001BD511F
:102798000001BB59D8A00AD00001BC510001BA5FA2
:1027A8000001BD510001BB5B0001BF810001D89051
:1027B800BD33BC330001BE2FE1D7BFC0BAF0C0C0E3
:1027C800BBF012000001BC6F000EAC6E000EAB6EC9
:1027D8000001BCB1AC880001BCA302D0AC8CAB8CAE
:1027E8000001BCB5AC8E0001BCA702D0AB8801D0FB
:1027F800AB8A0001BCB9AC849E980001BCBBAB8617
:102808000001BCAD02D09D8A01D09D9A9E9A00011C
:10281800BCAF02D09D8801D09D98BAC0AFFF00011F
:10282800BB51B06EAC8AAB8E949C948EACA812004F
:10283800ACBE1200948C120000EE60F05A0EEE6AE4
:10284800E806FDE13B6A3A6A00EE22F0180EEE6AED
:10285800E806FDE1C80EF66E2A0EF76E000EF86E59
:1028680000EEDFF010EE04F00900F5CFEEFFE550C2
:10287800E150FAE1CC0EF66E2A0EF76E000EF86EF5
:102888000900F5CF3CF00900F5CF3DF00900F5CF80
:102898003EF03F903F92000EF86E000155EF0AF0AF
:1028A8000001BB6FBA50C0090001BB15BA6EBA501F
:1028B8000F090001BA15BA6E3F0E0001BB19D8A462
:1028C80002D095981200BF0E0001BB19D8A403D0FE
:1028D8009598959A12007F0E0001BB19D8B404D0C0
:1028E8000001BB29D8A412009598959A959C959EAD
:1028F8001200BAC0BCF0BBC0BDF0060ED8900001F3
:10290800BC37BD37E82EFAD7BCC0BEF0BDC0BFF09B
:10291800BFC0BBFFBEC0BCF00001D890BC330001F3
:10292800D890BC33300E0001BC17BA50CF0B000151
:10293800BC11BA6E1200026EBA50C0090214BA6E07
:10294800BA500F090114BA6E3F0E0218D8A402D06B
:1029580095981200BF0E0218D8A403D09598959A9E
:1029680012007F0E0218D8B403D00228D8A412008F
:102978009598959A959C959E12000001C151000169
:10298800C303F3CFC5F0F4CFC6F00001C151000175
:10299800C403F3500001C6270001C2510001C3035C
:1029A800F3500001C627C5C0C1F0C6C0C2F012006E
:1029B8003EC0C1F00001C26BC7C0C3F0C8C0C4F0BC
:1029C800C1EC14F0C1C02EF0C2C02FF006D0500EDA
:1029D800E82EFED72E06D8A02F062E502F10D8B4DA
:1029E8001200F5D70001BBAF0ED0BAC0BCF0BBC017
:1029F800BDF00001BC1FBD1FBC4BBD2BBCC0BAF055
:102A0800BDC0BBF01200BAC0BAF0BBC0BBF0120028
:102A1800010E0001BA6F0F0140A709D00F0130A7BE
:102A280006D00F0120A703D0000E0001BA6F0001E5
:102A3800BA5112000001BA6F0001BA51FB0BCA6EFD
:102A4800000ECC6E9E920001BAAF02D09D8201D0DA
:102A58009D92CA8412000001BA6FBAC06FFF6E500F
:102A6800E00B0001BA19D8B41200F9D7010E016EB3
:102A780060BE05D00F0150BF02D0000E016E01509C
:102A880012000001BA6FACAC03D0AC9038B2AC8085
:102A9800BAC0ADFF12000001BA6F0C0EBA6ECA942C
:102AA800BAC0CBFFCA84120074A402D0010E12006F
:102AB800000E120074A202D0010E1200000E1200C5
:082AC8000100000001001000F4
:020000040030CA
:0E000000FF021F1EFF8281FF0FC00FE00F40A6
:00000001FF
