:04000000D4EF00F049
:0E0008004982FACF60F0FBCF61F0D1ED12F02B
:100018004980D8CF36F0E8CF37F0E0CF38F0FACFC4
:1000280039F0FBCF3AF0E9CF3BF0EACF3CF0E1CF33
:100038003DF0E2CF3EF0D9CF3FF0DACF40F0F3CF3A
:1000480041F0F4CF42F0F6CF43F0F7CF44F0F8CFC9
:1000580045F0F5CF46F0A4A0A4B201D07DD0F0ECD5
:1000680013F00009D8B46BD01B0E2A6E000E2B6E4D
:100078001FEC0AF02904D8A41ED047B80FD01BC023
:100088000DF01CC00EF01DC00FF01EC010F029A00E
:1000980002D0478A01D0479A47880DD01BC011F07B
:1000A8001CC012F01DC013F01EC014F029A002D00D
:1000B800478C01D0479C020E1B181C101D101E10E7
:1000C800D8A40ED01FC0BCF020C0A9F00001AA6BB4
:1000D80015C099F016C09AF017C09BF018C09CF094
:1000E8001B041C101D101E10D8A404D0000E000103
:1000F800BC6F8082020E1B181C101D101E10D8A485
:1001080005D01FC0B0F020C0B3F048801B041C10FD
:100118001D101E10D8B407D012D047820ED04786C3
:100128000CD047840AD01F50010AD8B4F6D7030A66
:10013800D8B4F5D7010AD8B4F4D7A490A492A1A250
:100148000BD0010E1526000E162217221822630E58
:10015800B36EC00EB26EA19246C0F5FF45C0F8FF5F
:1001680044C0F7FF43C0F6FF42C0F4FF41C0F3FFAD
:1001780040C0DAFF3FC0D9FF3EC0E2FF3DC0E1FF0B
:100188003CC0EAFF3BC0E9FF3AC0FBFF39C0FAFFB9
:1001980038C0E0FF37C0E8FF36C0D8FF49901000EC
:1001A80053EF13F00001776F000177510001D8A4D5
:1001B80058D000017229D8A454D00F0101976EC0FD
:1001C80073F06FC074F070C075F071C076F0040EF3
:1001D80006D00001D8907633753374337333E82E24
:1001E800F8D773C078F074C079F075C07AF076C02B
:1001F8007BF0000178510001786F796B7A6B7B6B2B
:1002080078C000FF070E00016E150001786F000E20
:1002180000016F150001796F000E000170150001D3
:100228007A6F000E0001711500017B6F78C073F0C2
:1002380079C074F07AC075F07BC076F0050ED8905E
:1002480000017337743775377637E82EF8D773C0DF
:1002580078F074C079F075C07AF076C07BF078C019
:1002680001FF00017705D8A458D000017229D8A44D
:1002780054D00F0105976EC073F06FC074F070C052
:1002880075F071C076F0040E06D00001D890763370
:10029800753374337333E82EF8D773C078F074C0AD
:1002A80079F075C07AF076C07BF0000178510001D2
:1002B800786F796B7A6B7B6B78C004FF070E00014F
:1002C8006E150001786F000E00016F150001796F3F
:1002D800000E0001701500017A6F000E0001711503
:1002E80000017B6F78C073F079C074F07AC075F044
:1002F8007BC076F0050ED8900001733774377537D8
:100308007637E82EF8D773C078F074C079F075C0E6
:100318007AF076C07BF078C005FF020E00017719ED
:10032800D8A458D000017229D8A454D00F01099735
:100338006EC073F06FC074F070C075F071C076F065
:10034800040E06D00001D8907633753374337333B6
:10035800E82EF8D773C078F074C079F075C07AF0D9
:1003680076C07BF0000178510001786F796B7A6B69
:100378007B6B78C008FF070E00016E150001786FCF
:10038800000E00016F150001796F000E0001701555
:1003980000017A6F000E0001711500017B6F78C0B3
:1003A80073F079C074F07AC075F07BC076F0050EF2
:1003B800D89000017337743775377637E82EF8D739
:1003C80073C078F074C079F075C07AF076C07BF0AD
:1003D80078C009FF030E00017719D8A458D000018E
:1003E8007229D8A454D00F010D976EC073F06FC056
:1003F80074F070C075F071C076F0040E06D000017C
:10040800D8907633753374337333E82EF8D773C0C6
:1004180078F074C079F075C07AF076C07BF000018E
:1004280078510001786F796B7A6B7B6B78C00CFF21
:10043800070E00016E150001786F000E00016F15A0
:100448000001796F000E0001701500017A6F000E2F
:100458000001711500017B6F78C073F079C074F0EA
:100468007AC075F07BC076F0050ED890000173371E
:10047800743775377637E82EF8D773C078F074C0BC
:1004880079F075C07AF076C07BF078C00DFF040E65
:1004980000017719D8A458D000017229D8A454D0E3
:1004A8000F0111976EC073F06FC074F070C075F0D3
:1004B80071C076F0040E06D00001D89076337533FB
:1004C80074337333E82EF8D773C078F074C079F0BA
:1004D80075C07AF076C07BF0000178510001786F22
:1004E800796B7A6B7B6B78C010FF070E00016E1575
:1004F8000001786F000E00016F150001796F000E82
:100508000001701500017A6F000E000171150001DD
:100518007B6F78C073F079C074F07AC075F07BC0D7
:1005280076F0050ED8900001733774377537763733
:10053800E82EF8D773C078F074C079F075C07AF0F7
:1005480076C07BF078C011FF050E00017719D8A49A
:1005580058D000017229D8A454D00F0115976EC045
:1005680073F06FC074F070C075F071C076F0040E4F
:1005780006D00001D8907633753374337333E82E80
:10058800F8D773C078F074C079F075C07AF076C087
:100598007BF0000178510001786F796B7A6B7B6B87
:1005A80078C014FF070E00016E150001786F000E69
:1005B80000016F150001796F000E00017015000130
:1005C8007A6F000E0001711500017B6F78C073F01F
:1005D80079C074F07AC075F07BC076F0050ED890BB
:1005E80000017337743775377637E82EF8D773C03C
:1005F80078F074C079F075C07AF076C07BF078C076
:1006080015FF000177510001D8A489D0F70E000129
:100618007219D8A484D00F01018700016E5100011E
:10062800786F796B7A6B7B6B78C003FF000E0001E3
:100638006E150001786FFF0E00016F150001796FCC
:10064800000E0001701500017A6F000E000171158F
:1006580000017B6F78C073F079C074F07AC075F0D0
:100668007BC076F074C073F075C074F076C075F016
:100678000001766B73C078F074C079F075C07AF0B9
:1006880076C07BF078C002FF000170A103D00F0193
:10069800018102D00F010191000170A303D00F0165
:1006A800018302D00F010193000170A503D00F014F
:1006B800018B02D00F01019B000170A703D00F012D
:1006C800018D02D00F01019D000170A903D00F0117
:1006D800018F02D00F01019F6EC073F06FC074F0DC
:1006E80070C075F071C076F0160E06D00001D89073
:1006F8007633753374337333E82EF8D773C078F0D4
:1007080074C079F075C07AF076C07BF0000178513A
:100718000001786F796B7A6B7B6B78C000FF000102
:100728007705D8A489D0F70E00017219D8A484D00F
:100738000F01058700016E510001786F796B7A6BA4
:100748007B6B78C007FF000E00016E150001786F03
:10075800FF0E00016F150001796F000E0001701582
:1007680000017A6F000E0001711500017B6F78C0DF
:1007780073F079C074F07AC075F07BC076F074C0FD
:1007880073F075C074F076C075F00001766B73C0B5
:1007980078F074C079F075C07AF076C07BF078C0D4
:1007A80006FF000170A103D00F01058102D00F01DF
:1007B8000591000170A303D00F01058302D00F013A
:1007C8000593000170A503D00F01058B02D00F011E
:1007D800059B000170A703D00F01058D02D00F0102
:1007E800059D000170A903D00F01058F02D00F01EC
:1007F800059F6EC073F06FC074F070C075F071C063
:1008080076F0160E06D00001D8907633753374331F
:100818007333E82EF8D773C078F074C079F075C0D8
:100828007AF076C07BF0000178510001786F796B1F
:100838007A6B7B6B78C004FF020E00017719D8A48D
:1008480089D0F70E00017219D8A484D00F01098746
:1008580000016E510001786F796B7A6B7B6B78C001
:100868000BFF000E00016E150001786FFF0E0001EE
:100878006F150001796F000E0001701500017A6F85
:10088800000E0001711500017B6F78C073F079C00C
:1008980074F07AC075F07BC076F074C073F075C0E0
:1008A80074F076C075F00001766B73C078F074C090
:1008B80079F075C07AF076C07BF078C00AFF000145
:1008C80070A103D00F01098102D00F010991000125
:1008D80070A303D00F01098302D00F01099300010F
:1008E80070A503D00F01098B02D00F01099B0001ED
:1008F80070A703D00F01098D02D00F01099D0001D7
:1009080070A903D00F01098F02D00F01099F6EC093
:1009180073F06FC074F070C075F071C076F0160E89
:1009280006D00001D8907633753374337333E82ECC
:10093800F8D773C078F074C079F075C07AF076C0D3
:100948007BF0000178510001786F796B7A6B7B6BD3
:1009580078C008FF030E00017719D8A489D0F70ED4
:1009680000017219D8A484D00F010D8700016E51BF
:100978000001786F796B7A6B7B6B78C00FFF000E84
:1009880000016E150001786FFF0E00016F15000160
:10099800796F000E0001701500017A6F000E0001DA
:1009A800711500017B6F78C073F079C074F07AC05C
:1009B80075F07BC076F074C073F075C074F076C0C3
:1009C80075F00001766B73C078F074C079F075C06B
:1009D8007AF076C07BF078C00EFF000170A103D0DA
:1009E8000F010D8102D00F010D91000170A303D0FA
:1009F8000F010D8302D00F010D93000170A503D0E4
:100A08000F010D8B02D00F010D9B000170A703D0C1
:100A18000F010D8D02D00F010D9D000170A903D0AB
:100A28000F010D8F02D00F010D9F6EC073F06FC0C4
:100A380074F070C075F071C076F0160E06D0000123
:100A4800D8907633753374337333E82EF8D773C080
:100A580078F074C079F075C07AF076C07BF0000148
:100A680078510001786F796B7A6B7B6B78C00CFFDB
:100A7800040E00017719D8A489D0F70E0001721965
:100A8800D8A484D00F01118700016E510001786F3E
:100A9800796B7A6B7B6B78C013FF000E00016E15C3
:100AA8000001786FFF0E00016F150001796F000ECD
:100AB8000001701500017A6F000E00017115000128
:100AC8007B6F78C073F079C074F07AC075F07BC022
:100AD80076F074C073F075C074F076C075F00001DC
:100AE800766B73C078F074C079F075C07AF076C010
:100AF8007BF078C012FF000170A103D00F011181B3
:100B080002D00F011191000170A303D00F011183CE
:100B180002D00F011193000170A503D00F01118BB2
:100B280002D00F01119B000170A703D00F01118D96
:100B380002D00F01119D000170A903D00F01118F80
:100B480002D00F01119F6EC073F06FC074F070C0B7
:100B580075F071C076F0160E06D00001D890763385
:100B6800753374337333E82EF8D773C078F074C0D4
:100B780079F075C07AF076C07BF0000178510001F9
:100B8800786F796B7A6B7B6B78C010FF050E00016C
:100B98007719D8A41200F70E00017219D8A4120010
:100BA8000F01158700016E510001786F796B7A6B20
:100BB8007B6B78C017FF000E00016E150001786F7F
:100BC800FF0E00016F150001796F000E000170150E
:100BD80000017A6F000E0001711500017B6F78C06B
:100BE80073F079C074F07AC075F07BC076F074C089
:100BF80073F075C074F076C075F00001766B73C041
:100C080078F074C079F075C07AF076C07BF078C05F
:100C180016FF000170A103D00F01158102D00F014A
:100C28001591000170A303D00F01158302D00F01A5
:100C38001593000170A503D00F01158B02D00F0189
:100C4800159B000170A703D00F01158D02D00F016D
:100C5800159D000170A903D00F01158F02D00F0157
:100C6800159F6EC073F06FC074F070C075F071C0DE
:100C780076F0160E06D00001D890763375337433AB
:100C88007333E82EF8D773C078F074C079F075C064
:100C98007AF076C07BF0000178510001786F796BAB
:100CA8007A6B7B6B78C014FF12000F0140B73FD1FD
:100CB80074C045FF000175AD03D00F01458D02D00A
:100CC8000F01459D000175A779D000016E51000103
:100CD8007A6F7B6B7C6B7D6B7AC044FF000E0001E2
:100CE8006E1500017A6FFF0E00016F1500017B6F12
:100CF800000E0001701500017C6F000E00017115D7
:100D080000017D6F7AC076F07BC077F07CC078F008
:100D18007DC079F077C076F078C077F079C078F048
:100D28000001796B76C07AF077C07BF078C07CF0F0
:100D380079C07DF07AC043FF000E0F01426F0F01AA
:100D48004287000170A102D00F014281000170A307
:100D580002D00F014283000170A502D00F01428B1F
:100D6800000170A702D00F01428D000170A902D0C6
:100D78000F01428F6EC076F06FC077F070C078F0C8
:100D880071C079F0160E06D00001D8907933783307
:100D980077337633E82EF8D776C07AF077C07BF0D1
:100DA80078C07CF079C07DF000017A5100017A6F3B
:100DB8007B6B7C6B7D6B7AC041FF59D00F014297EA
:100DC8006EC076F06FC077F070C078F071C079F0BF
:100DD800040E06D00001D890793378337733763310
:100DE800E82EF8D776C07AF077C07BF078C07CF030
:100DF80079C07DF000017A5100017A6F7B6B7C6BC2
:100E08007D6B7AC041FF070E00016E1500017A6FF5
:100E1800000E00016F1500017B6F000E00017015B8
:100E280000017C6F000E0001711500017D6F7AC012
:100E380076F07BC077F07CC078F07DC079F0050E45
:100E4800D89000017637773778377937E82EF8D792
:100E580076C07AF077C07BF078C07CF079C07DF0FE
:100E68000F0142511F0B0F01426F7AC042FF000170
:100E780075A103D00F01408102D00F0140910001FC
:100E880075A303D00F01408302D00F01409372C0B5
:100E9800D9FF73C0DAFFDF500F01466F000120EE63
:100EA80001F07251D9267351DA22DF500F01476FD2
:100EB800000120EE02F07251D9267351DA22DF5078
:100EC8000F01486F000120EE03F07251D9267351CB
:100ED800DA22DF500F01496F000120EE04F0725151
:100EE800D9267351DA22DF500F014A6F000120EE34
:100EF80005F07251D9267351DA22DF500F014B6F7A
:100F0800000120EE06F07251D9267351DA22DF5023
:100F18000F014C6F000120EE07F07251D926735172
:100F2800DA22DF500F014D6F0F01408712000F01C9
:100F380030B73FD174C035FF000175AD03D00F0144
:100F4800358D02D00F01359D000175A779D00001BC
:100F58006E5100017A6F7B6B7C6B7D6B7AC034FFBE
:100F6800000E00016E1500017A6FFF0E00016F156B
:100F780000017B6F000E0001701500017C6F000EF0
:100F88000001711500017D6F7AC076F07BC077F0A3
:100F98007CC078F07DC079F077C076F078C077F0C3
:100FA80079C078F00001796B76C07AF077C07BF071
:100FB80078C07CF079C07DF07AC033FF000E0F0155
:100FC800326F0F013287000170A102D00F01328108
:100FD800000170A302D00F013283000170A502D076
:100FE8000F01328B000170A702D00F01328D000172
:100FF80070A902D00F01328F6EC076F06FC077F003
:1010080070C078F071C079F0160E06D00001D89043
:101018007933783377337633E82EF8D776C07AF099
:1010280077C07BF078C07CF079C07DF000017A5100
:1010380000017A6F7B6B7C6B7D6B7AC031FF59D076
:101048000F0132976EC076F06FC077F070C078F0FD
:1010580071C079F0040E06D00001D8907933783346
:1010680077337633E82EF8D776C07AF077C07BF0FE
:1010780078C07CF079C07DF000017A5100017A6F68
:101088007B6B7C6B7D6B7AC031FF070E00016E15A0
:1010980000017A6F000E00016F1500017B6F000ED2
:1010A8000001701500017C6F000E00017115000130
:1010B8007D6F7AC076F07BC077F07CC078F07DC019
:1010C80079F0050ED8900001763777377837793779
:1010D800E82EF8D776C07AF077C07BF078C07CF03D
:1010E80079C07DF00F0132511F0B0F01326F7AC0AA
:1010F80032FF000175A103D00F01308102D00F012A
:101108003091000175A303D00F01308302D00F0185
:10111800309372C0D9FF73C0DAFFDF500F01366F0A
:10112800000120EE01F07251D9267351DA22DF5006
:101138000F01376F000120EE02F07251D92673516A
:10114800DA22DF500F01386F000120EE03F07251F0
:10115800D9267351DA22DF500F01396F000120EED2
:1011680004F07251D9267351DA22DF500F013A6F19
:10117800000120EE05F07251D9267351DA22DF50B2
:101188000F013B6F000120EE06F07251D926735112
:10119800DA22DF500F013C6F000120EE07F0725198
:1011A800D9267351DA22DF500F013D6F0F013087C6
:1011B80012000F0120B7120074C025FF000175ADA1
:1011C80003D00F01258D02D00F01259D000175A7C1
:1011D80079D000016E5100017A6F7B6B7C6B7D6B5F
:1011E8007AC024FF000E00016E1500017A6FFF0E11
:1011F80000016F1500017B6F000E000170150001E2
:101208007C6F000E0001711500017D6F7AC076F0C9
:101218007BC077F07CC078F07DC079F077C076F03D
:1012280078C077F079C078F00001796B76C07AF0F1
:1012380077C07BF078C07CF079C07DF07AC023FF5E
:10124800000E0F01226F0F012287000170A102D04A
:101258000F012281000170A302D00F012283000137
:1012680070A502D00F01228B000170A702D00F01D8
:10127800228D000170A902D00F01228F6EC076F076
:101288006FC077F070C078F071C079F0160E06D094
:101298000001D8907933783377337633E82EF8D74E
:1012A80076C07AF077C07BF078C07CF079C07DF0AA
:1012B80000017A5100017A6F7B6B7C6B7D6B7AC081
:1012C80021FF59D00F0122976EC076F06FC077F0DA
:1012D80070C078F071C079F0040E06D00001D89083
:1012E8007933783377337633E82EF8D776C07AF0C7
:1012F80077C07BF078C07CF079C07DF000017A512E
:1013080000017A6F7B6B7C6B7D6B7AC021FF070EC7
:1013180000016E1500017A6F000E00016F150001C3
:101328007B6F000E0001701500017C6F000E00013C
:10133800711500017D6F7AC076F07BC077F07CC0B4
:1013480078F07DC079F0050ED890000176377737B0
:1013580078377937E82EF8D776C07AF077C07BF0FF
:1013680078C07CF079C07DF00F0122511F0B0F016E
:10137800226F7AC022FF000175A103D00F012081DE
:1013880002D00F012091000175A303D00F01208323
:1013980002D00F01209372C0D9FF73C0DAFFDF506B
:1013A8000F01266F000120EE01F07251D92673510A
:1013B800DA22DF500F01276F000120EE02F0725190
:1013C800D9267351DA22DF500F01286F000120EE71
:1013D80003F07251D9267351DA22DF500F01296FB9
:1013E800000120EE04F07251D9267351DA22DF5041
:1013F8000F012A6F000120EE05F07251D9267351B2
:10140800DA22DF500F012B6F000120EE06F0725137
:10141800D9267351DA22DF500F012C6F000120EE1C
:1014280007F07251D9267351DA22DF500F012D6F60
:101438000F0120871200000E346E74BE348074BC15
:1014480034820F0150AF43D12AC0D9FF2BC0DAFF35
:10145800DE6ADE6ADE6ADD6A20EE04F02A50D926EA
:101468002B50DA2256CFDFFF20EE05F02A50D9267E
:101478002B50DA2257CFDFFF20EE06F02A50D9266C
:101488002B50DA2258CFDFFF20EE07F02A50D9265A
:101498002B50DA2259CFDFFF20EE08F02A50D92648
:1014A8002B50DA225ACFDFFF20EE09F02A50D92636
:1014B8002B50DA225BCFDFFF20EE0AF02A50D92624
:1014C8002B50DA225CCFDFFF20EE0BF02A50D92612
:1014D8002B50DA225DCFDFFF20EE0EF02A50D926FE
:1014E8002B50DA220F0155AD02D0010E01D0000EAB
:1014F800DF6E20EE0DF02A50D9262B50DA220F018C
:1015080055510F0BDF6E20EE0CF02A50D9262B50C8
:10151800DA220F0152A702D0010E01D0000EDF6EB1
:101528000F0152B744D051CF2CF02D6A2E6A2F6A82
:10153800030ED8902C362D362E362F36E82EF9D7B6
:101548002AC0D9FF2BC0DAFF2CC0DEFF2DC0DEFF7A
:101558002EC0DEFF2FC0DEFF0F015239E842070B15
:10156800070B356E2AC0D9FF2BC0DAFFDECF2CF06F
:10157800DECF2DF0DECF2EF0DECF2FF035502C242D
:10158800306E000E2D20316E000E2E20326E000EB1
:101598002F20336E2AC0D9FF2BC0DAFF30C0DEFF00
:1015A80031C0DEFF32C0DEFF33C0DEFF8DD054CF46
:1015B8002CF02D6A2E6A2F6A2AC0D9FF2BC0DAFFB9
:1015C8002CC0DEFF2DC0DEFF2EC0DEFF2FC0DEFFE9
:1015D80053CF2CF02D6A2E6A2F6A2EC02FF02DC003
:1015E8002EF02CC02DF02C6A2AC0D9FF2BC0DAFFB0
:1015F8002C50DE262D50DE222E50DE222F50DE22E9
:101608000F0152A10CD02AC0D9FF2BC0DAFF000E5F
:10161800DE12000EDE12010EDE12000EDE120F01C7
:1016280052A30CD02AC0D9FF2BC0DAFF000EDE125D
:10163800000EDE12020EDE12000EDE120F0152AB99
:101648000CD02AC0D9FF2BC0DAFF000EDE12000E24
:10165800DE12040EDE12000EDE120F0152AD0CD0A7
:101668002AC0D9FF2BC0DAFF000EDE12000EDE12F0
:10167800080EDE12000EDE120F0152AF0CD02AC087
:10168800D9FF2BC0DAFF000EDE12000EDE12100E9C
:10169800DE12000EDE1251CF2CF02D6A2E6A2F6A50
:1016A800150ED8902C362D362E362F36E82EF9D733
:1016B8002AC0D9FF2BC0DAFF2C50DE122D50DE12C3
:1016C8002E50DE122F50DE120F01509F120060AE16
:1016D80012002AC0D9FF2BC0DAFFDE6ADE6ADE6A92
:1016E800DD6A20EE04F02A50D9262B50DA2266CF84
:1016F800DFFF20EE05F02A50D9262B50DA2267CFDB
:10170800DFFF20EE06F02A50D9262B50DA2268CFC8
:10171800DFFF20EE07F02A50D9262B50DA2269CFB6
:10172800DFFF20EE08F02A50D9262B50DA226ACFA4
:10173800DFFF20EE09F02A50D9262B50DA226BCF92
:10174800DFFF20EE0AF02A50D9262B50DA226CCF80
:10175800DFFF20EE0BF02A50D9262B50DA226DCF6E
:10176800DFFF20EE0EF02A50D9262B50DA2265AC86
:1017780002D0010E01D0000EDF6E20EE0DF02A50CF
:10178800D9262B50DA2265500F0BDF6E20EE0CF0B5
:101798002A50D9262B50DA2262A602D0010E01D097
:1017A800000EDF6E62B643D061CF2CF02D6A2E6A30
:1017B8002F6A030ED8902C362D362E362F36E82E6B
:1017C800F9D72AC0D9FF2BC0DAFF2CC0DEFF2DC005
:1017D800DEFF2EC0DEFF2FC0DEFF6238E842070BB7
:1017E800070B356E2AC0D9FF2BC0DAFFDECF2CF0ED
:1017F800DECF2DF0DECF2EF0DECF2FF035502C24AB
:10180800306E000E2D20316E000E2E20326E000E2E
:101818002F20336E2AC0D9FF2BC0DAFF30C0DEFF7D
:1018280031C0DEFF32C0DEFF33C0DEFF88D064CFB8
:101838002CF02D6A2E6A2F6A2AC0D9FF2BC0DAFF36
:101848002CC0DEFF2DC0DEFF2EC0DEFF2FC0DEFF66
:1018580063CF2CF02D6A2E6A2F6A2EC02FF02DC070
:101868002EF02CC02DF02C6A2AC0D9FF2BC0DAFF2D
:101878002C50DE262D50DE222E50DE222F50DE2266
:1018880062A00CD02AC0D9FF2BC0DAFF000EDE12EE
:10189800000EDE12010EDE12000EDE1262A20CD065
:1018A8002AC0D9FF2BC0DAFF000EDE12000EDE12AE
:1018B800020EDE12000EDE1262AA0CD02AC0D9FF78
:1018C8002BC0DAFF000EDE12000EDE12040EDE124E
:1018D800000EDE1262AC0CD02AC0D9FF2BC0DAFF92
:1018E800000EDE12000EDE12080EDE12000EDE12F0
:1018F80062AE0CD02AC0D9FF2BC0DAFF000EDE1270
:10190800000EDE12100EDE12000EDE1261CF2CF079
:101918002D6A2E6A2F6A150ED8902C362D362E3643
:101928002F36E82EF9D72AC0D9FF2BC0DAFF2C5062
:10193800DE122D50DE122E50DE122F50DE12609E67
:10194800120000EC12F0040ED4EC13F0F90E0001B2
:10195800906F00019051FBEC13F08368010E0001B9
:101968007D6FF40E7C6F74EC13F0000E836E010E25
:1019780000017D6FF40E7C6F74EC13F08368010E28
:1019880000017D6FF40E7C6F74EC13F0000E836E13
:10199800010E00017D6FF40E7C6F74EC13F080BEB5
:1019A8005BD10001A9050001AA11D8A408D0FC0E3A
:1019B80000016E6F7F0E08EC13F0828082920001A6
:1019C800A9510001AA11D8A408D0FC0E00016E6F1D
:1019D800FF0E08EC13F0829082820001AF510001E3
:1019E800D8A402D0829082929DC088F09EC089F0CF
:1019F8009FC08AF0A0C08BF00001881F891F8A1F32
:101A08008B1F882B000E89238A238B2315500001F6
:101A1800882500018C6F16500001892100018D6F07
:101A2800175000018A2100018E6F185000018B2188
:101A380000018F6F00018F5100018E1100018D117F
:101A480005E10A0E00018C5DD8A006D1020E000146
:101A58006E6F000E6F6F000E706F000E716F000ECC
:101A68000001726F000E0001736F000E0001746FA9
:101A7800FC0E0001756F59EC06F048A0EDD04890B7
:101A88000001B0510001B32500016E6F00016F6BBA
:101A980000016F37000E0001716F020E706FA1EC2C
:101AA80011F000016E510001BC6F0001B25100013C
:101AB800886F896B0001881F891F884B892B00015B
:101AC800BC5100018A6F8B6B0001885100018A2785
:101AD8000001895100018B2300018BBFB5D00001A3
:101AE8008B5104E100018A05D8A0AED00001B251A3
:101AF8000001886F896B0001881F891F884B892B1B
:101B08000001BC510001882500016E6F000E000124
:101B1800892100016F6FACEC13F06EC0ABF06FC0A1
:101B2800ACF0000E0001716F110E706FABC06EF05B
:101B3800ACC06FF0A1EC11F06EC076F06FC077F01A
:101B4800000E0001716F110E706FABC06EF0ACC06B
:101B58006FF0A1EC11F06EC078F06FC079F091ECE5
:101B680013F00001D890763777370001D890763790
:101B7800773776C0A7F077C0A8F00001A85105E133
:101B8800020E0001A75DD8A057D00001B251000194
:101B9800886F896B0001881F891F884B892B00017A
:101BA800BC5100018A6F8B6B0001885100018A27A4
:101BB8000001895100018B2300018BBF36D0000141
:101BC8008B5104E100018A05D8A02FD00001B15142
:101BD8000001A75D000EA859D8B007D00001A75191
:101BE80000080001B1250001AF6F0001B2510001EA
:101BF800886F896B0001881F891F884B892B00011A
:101C0800BC5100018A6F8B6B0001885100018A2743
:101C18000001895100018B2300018BAF06D0000120
:101C2800B1510001A7250001AF6F0001A7510001C4
:101C3800A811D8B4B1C0AFF0AFC0B1F0AFC06EF06A
:101C480000016F6B31EC13F015C09DF016C09EF0CB
:101C580017C09FF018C0A0F047AA47B001D002D023
:101C680097EC12F004EC14F0E806D8B405D00AECAE
:101C780014F0E806D8A409D0000E00016F6F000E1A
:101C88006E6F31EC13F0808E01D0809E99C088F081
:101C98009AC089F09BC08AF09CC08BF00001881F15
:101CA800891F8A1F8B1F882B000E89238A238B2369
:101CB80015500001882500018C6F165000018921FC
:101CC80000018D6F175000018A2100018E6F185096
:101CD80000018B2100018F6F00018F5100018E11CF
:101CE80000018D1105E1650E00018C5DD8A036D08C
:101CF80047BE18D0010E00016E6F000E6F6F000E08
:101D0800706F000E716FB40E0001726F000E00014B
:101D1800736F080E0001746FFC0E0001756F59ECAB
:101D280006F0478E47AE12D047B247A607D047A461
:101D380005D0479247964794809E08D0000E000130
:101D48006F6F000E6E6F31EC13F0808E15C099F036
:101D580016C09AF017C09BF018C09CF0A1C088F07C
:101D6800A2C089F0A3C08AF0A4C08BF00001881F2C
:101D7800891F8A1F8B1F882B000E89238A238B2398
:101D880015500001882500018C6F1650000189212B
:101D980000018D6F175000018A2100018E6F1850C5
:101DA80000018B2100018F6F00018F5100018E11FE
:101DB80000018D1105E1640E00018C5DD8A0EFD5FE
:101DC8004DEC12F015C0A1F016C0A2F017C0A3F098
:101DD80018C0A4F0E4D50001776F00017705D8A4F6
:101DE80056D000017229D8A452D06EC073F06FC0CB
:101DF80074F070C075F071C076F0040E06D0000162
:101E0800D8907633753374337333E82EF8D773C0AC
:101E180078F074C079F075C07AF076C07BF0000174
:101E280078510001786F796B7A6B7B6B78C018FFFB
:101E3800070E00016E150001786F000E00016F1586
:101E48000001796F000E0001701500017A6F000E15
:101E58000001711500017B6F78C073F079C074F0D0
:101E68007AC075F07BC076F0050ED8900001733704
:101E7800743775377637E82EF8D773C078F074C0A2
:101E880079F075C07AF076C07BF078C019FF020E41
:101E980000017719D8A456D000017229D8A452D0CD
:101EA8006EC073F06FC074F070C075F071C076F0DA
:101EB800040E06D00001D89076337533743373332B
:101EC800E82EF8D773C078F074C079F075C07AF04E
:101ED80076C07BF0000178510001786F796B7A6BDE
:101EE8007B6B78C01CFF070E00016E150001786F30
:101EF800000E00016F150001796F000E00017015CA
:101F080000017A6F000E0001711500017B6F78C027
:101F180073F079C074F07AC075F07BC076F0050E66
:101F2800D89000017337743775377637E82EF8D7AD
:101F380073C078F074C079F075C07AF076C07BF021
:101F480078C01DFF00017705D8A487D0F70E0001DF
:101F58007219D8A482D000016E510001786F796B94
:101F68007A6B7B6B78C01BFF000E00016E150001B9
:101F7800786FFF0E00016F150001796F000E0001E8
:101F8800701500017A6F000E0001711500017B6F5A
:101F980078C073F079C074F07AC075F07BC076F0C1
:101FA80074C073F075C074F076C075F00001766B7C
:101FB80073C078F074C079F075C07AF076C07BF0A1
:101FC80078C01AFF000170A103D00F01198102D057
:101FD8000F011991000170A303D00F01198302D0DA
:101FE8000F011993000170A503D00F01198B02D0BE
:101FF8000F01199B000170A703D00F01198D02D0A2
:102008000F01199D000170A903D00F01198F02D08B
:102018000F01199F6EC073F06FC074F070C075F037
:1020280071C076F0160E06D00001D890763375335D
:1020380074337333E82EF8D773C078F074C079F02E
:1020480075C07AF076C07BF0000178510001786F96
:10205800796B7A6B7B6B78C018FF020E00017719D9
:10206800D8A41200F70E00017219D8A412000001BA
:102078006E510001786F796B7A6B7B6B78C01FFFAC
:10208800000E00016E150001786FFF0E00016F153C
:102098000001796F000E0001701500017A6F000EC3
:1020A8000001711500017B6F78C073F079C074F07E
:1020B8007AC075F07BC076F074C073F075C074F0A8
:1020C80076C075F00001766B73C078F074C079F053
:1020D80075C07AF076C07BF078C01EFF000170A151
:1020E80003D00F011D8102D00F011D91000170A3C3
:1020F80003D00F011D8302D00F011D93000170A5AD
:1021080003D00F011D8B02D00F011D9B000170A78A
:1021180003D00F011D8D02D00F011D9D000170A974
:1021280003D00F011D8F02D00F011D9F6EC073F0E9
:102138006FC074F070C075F071C076F0160E06D0DE
:102148000001D8907633753374337333E82EF8D79B
:1021580073C078F074C079F075C07AF076C07BF0FF
:10216800000178510001786F796B7A6B7B6B78C0CE
:102178001CFF12000001856F800EE5EC13F0000EC5
:10218800706E000E716E000E726E00017E41E842A4
:10219800C00B00017E6F00017E51701200017F515B
:1021A800701200018551711200017C39E842F80B68
:1021B80000017C6F00017C517112000180A5718CB7
:1021C800000180B1718E00017D517212000180B34F
:1021D800728C00018051600B606E00018051100B01
:1021E800FF0AD8B4608460CF50FF000E00016E6F04
:1021F800000E6F6F000E706F000E716FF70E00010A
:10220800726F010EEFEC0EF0000E00016E6F000E03
:102218006F6F000E706F000E716FF70E0001726F16
:10222800020EEFEC0EF00FD0F70E0001866F07D00C
:10223800000186690001876928D000018669F70EC8
:102248000001876F22D09F0E0001816FFF0E0001F1
:10225800826F00018051600B0001836F846B000165
:102268008151000183130001825100018413000190
:102278008451000AD8A4E1D700018351BF0AD8B419
:10228800D7D7600AD8B4D0D7D8D7000E00016E6F60
:10229800000E6F6F000E706F000E716F86C072F0C7
:1022A800000ED6EC00F0000E00016E6F000E6F6F8E
:1022B800000E706F000E716F86C072F0010ED6ECC2
:1022C80000F0000E00016E6F000E6F6F000E706F51
:1022D800000E716F87C072F0020ED6EC00F0000E8F
:1022E80000016E6F000E6F6F000E706F000E716F41
:1022F80087C072F0030ED6EC00F0000E00016E6F7E
:10230800000E6F6F000E706F000E716F87C072F055
:10231800040ED6EC00F0000E00016E6F000E6F6F19
:10232800000E706F000E716F87C072F0050ED6EC4C
:1023380000F0000EE5EC13F01200000E0001736FC0
:10234800000171AF08D00001706D711FD8B0712BFA
:10235800010E0001736F00016FAF08D000016E6DB0
:102368006F1FD8B06F2B010E0001731B000E000108
:10237800756F000E746F0001705100017111D8B4AF
:102388002CD0010E0001726F06D00001D890703772
:1023980071370001722B000171AFF7D70001D89097
:1023A800743775370001705100016E5D000171517D
:1023B80000016F59D8A00AD00001705100016E5F6A
:1023C8000001715100016F5B000174810001D89018
:1023D800713370330001722FE1D70001735100018E
:1023E800D8B405D00001746D751FD8B0752B74C0B2
:1023F8006EF075C06FF01200060E00017C6F050EBE
:1024080000017D6F010E00017E6F030E00017F6FDA
:102418009D0E0001806F040EBEEC10F0D08EF2927B
:10242800F288A492A490A382A380A592A590F28E8C
:10243800F28CF18C010EB16EA192A292630EB36E72
:10244800C00EB26EA082C280C294C296C298C29ACE
:10245800C190C182C184C186C198C19AC080C0920E
:10246800C084C096C088C08AC09E000E896E7F0E48
:10247800926E000E8A6EFB0E936E000E8B6E000E2F
:10248800946E000E8C6E000E956E000E8D6E966822
:102498001200C282C2B2FED7C4CFADF00001AE6B4B
:1024A800ADC076F0AEC077F0000E0001796F0E0E69
:1024B800786F91EC13F076C06EF077C06FF0000E75
:1024C8000001716FEB0E706FA1EC11F06EC0ADF0F2
:1024D8006FC0AEF00001AEBF08D00001AE5122E1DE
:1024E8000A0E0001AD5DD8B01200C2EC13F000096D
:1024F800D8B4FBD7010E00016E6F000E6F6F000E8F
:10250800706F000E716FB40E0001726F000E000143
:10251800736F080E0001746FFC0E0001756F59ECA3
:1025280006F012001200C2EC13F00009D8A447AA62
:1025380017D00DC06EF00EC06FF00FC070F010C055
:1025480071F0B40E0001726F000E0001736F080E77
:102558000001746FBC0E0001756F59EC06F0479AC4
:102568000F0140BD03D00F0130AD02D047801200EB
:10257800479047AC10D047AC02D0478A01D0479A61
:1025880011C00DF012C00EF013C00FF014C010F0FF
:102598004788479C1200479812000600E9CF62F06E
:1025A800EACF63F0E1CF64F0E2CF65F0D9CF66F00F
:1025B800DACF67F0F3CF68F0F4CF69F0F6CF6AF0BE
:1025C800F7CF6BF0F8CF6CF0F5CF6DF06DC0F5FF7D
:1025D8006CC0F8FF6BC0F7FF6AC0F6FF69C0F4FF74
:1025E80068C0F3FF67C0DAFF66C0D9FF65C0E2FFC5
:1025F80064C0E1FF63C0EAFF62C0E9FF61C0FBFF9E
:1026080060C0FAFF4992110000016F6FBA50C0090B
:1026180000016F15BA6EBA500F0900016E15BA6E37
:102628003F0E00016F19D8A402D095981200BF0E72
:1026380000016F19D8A403D09598959A12007F0EBF
:1026480000016F19D8B404D000016F29D8A4120072
:102658009598959A959C959E12006EC070F06FC0E3
:1026680071F0060ED890000170377137E82EFAD74E
:1026780070C072F071C073F073C0BBFF72C070F0AD
:102688000001D89070330001D8907033300E0001EB
:102698007017BA50CF0B00017011BA6E120000EE1D
:1026A80091F02B0EEE6AE806FDE1486A476A00EEF3
:1026B80001F0290EEE6AE806FDE1200EF66E280EFE
:1026C800F76E000EF86E0900F5CFBCF00900F5CFE3
:1026D800BDF049904992000EF86E0001A5EF0CF08C
:1026E800BDC076F00001776B7CC078F07DC079F0D2
:1026F80091EC13F076C0A5F077C0A6F007D0500E85
:10270800E82EFED70001A507D8A0A6070001A5510D
:102718000001A611D8B41200F2D7000176510001C9
:102728007803F3CF7AF0F4CF7BF000017651000103
:102738007903F35000017B270001775100017803EA
:10274800F35000017B277AC076F07BC077F0120047
:1027580000016FAF0ED06EC070F06FC071F0000155
:10276800701F711F704B712B70C06EF071C06FF0CD
:1027780012006EC06EF06FC06FF01200010E000103
:102788006E6F0F0140A709D00F0130A706D00F01C7
:1027980020A703D0000E00016E6F00016E511200D9
:1027A80000016E6F00016E51FB0BCA6E000ECC6EFD
:1027B8009E9200016EAF02D09D8201D09D92CA8484
:1027C800120000016E6F6EC06FFF6E50E00B0001CB
:1027D8006E19D8B41200F9D7010E2A6E60BE05D062
:1027E8000F0150BF02D0000E2A6E2A5012000001BD
:1027F8006E6F0C0EBA6ECA946EC0CBFFCA841200FC
:1028080074A402D0010E1200000E120074A202D0AD
:0A281800010E1200000E120001086C
:020000040030CA
:0E000000FF021F1EFF8281FF0FC00FE00F40A6
:00000001FF
